{
	"contracts/transaction.sol": {
		"TransactionContract": {
			"abi": [
				{
					"inputs": [
						{
							"internalType": "address",
							"name": "_cbdcTokenAddress",
							"type": "address"
						},
						{
							"internalType": "address",
							"name": "_payor",
							"type": "address"
						},
						{
							"internalType": "address",
							"name": "_recipient",
							"type": "address"
						},
						{
							"internalType": "uint256",
							"name": "_amount",
							"type": "uint256"
						},
						{
							"internalType": "string",
							"name": "_creationPeriod",
							"type": "string"
						}
					],
					"stateMutability": "nonpayable",
					"type": "constructor"
				},
				{
					"anonymous": false,
					"inputs": [],
					"name": "TransactionCancelled",
					"type": "event"
				},
				{
					"anonymous": false,
					"inputs": [
						{
							"indexed": true,
							"internalType": "address",
							"name": "payor",
							"type": "address"
						},
						{
							"indexed": true,
							"internalType": "address",
							"name": "recipient",
							"type": "address"
						},
						{
							"indexed": false,
							"internalType": "uint256",
							"name": "amount",
							"type": "uint256"
						},
						{
							"indexed": false,
							"internalType": "string",
							"name": "creationPeriod",
							"type": "string"
						}
					],
					"name": "TransactionCreated",
					"type": "event"
				},
				{
					"anonymous": false,
					"inputs": [
						{
							"indexed": false,
							"internalType": "string",
							"name": "settlementPeriod",
							"type": "string"
						}
					],
					"name": "TransactionSettled",
					"type": "event"
				},
				{
					"inputs": [],
					"name": "cancelTransaction",
					"outputs": [],
					"stateMutability": "nonpayable",
					"type": "function"
				},
				{
					"inputs": [],
					"name": "cbdcToken",
					"outputs": [
						{
							"internalType": "contract IERC20",
							"name": "",
							"type": "address"
						}
					],
					"stateMutability": "view",
					"type": "function"
				},
				{
					"inputs": [],
					"name": "getTransaction",
					"outputs": [
						{
							"internalType": "address",
							"name": "",
							"type": "address"
						},
						{
							"internalType": "address",
							"name": "",
							"type": "address"
						},
						{
							"internalType": "uint256",
							"name": "",
							"type": "uint256"
						},
						{
							"internalType": "string",
							"name": "",
							"type": "string"
						},
						{
							"internalType": "string",
							"name": "",
							"type": "string"
						},
						{
							"internalType": "bool",
							"name": "",
							"type": "bool"
						},
						{
							"internalType": "bool",
							"name": "",
							"type": "bool"
						}
					],
					"stateMutability": "view",
					"type": "function"
				},
				{
					"inputs": [
						{
							"internalType": "address",
							"name": "systemContract",
							"type": "address"
						}
					],
					"name": "loadIntoSystemContract",
					"outputs": [],
					"stateMutability": "nonpayable",
					"type": "function"
				},
				{
					"inputs": [
						{
							"internalType": "string",
							"name": "_settlementPeriod",
							"type": "string"
						}
					],
					"name": "settleTransaction",
					"outputs": [],
					"stateMutability": "nonpayable",
					"type": "function"
				},
				{
					"inputs": [],
					"name": "transaction",
					"outputs": [
						{
							"internalType": "address",
							"name": "payor",
							"type": "address"
						},
						{
							"internalType": "address",
							"name": "recipient",
							"type": "address"
						},
						{
							"internalType": "uint256",
							"name": "amount",
							"type": "uint256"
						},
						{
							"internalType": "string",
							"name": "creationPeriod",
							"type": "string"
						},
						{
							"internalType": "string",
							"name": "settlementPeriod",
							"type": "string"
						},
						{
							"internalType": "bool",
							"name": "isOpen",
							"type": "bool"
						},
						{
							"internalType": "bool",
							"name": "isCancelled",
							"type": "bool"
						}
					],
					"stateMutability": "view",
					"type": "function"
				}
			],
			"devdoc": {
				"kind": "dev",
				"methods": {},
				"version": 1
			},
			"evm": {
				"assembly": "    /* \"contracts/transaction.sol\":222:2715  contract TransactionContract {... */\n  mstore(0x40, 0x80)\n    /* \"contracts/transaction.sol\":750:1282  constructor(address _cbdcTokenAddress, address _payor, address _recipient, uint256 _amount, string memory _creationPeriod) {... */\n  callvalue\n  dup1\n  iszero\n  tag_1\n  jumpi\n  0x00\n  dup1\n  revert\ntag_1:\n  pop\n  mload(0x40)\n  sub(codesize, bytecodeSize)\n  dup1\n  bytecodeSize\n  dup4\n  codecopy\n  dup2\n  dup2\n  add\n  0x40\n  mstore\n  dup2\n  add\n  swap1\n  tag_2\n  swap2\n  swap1\n  tag_3\n  jump\t// in\ntag_2:\n    /* \"contracts/transaction.sol\":902:919  _cbdcTokenAddress */\n  dup5\n    /* \"contracts/transaction.sol\":883:892  cbdcToken */\n  0x00\n  dup1\n    /* \"contracts/transaction.sol\":883:920  cbdcToken = IERC20(_cbdcTokenAddress) */\n  0x0100\n  exp\n  dup2\n  sload\n  dup2\n  0xffffffffffffffffffffffffffffffffffffffff\n  mul\n  not\n  and\n  swap1\n  dup4\n  0xffffffffffffffffffffffffffffffffffffffff\n  and\n  mul\n  or\n  swap1\n  sstore\n  pop\n    /* \"contracts/transaction.sol\":944:1195  Transaction({... */\n  mload(0x40)\n  dup1\n  0xe0\n  add\n  0x40\n  mstore\n  dup1\n    /* \"contracts/transaction.sol\":977:983  _payor */\n  dup6\n    /* \"contracts/transaction.sol\":944:1195  Transaction({... */\n  0xffffffffffffffffffffffffffffffffffffffff\n  and\n  dup2\n  mstore\n  0x20\n  add\n    /* \"contracts/transaction.sol\":1008:1018  _recipient */\n  dup5\n    /* \"contracts/transaction.sol\":944:1195  Transaction({... */\n  0xffffffffffffffffffffffffffffffffffffffff\n  and\n  dup2\n  mstore\n  0x20\n  add\n    /* \"contracts/transaction.sol\":1040:1047  _amount */\n  dup4\n    /* \"contracts/transaction.sol\":944:1195  Transaction({... */\n  dup2\n  mstore\n  0x20\n  add\n    /* \"contracts/transaction.sol\":1077:1092  _creationPeriod */\n  dup3\n    /* \"contracts/transaction.sol\":944:1195  Transaction({... */\n  dup2\n  mstore\n  0x20\n  add\n  mload(0x40)\n  dup1\n  0x20\n  add\n  0x40\n  mstore\n  dup1\n  0x00\n  dup2\n  mstore\n  pop\n  dup2\n  mstore\n  0x20\n  add\n    /* \"contracts/transaction.sol\":1148:1152  true */\n  0x01\n    /* \"contracts/transaction.sol\":944:1195  Transaction({... */\n  iszero\n  iszero\n  dup2\n  mstore\n  0x20\n  add\n    /* \"contracts/transaction.sol\":1179:1184  false */\n  0x00\n    /* \"contracts/transaction.sol\":944:1195  Transaction({... */\n  iszero\n  iszero\n  dup2\n  mstore\n  pop\n    /* \"contracts/transaction.sol\":930:941  transaction */\n  0x01\n    /* \"contracts/transaction.sol\":930:1195  transaction = Transaction({... */\n  0x00\n  dup3\n  add\n  mload\n  dup2\n  0x00\n  add\n  exp(0x0100, 0x00)\n  dup2\n  sload\n  dup2\n  0xffffffffffffffffffffffffffffffffffffffff\n  mul\n  not\n  and\n  swap1\n  dup4\n  0xffffffffffffffffffffffffffffffffffffffff\n  and\n  mul\n  or\n  swap1\n  sstore\n  pop\n  0x20\n  dup3\n  add\n  mload\n  dup2\n  0x01\n  add\n  exp(0x0100, 0x00)\n  dup2\n  sload\n  dup2\n  0xffffffffffffffffffffffffffffffffffffffff\n  mul\n  not\n  and\n  swap1\n  dup4\n  0xffffffffffffffffffffffffffffffffffffffff\n  and\n  mul\n  or\n  swap1\n  sstore\n  pop\n  0x40\n  dup3\n  add\n  mload\n  dup2\n  0x02\n  add\n  sstore\n  0x60\n  dup3\n  add\n  mload\n  dup2\n  0x03\n  add\n  swap1\n  dup2\n  tag_6\n  swap2\n  swap1\n  tag_7\n  jump\t// in\ntag_6:\n  pop\n  0x80\n  dup3\n  add\n  mload\n  dup2\n  0x04\n  add\n  swap1\n  dup2\n  tag_8\n  swap2\n  swap1\n  tag_7\n  jump\t// in\ntag_8:\n  pop\n  0xa0\n  dup3\n  add\n  mload\n  dup2\n  0x05\n  add\n  exp(0x0100, 0x00)\n  dup2\n  sload\n  dup2\n  0xff\n  mul\n  not\n  and\n  swap1\n  dup4\n  iszero\n  iszero\n  mul\n  or\n  swap1\n  sstore\n  pop\n  0xc0\n  dup3\n  add\n  mload\n  dup2\n  0x05\n  add\n  exp(0x0100, 0x01)\n  dup2\n  sload\n  dup2\n  0xff\n  mul\n  not\n  and\n  swap1\n  dup4\n  iszero\n  iszero\n  mul\n  or\n  swap1\n  sstore\n  pop\n  swap1\n  pop\n  pop\n    /* \"contracts/transaction.sol\":1238:1248  _recipient */\n  dup3\n    /* \"contracts/transaction.sol\":1211:1275  TransactionCreated(_payor, _recipient, _amount, _creationPeriod) */\n  0xffffffffffffffffffffffffffffffffffffffff\n  and\n    /* \"contracts/transaction.sol\":1230:1236  _payor */\n  dup5\n    /* \"contracts/transaction.sol\":1211:1275  TransactionCreated(_payor, _recipient, _amount, _creationPeriod) */\n  0xffffffffffffffffffffffffffffffffffffffff\n  and\n  0xe0194f1ab5f5896441880a5bd0d2d549e1721bfdb4d5380f86514a5a17b39355\n    /* \"contracts/transaction.sol\":1250:1257  _amount */\n  dup5\n    /* \"contracts/transaction.sol\":1259:1274  _creationPeriod */\n  dup5\n    /* \"contracts/transaction.sol\":1211:1275  TransactionCreated(_payor, _recipient, _amount, _creationPeriod) */\n  mload(0x40)\n  tag_9\n  swap3\n  swap2\n  swap1\n  tag_10\n  jump\t// in\ntag_9:\n  mload(0x40)\n  dup1\n  swap2\n  sub\n  swap1\n  log3\n    /* \"contracts/transaction.sol\":750:1282  constructor(address _cbdcTokenAddress, address _payor, address _recipient, uint256 _amount, string memory _creationPeriod) {... */\n  pop\n  pop\n  pop\n  pop\n  pop\n    /* \"contracts/transaction.sol\":222:2715  contract TransactionContract {... */\n  jump(tag_11)\n    /* \"#utility.yul\":7:82   */\ntag_12:\n    /* \"#utility.yul\":40:46   */\n  0x00\n    /* \"#utility.yul\":73:75   */\n  0x40\n    /* \"#utility.yul\":67:76   */\n  mload\n    /* \"#utility.yul\":57:76   */\n  swap1\n  pop\n    /* \"#utility.yul\":7:82   */\n  swap1\n  jump\t// out\n    /* \"#utility.yul\":88:205   */\ntag_13:\n    /* \"#utility.yul\":197:198   */\n  0x00\n    /* \"#utility.yul\":194:195   */\n  dup1\n    /* \"#utility.yul\":187:199   */\n  revert\n    /* \"#utility.yul\":211:328   */\ntag_14:\n    /* \"#utility.yul\":320:321   */\n  0x00\n    /* \"#utility.yul\":317:318   */\n  dup1\n    /* \"#utility.yul\":310:322   */\n  revert\n    /* \"#utility.yul\":334:460   */\ntag_15:\n    /* \"#utility.yul\":371:378   */\n  0x00\n    /* \"#utility.yul\":411:453   */\n  0xffffffffffffffffffffffffffffffffffffffff\n    /* \"#utility.yul\":404:409   */\n  dup3\n    /* \"#utility.yul\":400:454   */\n  and\n    /* \"#utility.yul\":389:454   */\n  swap1\n  pop\n    /* \"#utility.yul\":334:460   */\n  swap2\n  swap1\n  pop\n  jump\t// out\n    /* \"#utility.yul\":466:562   */\ntag_16:\n    /* \"#utility.yul\":503:510   */\n  0x00\n    /* \"#utility.yul\":532:556   */\n  tag_59\n    /* \"#utility.yul\":550:555   */\n  dup3\n    /* \"#utility.yul\":532:556   */\n  tag_15\n  jump\t// in\ntag_59:\n    /* \"#utility.yul\":521:556   */\n  swap1\n  pop\n    /* \"#utility.yul\":466:562   */\n  swap2\n  swap1\n  pop\n  jump\t// out\n    /* \"#utility.yul\":568:690   */\ntag_17:\n    /* \"#utility.yul\":641:665   */\n  tag_61\n    /* \"#utility.yul\":659:664   */\n  dup2\n    /* \"#utility.yul\":641:665   */\n  tag_16\n  jump\t// in\ntag_61:\n    /* \"#utility.yul\":634:639   */\n  dup2\n    /* \"#utility.yul\":631:666   */\n  eq\n    /* \"#utility.yul\":621:684   */\n  tag_62\n  jumpi\n    /* \"#utility.yul\":680:681   */\n  0x00\n    /* \"#utility.yul\":677:678   */\n  dup1\n    /* \"#utility.yul\":670:682   */\n  revert\n    /* \"#utility.yul\":621:684   */\ntag_62:\n    /* \"#utility.yul\":568:690   */\n  pop\n  jump\t// out\n    /* \"#utility.yul\":696:839   */\ntag_18:\n    /* \"#utility.yul\":753:758   */\n  0x00\n    /* \"#utility.yul\":784:790   */\n  dup2\n    /* \"#utility.yul\":778:791   */\n  mload\n    /* \"#utility.yul\":769:791   */\n  swap1\n  pop\n    /* \"#utility.yul\":800:833   */\n  tag_64\n    /* \"#utility.yul\":827:832   */\n  dup2\n    /* \"#utility.yul\":800:833   */\n  tag_17\n  jump\t// in\ntag_64:\n    /* \"#utility.yul\":696:839   */\n  swap3\n  swap2\n  pop\n  pop\n  jump\t// out\n    /* \"#utility.yul\":845:922   */\ntag_19:\n    /* \"#utility.yul\":882:889   */\n  0x00\n    /* \"#utility.yul\":911:916   */\n  dup2\n    /* \"#utility.yul\":900:916   */\n  swap1\n  pop\n    /* \"#utility.yul\":845:922   */\n  swap2\n  swap1\n  pop\n  jump\t// out\n    /* \"#utility.yul\":928:1050   */\ntag_20:\n    /* \"#utility.yul\":1001:1025   */\n  tag_67\n    /* \"#utility.yul\":1019:1024   */\n  dup2\n    /* \"#utility.yul\":1001:1025   */\n  tag_19\n  jump\t// in\ntag_67:\n    /* \"#utility.yul\":994:999   */\n  dup2\n    /* \"#utility.yul\":991:1026   */\n  eq\n    /* \"#utility.yul\":981:1044   */\n  tag_68\n  jumpi\n    /* \"#utility.yul\":1040:1041   */\n  0x00\n    /* \"#utility.yul\":1037:1038   */\n  dup1\n    /* \"#utility.yul\":1030:1042   */\n  revert\n    /* \"#utility.yul\":981:1044   */\ntag_68:\n    /* \"#utility.yul\":928:1050   */\n  pop\n  jump\t// out\n    /* \"#utility.yul\":1056:1199   */\ntag_21:\n    /* \"#utility.yul\":1113:1118   */\n  0x00\n    /* \"#utility.yul\":1144:1150   */\n  dup2\n    /* \"#utility.yul\":1138:1151   */\n  mload\n    /* \"#utility.yul\":1129:1151   */\n  swap1\n  pop\n    /* \"#utility.yul\":1160:1193   */\n  tag_70\n    /* \"#utility.yul\":1187:1192   */\n  dup2\n    /* \"#utility.yul\":1160:1193   */\n  tag_20\n  jump\t// in\ntag_70:\n    /* \"#utility.yul\":1056:1199   */\n  swap3\n  swap2\n  pop\n  pop\n  jump\t// out\n    /* \"#utility.yul\":1205:1322   */\ntag_22:\n    /* \"#utility.yul\":1314:1315   */\n  0x00\n    /* \"#utility.yul\":1311:1312   */\n  dup1\n    /* \"#utility.yul\":1304:1316   */\n  revert\n    /* \"#utility.yul\":1328:1445   */\ntag_23:\n    /* \"#utility.yul\":1437:1438   */\n  0x00\n    /* \"#utility.yul\":1434:1435   */\n  dup1\n    /* \"#utility.yul\":1427:1439   */\n  revert\n    /* \"#utility.yul\":1451:1553   */\ntag_24:\n    /* \"#utility.yul\":1492:1498   */\n  0x00\n    /* \"#utility.yul\":1543:1545   */\n  0x1f\n    /* \"#utility.yul\":1539:1546   */\n  not\n    /* \"#utility.yul\":1534:1536   */\n  0x1f\n    /* \"#utility.yul\":1527:1532   */\n  dup4\n    /* \"#utility.yul\":1523:1537   */\n  add\n    /* \"#utility.yul\":1519:1547   */\n  and\n    /* \"#utility.yul\":1509:1547   */\n  swap1\n  pop\n    /* \"#utility.yul\":1451:1553   */\n  swap2\n  swap1\n  pop\n  jump\t// out\n    /* \"#utility.yul\":1559:1739   */\ntag_25:\n    /* \"#utility.yul\":1607:1684   */\n  0x4e487b7100000000000000000000000000000000000000000000000000000000\n    /* \"#utility.yul\":1604:1605   */\n  0x00\n    /* \"#utility.yul\":1597:1685   */\n  mstore\n    /* \"#utility.yul\":1704:1708   */\n  0x41\n    /* \"#utility.yul\":1701:1702   */\n  0x04\n    /* \"#utility.yul\":1694:1709   */\n  mstore\n    /* \"#utility.yul\":1728:1732   */\n  0x24\n    /* \"#utility.yul\":1725:1726   */\n  0x00\n    /* \"#utility.yul\":1718:1733   */\n  revert\n    /* \"#utility.yul\":1745:2026   */\ntag_26:\n    /* \"#utility.yul\":1828:1855   */\n  tag_76\n    /* \"#utility.yul\":1850:1854   */\n  dup3\n    /* \"#utility.yul\":1828:1855   */\n  tag_24\n  jump\t// in\ntag_76:\n    /* \"#utility.yul\":1820:1826   */\n  dup2\n    /* \"#utility.yul\":1816:1856   */\n  add\n    /* \"#utility.yul\":1958:1964   */\n  dup2\n    /* \"#utility.yul\":1946:1956   */\n  dup2\n    /* \"#utility.yul\":1943:1965   */\n  lt\n    /* \"#utility.yul\":1922:1940   */\n  0xffffffffffffffff\n    /* \"#utility.yul\":1910:1920   */\n  dup3\n    /* \"#utility.yul\":1907:1941   */\n  gt\n    /* \"#utility.yul\":1904:1966   */\n  or\n    /* \"#utility.yul\":1901:1989   */\n  iszero\n  tag_77\n  jumpi\n    /* \"#utility.yul\":1969:1987   */\n  tag_78\n  tag_25\n  jump\t// in\ntag_78:\n    /* \"#utility.yul\":1901:1989   */\ntag_77:\n    /* \"#utility.yul\":2009:2019   */\n  dup1\n    /* \"#utility.yul\":2005:2007   */\n  0x40\n    /* \"#utility.yul\":1998:2020   */\n  mstore\n    /* \"#utility.yul\":1788:2026   */\n  pop\n    /* \"#utility.yul\":1745:2026   */\n  pop\n  pop\n  jump\t// out\n    /* \"#utility.yul\":2032:2161   */\ntag_27:\n    /* \"#utility.yul\":2066:2072   */\n  0x00\n    /* \"#utility.yul\":2093:2113   */\n  tag_80\n  tag_12\n  jump\t// in\ntag_80:\n    /* \"#utility.yul\":2083:2113   */\n  swap1\n  pop\n    /* \"#utility.yul\":2122:2155   */\n  tag_81\n    /* \"#utility.yul\":2150:2154   */\n  dup3\n    /* \"#utility.yul\":2142:2148   */\n  dup3\n    /* \"#utility.yul\":2122:2155   */\n  tag_26\n  jump\t// in\ntag_81:\n    /* \"#utility.yul\":2032:2161   */\n  swap2\n  swap1\n  pop\n  jump\t// out\n    /* \"#utility.yul\":2167:2475   */\ntag_28:\n    /* \"#utility.yul\":2229:2233   */\n  0x00\n    /* \"#utility.yul\":2319:2337   */\n  0xffffffffffffffff\n    /* \"#utility.yul\":2311:2317   */\n  dup3\n    /* \"#utility.yul\":2308:2338   */\n  gt\n    /* \"#utility.yul\":2305:2361   */\n  iszero\n  tag_83\n  jumpi\n    /* \"#utility.yul\":2341:2359   */\n  tag_84\n  tag_25\n  jump\t// in\ntag_84:\n    /* \"#utility.yul\":2305:2361   */\ntag_83:\n    /* \"#utility.yul\":2379:2408   */\n  tag_85\n    /* \"#utility.yul\":2401:2407   */\n  dup3\n    /* \"#utility.yul\":2379:2408   */\n  tag_24\n  jump\t// in\ntag_85:\n    /* \"#utility.yul\":2371:2408   */\n  swap1\n  pop\n    /* \"#utility.yul\":2463:2467   */\n  0x20\n    /* \"#utility.yul\":2457:2461   */\n  dup2\n    /* \"#utility.yul\":2453:2468   */\n  add\n    /* \"#utility.yul\":2445:2468   */\n  swap1\n  pop\n    /* \"#utility.yul\":2167:2475   */\n  swap2\n  swap1\n  pop\n  jump\t// out\n    /* \"#utility.yul\":2481:2727   */\ntag_29:\n    /* \"#utility.yul\":2562:2563   */\n  0x00\n    /* \"#utility.yul\":2572:2685   */\ntag_87:\n    /* \"#utility.yul\":2586:2592   */\n  dup4\n    /* \"#utility.yul\":2583:2584   */\n  dup2\n    /* \"#utility.yul\":2580:2593   */\n  lt\n    /* \"#utility.yul\":2572:2685   */\n  iszero\n  tag_89\n  jumpi\n    /* \"#utility.yul\":2671:2672   */\n  dup1\n    /* \"#utility.yul\":2666:2669   */\n  dup3\n    /* \"#utility.yul\":2662:2673   */\n  add\n    /* \"#utility.yul\":2656:2674   */\n  mload\n    /* \"#utility.yul\":2652:2653   */\n  dup2\n    /* \"#utility.yul\":2647:2650   */\n  dup5\n    /* \"#utility.yul\":2643:2654   */\n  add\n    /* \"#utility.yul\":2636:2675   */\n  mstore\n    /* \"#utility.yul\":2608:2610   */\n  0x20\n    /* \"#utility.yul\":2605:2606   */\n  dup2\n    /* \"#utility.yul\":2601:2611   */\n  add\n    /* \"#utility.yul\":2596:2611   */\n  swap1\n  pop\n    /* \"#utility.yul\":2572:2685   */\n  jump(tag_87)\ntag_89:\n    /* \"#utility.yul\":2719:2720   */\n  0x00\n    /* \"#utility.yul\":2710:2716   */\n  dup5\n    /* \"#utility.yul\":2705:2708   */\n  dup5\n    /* \"#utility.yul\":2701:2717   */\n  add\n    /* \"#utility.yul\":2694:2721   */\n  mstore\n    /* \"#utility.yul\":2543:2727   */\n  pop\n    /* \"#utility.yul\":2481:2727   */\n  pop\n  pop\n  pop\n  jump\t// out\n    /* \"#utility.yul\":2733:3167   */\ntag_30:\n    /* \"#utility.yul\":2822:2827   */\n  0x00\n    /* \"#utility.yul\":2847:2913   */\n  tag_91\n    /* \"#utility.yul\":2863:2912   */\n  tag_92\n    /* \"#utility.yul\":2905:2911   */\n  dup5\n    /* \"#utility.yul\":2863:2912   */\n  tag_28\n  jump\t// in\ntag_92:\n    /* \"#utility.yul\":2847:2913   */\n  tag_27\n  jump\t// in\ntag_91:\n    /* \"#utility.yul\":2838:2913   */\n  swap1\n  pop\n    /* \"#utility.yul\":2936:2942   */\n  dup3\n    /* \"#utility.yul\":2929:2934   */\n  dup2\n    /* \"#utility.yul\":2922:2943   */\n  mstore\n    /* \"#utility.yul\":2974:2978   */\n  0x20\n    /* \"#utility.yul\":2967:2972   */\n  dup2\n    /* \"#utility.yul\":2963:2979   */\n  add\n    /* \"#utility.yul\":3012:3015   */\n  dup5\n    /* \"#utility.yul\":3003:3009   */\n  dup5\n    /* \"#utility.yul\":2998:3001   */\n  dup5\n    /* \"#utility.yul\":2994:3010   */\n  add\n    /* \"#utility.yul\":2991:3016   */\n  gt\n    /* \"#utility.yul\":2988:3100   */\n  iszero\n  tag_93\n  jumpi\n    /* \"#utility.yul\":3019:3098   */\n  tag_94\n  tag_23\n  jump\t// in\ntag_94:\n    /* \"#utility.yul\":2988:3100   */\ntag_93:\n    /* \"#utility.yul\":3109:3161   */\n  tag_95\n    /* \"#utility.yul\":3154:3160   */\n  dup5\n    /* \"#utility.yul\":3149:3152   */\n  dup3\n    /* \"#utility.yul\":3144:3147   */\n  dup6\n    /* \"#utility.yul\":3109:3161   */\n  tag_29\n  jump\t// in\ntag_95:\n    /* \"#utility.yul\":2828:3167   */\n  pop\n    /* \"#utility.yul\":2733:3167   */\n  swap4\n  swap3\n  pop\n  pop\n  pop\n  jump\t// out\n    /* \"#utility.yul\":3187:3542   */\ntag_31:\n    /* \"#utility.yul\":3254:3259   */\n  0x00\n    /* \"#utility.yul\":3303:3306   */\n  dup3\n    /* \"#utility.yul\":3296:3300   */\n  0x1f\n    /* \"#utility.yul\":3288:3294   */\n  dup4\n    /* \"#utility.yul\":3284:3301   */\n  add\n    /* \"#utility.yul\":3280:3307   */\n  slt\n    /* \"#utility.yul\":3270:3392   */\n  tag_97\n  jumpi\n    /* \"#utility.yul\":3311:3390   */\n  tag_98\n  tag_22\n  jump\t// in\ntag_98:\n    /* \"#utility.yul\":3270:3392   */\ntag_97:\n    /* \"#utility.yul\":3421:3427   */\n  dup2\n    /* \"#utility.yul\":3415:3428   */\n  mload\n    /* \"#utility.yul\":3446:3536   */\n  tag_99\n    /* \"#utility.yul\":3532:3535   */\n  dup5\n    /* \"#utility.yul\":3524:3530   */\n  dup3\n    /* \"#utility.yul\":3517:3521   */\n  0x20\n    /* \"#utility.yul\":3509:3515   */\n  dup7\n    /* \"#utility.yul\":3505:3522   */\n  add\n    /* \"#utility.yul\":3446:3536   */\n  tag_30\n  jump\t// in\ntag_99:\n    /* \"#utility.yul\":3437:3536   */\n  swap2\n  pop\n    /* \"#utility.yul\":3260:3542   */\n  pop\n    /* \"#utility.yul\":3187:3542   */\n  swap3\n  swap2\n  pop\n  pop\n  jump\t// out\n    /* \"#utility.yul\":3548:4698   */\ntag_3:\n    /* \"#utility.yul\":3664:3670   */\n  0x00\n    /* \"#utility.yul\":3672:3678   */\n  dup1\n    /* \"#utility.yul\":3680:3686   */\n  0x00\n    /* \"#utility.yul\":3688:3694   */\n  dup1\n    /* \"#utility.yul\":3696:3702   */\n  0x00\n    /* \"#utility.yul\":3745:3748   */\n  0xa0\n    /* \"#utility.yul\":3733:3742   */\n  dup7\n    /* \"#utility.yul\":3724:3731   */\n  dup9\n    /* \"#utility.yul\":3720:3743   */\n  sub\n    /* \"#utility.yul\":3716:3749   */\n  slt\n    /* \"#utility.yul\":3713:3833   */\n  iszero\n  tag_101\n  jumpi\n    /* \"#utility.yul\":3752:3831   */\n  tag_102\n  tag_13\n  jump\t// in\ntag_102:\n    /* \"#utility.yul\":3713:3833   */\ntag_101:\n    /* \"#utility.yul\":3872:3873   */\n  0x00\n    /* \"#utility.yul\":3897:3961   */\n  tag_103\n    /* \"#utility.yul\":3953:3960   */\n  dup9\n    /* \"#utility.yul\":3944:3950   */\n  dup3\n    /* \"#utility.yul\":3933:3942   */\n  dup10\n    /* \"#utility.yul\":3929:3951   */\n  add\n    /* \"#utility.yul\":3897:3961   */\n  tag_18\n  jump\t// in\ntag_103:\n    /* \"#utility.yul\":3887:3961   */\n  swap6\n  pop\n    /* \"#utility.yul\":3843:3971   */\n  pop\n    /* \"#utility.yul\":4010:4012   */\n  0x20\n    /* \"#utility.yul\":4036:4100   */\n  tag_104\n    /* \"#utility.yul\":4092:4099   */\n  dup9\n    /* \"#utility.yul\":4083:4089   */\n  dup3\n    /* \"#utility.yul\":4072:4081   */\n  dup10\n    /* \"#utility.yul\":4068:4090   */\n  add\n    /* \"#utility.yul\":4036:4100   */\n  tag_18\n  jump\t// in\ntag_104:\n    /* \"#utility.yul\":4026:4100   */\n  swap5\n  pop\n    /* \"#utility.yul\":3981:4110   */\n  pop\n    /* \"#utility.yul\":4149:4151   */\n  0x40\n    /* \"#utility.yul\":4175:4239   */\n  tag_105\n    /* \"#utility.yul\":4231:4238   */\n  dup9\n    /* \"#utility.yul\":4222:4228   */\n  dup3\n    /* \"#utility.yul\":4211:4220   */\n  dup10\n    /* \"#utility.yul\":4207:4229   */\n  add\n    /* \"#utility.yul\":4175:4239   */\n  tag_18\n  jump\t// in\ntag_105:\n    /* \"#utility.yul\":4165:4239   */\n  swap4\n  pop\n    /* \"#utility.yul\":4120:4249   */\n  pop\n    /* \"#utility.yul\":4288:4290   */\n  0x60\n    /* \"#utility.yul\":4314:4378   */\n  tag_106\n    /* \"#utility.yul\":4370:4377   */\n  dup9\n    /* \"#utility.yul\":4361:4367   */\n  dup3\n    /* \"#utility.yul\":4350:4359   */\n  dup10\n    /* \"#utility.yul\":4346:4368   */\n  add\n    /* \"#utility.yul\":4314:4378   */\n  tag_21\n  jump\t// in\ntag_106:\n    /* \"#utility.yul\":4304:4378   */\n  swap3\n  pop\n    /* \"#utility.yul\":4259:4388   */\n  pop\n    /* \"#utility.yul\":4448:4451   */\n  0x80\n    /* \"#utility.yul\":4437:4446   */\n  dup7\n    /* \"#utility.yul\":4433:4452   */\n  add\n    /* \"#utility.yul\":4427:4453   */\n  mload\n    /* \"#utility.yul\":4480:4498   */\n  0xffffffffffffffff\n    /* \"#utility.yul\":4472:4478   */\n  dup2\n    /* \"#utility.yul\":4469:4499   */\n  gt\n    /* \"#utility.yul\":4466:4583   */\n  iszero\n  tag_107\n  jumpi\n    /* \"#utility.yul\":4502:4581   */\n  tag_108\n  tag_14\n  jump\t// in\ntag_108:\n    /* \"#utility.yul\":4466:4583   */\ntag_107:\n    /* \"#utility.yul\":4607:4681   */\n  tag_109\n    /* \"#utility.yul\":4673:4680   */\n  dup9\n    /* \"#utility.yul\":4664:4670   */\n  dup3\n    /* \"#utility.yul\":4653:4662   */\n  dup10\n    /* \"#utility.yul\":4649:4671   */\n  add\n    /* \"#utility.yul\":4607:4681   */\n  tag_31\n  jump\t// in\ntag_109:\n    /* \"#utility.yul\":4597:4681   */\n  swap2\n  pop\n    /* \"#utility.yul\":4398:4691   */\n  pop\n    /* \"#utility.yul\":3548:4698   */\n  swap3\n  swap6\n  pop\n  swap3\n  swap6\n  swap1\n  swap4\n  pop\n  jump\t// out\n    /* \"#utility.yul\":4704:4803   */\ntag_32:\n    /* \"#utility.yul\":4756:4762   */\n  0x00\n    /* \"#utility.yul\":4790:4795   */\n  dup2\n    /* \"#utility.yul\":4784:4796   */\n  mload\n    /* \"#utility.yul\":4774:4796   */\n  swap1\n  pop\n    /* \"#utility.yul\":4704:4803   */\n  swap2\n  swap1\n  pop\n  jump\t// out\n    /* \"#utility.yul\":4809:4989   */\ntag_33:\n    /* \"#utility.yul\":4857:4934   */\n  0x4e487b7100000000000000000000000000000000000000000000000000000000\n    /* \"#utility.yul\":4854:4855   */\n  0x00\n    /* \"#utility.yul\":4847:4935   */\n  mstore\n    /* \"#utility.yul\":4954:4958   */\n  0x22\n    /* \"#utility.yul\":4951:4952   */\n  0x04\n    /* \"#utility.yul\":4944:4959   */\n  mstore\n    /* \"#utility.yul\":4978:4982   */\n  0x24\n    /* \"#utility.yul\":4975:4976   */\n  0x00\n    /* \"#utility.yul\":4968:4983   */\n  revert\n    /* \"#utility.yul\":4995:5315   */\ntag_34:\n    /* \"#utility.yul\":5039:5045   */\n  0x00\n    /* \"#utility.yul\":5076:5077   */\n  0x02\n    /* \"#utility.yul\":5070:5074   */\n  dup3\n    /* \"#utility.yul\":5066:5078   */\n  div\n    /* \"#utility.yul\":5056:5078   */\n  swap1\n  pop\n    /* \"#utility.yul\":5123:5124   */\n  0x01\n    /* \"#utility.yul\":5117:5121   */\n  dup3\n    /* \"#utility.yul\":5113:5125   */\n  and\n    /* \"#utility.yul\":5144:5162   */\n  dup1\n    /* \"#utility.yul\":5134:5215   */\n  tag_113\n  jumpi\n    /* \"#utility.yul\":5200:5204   */\n  0x7f\n    /* \"#utility.yul\":5192:5198   */\n  dup3\n    /* \"#utility.yul\":5188:5205   */\n  and\n    /* \"#utility.yul\":5178:5205   */\n  swap2\n  pop\n    /* \"#utility.yul\":5134:5215   */\ntag_113:\n    /* \"#utility.yul\":5262:5264   */\n  0x20\n    /* \"#utility.yul\":5254:5260   */\n  dup3\n    /* \"#utility.yul\":5251:5265   */\n  lt\n    /* \"#utility.yul\":5231:5249   */\n  dup2\n    /* \"#utility.yul\":5228:5266   */\n  sub\n    /* \"#utility.yul\":5225:5309   */\n  tag_114\n  jumpi\n    /* \"#utility.yul\":5281:5299   */\n  tag_115\n  tag_33\n  jump\t// in\ntag_115:\n    /* \"#utility.yul\":5225:5309   */\ntag_114:\n    /* \"#utility.yul\":5046:5315   */\n  pop\n    /* \"#utility.yul\":4995:5315   */\n  swap2\n  swap1\n  pop\n  jump\t// out\n    /* \"#utility.yul\":5321:5462   */\ntag_35:\n    /* \"#utility.yul\":5370:5374   */\n  0x00\n    /* \"#utility.yul\":5393:5396   */\n  dup2\n    /* \"#utility.yul\":5385:5396   */\n  swap1\n  pop\n    /* \"#utility.yul\":5416:5419   */\n  dup2\n    /* \"#utility.yul\":5413:5414   */\n  0x00\n    /* \"#utility.yul\":5406:5420   */\n  mstore\n    /* \"#utility.yul\":5450:5454   */\n  0x20\n    /* \"#utility.yul\":5447:5448   */\n  0x00\n    /* \"#utility.yul\":5437:5455   */\n  keccak256\n    /* \"#utility.yul\":5429:5455   */\n  swap1\n  pop\n    /* \"#utility.yul\":5321:5462   */\n  swap2\n  swap1\n  pop\n  jump\t// out\n    /* \"#utility.yul\":5468:5561   */\ntag_36:\n    /* \"#utility.yul\":5505:5511   */\n  0x00\n    /* \"#utility.yul\":5552:5554   */\n  0x20\n    /* \"#utility.yul\":5547:5549   */\n  0x1f\n    /* \"#utility.yul\":5540:5545   */\n  dup4\n    /* \"#utility.yul\":5536:5550   */\n  add\n    /* \"#utility.yul\":5532:5555   */\n  div\n    /* \"#utility.yul\":5522:5555   */\n  swap1\n  pop\n    /* \"#utility.yul\":5468:5561   */\n  swap2\n  swap1\n  pop\n  jump\t// out\n    /* \"#utility.yul\":5567:5674   */\ntag_37:\n    /* \"#utility.yul\":5611:5619   */\n  0x00\n    /* \"#utility.yul\":5661:5666   */\n  dup3\n    /* \"#utility.yul\":5655:5659   */\n  dup3\n    /* \"#utility.yul\":5651:5667   */\n  shl\n    /* \"#utility.yul\":5630:5667   */\n  swap1\n  pop\n    /* \"#utility.yul\":5567:5674   */\n  swap3\n  swap2\n  pop\n  pop\n  jump\t// out\n    /* \"#utility.yul\":5680:6073   */\ntag_38:\n    /* \"#utility.yul\":5749:5755   */\n  0x00\n    /* \"#utility.yul\":5799:5800   */\n  0x08\n    /* \"#utility.yul\":5787:5797   */\n  dup4\n    /* \"#utility.yul\":5783:5801   */\n  mul\n    /* \"#utility.yul\":5822:5919   */\n  tag_120\n    /* \"#utility.yul\":5852:5918   */\n  0xffffffffffffffffffffffffffffffffffffffffffffffffffffffffffffffff\n    /* \"#utility.yul\":5841:5850   */\n  dup3\n    /* \"#utility.yul\":5822:5919   */\n  tag_37\n  jump\t// in\ntag_120:\n    /* \"#utility.yul\":5940:5979   */\n  tag_121\n    /* \"#utility.yul\":5970:5978   */\n  dup7\n    /* \"#utility.yul\":5959:5968   */\n  dup4\n    /* \"#utility.yul\":5940:5979   */\n  tag_37\n  jump\t// in\ntag_121:\n    /* \"#utility.yul\":5928:5979   */\n  swap6\n  pop\n    /* \"#utility.yul\":6012:6016   */\n  dup1\n    /* \"#utility.yul\":6008:6017   */\n  not\n    /* \"#utility.yul\":6001:6006   */\n  dup5\n    /* \"#utility.yul\":5997:6018   */\n  and\n    /* \"#utility.yul\":5988:6018   */\n  swap4\n  pop\n    /* \"#utility.yul\":6061:6065   */\n  dup1\n    /* \"#utility.yul\":6051:6059   */\n  dup7\n    /* \"#utility.yul\":6047:6066   */\n  and\n    /* \"#utility.yul\":6040:6045   */\n  dup5\n    /* \"#utility.yul\":6037:6067   */\n  or\n    /* \"#utility.yul\":6027:6067   */\n  swap3\n  pop\n    /* \"#utility.yul\":5756:6073   */\n  pop\n  pop\n    /* \"#utility.yul\":5680:6073   */\n  swap4\n  swap3\n  pop\n  pop\n  pop\n  jump\t// out\n    /* \"#utility.yul\":6079:6139   */\ntag_39:\n    /* \"#utility.yul\":6107:6110   */\n  0x00\n    /* \"#utility.yul\":6128:6133   */\n  dup2\n    /* \"#utility.yul\":6121:6133   */\n  swap1\n  pop\n    /* \"#utility.yul\":6079:6139   */\n  swap2\n  swap1\n  pop\n  jump\t// out\n    /* \"#utility.yul\":6145:6287   */\ntag_40:\n    /* \"#utility.yul\":6195:6204   */\n  0x00\n    /* \"#utility.yul\":6228:6281   */\n  tag_124\n    /* \"#utility.yul\":6246:6280   */\n  tag_125\n    /* \"#utility.yul\":6255:6279   */\n  tag_126\n    /* \"#utility.yul\":6273:6278   */\n  dup5\n    /* \"#utility.yul\":6255:6279   */\n  tag_19\n  jump\t// in\ntag_126:\n    /* \"#utility.yul\":6246:6280   */\n  tag_39\n  jump\t// in\ntag_125:\n    /* \"#utility.yul\":6228:6281   */\n  tag_19\n  jump\t// in\ntag_124:\n    /* \"#utility.yul\":6215:6281   */\n  swap1\n  pop\n    /* \"#utility.yul\":6145:6287   */\n  swap2\n  swap1\n  pop\n  jump\t// out\n    /* \"#utility.yul\":6293:6368   */\ntag_41:\n    /* \"#utility.yul\":6336:6339   */\n  0x00\n    /* \"#utility.yul\":6357:6362   */\n  dup2\n    /* \"#utility.yul\":6350:6362   */\n  swap1\n  pop\n    /* \"#utility.yul\":6293:6368   */\n  swap2\n  swap1\n  pop\n  jump\t// out\n    /* \"#utility.yul\":6374:6643   */\ntag_42:\n    /* \"#utility.yul\":6484:6523   */\n  tag_129\n    /* \"#utility.yul\":6515:6522   */\n  dup4\n    /* \"#utility.yul\":6484:6523   */\n  tag_40\n  jump\t// in\ntag_129:\n    /* \"#utility.yul\":6545:6636   */\n  tag_130\n    /* \"#utility.yul\":6594:6635   */\n  tag_131\n    /* \"#utility.yul\":6618:6634   */\n  dup3\n    /* \"#utility.yul\":6594:6635   */\n  tag_41\n  jump\t// in\ntag_131:\n    /* \"#utility.yul\":6586:6592   */\n  dup5\n    /* \"#utility.yul\":6579:6583   */\n  dup5\n    /* \"#utility.yul\":6573:6584   */\n  sload\n    /* \"#utility.yul\":6545:6636   */\n  tag_38\n  jump\t// in\ntag_130:\n    /* \"#utility.yul\":6539:6543   */\n  dup3\n    /* \"#utility.yul\":6532:6637   */\n  sstore\n    /* \"#utility.yul\":6450:6643   */\n  pop\n    /* \"#utility.yul\":6374:6643   */\n  pop\n  pop\n  pop\n  jump\t// out\n    /* \"#utility.yul\":6649:6722   */\ntag_43:\n    /* \"#utility.yul\":6694:6697   */\n  0x00\n    /* \"#utility.yul\":6649:6722   */\n  swap1\n  jump\t// out\n    /* \"#utility.yul\":6728:6917   */\ntag_44:\n    /* \"#utility.yul\":6805:6837   */\n  tag_134\n  tag_43\n  jump\t// in\ntag_134:\n    /* \"#utility.yul\":6846:6911   */\n  tag_135\n    /* \"#utility.yul\":6904:6910   */\n  dup2\n    /* \"#utility.yul\":6896:6902   */\n  dup5\n    /* \"#utility.yul\":6890:6894   */\n  dup5\n    /* \"#utility.yul\":6846:6911   */\n  tag_42\n  jump\t// in\ntag_135:\n    /* \"#utility.yul\":6781:6917   */\n  pop\n    /* \"#utility.yul\":6728:6917   */\n  pop\n  pop\n  jump\t// out\n    /* \"#utility.yul\":6923:7109   */\ntag_45:\n    /* \"#utility.yul\":6983:7103   */\ntag_137:\n    /* \"#utility.yul\":7000:7003   */\n  dup2\n    /* \"#utility.yul\":6993:6998   */\n  dup2\n    /* \"#utility.yul\":6990:7004   */\n  lt\n    /* \"#utility.yul\":6983:7103   */\n  iszero\n  tag_139\n  jumpi\n    /* \"#utility.yul\":7054:7093   */\n  tag_140\n    /* \"#utility.yul\":7091:7092   */\n  0x00\n    /* \"#utility.yul\":7084:7089   */\n  dup3\n    /* \"#utility.yul\":7054:7093   */\n  tag_44\n  jump\t// in\ntag_140:\n    /* \"#utility.yul\":7027:7028   */\n  0x01\n    /* \"#utility.yul\":7020:7025   */\n  dup2\n    /* \"#utility.yul\":7016:7029   */\n  add\n    /* \"#utility.yul\":7007:7029   */\n  swap1\n  pop\n    /* \"#utility.yul\":6983:7103   */\n  jump(tag_137)\ntag_139:\n    /* \"#utility.yul\":6923:7109   */\n  pop\n  pop\n  jump\t// out\n    /* \"#utility.yul\":7115:7658   */\ntag_46:\n    /* \"#utility.yul\":7216:7218   */\n  0x1f\n    /* \"#utility.yul\":7211:7214   */\n  dup3\n    /* \"#utility.yul\":7208:7219   */\n  gt\n    /* \"#utility.yul\":7205:7651   */\n  iszero\n  tag_142\n  jumpi\n    /* \"#utility.yul\":7250:7288   */\n  tag_143\n    /* \"#utility.yul\":7282:7287   */\n  dup2\n    /* \"#utility.yul\":7250:7288   */\n  tag_35\n  jump\t// in\ntag_143:\n    /* \"#utility.yul\":7334:7363   */\n  tag_144\n    /* \"#utility.yul\":7352:7362   */\n  dup5\n    /* \"#utility.yul\":7334:7363   */\n  tag_36\n  jump\t// in\ntag_144:\n    /* \"#utility.yul\":7324:7332   */\n  dup2\n    /* \"#utility.yul\":7320:7364   */\n  add\n    /* \"#utility.yul\":7517:7519   */\n  0x20\n    /* \"#utility.yul\":7505:7515   */\n  dup6\n    /* \"#utility.yul\":7502:7520   */\n  lt\n    /* \"#utility.yul\":7499:7548   */\n  iszero\n  tag_145\n  jumpi\n    /* \"#utility.yul\":7538:7546   */\n  dup2\n    /* \"#utility.yul\":7523:7546   */\n  swap1\n  pop\n    /* \"#utility.yul\":7499:7548   */\ntag_145:\n    /* \"#utility.yul\":7561:7641   */\n  tag_146\n    /* \"#utility.yul\":7617:7639   */\n  tag_147\n    /* \"#utility.yul\":7635:7638   */\n  dup6\n    /* \"#utility.yul\":7617:7639   */\n  tag_36\n  jump\t// in\ntag_147:\n    /* \"#utility.yul\":7607:7615   */\n  dup4\n    /* \"#utility.yul\":7603:7640   */\n  add\n    /* \"#utility.yul\":7590:7601   */\n  dup3\n    /* \"#utility.yul\":7561:7641   */\n  tag_45\n  jump\t// in\ntag_146:\n    /* \"#utility.yul\":7220:7651   */\n  pop\n  pop\n    /* \"#utility.yul\":7205:7651   */\ntag_142:\n    /* \"#utility.yul\":7115:7658   */\n  pop\n  pop\n  pop\n  jump\t// out\n    /* \"#utility.yul\":7664:7781   */\ntag_47:\n    /* \"#utility.yul\":7718:7726   */\n  0x00\n    /* \"#utility.yul\":7768:7773   */\n  dup3\n    /* \"#utility.yul\":7762:7766   */\n  dup3\n    /* \"#utility.yul\":7758:7774   */\n  shr\n    /* \"#utility.yul\":7737:7774   */\n  swap1\n  pop\n    /* \"#utility.yul\":7664:7781   */\n  swap3\n  swap2\n  pop\n  pop\n  jump\t// out\n    /* \"#utility.yul\":7787:7956   */\ntag_48:\n    /* \"#utility.yul\":7831:7837   */\n  0x00\n    /* \"#utility.yul\":7864:7915   */\n  tag_150\n    /* \"#utility.yul\":7912:7913   */\n  0x00\n    /* \"#utility.yul\":7908:7914   */\n  not\n    /* \"#utility.yul\":7900:7905   */\n  dup5\n    /* \"#utility.yul\":7897:7898   */\n  0x08\n    /* \"#utility.yul\":7893:7906   */\n  mul\n    /* \"#utility.yul\":7864:7915   */\n  tag_47\n  jump\t// in\ntag_150:\n    /* \"#utility.yul\":7860:7916   */\n  not\n    /* \"#utility.yul\":7945:7949   */\n  dup1\n    /* \"#utility.yul\":7939:7943   */\n  dup4\n    /* \"#utility.yul\":7935:7950   */\n  and\n    /* \"#utility.yul\":7925:7950   */\n  swap2\n  pop\n    /* \"#utility.yul\":7838:7956   */\n  pop\n    /* \"#utility.yul\":7787:7956   */\n  swap3\n  swap2\n  pop\n  pop\n  jump\t// out\n    /* \"#utility.yul\":7961:8256   */\ntag_49:\n    /* \"#utility.yul\":8037:8041   */\n  0x00\n    /* \"#utility.yul\":8183:8212   */\n  tag_152\n    /* \"#utility.yul\":8208:8211   */\n  dup4\n    /* \"#utility.yul\":8202:8206   */\n  dup4\n    /* \"#utility.yul\":8183:8212   */\n  tag_48\n  jump\t// in\ntag_152:\n    /* \"#utility.yul\":8175:8212   */\n  swap2\n  pop\n    /* \"#utility.yul\":8245:8248   */\n  dup3\n    /* \"#utility.yul\":8242:8243   */\n  0x02\n    /* \"#utility.yul\":8238:8249   */\n  mul\n    /* \"#utility.yul\":8232:8236   */\n  dup3\n    /* \"#utility.yul\":8229:8250   */\n  or\n    /* \"#utility.yul\":8221:8250   */\n  swap1\n  pop\n    /* \"#utility.yul\":7961:8256   */\n  swap3\n  swap2\n  pop\n  pop\n  jump\t// out\n    /* \"#utility.yul\":8261:9656   */\ntag_7:\n    /* \"#utility.yul\":8378:8415   */\n  tag_154\n    /* \"#utility.yul\":8411:8414   */\n  dup3\n    /* \"#utility.yul\":8378:8415   */\n  tag_32\n  jump\t// in\ntag_154:\n    /* \"#utility.yul\":8480:8498   */\n  0xffffffffffffffff\n    /* \"#utility.yul\":8472:8478   */\n  dup2\n    /* \"#utility.yul\":8469:8499   */\n  gt\n    /* \"#utility.yul\":8466:8522   */\n  iszero\n  tag_155\n  jumpi\n    /* \"#utility.yul\":8502:8520   */\n  tag_156\n  tag_25\n  jump\t// in\ntag_156:\n    /* \"#utility.yul\":8466:8522   */\ntag_155:\n    /* \"#utility.yul\":8546:8584   */\n  tag_157\n    /* \"#utility.yul\":8578:8582   */\n  dup3\n    /* \"#utility.yul\":8572:8583   */\n  sload\n    /* \"#utility.yul\":8546:8584   */\n  tag_34\n  jump\t// in\ntag_157:\n    /* \"#utility.yul\":8631:8698   */\n  tag_158\n    /* \"#utility.yul\":8691:8697   */\n  dup3\n    /* \"#utility.yul\":8683:8689   */\n  dup3\n    /* \"#utility.yul\":8677:8681   */\n  dup6\n    /* \"#utility.yul\":8631:8698   */\n  tag_46\n  jump\t// in\ntag_158:\n    /* \"#utility.yul\":8725:8726   */\n  0x00\n    /* \"#utility.yul\":8749:8753   */\n  0x20\n    /* \"#utility.yul\":8736:8753   */\n  swap1\n  pop\n    /* \"#utility.yul\":8781:8783   */\n  0x1f\n    /* \"#utility.yul\":8773:8779   */\n  dup4\n    /* \"#utility.yul\":8770:8784   */\n  gt\n    /* \"#utility.yul\":8798:8799   */\n  0x01\n    /* \"#utility.yul\":8793:9411   */\n  dup2\n  eq\n  tag_160\n  jumpi\n    /* \"#utility.yul\":9455:9456   */\n  0x00\n    /* \"#utility.yul\":9472:9478   */\n  dup5\n    /* \"#utility.yul\":9469:9546   */\n  iszero\n  tag_161\n  jumpi\n    /* \"#utility.yul\":9521:9530   */\n  dup3\n    /* \"#utility.yul\":9516:9519   */\n  dup8\n    /* \"#utility.yul\":9512:9531   */\n  add\n    /* \"#utility.yul\":9506:9532   */\n  mload\n    /* \"#utility.yul\":9497:9532   */\n  swap1\n  pop\n    /* \"#utility.yul\":9469:9546   */\ntag_161:\n    /* \"#utility.yul\":9572:9639   */\n  tag_162\n    /* \"#utility.yul\":9632:9638   */\n  dup6\n    /* \"#utility.yul\":9625:9630   */\n  dup3\n    /* \"#utility.yul\":9572:9639   */\n  tag_49\n  jump\t// in\ntag_162:\n    /* \"#utility.yul\":9566:9570   */\n  dup7\n    /* \"#utility.yul\":9559:9640   */\n  sstore\n    /* \"#utility.yul\":9428:9650   */\n  pop\n    /* \"#utility.yul\":8763:9650   */\n  jump(tag_159)\n    /* \"#utility.yul\":8793:9411   */\ntag_160:\n    /* \"#utility.yul\":8845:8849   */\n  0x1f\n    /* \"#utility.yul\":8841:8850   */\n  not\n    /* \"#utility.yul\":8833:8839   */\n  dup5\n    /* \"#utility.yul\":8829:8851   */\n  and\n    /* \"#utility.yul\":8879:8916   */\n  tag_163\n    /* \"#utility.yul\":8911:8915   */\n  dup7\n    /* \"#utility.yul\":8879:8916   */\n  tag_35\n  jump\t// in\ntag_163:\n    /* \"#utility.yul\":8938:8939   */\n  0x00\n    /* \"#utility.yul\":8952:9160   */\ntag_164:\n    /* \"#utility.yul\":8966:8973   */\n  dup3\n    /* \"#utility.yul\":8963:8964   */\n  dup2\n    /* \"#utility.yul\":8960:8974   */\n  lt\n    /* \"#utility.yul\":8952:9160   */\n  iszero\n  tag_166\n  jumpi\n    /* \"#utility.yul\":9045:9054   */\n  dup5\n    /* \"#utility.yul\":9040:9043   */\n  dup10\n    /* \"#utility.yul\":9036:9055   */\n  add\n    /* \"#utility.yul\":9030:9056   */\n  mload\n    /* \"#utility.yul\":9022:9028   */\n  dup3\n    /* \"#utility.yul\":9015:9057   */\n  sstore\n    /* \"#utility.yul\":9096:9097   */\n  0x01\n    /* \"#utility.yul\":9088:9094   */\n  dup3\n    /* \"#utility.yul\":9084:9098   */\n  add\n    /* \"#utility.yul\":9074:9098   */\n  swap2\n  pop\n    /* \"#utility.yul\":9143:9145   */\n  0x20\n    /* \"#utility.yul\":9132:9141   */\n  dup6\n    /* \"#utility.yul\":9128:9146   */\n  add\n    /* \"#utility.yul\":9115:9146   */\n  swap5\n  pop\n    /* \"#utility.yul\":8989:8993   */\n  0x20\n    /* \"#utility.yul\":8986:8987   */\n  dup2\n    /* \"#utility.yul\":8982:8994   */\n  add\n    /* \"#utility.yul\":8977:8994   */\n  swap1\n  pop\n    /* \"#utility.yul\":8952:9160   */\n  jump(tag_164)\ntag_166:\n    /* \"#utility.yul\":9188:9194   */\n  dup7\n    /* \"#utility.yul\":9179:9186   */\n  dup4\n    /* \"#utility.yul\":9176:9195   */\n  lt\n    /* \"#utility.yul\":9173:9352   */\n  iszero\n  tag_167\n  jumpi\n    /* \"#utility.yul\":9246:9255   */\n  dup5\n    /* \"#utility.yul\":9241:9244   */\n  dup10\n    /* \"#utility.yul\":9237:9256   */\n  add\n    /* \"#utility.yul\":9231:9257   */\n  mload\n    /* \"#utility.yul\":9289:9337   */\n  tag_168\n    /* \"#utility.yul\":9331:9335   */\n  0x1f\n    /* \"#utility.yul\":9323:9329   */\n  dup10\n    /* \"#utility.yul\":9319:9336   */\n  and\n    /* \"#utility.yul\":9308:9317   */\n  dup3\n    /* \"#utility.yul\":9289:9337   */\n  tag_48\n  jump\t// in\ntag_168:\n    /* \"#utility.yul\":9281:9287   */\n  dup4\n    /* \"#utility.yul\":9274:9338   */\n  sstore\n    /* \"#utility.yul\":9196:9352   */\n  pop\n    /* \"#utility.yul\":9173:9352   */\ntag_167:\n    /* \"#utility.yul\":9398:9399   */\n  0x01\n    /* \"#utility.yul\":9394:9395   */\n  0x02\n    /* \"#utility.yul\":9386:9392   */\n  dup9\n    /* \"#utility.yul\":9382:9396   */\n  mul\n    /* \"#utility.yul\":9378:9400   */\n  add\n    /* \"#utility.yul\":9372:9376   */\n  dup9\n    /* \"#utility.yul\":9365:9401   */\n  sstore\n    /* \"#utility.yul\":8800:9411   */\n  pop\n  pop\n  pop\n    /* \"#utility.yul\":8763:9650   */\ntag_159:\n  pop\n    /* \"#utility.yul\":8353:9656   */\n  pop\n  pop\n  pop\n    /* \"#utility.yul\":8261:9656   */\n  pop\n  pop\n  jump\t// out\n    /* \"#utility.yul\":9662:9780   */\ntag_50:\n    /* \"#utility.yul\":9749:9773   */\n  tag_170\n    /* \"#utility.yul\":9767:9772   */\n  dup2\n    /* \"#utility.yul\":9749:9773   */\n  tag_19\n  jump\t// in\ntag_170:\n    /* \"#utility.yul\":9744:9747   */\n  dup3\n    /* \"#utility.yul\":9737:9774   */\n  mstore\n    /* \"#utility.yul\":9662:9780   */\n  pop\n  pop\n  jump\t// out\n    /* \"#utility.yul\":9786:9955   */\ntag_51:\n    /* \"#utility.yul\":9870:9881   */\n  0x00\n    /* \"#utility.yul\":9904:9910   */\n  dup3\n    /* \"#utility.yul\":9899:9902   */\n  dup3\n    /* \"#utility.yul\":9892:9911   */\n  mstore\n    /* \"#utility.yul\":9944:9948   */\n  0x20\n    /* \"#utility.yul\":9939:9942   */\n  dup3\n    /* \"#utility.yul\":9935:9949   */\n  add\n    /* \"#utility.yul\":9920:9949   */\n  swap1\n  pop\n    /* \"#utility.yul\":9786:9955   */\n  swap3\n  swap2\n  pop\n  pop\n  jump\t// out\n    /* \"#utility.yul\":9961:10338   */\ntag_52:\n    /* \"#utility.yul\":10049:10052   */\n  0x00\n    /* \"#utility.yul\":10077:10116   */\n  tag_173\n    /* \"#utility.yul\":10110:10115   */\n  dup3\n    /* \"#utility.yul\":10077:10116   */\n  tag_32\n  jump\t// in\ntag_173:\n    /* \"#utility.yul\":10132:10203   */\n  tag_174\n    /* \"#utility.yul\":10196:10202   */\n  dup2\n    /* \"#utility.yul\":10191:10194   */\n  dup6\n    /* \"#utility.yul\":10132:10203   */\n  tag_51\n  jump\t// in\ntag_174:\n    /* \"#utility.yul\":10125:10203   */\n  swap4\n  pop\n    /* \"#utility.yul\":10212:10277   */\n  tag_175\n    /* \"#utility.yul\":10270:10276   */\n  dup2\n    /* \"#utility.yul\":10265:10268   */\n  dup6\n    /* \"#utility.yul\":10258:10262   */\n  0x20\n    /* \"#utility.yul\":10251:10256   */\n  dup7\n    /* \"#utility.yul\":10247:10263   */\n  add\n    /* \"#utility.yul\":10212:10277   */\n  tag_29\n  jump\t// in\ntag_175:\n    /* \"#utility.yul\":10302:10331   */\n  tag_176\n    /* \"#utility.yul\":10324:10330   */\n  dup2\n    /* \"#utility.yul\":10302:10331   */\n  tag_24\n  jump\t// in\ntag_176:\n    /* \"#utility.yul\":10297:10300   */\n  dup5\n    /* \"#utility.yul\":10293:10332   */\n  add\n    /* \"#utility.yul\":10286:10332   */\n  swap2\n  pop\n    /* \"#utility.yul\":10053:10338   */\n  pop\n    /* \"#utility.yul\":9961:10338   */\n  swap3\n  swap2\n  pop\n  pop\n  jump\t// out\n    /* \"#utility.yul\":10344:10767   */\ntag_10:\n    /* \"#utility.yul\":10485:10489   */\n  0x00\n    /* \"#utility.yul\":10523:10525   */\n  0x40\n    /* \"#utility.yul\":10512:10521   */\n  dup3\n    /* \"#utility.yul\":10508:10526   */\n  add\n    /* \"#utility.yul\":10500:10526   */\n  swap1\n  pop\n    /* \"#utility.yul\":10536:10607   */\n  tag_178\n    /* \"#utility.yul\":10604:10605   */\n  0x00\n    /* \"#utility.yul\":10593:10602   */\n  dup4\n    /* \"#utility.yul\":10589:10606   */\n  add\n    /* \"#utility.yul\":10580:10586   */\n  dup6\n    /* \"#utility.yul\":10536:10607   */\n  tag_50\n  jump\t// in\ntag_178:\n    /* \"#utility.yul\":10654:10663   */\n  dup2\n    /* \"#utility.yul\":10648:10652   */\n  dup2\n    /* \"#utility.yul\":10644:10664   */\n  sub\n    /* \"#utility.yul\":10639:10641   */\n  0x20\n    /* \"#utility.yul\":10628:10637   */\n  dup4\n    /* \"#utility.yul\":10624:10642   */\n  add\n    /* \"#utility.yul\":10617:10665   */\n  mstore\n    /* \"#utility.yul\":10682:10760   */\n  tag_179\n    /* \"#utility.yul\":10755:10759   */\n  dup2\n    /* \"#utility.yul\":10746:10752   */\n  dup5\n    /* \"#utility.yul\":10682:10760   */\n  tag_52\n  jump\t// in\ntag_179:\n    /* \"#utility.yul\":10674:10760   */\n  swap1\n  pop\n    /* \"#utility.yul\":10344:10767   */\n  swap4\n  swap3\n  pop\n  pop\n  pop\n  jump\t// out\n    /* \"contracts/transaction.sol\":222:2715  contract TransactionContract {... */\ntag_11:\n  dataSize(sub_0)\n  dup1\n  dataOffset(sub_0)\n  0x00\n  codecopy\n  0x00\n  return\nstop\n\nsub_0: assembly {\n        /* \"contracts/transaction.sol\":222:2715  contract TransactionContract {... */\n      mstore(0x40, 0x80)\n      callvalue\n      dup1\n      iszero\n      tag_1\n      jumpi\n      0x00\n      dup1\n      revert\n    tag_1:\n      pop\n      jumpi(tag_2, lt(calldatasize, 0x04))\n      shr(0xe0, calldataload(0x00))\n      dup1\n      0x59705f81\n      eq\n      tag_3\n      jumpi\n      dup1\n      0x5c8cf750\n      eq\n      tag_4\n      jumpi\n      dup1\n      0xa556fabf\n      eq\n      tag_5\n      jumpi\n      dup1\n      0xc99de57e\n      eq\n      tag_6\n      jumpi\n      dup1\n      0xe045761b\n      eq\n      tag_7\n      jumpi\n      dup1\n      0xe10173b6\n      eq\n      tag_8\n      jumpi\n    tag_2:\n      0x00\n      dup1\n      revert\n        /* \"contracts/transaction.sol\":2141:2446  function getTransaction() public view returns (address, address, uint256, string memory, string memory, bool, bool) {... */\n    tag_3:\n      tag_9\n      tag_10\n      jump\t// in\n    tag_9:\n      mload(0x40)\n      tag_11\n      swap8\n      swap7\n      swap6\n      swap5\n      swap4\n      swap3\n      swap2\n      swap1\n      tag_12\n      jump\t// in\n    tag_11:\n      mload(0x40)\n      dup1\n      swap2\n      sub\n      swap1\n      return\n        /* \"contracts/transaction.sol\":1700:2135  function cancelTransaction() public {... */\n    tag_4:\n      tag_13\n      tag_14\n      jump\t// in\n    tag_13:\n      stop\n        /* \"contracts/transaction.sol\":2522:2713  function loadIntoSystemContract(address systemContract) public {... */\n    tag_5:\n      tag_15\n      0x04\n      dup1\n      calldatasize\n      sub\n      dup2\n      add\n      swap1\n      tag_16\n      swap2\n      swap1\n      tag_17\n      jump\t// in\n    tag_16:\n      tag_18\n      jump\t// in\n    tag_15:\n      stop\n        /* \"contracts/transaction.sol\":504:534  Transaction public transaction */\n    tag_6:\n      tag_19\n      tag_20\n      jump\t// in\n    tag_19:\n      mload(0x40)\n      tag_21\n      swap8\n      swap7\n      swap6\n      swap5\n      swap4\n      swap3\n      swap2\n      swap1\n      tag_12\n      jump\t// in\n    tag_21:\n      mload(0x40)\n      dup1\n      swap2\n      sub\n      swap1\n      return\n        /* \"contracts/transaction.sol\":1288:1694  function settleTransaction(string memory _settlementPeriod) public {... */\n    tag_7:\n      tag_22\n      0x04\n      dup1\n      calldatasize\n      sub\n      dup2\n      add\n      swap1\n      tag_23\n      swap2\n      swap1\n      tag_24\n      jump\t// in\n    tag_23:\n      tag_25\n      jump\t// in\n    tag_22:\n      stop\n        /* \"contracts/transaction.sol\":257:280  IERC20 public cbdcToken */\n    tag_8:\n      tag_26\n      tag_27\n      jump\t// in\n    tag_26:\n      mload(0x40)\n      tag_28\n      swap2\n      swap1\n      tag_29\n      jump\t// in\n    tag_28:\n      mload(0x40)\n      dup1\n      swap2\n      sub\n      swap1\n      return\n        /* \"contracts/transaction.sol\":2141:2446  function getTransaction() public view returns (address, address, uint256, string memory, string memory, bool, bool) {... */\n    tag_10:\n        /* \"contracts/transaction.sol\":2188:2195  address */\n      0x00\n        /* \"contracts/transaction.sol\":2197:2204  address */\n      dup1\n        /* \"contracts/transaction.sol\":2206:2213  uint256 */\n      0x00\n        /* \"contracts/transaction.sol\":2215:2228  string memory */\n      0x60\n        /* \"contracts/transaction.sol\":2230:2243  string memory */\n      dup1\n        /* \"contracts/transaction.sol\":2245:2249  bool */\n      0x00\n        /* \"contracts/transaction.sol\":2251:2255  bool */\n      dup1\n        /* \"contracts/transaction.sol\":2275:2286  transaction */\n      0x01\n        /* \"contracts/transaction.sol\":2275:2292  transaction.payor */\n      0x00\n      add\n      0x00\n      swap1\n      sload\n      swap1\n      0x0100\n      exp\n      swap1\n      div\n      0xffffffffffffffffffffffffffffffffffffffff\n      and\n        /* \"contracts/transaction.sol\":2294:2305  transaction */\n      0x01\n        /* \"contracts/transaction.sol\":2294:2315  transaction.recipient */\n      dup1\n      add\n      0x00\n      swap1\n      sload\n      swap1\n      0x0100\n      exp\n      swap1\n      div\n      0xffffffffffffffffffffffffffffffffffffffff\n      and\n        /* \"contracts/transaction.sol\":2317:2328  transaction */\n      0x01\n        /* \"contracts/transaction.sol\":2317:2335  transaction.amount */\n      0x02\n      add\n      sload\n        /* \"contracts/transaction.sol\":2337:2348  transaction */\n      0x01\n        /* \"contracts/transaction.sol\":2337:2363  transaction.creationPeriod */\n      0x03\n      add\n        /* \"contracts/transaction.sol\":2365:2376  transaction */\n      0x01\n        /* \"contracts/transaction.sol\":2365:2393  transaction.settlementPeriod */\n      0x04\n      add\n        /* \"contracts/transaction.sol\":2395:2406  transaction */\n      0x01\n        /* \"contracts/transaction.sol\":2395:2413  transaction.isOpen */\n      0x05\n      add\n      0x00\n      swap1\n      sload\n      swap1\n      0x0100\n      exp\n      swap1\n      div\n      0xff\n      and\n        /* \"contracts/transaction.sol\":2415:2426  transaction */\n      0x01\n        /* \"contracts/transaction.sol\":2415:2438  transaction.isCancelled */\n      0x05\n      add\n      0x01\n      swap1\n      sload\n      swap1\n      0x0100\n      exp\n      swap1\n      div\n      0xff\n      and\n        /* \"contracts/transaction.sol\":2267:2439  return (transaction.payor, transaction.recipient, transaction.amount, transaction.creationPeriod, transaction.settlementPeriod, transaction.isOpen, transaction.isCancelled) */\n      dup4\n      dup1\n      sload\n      tag_31\n      swap1\n      tag_32\n      jump\t// in\n    tag_31:\n      dup1\n      0x1f\n      add\n      0x20\n      dup1\n      swap2\n      div\n      mul\n      0x20\n      add\n      mload(0x40)\n      swap1\n      dup2\n      add\n      0x40\n      mstore\n      dup1\n      swap3\n      swap2\n      swap1\n      dup2\n      dup2\n      mstore\n      0x20\n      add\n      dup3\n      dup1\n      sload\n      tag_33\n      swap1\n      tag_32\n      jump\t// in\n    tag_33:\n      dup1\n      iszero\n      tag_34\n      jumpi\n      dup1\n      0x1f\n      lt\n      tag_35\n      jumpi\n      0x0100\n      dup1\n      dup4\n      sload\n      div\n      mul\n      dup4\n      mstore\n      swap2\n      0x20\n      add\n      swap2\n      jump(tag_34)\n    tag_35:\n      dup3\n      add\n      swap2\n      swap1\n      0x00\n      mstore\n      keccak256(0x00, 0x20)\n      swap1\n    tag_36:\n      dup2\n      sload\n      dup2\n      mstore\n      swap1\n      0x01\n      add\n      swap1\n      0x20\n      add\n      dup1\n      dup4\n      gt\n      tag_36\n      jumpi\n      dup3\n      swap1\n      sub\n      0x1f\n      and\n      dup3\n      add\n      swap2\n    tag_34:\n      pop\n      pop\n      pop\n      pop\n      pop\n      swap4\n      pop\n      dup3\n      dup1\n      sload\n      tag_37\n      swap1\n      tag_32\n      jump\t// in\n    tag_37:\n      dup1\n      0x1f\n      add\n      0x20\n      dup1\n      swap2\n      div\n      mul\n      0x20\n      add\n      mload(0x40)\n      swap1\n      dup2\n      add\n      0x40\n      mstore\n      dup1\n      swap3\n      swap2\n      swap1\n      dup2\n      dup2\n      mstore\n      0x20\n      add\n      dup3\n      dup1\n      sload\n      tag_38\n      swap1\n      tag_32\n      jump\t// in\n    tag_38:\n      dup1\n      iszero\n      tag_39\n      jumpi\n      dup1\n      0x1f\n      lt\n      tag_40\n      jumpi\n      0x0100\n      dup1\n      dup4\n      sload\n      div\n      mul\n      dup4\n      mstore\n      swap2\n      0x20\n      add\n      swap2\n      jump(tag_39)\n    tag_40:\n      dup3\n      add\n      swap2\n      swap1\n      0x00\n      mstore\n      keccak256(0x00, 0x20)\n      swap1\n    tag_41:\n      dup2\n      sload\n      dup2\n      mstore\n      swap1\n      0x01\n      add\n      swap1\n      0x20\n      add\n      dup1\n      dup4\n      gt\n      tag_41\n      jumpi\n      dup3\n      swap1\n      sub\n      0x1f\n      and\n      dup3\n      add\n      swap2\n    tag_39:\n      pop\n      pop\n      pop\n      pop\n      pop\n      swap3\n      pop\n      swap7\n      pop\n      swap7\n      pop\n      swap7\n      pop\n      swap7\n      pop\n      swap7\n      pop\n      swap7\n      pop\n      swap7\n      pop\n        /* \"contracts/transaction.sol\":2141:2446  function getTransaction() public view returns (address, address, uint256, string memory, string memory, bool, bool) {... */\n      swap1\n      swap2\n      swap3\n      swap4\n      swap5\n      swap6\n      swap7\n      jump\t// out\n        /* \"contracts/transaction.sol\":1700:2135  function cancelTransaction() public {... */\n    tag_14:\n        /* \"contracts/transaction.sol\":1853:1864  transaction */\n      0x01\n        /* \"contracts/transaction.sol\":1853:1871  transaction.isOpen */\n      0x05\n      add\n      0x00\n      swap1\n      sload\n      swap1\n      0x0100\n      exp\n      swap1\n      div\n      0xff\n      and\n        /* \"contracts/transaction.sol\":1845:1920  require(transaction.isOpen, \"Transaction is already settled or cancelled.\") */\n      tag_43\n      jumpi\n      mload(0x40)\n      0x08c379a000000000000000000000000000000000000000000000000000000000\n      dup2\n      mstore\n      0x04\n      add\n      tag_44\n      swap1\n      tag_45\n      jump\t// in\n    tag_44:\n      mload(0x40)\n      dup1\n      swap2\n      sub\n      swap1\n      revert\n    tag_43:\n        /* \"contracts/transaction.sol\":1951:1956  false */\n      0x00\n        /* \"contracts/transaction.sol\":1930:1941  transaction */\n      0x01\n        /* \"contracts/transaction.sol\":1930:1948  transaction.isOpen */\n      0x05\n      add\n      0x00\n        /* \"contracts/transaction.sol\":1930:1956  transaction.isOpen = false */\n      0x0100\n      exp\n      dup2\n      sload\n      dup2\n      0xff\n      mul\n      not\n      and\n      swap1\n      dup4\n      iszero\n      iszero\n      mul\n      or\n      swap1\n      sstore\n      pop\n        /* \"contracts/transaction.sol\":1992:1996  true */\n      0x01\n        /* \"contracts/transaction.sol\":1966:1977  transaction */\n      dup1\n        /* \"contracts/transaction.sol\":1966:1989  transaction.isCancelled */\n      0x05\n      add\n      0x01\n        /* \"contracts/transaction.sol\":1966:1996  transaction.isCancelled = true */\n      0x0100\n      exp\n      dup2\n      sload\n      dup2\n      0xff\n      mul\n      not\n      and\n      swap1\n      dup4\n      iszero\n      iszero\n      mul\n      or\n      swap1\n      sstore\n      pop\n        /* \"contracts/transaction.sol\":2015:2024  cbdcToken */\n      0x00\n      dup1\n      sload\n      swap1\n      0x0100\n      exp\n      swap1\n      div\n      0xffffffffffffffffffffffffffffffffffffffff\n      and\n        /* \"contracts/transaction.sol\":2015:2033  cbdcToken.transfer */\n      0xffffffffffffffffffffffffffffffffffffffff\n      and\n      0xa9059cbb\n        /* \"contracts/transaction.sol\":2034:2045  transaction */\n      0x01\n        /* \"contracts/transaction.sol\":2034:2051  transaction.payor */\n      0x00\n      add\n      0x00\n      swap1\n      sload\n      swap1\n      0x0100\n      exp\n      swap1\n      div\n      0xffffffffffffffffffffffffffffffffffffffff\n      and\n        /* \"contracts/transaction.sol\":2053:2064  transaction */\n      0x01\n        /* \"contracts/transaction.sol\":2053:2071  transaction.amount */\n      0x02\n      add\n      sload\n        /* \"contracts/transaction.sol\":2015:2072  cbdcToken.transfer(transaction.payor, transaction.amount) */\n      mload(0x40)\n      dup4\n      0xffffffff\n      and\n      0xe0\n      shl\n      dup2\n      mstore\n      0x04\n      add\n      tag_46\n      swap3\n      swap2\n      swap1\n      tag_47\n      jump\t// in\n    tag_46:\n      0x20\n      mload(0x40)\n      dup1\n      dup4\n      sub\n      dup2\n      0x00\n      dup8\n      gas\n      call\n      iszero\n      dup1\n      iszero\n      tag_49\n      jumpi\n      returndatasize\n      0x00\n      dup1\n      returndatacopy\n      revert(0x00, returndatasize)\n    tag_49:\n      pop\n      pop\n      pop\n      pop\n      mload(0x40)\n      returndatasize\n      not(0x1f)\n      0x1f\n      dup3\n      add\n      and\n      dup3\n      add\n      dup1\n      0x40\n      mstore\n      pop\n      dup2\n      add\n      swap1\n      tag_50\n      swap2\n      swap1\n      tag_51\n      jump\t// in\n    tag_50:\n        /* \"contracts/transaction.sol\":2007:2090  require(cbdcToken.transfer(transaction.payor, transaction.amount), \"Refund failed\") */\n      tag_52\n      jumpi\n      mload(0x40)\n      0x08c379a000000000000000000000000000000000000000000000000000000000\n      dup2\n      mstore\n      0x04\n      add\n      tag_53\n      swap1\n      tag_54\n      jump\t// in\n    tag_53:\n      mload(0x40)\n      dup1\n      swap2\n      sub\n      swap1\n      revert\n    tag_52:\n        /* \"contracts/transaction.sol\":2106:2128  TransactionCancelled() */\n      0x509aa6ff520579f8b18330e8ee30b3df1a12ec7edd39d052c6eacebd2eb9df00\n      mload(0x40)\n      mload(0x40)\n      dup1\n      swap2\n      sub\n      swap1\n      log1\n        /* \"contracts/transaction.sol\":1700:2135  function cancelTransaction() public {... */\n      jump\t// out\n        /* \"contracts/transaction.sol\":2522:2713  function loadIntoSystemContract(address systemContract) public {... */\n    tag_18:\n        /* \"contracts/transaction.sol\":2595:2617  ISystemContract system */\n      0x00\n        /* \"contracts/transaction.sol\":2636:2650  systemContract */\n      dup2\n        /* \"contracts/transaction.sol\":2595:2651  ISystemContract system = ISystemContract(systemContract) */\n      swap1\n      pop\n        /* \"contracts/transaction.sol\":2661:2667  system */\n      dup1\n        /* \"contracts/transaction.sol\":2661:2691  system.loadTransactionContract */\n      0xffffffffffffffffffffffffffffffffffffffff\n      and\n      0xc09a0441\n        /* \"contracts/transaction.sol\":2700:2704  this */\n      address\n        /* \"contracts/transaction.sol\":2661:2706  system.loadTransactionContract(address(this)) */\n      mload(0x40)\n      dup3\n      0xffffffff\n      and\n      0xe0\n      shl\n      dup2\n      mstore\n      0x04\n      add\n      tag_56\n      swap2\n      swap1\n      tag_57\n      jump\t// in\n    tag_56:\n      0x00\n      mload(0x40)\n      dup1\n      dup4\n      sub\n      dup2\n      0x00\n      dup8\n      dup1\n      extcodesize\n      iszero\n      dup1\n      iszero\n      tag_58\n      jumpi\n      0x00\n      dup1\n      revert\n    tag_58:\n      pop\n      gas\n      call\n      iszero\n      dup1\n      iszero\n      tag_60\n      jumpi\n      returndatasize\n      0x00\n      dup1\n      returndatacopy\n      revert(0x00, returndatasize)\n    tag_60:\n      pop\n      pop\n      pop\n      pop\n        /* \"contracts/transaction.sol\":2585:2713  {... */\n      pop\n        /* \"contracts/transaction.sol\":2522:2713  function loadIntoSystemContract(address systemContract) public {... */\n      pop\n      jump\t// out\n        /* \"contracts/transaction.sol\":504:534  Transaction public transaction */\n    tag_20:\n      0x01\n      dup1\n      0x00\n      add\n      0x00\n      swap1\n      sload\n      swap1\n      0x0100\n      exp\n      swap1\n      div\n      0xffffffffffffffffffffffffffffffffffffffff\n      and\n      swap1\n      dup1\n      0x01\n      add\n      0x00\n      swap1\n      sload\n      swap1\n      0x0100\n      exp\n      swap1\n      div\n      0xffffffffffffffffffffffffffffffffffffffff\n      and\n      swap1\n      dup1\n      0x02\n      add\n      sload\n      swap1\n      dup1\n      0x03\n      add\n      dup1\n      sload\n      tag_61\n      swap1\n      tag_32\n      jump\t// in\n    tag_61:\n      dup1\n      0x1f\n      add\n      0x20\n      dup1\n      swap2\n      div\n      mul\n      0x20\n      add\n      mload(0x40)\n      swap1\n      dup2\n      add\n      0x40\n      mstore\n      dup1\n      swap3\n      swap2\n      swap1\n      dup2\n      dup2\n      mstore\n      0x20\n      add\n      dup3\n      dup1\n      sload\n      tag_62\n      swap1\n      tag_32\n      jump\t// in\n    tag_62:\n      dup1\n      iszero\n      tag_63\n      jumpi\n      dup1\n      0x1f\n      lt\n      tag_64\n      jumpi\n      0x0100\n      dup1\n      dup4\n      sload\n      div\n      mul\n      dup4\n      mstore\n      swap2\n      0x20\n      add\n      swap2\n      jump(tag_63)\n    tag_64:\n      dup3\n      add\n      swap2\n      swap1\n      0x00\n      mstore\n      keccak256(0x00, 0x20)\n      swap1\n    tag_65:\n      dup2\n      sload\n      dup2\n      mstore\n      swap1\n      0x01\n      add\n      swap1\n      0x20\n      add\n      dup1\n      dup4\n      gt\n      tag_65\n      jumpi\n      dup3\n      swap1\n      sub\n      0x1f\n      and\n      dup3\n      add\n      swap2\n    tag_63:\n      pop\n      pop\n      pop\n      pop\n      pop\n      swap1\n      dup1\n      0x04\n      add\n      dup1\n      sload\n      tag_66\n      swap1\n      tag_32\n      jump\t// in\n    tag_66:\n      dup1\n      0x1f\n      add\n      0x20\n      dup1\n      swap2\n      div\n      mul\n      0x20\n      add\n      mload(0x40)\n      swap1\n      dup2\n      add\n      0x40\n      mstore\n      dup1\n      swap3\n      swap2\n      swap1\n      dup2\n      dup2\n      mstore\n      0x20\n      add\n      dup3\n      dup1\n      sload\n      tag_67\n      swap1\n      tag_32\n      jump\t// in\n    tag_67:\n      dup1\n      iszero\n      tag_68\n      jumpi\n      dup1\n      0x1f\n      lt\n      tag_69\n      jumpi\n      0x0100\n      dup1\n      dup4\n      sload\n      div\n      mul\n      dup4\n      mstore\n      swap2\n      0x20\n      add\n      swap2\n      jump(tag_68)\n    tag_69:\n      dup3\n      add\n      swap2\n      swap1\n      0x00\n      mstore\n      keccak256(0x00, 0x20)\n      swap1\n    tag_70:\n      dup2\n      sload\n      dup2\n      mstore\n      swap1\n      0x01\n      add\n      swap1\n      0x20\n      add\n      dup1\n      dup4\n      gt\n      tag_70\n      jumpi\n      dup3\n      swap1\n      sub\n      0x1f\n      and\n      dup3\n      add\n      swap2\n    tag_68:\n      pop\n      pop\n      pop\n      pop\n      pop\n      swap1\n      dup1\n      0x05\n      add\n      0x00\n      swap1\n      sload\n      swap1\n      0x0100\n      exp\n      swap1\n      div\n      0xff\n      and\n      swap1\n      dup1\n      0x05\n      add\n      0x01\n      swap1\n      sload\n      swap1\n      0x0100\n      exp\n      swap1\n      div\n      0xff\n      and\n      swap1\n      pop\n      dup8\n      jump\t// out\n        /* \"contracts/transaction.sol\":1288:1694  function settleTransaction(string memory _settlementPeriod) public {... */\n    tag_25:\n        /* \"contracts/transaction.sol\":1373:1384  transaction */\n      0x01\n        /* \"contracts/transaction.sol\":1373:1391  transaction.isOpen */\n      0x05\n      add\n      0x00\n      swap1\n      sload\n      swap1\n      0x0100\n      exp\n      swap1\n      div\n      0xff\n      and\n        /* \"contracts/transaction.sol\":1365:1440  require(transaction.isOpen, \"Transaction is already settled or cancelled.\") */\n      tag_72\n      jumpi\n      mload(0x40)\n      0x08c379a000000000000000000000000000000000000000000000000000000000\n      dup2\n      mstore\n      0x04\n      add\n      tag_73\n      swap1\n      tag_45\n      jump\t// in\n    tag_73:\n      mload(0x40)\n      dup1\n      swap2\n      sub\n      swap1\n      revert\n    tag_72:\n        /* \"contracts/transaction.sol\":1471:1476  false */\n      0x00\n        /* \"contracts/transaction.sol\":1450:1461  transaction */\n      0x01\n        /* \"contracts/transaction.sol\":1450:1468  transaction.isOpen */\n      0x05\n      add\n      0x00\n        /* \"contracts/transaction.sol\":1450:1476  transaction.isOpen = false */\n      0x0100\n      exp\n      dup2\n      sload\n      dup2\n      0xff\n      mul\n      not\n      and\n      swap1\n      dup4\n      iszero\n      iszero\n      mul\n      or\n      swap1\n      sstore\n      pop\n        /* \"contracts/transaction.sol\":1517:1534  _settlementPeriod */\n      dup1\n        /* \"contracts/transaction.sol\":1486:1497  transaction */\n      0x01\n        /* \"contracts/transaction.sol\":1486:1514  transaction.settlementPeriod */\n      0x04\n      add\n        /* \"contracts/transaction.sol\":1486:1534  transaction.settlementPeriod = _settlementPeriod */\n      swap1\n      dup2\n      tag_74\n      swap2\n      swap1\n      tag_75\n      jump\t// in\n    tag_74:\n      pop\n        /* \"contracts/transaction.sol\":1553:1562  cbdcToken */\n      0x00\n      dup1\n      sload\n      swap1\n      0x0100\n      exp\n      swap1\n      div\n      0xffffffffffffffffffffffffffffffffffffffff\n      and\n        /* \"contracts/transaction.sol\":1553:1571  cbdcToken.transfer */\n      0xffffffffffffffffffffffffffffffffffffffff\n      and\n      0xa9059cbb\n        /* \"contracts/transaction.sol\":1572:1583  transaction */\n      0x01\n        /* \"contracts/transaction.sol\":1572:1593  transaction.recipient */\n      dup1\n      add\n      0x00\n      swap1\n      sload\n      swap1\n      0x0100\n      exp\n      swap1\n      div\n      0xffffffffffffffffffffffffffffffffffffffff\n      and\n        /* \"contracts/transaction.sol\":1595:1606  transaction */\n      0x01\n        /* \"contracts/transaction.sol\":1595:1613  transaction.amount */\n      0x02\n      add\n      sload\n        /* \"contracts/transaction.sol\":1553:1614  cbdcToken.transfer(transaction.recipient, transaction.amount) */\n      mload(0x40)\n      dup4\n      0xffffffff\n      and\n      0xe0\n      shl\n      dup2\n      mstore\n      0x04\n      add\n      tag_76\n      swap3\n      swap2\n      swap1\n      tag_47\n      jump\t// in\n    tag_76:\n      0x20\n      mload(0x40)\n      dup1\n      dup4\n      sub\n      dup2\n      0x00\n      dup8\n      gas\n      call\n      iszero\n      dup1\n      iszero\n      tag_78\n      jumpi\n      returndatasize\n      0x00\n      dup1\n      returndatacopy\n      revert(0x00, returndatasize)\n    tag_78:\n      pop\n      pop\n      pop\n      pop\n      mload(0x40)\n      returndatasize\n      not(0x1f)\n      0x1f\n      dup3\n      add\n      and\n      dup3\n      add\n      dup1\n      0x40\n      mstore\n      pop\n      dup2\n      add\n      swap1\n      tag_79\n      swap2\n      swap1\n      tag_51\n      jump\t// in\n    tag_79:\n        /* \"contracts/transaction.sol\":1545:1634  require(cbdcToken.transfer(transaction.recipient, transaction.amount), \"Transfer failed\") */\n      tag_80\n      jumpi\n      mload(0x40)\n      0x08c379a000000000000000000000000000000000000000000000000000000000\n      dup2\n      mstore\n      0x04\n      add\n      tag_81\n      swap1\n      tag_82\n      jump\t// in\n    tag_81:\n      mload(0x40)\n      dup1\n      swap2\n      sub\n      swap1\n      revert\n    tag_80:\n        /* \"contracts/transaction.sol\":1650:1687  TransactionSettled(_settlementPeriod) */\n      0xe8f6321bf832ef7d13fdf57fec0bb0fd8fb5b3439e562bf42a001dbefbfd246d\n        /* \"contracts/transaction.sol\":1669:1686  _settlementPeriod */\n      dup2\n        /* \"contracts/transaction.sol\":1650:1687  TransactionSettled(_settlementPeriod) */\n      mload(0x40)\n      tag_83\n      swap2\n      swap1\n      tag_84\n      jump\t// in\n    tag_83:\n      mload(0x40)\n      dup1\n      swap2\n      sub\n      swap1\n      log1\n        /* \"contracts/transaction.sol\":1288:1694  function settleTransaction(string memory _settlementPeriod) public {... */\n      pop\n      jump\t// out\n        /* \"contracts/transaction.sol\":257:280  IERC20 public cbdcToken */\n    tag_27:\n      0x00\n      dup1\n      sload\n      swap1\n      0x0100\n      exp\n      swap1\n      div\n      0xffffffffffffffffffffffffffffffffffffffff\n      and\n      dup2\n      jump\t// out\n        /* \"#utility.yul\":7:133   */\n    tag_85:\n        /* \"#utility.yul\":44:51   */\n      0x00\n        /* \"#utility.yul\":84:126   */\n      0xffffffffffffffffffffffffffffffffffffffff\n        /* \"#utility.yul\":77:82   */\n      dup3\n        /* \"#utility.yul\":73:127   */\n      and\n        /* \"#utility.yul\":62:127   */\n      swap1\n      pop\n        /* \"#utility.yul\":7:133   */\n      swap2\n      swap1\n      pop\n      jump\t// out\n        /* \"#utility.yul\":139:235   */\n    tag_86:\n        /* \"#utility.yul\":176:183   */\n      0x00\n        /* \"#utility.yul\":205:229   */\n      tag_142\n        /* \"#utility.yul\":223:228   */\n      dup3\n        /* \"#utility.yul\":205:229   */\n      tag_85\n      jump\t// in\n    tag_142:\n        /* \"#utility.yul\":194:229   */\n      swap1\n      pop\n        /* \"#utility.yul\":139:235   */\n      swap2\n      swap1\n      pop\n      jump\t// out\n        /* \"#utility.yul\":241:359   */\n    tag_87:\n        /* \"#utility.yul\":328:352   */\n      tag_144\n        /* \"#utility.yul\":346:351   */\n      dup2\n        /* \"#utility.yul\":328:352   */\n      tag_86\n      jump\t// in\n    tag_144:\n        /* \"#utility.yul\":323:326   */\n      dup3\n        /* \"#utility.yul\":316:353   */\n      mstore\n        /* \"#utility.yul\":241:359   */\n      pop\n      pop\n      jump\t// out\n        /* \"#utility.yul\":365:442   */\n    tag_88:\n        /* \"#utility.yul\":402:409   */\n      0x00\n        /* \"#utility.yul\":431:436   */\n      dup2\n        /* \"#utility.yul\":420:436   */\n      swap1\n      pop\n        /* \"#utility.yul\":365:442   */\n      swap2\n      swap1\n      pop\n      jump\t// out\n        /* \"#utility.yul\":448:566   */\n    tag_89:\n        /* \"#utility.yul\":535:559   */\n      tag_147\n        /* \"#utility.yul\":553:558   */\n      dup2\n        /* \"#utility.yul\":535:559   */\n      tag_88\n      jump\t// in\n    tag_147:\n        /* \"#utility.yul\":530:533   */\n      dup3\n        /* \"#utility.yul\":523:560   */\n      mstore\n        /* \"#utility.yul\":448:566   */\n      pop\n      pop\n      jump\t// out\n        /* \"#utility.yul\":572:671   */\n    tag_90:\n        /* \"#utility.yul\":624:630   */\n      0x00\n        /* \"#utility.yul\":658:663   */\n      dup2\n        /* \"#utility.yul\":652:664   */\n      mload\n        /* \"#utility.yul\":642:664   */\n      swap1\n      pop\n        /* \"#utility.yul\":572:671   */\n      swap2\n      swap1\n      pop\n      jump\t// out\n        /* \"#utility.yul\":677:846   */\n    tag_91:\n        /* \"#utility.yul\":761:772   */\n      0x00\n        /* \"#utility.yul\":795:801   */\n      dup3\n        /* \"#utility.yul\":790:793   */\n      dup3\n        /* \"#utility.yul\":783:802   */\n      mstore\n        /* \"#utility.yul\":835:839   */\n      0x20\n        /* \"#utility.yul\":830:833   */\n      dup3\n        /* \"#utility.yul\":826:840   */\n      add\n        /* \"#utility.yul\":811:840   */\n      swap1\n      pop\n        /* \"#utility.yul\":677:846   */\n      swap3\n      swap2\n      pop\n      pop\n      jump\t// out\n        /* \"#utility.yul\":852:1098   */\n    tag_92:\n        /* \"#utility.yul\":933:934   */\n      0x00\n        /* \"#utility.yul\":943:1056   */\n    tag_151:\n        /* \"#utility.yul\":957:963   */\n      dup4\n        /* \"#utility.yul\":954:955   */\n      dup2\n        /* \"#utility.yul\":951:964   */\n      lt\n        /* \"#utility.yul\":943:1056   */\n      iszero\n      tag_153\n      jumpi\n        /* \"#utility.yul\":1042:1043   */\n      dup1\n        /* \"#utility.yul\":1037:1040   */\n      dup3\n        /* \"#utility.yul\":1033:1044   */\n      add\n        /* \"#utility.yul\":1027:1045   */\n      mload\n        /* \"#utility.yul\":1023:1024   */\n      dup2\n        /* \"#utility.yul\":1018:1021   */\n      dup5\n        /* \"#utility.yul\":1014:1025   */\n      add\n        /* \"#utility.yul\":1007:1046   */\n      mstore\n        /* \"#utility.yul\":979:981   */\n      0x20\n        /* \"#utility.yul\":976:977   */\n      dup2\n        /* \"#utility.yul\":972:982   */\n      add\n        /* \"#utility.yul\":967:982   */\n      swap1\n      pop\n        /* \"#utility.yul\":943:1056   */\n      jump(tag_151)\n    tag_153:\n        /* \"#utility.yul\":1090:1091   */\n      0x00\n        /* \"#utility.yul\":1081:1087   */\n      dup5\n        /* \"#utility.yul\":1076:1079   */\n      dup5\n        /* \"#utility.yul\":1072:1088   */\n      add\n        /* \"#utility.yul\":1065:1092   */\n      mstore\n        /* \"#utility.yul\":914:1098   */\n      pop\n        /* \"#utility.yul\":852:1098   */\n      pop\n      pop\n      pop\n      jump\t// out\n        /* \"#utility.yul\":1104:1206   */\n    tag_93:\n        /* \"#utility.yul\":1145:1151   */\n      0x00\n        /* \"#utility.yul\":1196:1198   */\n      0x1f\n        /* \"#utility.yul\":1192:1199   */\n      not\n        /* \"#utility.yul\":1187:1189   */\n      0x1f\n        /* \"#utility.yul\":1180:1185   */\n      dup4\n        /* \"#utility.yul\":1176:1190   */\n      add\n        /* \"#utility.yul\":1172:1200   */\n      and\n        /* \"#utility.yul\":1162:1200   */\n      swap1\n      pop\n        /* \"#utility.yul\":1104:1206   */\n      swap2\n      swap1\n      pop\n      jump\t// out\n        /* \"#utility.yul\":1212:1589   */\n    tag_94:\n        /* \"#utility.yul\":1300:1303   */\n      0x00\n        /* \"#utility.yul\":1328:1367   */\n      tag_156\n        /* \"#utility.yul\":1361:1366   */\n      dup3\n        /* \"#utility.yul\":1328:1367   */\n      tag_90\n      jump\t// in\n    tag_156:\n        /* \"#utility.yul\":1383:1454   */\n      tag_157\n        /* \"#utility.yul\":1447:1453   */\n      dup2\n        /* \"#utility.yul\":1442:1445   */\n      dup6\n        /* \"#utility.yul\":1383:1454   */\n      tag_91\n      jump\t// in\n    tag_157:\n        /* \"#utility.yul\":1376:1454   */\n      swap4\n      pop\n        /* \"#utility.yul\":1463:1528   */\n      tag_158\n        /* \"#utility.yul\":1521:1527   */\n      dup2\n        /* \"#utility.yul\":1516:1519   */\n      dup6\n        /* \"#utility.yul\":1509:1513   */\n      0x20\n        /* \"#utility.yul\":1502:1507   */\n      dup7\n        /* \"#utility.yul\":1498:1514   */\n      add\n        /* \"#utility.yul\":1463:1528   */\n      tag_92\n      jump\t// in\n    tag_158:\n        /* \"#utility.yul\":1553:1582   */\n      tag_159\n        /* \"#utility.yul\":1575:1581   */\n      dup2\n        /* \"#utility.yul\":1553:1582   */\n      tag_93\n      jump\t// in\n    tag_159:\n        /* \"#utility.yul\":1548:1551   */\n      dup5\n        /* \"#utility.yul\":1544:1583   */\n      add\n        /* \"#utility.yul\":1537:1583   */\n      swap2\n      pop\n        /* \"#utility.yul\":1304:1589   */\n      pop\n        /* \"#utility.yul\":1212:1589   */\n      swap3\n      swap2\n      pop\n      pop\n      jump\t// out\n        /* \"#utility.yul\":1595:1685   */\n    tag_95:\n        /* \"#utility.yul\":1629:1636   */\n      0x00\n        /* \"#utility.yul\":1672:1677   */\n      dup2\n        /* \"#utility.yul\":1665:1678   */\n      iszero\n        /* \"#utility.yul\":1658:1679   */\n      iszero\n        /* \"#utility.yul\":1647:1679   */\n      swap1\n      pop\n        /* \"#utility.yul\":1595:1685   */\n      swap2\n      swap1\n      pop\n      jump\t// out\n        /* \"#utility.yul\":1691:1800   */\n    tag_96:\n        /* \"#utility.yul\":1772:1793   */\n      tag_162\n        /* \"#utility.yul\":1787:1792   */\n      dup2\n        /* \"#utility.yul\":1772:1793   */\n      tag_95\n      jump\t// in\n    tag_162:\n        /* \"#utility.yul\":1767:1770   */\n      dup3\n        /* \"#utility.yul\":1760:1794   */\n      mstore\n        /* \"#utility.yul\":1691:1800   */\n      pop\n      pop\n      jump\t// out\n        /* \"#utility.yul\":1806:2850   */\n    tag_12:\n        /* \"#utility.yul\":2095:2099   */\n      0x00\n        /* \"#utility.yul\":2133:2136   */\n      0xe0\n        /* \"#utility.yul\":2122:2131   */\n      dup3\n        /* \"#utility.yul\":2118:2137   */\n      add\n        /* \"#utility.yul\":2110:2137   */\n      swap1\n      pop\n        /* \"#utility.yul\":2147:2218   */\n      tag_164\n        /* \"#utility.yul\":2215:2216   */\n      0x00\n        /* \"#utility.yul\":2204:2213   */\n      dup4\n        /* \"#utility.yul\":2200:2217   */\n      add\n        /* \"#utility.yul\":2191:2197   */\n      dup11\n        /* \"#utility.yul\":2147:2218   */\n      tag_87\n      jump\t// in\n    tag_164:\n        /* \"#utility.yul\":2228:2300   */\n      tag_165\n        /* \"#utility.yul\":2296:2298   */\n      0x20\n        /* \"#utility.yul\":2285:2294   */\n      dup4\n        /* \"#utility.yul\":2281:2299   */\n      add\n        /* \"#utility.yul\":2272:2278   */\n      dup10\n        /* \"#utility.yul\":2228:2300   */\n      tag_87\n      jump\t// in\n    tag_165:\n        /* \"#utility.yul\":2310:2382   */\n      tag_166\n        /* \"#utility.yul\":2378:2380   */\n      0x40\n        /* \"#utility.yul\":2367:2376   */\n      dup4\n        /* \"#utility.yul\":2363:2381   */\n      add\n        /* \"#utility.yul\":2354:2360   */\n      dup9\n        /* \"#utility.yul\":2310:2382   */\n      tag_89\n      jump\t// in\n    tag_166:\n        /* \"#utility.yul\":2429:2438   */\n      dup2\n        /* \"#utility.yul\":2423:2427   */\n      dup2\n        /* \"#utility.yul\":2419:2439   */\n      sub\n        /* \"#utility.yul\":2414:2416   */\n      0x60\n        /* \"#utility.yul\":2403:2412   */\n      dup4\n        /* \"#utility.yul\":2399:2417   */\n      add\n        /* \"#utility.yul\":2392:2440   */\n      mstore\n        /* \"#utility.yul\":2457:2535   */\n      tag_167\n        /* \"#utility.yul\":2530:2534   */\n      dup2\n        /* \"#utility.yul\":2521:2527   */\n      dup8\n        /* \"#utility.yul\":2457:2535   */\n      tag_94\n      jump\t// in\n    tag_167:\n        /* \"#utility.yul\":2449:2535   */\n      swap1\n      pop\n        /* \"#utility.yul\":2583:2592   */\n      dup2\n        /* \"#utility.yul\":2577:2581   */\n      dup2\n        /* \"#utility.yul\":2573:2593   */\n      sub\n        /* \"#utility.yul\":2567:2570   */\n      0x80\n        /* \"#utility.yul\":2556:2565   */\n      dup4\n        /* \"#utility.yul\":2552:2571   */\n      add\n        /* \"#utility.yul\":2545:2594   */\n      mstore\n        /* \"#utility.yul\":2611:2689   */\n      tag_168\n        /* \"#utility.yul\":2684:2688   */\n      dup2\n        /* \"#utility.yul\":2675:2681   */\n      dup7\n        /* \"#utility.yul\":2611:2689   */\n      tag_94\n      jump\t// in\n    tag_168:\n        /* \"#utility.yul\":2603:2689   */\n      swap1\n      pop\n        /* \"#utility.yul\":2699:2766   */\n      tag_169\n        /* \"#utility.yul\":2761:2764   */\n      0xa0\n        /* \"#utility.yul\":2750:2759   */\n      dup4\n        /* \"#utility.yul\":2746:2765   */\n      add\n        /* \"#utility.yul\":2737:2743   */\n      dup6\n        /* \"#utility.yul\":2699:2766   */\n      tag_96\n      jump\t// in\n    tag_169:\n        /* \"#utility.yul\":2776:2843   */\n      tag_170\n        /* \"#utility.yul\":2838:2841   */\n      0xc0\n        /* \"#utility.yul\":2827:2836   */\n      dup4\n        /* \"#utility.yul\":2823:2842   */\n      add\n        /* \"#utility.yul\":2814:2820   */\n      dup5\n        /* \"#utility.yul\":2776:2843   */\n      tag_96\n      jump\t// in\n    tag_170:\n        /* \"#utility.yul\":1806:2850   */\n      swap9\n      swap8\n      pop\n      pop\n      pop\n      pop\n      pop\n      pop\n      pop\n      pop\n      jump\t// out\n        /* \"#utility.yul\":2856:2931   */\n    tag_97:\n        /* \"#utility.yul\":2889:2895   */\n      0x00\n        /* \"#utility.yul\":2922:2924   */\n      0x40\n        /* \"#utility.yul\":2916:2925   */\n      mload\n        /* \"#utility.yul\":2906:2925   */\n      swap1\n      pop\n        /* \"#utility.yul\":2856:2931   */\n      swap1\n      jump\t// out\n        /* \"#utility.yul\":2937:3054   */\n    tag_98:\n        /* \"#utility.yul\":3046:3047   */\n      0x00\n        /* \"#utility.yul\":3043:3044   */\n      dup1\n        /* \"#utility.yul\":3036:3048   */\n      revert\n        /* \"#utility.yul\":3060:3177   */\n    tag_99:\n        /* \"#utility.yul\":3169:3170   */\n      0x00\n        /* \"#utility.yul\":3166:3167   */\n      dup1\n        /* \"#utility.yul\":3159:3171   */\n      revert\n        /* \"#utility.yul\":3183:3305   */\n    tag_100:\n        /* \"#utility.yul\":3256:3280   */\n      tag_175\n        /* \"#utility.yul\":3274:3279   */\n      dup2\n        /* \"#utility.yul\":3256:3280   */\n      tag_86\n      jump\t// in\n    tag_175:\n        /* \"#utility.yul\":3249:3254   */\n      dup2\n        /* \"#utility.yul\":3246:3281   */\n      eq\n        /* \"#utility.yul\":3236:3299   */\n      tag_176\n      jumpi\n        /* \"#utility.yul\":3295:3296   */\n      0x00\n        /* \"#utility.yul\":3292:3293   */\n      dup1\n        /* \"#utility.yul\":3285:3297   */\n      revert\n        /* \"#utility.yul\":3236:3299   */\n    tag_176:\n        /* \"#utility.yul\":3183:3305   */\n      pop\n      jump\t// out\n        /* \"#utility.yul\":3311:3450   */\n    tag_101:\n        /* \"#utility.yul\":3357:3362   */\n      0x00\n        /* \"#utility.yul\":3395:3401   */\n      dup2\n        /* \"#utility.yul\":3382:3402   */\n      calldataload\n        /* \"#utility.yul\":3373:3402   */\n      swap1\n      pop\n        /* \"#utility.yul\":3411:3444   */\n      tag_178\n        /* \"#utility.yul\":3438:3443   */\n      dup2\n        /* \"#utility.yul\":3411:3444   */\n      tag_100\n      jump\t// in\n    tag_178:\n        /* \"#utility.yul\":3311:3450   */\n      swap3\n      swap2\n      pop\n      pop\n      jump\t// out\n        /* \"#utility.yul\":3456:3785   */\n    tag_17:\n        /* \"#utility.yul\":3515:3521   */\n      0x00\n        /* \"#utility.yul\":3564:3566   */\n      0x20\n        /* \"#utility.yul\":3552:3561   */\n      dup3\n        /* \"#utility.yul\":3543:3550   */\n      dup5\n        /* \"#utility.yul\":3539:3562   */\n      sub\n        /* \"#utility.yul\":3535:3567   */\n      slt\n        /* \"#utility.yul\":3532:3651   */\n      iszero\n      tag_180\n      jumpi\n        /* \"#utility.yul\":3570:3649   */\n      tag_181\n      tag_98\n      jump\t// in\n    tag_181:\n        /* \"#utility.yul\":3532:3651   */\n    tag_180:\n        /* \"#utility.yul\":3690:3691   */\n      0x00\n        /* \"#utility.yul\":3715:3768   */\n      tag_182\n        /* \"#utility.yul\":3760:3767   */\n      dup5\n        /* \"#utility.yul\":3751:3757   */\n      dup3\n        /* \"#utility.yul\":3740:3749   */\n      dup6\n        /* \"#utility.yul\":3736:3758   */\n      add\n        /* \"#utility.yul\":3715:3768   */\n      tag_101\n      jump\t// in\n    tag_182:\n        /* \"#utility.yul\":3705:3768   */\n      swap2\n      pop\n        /* \"#utility.yul\":3661:3778   */\n      pop\n        /* \"#utility.yul\":3456:3785   */\n      swap3\n      swap2\n      pop\n      pop\n      jump\t// out\n        /* \"#utility.yul\":3791:3908   */\n    tag_102:\n        /* \"#utility.yul\":3900:3901   */\n      0x00\n        /* \"#utility.yul\":3897:3898   */\n      dup1\n        /* \"#utility.yul\":3890:3902   */\n      revert\n        /* \"#utility.yul\":3914:4031   */\n    tag_103:\n        /* \"#utility.yul\":4023:4024   */\n      0x00\n        /* \"#utility.yul\":4020:4021   */\n      dup1\n        /* \"#utility.yul\":4013:4025   */\n      revert\n        /* \"#utility.yul\":4037:4217   */\n    tag_104:\n        /* \"#utility.yul\":4085:4162   */\n      0x4e487b7100000000000000000000000000000000000000000000000000000000\n        /* \"#utility.yul\":4082:4083   */\n      0x00\n        /* \"#utility.yul\":4075:4163   */\n      mstore\n        /* \"#utility.yul\":4182:4186   */\n      0x41\n        /* \"#utility.yul\":4179:4180   */\n      0x04\n        /* \"#utility.yul\":4172:4187   */\n      mstore\n        /* \"#utility.yul\":4206:4210   */\n      0x24\n        /* \"#utility.yul\":4203:4204   */\n      0x00\n        /* \"#utility.yul\":4196:4211   */\n      revert\n        /* \"#utility.yul\":4223:4504   */\n    tag_105:\n        /* \"#utility.yul\":4306:4333   */\n      tag_187\n        /* \"#utility.yul\":4328:4332   */\n      dup3\n        /* \"#utility.yul\":4306:4333   */\n      tag_93\n      jump\t// in\n    tag_187:\n        /* \"#utility.yul\":4298:4304   */\n      dup2\n        /* \"#utility.yul\":4294:4334   */\n      add\n        /* \"#utility.yul\":4436:4442   */\n      dup2\n        /* \"#utility.yul\":4424:4434   */\n      dup2\n        /* \"#utility.yul\":4421:4443   */\n      lt\n        /* \"#utility.yul\":4400:4418   */\n      0xffffffffffffffff\n        /* \"#utility.yul\":4388:4398   */\n      dup3\n        /* \"#utility.yul\":4385:4419   */\n      gt\n        /* \"#utility.yul\":4382:4444   */\n      or\n        /* \"#utility.yul\":4379:4467   */\n      iszero\n      tag_188\n      jumpi\n        /* \"#utility.yul\":4447:4465   */\n      tag_189\n      tag_104\n      jump\t// in\n    tag_189:\n        /* \"#utility.yul\":4379:4467   */\n    tag_188:\n        /* \"#utility.yul\":4487:4497   */\n      dup1\n        /* \"#utility.yul\":4483:4485   */\n      0x40\n        /* \"#utility.yul\":4476:4498   */\n      mstore\n        /* \"#utility.yul\":4266:4504   */\n      pop\n        /* \"#utility.yul\":4223:4504   */\n      pop\n      pop\n      jump\t// out\n        /* \"#utility.yul\":4510:4639   */\n    tag_106:\n        /* \"#utility.yul\":4544:4550   */\n      0x00\n        /* \"#utility.yul\":4571:4591   */\n      tag_191\n      tag_97\n      jump\t// in\n    tag_191:\n        /* \"#utility.yul\":4561:4591   */\n      swap1\n      pop\n        /* \"#utility.yul\":4600:4633   */\n      tag_192\n        /* \"#utility.yul\":4628:4632   */\n      dup3\n        /* \"#utility.yul\":4620:4626   */\n      dup3\n        /* \"#utility.yul\":4600:4633   */\n      tag_105\n      jump\t// in\n    tag_192:\n        /* \"#utility.yul\":4510:4639   */\n      swap2\n      swap1\n      pop\n      jump\t// out\n        /* \"#utility.yul\":4645:4953   */\n    tag_107:\n        /* \"#utility.yul\":4707:4711   */\n      0x00\n        /* \"#utility.yul\":4797:4815   */\n      0xffffffffffffffff\n        /* \"#utility.yul\":4789:4795   */\n      dup3\n        /* \"#utility.yul\":4786:4816   */\n      gt\n        /* \"#utility.yul\":4783:4839   */\n      iszero\n      tag_194\n      jumpi\n        /* \"#utility.yul\":4819:4837   */\n      tag_195\n      tag_104\n      jump\t// in\n    tag_195:\n        /* \"#utility.yul\":4783:4839   */\n    tag_194:\n        /* \"#utility.yul\":4857:4886   */\n      tag_196\n        /* \"#utility.yul\":4879:4885   */\n      dup3\n        /* \"#utility.yul\":4857:4886   */\n      tag_93\n      jump\t// in\n    tag_196:\n        /* \"#utility.yul\":4849:4886   */\n      swap1\n      pop\n        /* \"#utility.yul\":4941:4945   */\n      0x20\n        /* \"#utility.yul\":4935:4939   */\n      dup2\n        /* \"#utility.yul\":4931:4946   */\n      add\n        /* \"#utility.yul\":4923:4946   */\n      swap1\n      pop\n        /* \"#utility.yul\":4645:4953   */\n      swap2\n      swap1\n      pop\n      jump\t// out\n        /* \"#utility.yul\":4959:5105   */\n    tag_108:\n        /* \"#utility.yul\":5056:5062   */\n      dup3\n        /* \"#utility.yul\":5051:5054   */\n      dup2\n        /* \"#utility.yul\":5046:5049   */\n      dup4\n        /* \"#utility.yul\":5033:5063   */\n      calldatacopy\n        /* \"#utility.yul\":5097:5098   */\n      0x00\n        /* \"#utility.yul\":5088:5094   */\n      dup4\n        /* \"#utility.yul\":5083:5086   */\n      dup4\n        /* \"#utility.yul\":5079:5095   */\n      add\n        /* \"#utility.yul\":5072:5099   */\n      mstore\n        /* \"#utility.yul\":4959:5105   */\n      pop\n      pop\n      pop\n      jump\t// out\n        /* \"#utility.yul\":5111:5536   */\n    tag_109:\n        /* \"#utility.yul\":5189:5194   */\n      0x00\n        /* \"#utility.yul\":5214:5280   */\n      tag_199\n        /* \"#utility.yul\":5230:5279   */\n      tag_200\n        /* \"#utility.yul\":5272:5278   */\n      dup5\n        /* \"#utility.yul\":5230:5279   */\n      tag_107\n      jump\t// in\n    tag_200:\n        /* \"#utility.yul\":5214:5280   */\n      tag_106\n      jump\t// in\n    tag_199:\n        /* \"#utility.yul\":5205:5280   */\n      swap1\n      pop\n        /* \"#utility.yul\":5303:5309   */\n      dup3\n        /* \"#utility.yul\":5296:5301   */\n      dup2\n        /* \"#utility.yul\":5289:5310   */\n      mstore\n        /* \"#utility.yul\":5341:5345   */\n      0x20\n        /* \"#utility.yul\":5334:5339   */\n      dup2\n        /* \"#utility.yul\":5330:5346   */\n      add\n        /* \"#utility.yul\":5379:5382   */\n      dup5\n        /* \"#utility.yul\":5370:5376   */\n      dup5\n        /* \"#utility.yul\":5365:5368   */\n      dup5\n        /* \"#utility.yul\":5361:5377   */\n      add\n        /* \"#utility.yul\":5358:5383   */\n      gt\n        /* \"#utility.yul\":5355:5467   */\n      iszero\n      tag_201\n      jumpi\n        /* \"#utility.yul\":5386:5465   */\n      tag_202\n      tag_103\n      jump\t// in\n    tag_202:\n        /* \"#utility.yul\":5355:5467   */\n    tag_201:\n        /* \"#utility.yul\":5476:5530   */\n      tag_203\n        /* \"#utility.yul\":5523:5529   */\n      dup5\n        /* \"#utility.yul\":5518:5521   */\n      dup3\n        /* \"#utility.yul\":5513:5516   */\n      dup6\n        /* \"#utility.yul\":5476:5530   */\n      tag_108\n      jump\t// in\n    tag_203:\n        /* \"#utility.yul\":5195:5536   */\n      pop\n        /* \"#utility.yul\":5111:5536   */\n      swap4\n      swap3\n      pop\n      pop\n      pop\n      jump\t// out\n        /* \"#utility.yul\":5556:5896   */\n    tag_110:\n        /* \"#utility.yul\":5612:5617   */\n      0x00\n        /* \"#utility.yul\":5661:5664   */\n      dup3\n        /* \"#utility.yul\":5654:5658   */\n      0x1f\n        /* \"#utility.yul\":5646:5652   */\n      dup4\n        /* \"#utility.yul\":5642:5659   */\n      add\n        /* \"#utility.yul\":5638:5665   */\n      slt\n        /* \"#utility.yul\":5628:5750   */\n      tag_205\n      jumpi\n        /* \"#utility.yul\":5669:5748   */\n      tag_206\n      tag_102\n      jump\t// in\n    tag_206:\n        /* \"#utility.yul\":5628:5750   */\n    tag_205:\n        /* \"#utility.yul\":5786:5792   */\n      dup2\n        /* \"#utility.yul\":5773:5793   */\n      calldataload\n        /* \"#utility.yul\":5811:5890   */\n      tag_207\n        /* \"#utility.yul\":5886:5889   */\n      dup5\n        /* \"#utility.yul\":5878:5884   */\n      dup3\n        /* \"#utility.yul\":5871:5875   */\n      0x20\n        /* \"#utility.yul\":5863:5869   */\n      dup7\n        /* \"#utility.yul\":5859:5876   */\n      add\n        /* \"#utility.yul\":5811:5890   */\n      tag_109\n      jump\t// in\n    tag_207:\n        /* \"#utility.yul\":5802:5890   */\n      swap2\n      pop\n        /* \"#utility.yul\":5618:5896   */\n      pop\n        /* \"#utility.yul\":5556:5896   */\n      swap3\n      swap2\n      pop\n      pop\n      jump\t// out\n        /* \"#utility.yul\":5902:6411   */\n    tag_24:\n        /* \"#utility.yul\":5971:5977   */\n      0x00\n        /* \"#utility.yul\":6020:6022   */\n      0x20\n        /* \"#utility.yul\":6008:6017   */\n      dup3\n        /* \"#utility.yul\":5999:6006   */\n      dup5\n        /* \"#utility.yul\":5995:6018   */\n      sub\n        /* \"#utility.yul\":5991:6023   */\n      slt\n        /* \"#utility.yul\":5988:6107   */\n      iszero\n      tag_209\n      jumpi\n        /* \"#utility.yul\":6026:6105   */\n      tag_210\n      tag_98\n      jump\t// in\n    tag_210:\n        /* \"#utility.yul\":5988:6107   */\n    tag_209:\n        /* \"#utility.yul\":6174:6175   */\n      0x00\n        /* \"#utility.yul\":6163:6172   */\n      dup3\n        /* \"#utility.yul\":6159:6176   */\n      add\n        /* \"#utility.yul\":6146:6177   */\n      calldataload\n        /* \"#utility.yul\":6204:6222   */\n      0xffffffffffffffff\n        /* \"#utility.yul\":6196:6202   */\n      dup2\n        /* \"#utility.yul\":6193:6223   */\n      gt\n        /* \"#utility.yul\":6190:6307   */\n      iszero\n      tag_211\n      jumpi\n        /* \"#utility.yul\":6226:6305   */\n      tag_212\n      tag_99\n      jump\t// in\n    tag_212:\n        /* \"#utility.yul\":6190:6307   */\n    tag_211:\n        /* \"#utility.yul\":6331:6394   */\n      tag_213\n        /* \"#utility.yul\":6386:6393   */\n      dup5\n        /* \"#utility.yul\":6377:6383   */\n      dup3\n        /* \"#utility.yul\":6366:6375   */\n      dup6\n        /* \"#utility.yul\":6362:6384   */\n      add\n        /* \"#utility.yul\":6331:6394   */\n      tag_110\n      jump\t// in\n    tag_213:\n        /* \"#utility.yul\":6321:6394   */\n      swap2\n      pop\n        /* \"#utility.yul\":6117:6404   */\n      pop\n        /* \"#utility.yul\":5902:6411   */\n      swap3\n      swap2\n      pop\n      pop\n      jump\t// out\n        /* \"#utility.yul\":6417:6477   */\n    tag_111:\n        /* \"#utility.yul\":6445:6448   */\n      0x00\n        /* \"#utility.yul\":6466:6471   */\n      dup2\n        /* \"#utility.yul\":6459:6471   */\n      swap1\n      pop\n        /* \"#utility.yul\":6417:6477   */\n      swap2\n      swap1\n      pop\n      jump\t// out\n        /* \"#utility.yul\":6483:6625   */\n    tag_112:\n        /* \"#utility.yul\":6533:6542   */\n      0x00\n        /* \"#utility.yul\":6566:6619   */\n      tag_216\n        /* \"#utility.yul\":6584:6618   */\n      tag_217\n        /* \"#utility.yul\":6593:6617   */\n      tag_218\n        /* \"#utility.yul\":6611:6616   */\n      dup5\n        /* \"#utility.yul\":6593:6617   */\n      tag_85\n      jump\t// in\n    tag_218:\n        /* \"#utility.yul\":6584:6618   */\n      tag_111\n      jump\t// in\n    tag_217:\n        /* \"#utility.yul\":6566:6619   */\n      tag_85\n      jump\t// in\n    tag_216:\n        /* \"#utility.yul\":6553:6619   */\n      swap1\n      pop\n        /* \"#utility.yul\":6483:6625   */\n      swap2\n      swap1\n      pop\n      jump\t// out\n        /* \"#utility.yul\":6631:6757   */\n    tag_113:\n        /* \"#utility.yul\":6681:6690   */\n      0x00\n        /* \"#utility.yul\":6714:6751   */\n      tag_220\n        /* \"#utility.yul\":6745:6750   */\n      dup3\n        /* \"#utility.yul\":6714:6751   */\n      tag_112\n      jump\t// in\n    tag_220:\n        /* \"#utility.yul\":6701:6751   */\n      swap1\n      pop\n        /* \"#utility.yul\":6631:6757   */\n      swap2\n      swap1\n      pop\n      jump\t// out\n        /* \"#utility.yul\":6763:6902   */\n    tag_114:\n        /* \"#utility.yul\":6826:6835   */\n      0x00\n        /* \"#utility.yul\":6859:6896   */\n      tag_222\n        /* \"#utility.yul\":6890:6895   */\n      dup3\n        /* \"#utility.yul\":6859:6896   */\n      tag_113\n      jump\t// in\n    tag_222:\n        /* \"#utility.yul\":6846:6896   */\n      swap1\n      pop\n        /* \"#utility.yul\":6763:6902   */\n      swap2\n      swap1\n      pop\n      jump\t// out\n        /* \"#utility.yul\":6908:7065   */\n    tag_115:\n        /* \"#utility.yul\":7008:7058   */\n      tag_224\n        /* \"#utility.yul\":7052:7057   */\n      dup2\n        /* \"#utility.yul\":7008:7058   */\n      tag_114\n      jump\t// in\n    tag_224:\n        /* \"#utility.yul\":7003:7006   */\n      dup3\n        /* \"#utility.yul\":6996:7059   */\n      mstore\n        /* \"#utility.yul\":6908:7065   */\n      pop\n      pop\n      jump\t// out\n        /* \"#utility.yul\":7071:7319   */\n    tag_29:\n        /* \"#utility.yul\":7177:7181   */\n      0x00\n        /* \"#utility.yul\":7215:7217   */\n      0x20\n        /* \"#utility.yul\":7204:7213   */\n      dup3\n        /* \"#utility.yul\":7200:7218   */\n      add\n        /* \"#utility.yul\":7192:7218   */\n      swap1\n      pop\n        /* \"#utility.yul\":7228:7312   */\n      tag_226\n        /* \"#utility.yul\":7309:7310   */\n      0x00\n        /* \"#utility.yul\":7298:7307   */\n      dup4\n        /* \"#utility.yul\":7294:7311   */\n      add\n        /* \"#utility.yul\":7285:7291   */\n      dup5\n        /* \"#utility.yul\":7228:7312   */\n      tag_115\n      jump\t// in\n    tag_226:\n        /* \"#utility.yul\":7071:7319   */\n      swap3\n      swap2\n      pop\n      pop\n      jump\t// out\n        /* \"#utility.yul\":7325:7505   */\n    tag_116:\n        /* \"#utility.yul\":7373:7450   */\n      0x4e487b7100000000000000000000000000000000000000000000000000000000\n        /* \"#utility.yul\":7370:7371   */\n      0x00\n        /* \"#utility.yul\":7363:7451   */\n      mstore\n        /* \"#utility.yul\":7470:7474   */\n      0x22\n        /* \"#utility.yul\":7467:7468   */\n      0x04\n        /* \"#utility.yul\":7460:7475   */\n      mstore\n        /* \"#utility.yul\":7494:7498   */\n      0x24\n        /* \"#utility.yul\":7491:7492   */\n      0x00\n        /* \"#utility.yul\":7484:7499   */\n      revert\n        /* \"#utility.yul\":7511:7831   */\n    tag_32:\n        /* \"#utility.yul\":7555:7561   */\n      0x00\n        /* \"#utility.yul\":7592:7593   */\n      0x02\n        /* \"#utility.yul\":7586:7590   */\n      dup3\n        /* \"#utility.yul\":7582:7594   */\n      div\n        /* \"#utility.yul\":7572:7594   */\n      swap1\n      pop\n        /* \"#utility.yul\":7639:7640   */\n      0x01\n        /* \"#utility.yul\":7633:7637   */\n      dup3\n        /* \"#utility.yul\":7629:7641   */\n      and\n        /* \"#utility.yul\":7660:7678   */\n      dup1\n        /* \"#utility.yul\":7650:7731   */\n      tag_229\n      jumpi\n        /* \"#utility.yul\":7716:7720   */\n      0x7f\n        /* \"#utility.yul\":7708:7714   */\n      dup3\n        /* \"#utility.yul\":7704:7721   */\n      and\n        /* \"#utility.yul\":7694:7721   */\n      swap2\n      pop\n        /* \"#utility.yul\":7650:7731   */\n    tag_229:\n        /* \"#utility.yul\":7778:7780   */\n      0x20\n        /* \"#utility.yul\":7770:7776   */\n      dup3\n        /* \"#utility.yul\":7767:7781   */\n      lt\n        /* \"#utility.yul\":7747:7765   */\n      dup2\n        /* \"#utility.yul\":7744:7782   */\n      sub\n        /* \"#utility.yul\":7741:7825   */\n      tag_230\n      jumpi\n        /* \"#utility.yul\":7797:7815   */\n      tag_231\n      tag_116\n      jump\t// in\n    tag_231:\n        /* \"#utility.yul\":7741:7825   */\n    tag_230:\n        /* \"#utility.yul\":7562:7831   */\n      pop\n        /* \"#utility.yul\":7511:7831   */\n      swap2\n      swap1\n      pop\n      jump\t// out\n        /* \"#utility.yul\":7837:8068   */\n    tag_117:\n        /* \"#utility.yul\":7977:8011   */\n      0x5472616e73616374696f6e20697320616c726561647920736574746c6564206f\n        /* \"#utility.yul\":7973:7974   */\n      0x00\n        /* \"#utility.yul\":7965:7971   */\n      dup3\n        /* \"#utility.yul\":7961:7975   */\n      add\n        /* \"#utility.yul\":7954:8012   */\n      mstore\n        /* \"#utility.yul\":8046:8060   */\n      0x722063616e63656c6c65642e0000000000000000000000000000000000000000\n        /* \"#utility.yul\":8041:8043   */\n      0x20\n        /* \"#utility.yul\":8033:8039   */\n      dup3\n        /* \"#utility.yul\":8029:8044   */\n      add\n        /* \"#utility.yul\":8022:8061   */\n      mstore\n        /* \"#utility.yul\":7837:8068   */\n      pop\n      jump\t// out\n        /* \"#utility.yul\":8074:8440   */\n    tag_118:\n        /* \"#utility.yul\":8216:8219   */\n      0x00\n        /* \"#utility.yul\":8237:8304   */\n      tag_234\n        /* \"#utility.yul\":8301:8303   */\n      0x2c\n        /* \"#utility.yul\":8296:8299   */\n      dup4\n        /* \"#utility.yul\":8237:8304   */\n      tag_91\n      jump\t// in\n    tag_234:\n        /* \"#utility.yul\":8230:8304   */\n      swap2\n      pop\n        /* \"#utility.yul\":8313:8406   */\n      tag_235\n        /* \"#utility.yul\":8402:8405   */\n      dup3\n        /* \"#utility.yul\":8313:8406   */\n      tag_117\n      jump\t// in\n    tag_235:\n        /* \"#utility.yul\":8431:8433   */\n      0x40\n        /* \"#utility.yul\":8426:8429   */\n      dup3\n        /* \"#utility.yul\":8422:8434   */\n      add\n        /* \"#utility.yul\":8415:8434   */\n      swap1\n      pop\n        /* \"#utility.yul\":8074:8440   */\n      swap2\n      swap1\n      pop\n      jump\t// out\n        /* \"#utility.yul\":8446:8865   */\n    tag_45:\n        /* \"#utility.yul\":8612:8616   */\n      0x00\n        /* \"#utility.yul\":8650:8652   */\n      0x20\n        /* \"#utility.yul\":8639:8648   */\n      dup3\n        /* \"#utility.yul\":8635:8653   */\n      add\n        /* \"#utility.yul\":8627:8653   */\n      swap1\n      pop\n        /* \"#utility.yul\":8699:8708   */\n      dup2\n        /* \"#utility.yul\":8693:8697   */\n      dup2\n        /* \"#utility.yul\":8689:8709   */\n      sub\n        /* \"#utility.yul\":8685:8686   */\n      0x00\n        /* \"#utility.yul\":8674:8683   */\n      dup4\n        /* \"#utility.yul\":8670:8687   */\n      add\n        /* \"#utility.yul\":8663:8710   */\n      mstore\n        /* \"#utility.yul\":8727:8858   */\n      tag_237\n        /* \"#utility.yul\":8853:8857   */\n      dup2\n        /* \"#utility.yul\":8727:8858   */\n      tag_118\n      jump\t// in\n    tag_237:\n        /* \"#utility.yul\":8719:8858   */\n      swap1\n      pop\n        /* \"#utility.yul\":8446:8865   */\n      swap2\n      swap1\n      pop\n      jump\t// out\n        /* \"#utility.yul\":8871:9203   */\n    tag_47:\n        /* \"#utility.yul\":8992:8996   */\n      0x00\n        /* \"#utility.yul\":9030:9032   */\n      0x40\n        /* \"#utility.yul\":9019:9028   */\n      dup3\n        /* \"#utility.yul\":9015:9033   */\n      add\n        /* \"#utility.yul\":9007:9033   */\n      swap1\n      pop\n        /* \"#utility.yul\":9043:9114   */\n      tag_239\n        /* \"#utility.yul\":9111:9112   */\n      0x00\n        /* \"#utility.yul\":9100:9109   */\n      dup4\n        /* \"#utility.yul\":9096:9113   */\n      add\n        /* \"#utility.yul\":9087:9093   */\n      dup6\n        /* \"#utility.yul\":9043:9114   */\n      tag_87\n      jump\t// in\n    tag_239:\n        /* \"#utility.yul\":9124:9196   */\n      tag_240\n        /* \"#utility.yul\":9192:9194   */\n      0x20\n        /* \"#utility.yul\":9181:9190   */\n      dup4\n        /* \"#utility.yul\":9177:9195   */\n      add\n        /* \"#utility.yul\":9168:9174   */\n      dup5\n        /* \"#utility.yul\":9124:9196   */\n      tag_89\n      jump\t// in\n    tag_240:\n        /* \"#utility.yul\":8871:9203   */\n      swap4\n      swap3\n      pop\n      pop\n      pop\n      jump\t// out\n        /* \"#utility.yul\":9209:9325   */\n    tag_119:\n        /* \"#utility.yul\":9279:9300   */\n      tag_242\n        /* \"#utility.yul\":9294:9299   */\n      dup2\n        /* \"#utility.yul\":9279:9300   */\n      tag_95\n      jump\t// in\n    tag_242:\n        /* \"#utility.yul\":9272:9277   */\n      dup2\n        /* \"#utility.yul\":9269:9301   */\n      eq\n        /* \"#utility.yul\":9259:9319   */\n      tag_243\n      jumpi\n        /* \"#utility.yul\":9315:9316   */\n      0x00\n        /* \"#utility.yul\":9312:9313   */\n      dup1\n        /* \"#utility.yul\":9305:9317   */\n      revert\n        /* \"#utility.yul\":9259:9319   */\n    tag_243:\n        /* \"#utility.yul\":9209:9325   */\n      pop\n      jump\t// out\n        /* \"#utility.yul\":9331:9468   */\n    tag_120:\n        /* \"#utility.yul\":9385:9390   */\n      0x00\n        /* \"#utility.yul\":9416:9422   */\n      dup2\n        /* \"#utility.yul\":9410:9423   */\n      mload\n        /* \"#utility.yul\":9401:9423   */\n      swap1\n      pop\n        /* \"#utility.yul\":9432:9462   */\n      tag_245\n        /* \"#utility.yul\":9456:9461   */\n      dup2\n        /* \"#utility.yul\":9432:9462   */\n      tag_119\n      jump\t// in\n    tag_245:\n        /* \"#utility.yul\":9331:9468   */\n      swap3\n      swap2\n      pop\n      pop\n      jump\t// out\n        /* \"#utility.yul\":9474:9819   */\n    tag_51:\n        /* \"#utility.yul\":9541:9547   */\n      0x00\n        /* \"#utility.yul\":9590:9592   */\n      0x20\n        /* \"#utility.yul\":9578:9587   */\n      dup3\n        /* \"#utility.yul\":9569:9576   */\n      dup5\n        /* \"#utility.yul\":9565:9588   */\n      sub\n        /* \"#utility.yul\":9561:9593   */\n      slt\n        /* \"#utility.yul\":9558:9677   */\n      iszero\n      tag_247\n      jumpi\n        /* \"#utility.yul\":9596:9675   */\n      tag_248\n      tag_98\n      jump\t// in\n    tag_248:\n        /* \"#utility.yul\":9558:9677   */\n    tag_247:\n        /* \"#utility.yul\":9716:9717   */\n      0x00\n        /* \"#utility.yul\":9741:9802   */\n      tag_249\n        /* \"#utility.yul\":9794:9801   */\n      dup5\n        /* \"#utility.yul\":9785:9791   */\n      dup3\n        /* \"#utility.yul\":9774:9783   */\n      dup6\n        /* \"#utility.yul\":9770:9792   */\n      add\n        /* \"#utility.yul\":9741:9802   */\n      tag_120\n      jump\t// in\n    tag_249:\n        /* \"#utility.yul\":9731:9802   */\n      swap2\n      pop\n        /* \"#utility.yul\":9687:9812   */\n      pop\n        /* \"#utility.yul\":9474:9819   */\n      swap3\n      swap2\n      pop\n      pop\n      jump\t// out\n        /* \"#utility.yul\":9825:9988   */\n    tag_121:\n        /* \"#utility.yul\":9965:9980   */\n      0x526566756e64206661696c656400000000000000000000000000000000000000\n        /* \"#utility.yul\":9961:9962   */\n      0x00\n        /* \"#utility.yul\":9953:9959   */\n      dup3\n        /* \"#utility.yul\":9949:9963   */\n      add\n        /* \"#utility.yul\":9942:9981   */\n      mstore\n        /* \"#utility.yul\":9825:9988   */\n      pop\n      jump\t// out\n        /* \"#utility.yul\":9994:10360   */\n    tag_122:\n        /* \"#utility.yul\":10136:10139   */\n      0x00\n        /* \"#utility.yul\":10157:10224   */\n      tag_252\n        /* \"#utility.yul\":10221:10223   */\n      0x0d\n        /* \"#utility.yul\":10216:10219   */\n      dup4\n        /* \"#utility.yul\":10157:10224   */\n      tag_91\n      jump\t// in\n    tag_252:\n        /* \"#utility.yul\":10150:10224   */\n      swap2\n      pop\n        /* \"#utility.yul\":10233:10326   */\n      tag_253\n        /* \"#utility.yul\":10322:10325   */\n      dup3\n        /* \"#utility.yul\":10233:10326   */\n      tag_121\n      jump\t// in\n    tag_253:\n        /* \"#utility.yul\":10351:10353   */\n      0x20\n        /* \"#utility.yul\":10346:10349   */\n      dup3\n        /* \"#utility.yul\":10342:10354   */\n      add\n        /* \"#utility.yul\":10335:10354   */\n      swap1\n      pop\n        /* \"#utility.yul\":9994:10360   */\n      swap2\n      swap1\n      pop\n      jump\t// out\n        /* \"#utility.yul\":10366:10785   */\n    tag_54:\n        /* \"#utility.yul\":10532:10536   */\n      0x00\n        /* \"#utility.yul\":10570:10572   */\n      0x20\n        /* \"#utility.yul\":10559:10568   */\n      dup3\n        /* \"#utility.yul\":10555:10573   */\n      add\n        /* \"#utility.yul\":10547:10573   */\n      swap1\n      pop\n        /* \"#utility.yul\":10619:10628   */\n      dup2\n        /* \"#utility.yul\":10613:10617   */\n      dup2\n        /* \"#utility.yul\":10609:10629   */\n      sub\n        /* \"#utility.yul\":10605:10606   */\n      0x00\n        /* \"#utility.yul\":10594:10603   */\n      dup4\n        /* \"#utility.yul\":10590:10607   */\n      add\n        /* \"#utility.yul\":10583:10630   */\n      mstore\n        /* \"#utility.yul\":10647:10778   */\n      tag_255\n        /* \"#utility.yul\":10773:10777   */\n      dup2\n        /* \"#utility.yul\":10647:10778   */\n      tag_122\n      jump\t// in\n    tag_255:\n        /* \"#utility.yul\":10639:10778   */\n      swap1\n      pop\n        /* \"#utility.yul\":10366:10785   */\n      swap2\n      swap1\n      pop\n      jump\t// out\n        /* \"#utility.yul\":10791:11013   */\n    tag_57:\n        /* \"#utility.yul\":10884:10888   */\n      0x00\n        /* \"#utility.yul\":10922:10924   */\n      0x20\n        /* \"#utility.yul\":10911:10920   */\n      dup3\n        /* \"#utility.yul\":10907:10925   */\n      add\n        /* \"#utility.yul\":10899:10925   */\n      swap1\n      pop\n        /* \"#utility.yul\":10935:11006   */\n      tag_257\n        /* \"#utility.yul\":11003:11004   */\n      0x00\n        /* \"#utility.yul\":10992:11001   */\n      dup4\n        /* \"#utility.yul\":10988:11005   */\n      add\n        /* \"#utility.yul\":10979:10985   */\n      dup5\n        /* \"#utility.yul\":10935:11006   */\n      tag_87\n      jump\t// in\n    tag_257:\n        /* \"#utility.yul\":10791:11013   */\n      swap3\n      swap2\n      pop\n      pop\n      jump\t// out\n        /* \"#utility.yul\":11019:11160   */\n    tag_123:\n        /* \"#utility.yul\":11068:11072   */\n      0x00\n        /* \"#utility.yul\":11091:11094   */\n      dup2\n        /* \"#utility.yul\":11083:11094   */\n      swap1\n      pop\n        /* \"#utility.yul\":11114:11117   */\n      dup2\n        /* \"#utility.yul\":11111:11112   */\n      0x00\n        /* \"#utility.yul\":11104:11118   */\n      mstore\n        /* \"#utility.yul\":11148:11152   */\n      0x20\n        /* \"#utility.yul\":11145:11146   */\n      0x00\n        /* \"#utility.yul\":11135:11153   */\n      keccak256\n        /* \"#utility.yul\":11127:11153   */\n      swap1\n      pop\n        /* \"#utility.yul\":11019:11160   */\n      swap2\n      swap1\n      pop\n      jump\t// out\n        /* \"#utility.yul\":11166:11259   */\n    tag_124:\n        /* \"#utility.yul\":11203:11209   */\n      0x00\n        /* \"#utility.yul\":11250:11252   */\n      0x20\n        /* \"#utility.yul\":11245:11247   */\n      0x1f\n        /* \"#utility.yul\":11238:11243   */\n      dup4\n        /* \"#utility.yul\":11234:11248   */\n      add\n        /* \"#utility.yul\":11230:11253   */\n      div\n        /* \"#utility.yul\":11220:11253   */\n      swap1\n      pop\n        /* \"#utility.yul\":11166:11259   */\n      swap2\n      swap1\n      pop\n      jump\t// out\n        /* \"#utility.yul\":11265:11372   */\n    tag_125:\n        /* \"#utility.yul\":11309:11317   */\n      0x00\n        /* \"#utility.yul\":11359:11364   */\n      dup3\n        /* \"#utility.yul\":11353:11357   */\n      dup3\n        /* \"#utility.yul\":11349:11365   */\n      shl\n        /* \"#utility.yul\":11328:11365   */\n      swap1\n      pop\n        /* \"#utility.yul\":11265:11372   */\n      swap3\n      swap2\n      pop\n      pop\n      jump\t// out\n        /* \"#utility.yul\":11378:11771   */\n    tag_126:\n        /* \"#utility.yul\":11447:11453   */\n      0x00\n        /* \"#utility.yul\":11497:11498   */\n      0x08\n        /* \"#utility.yul\":11485:11495   */\n      dup4\n        /* \"#utility.yul\":11481:11499   */\n      mul\n        /* \"#utility.yul\":11520:11617   */\n      tag_262\n        /* \"#utility.yul\":11550:11616   */\n      0xffffffffffffffffffffffffffffffffffffffffffffffffffffffffffffffff\n        /* \"#utility.yul\":11539:11548   */\n      dup3\n        /* \"#utility.yul\":11520:11617   */\n      tag_125\n      jump\t// in\n    tag_262:\n        /* \"#utility.yul\":11638:11677   */\n      tag_263\n        /* \"#utility.yul\":11668:11676   */\n      dup7\n        /* \"#utility.yul\":11657:11666   */\n      dup4\n        /* \"#utility.yul\":11638:11677   */\n      tag_125\n      jump\t// in\n    tag_263:\n        /* \"#utility.yul\":11626:11677   */\n      swap6\n      pop\n        /* \"#utility.yul\":11710:11714   */\n      dup1\n        /* \"#utility.yul\":11706:11715   */\n      not\n        /* \"#utility.yul\":11699:11704   */\n      dup5\n        /* \"#utility.yul\":11695:11716   */\n      and\n        /* \"#utility.yul\":11686:11716   */\n      swap4\n      pop\n        /* \"#utility.yul\":11759:11763   */\n      dup1\n        /* \"#utility.yul\":11749:11757   */\n      dup7\n        /* \"#utility.yul\":11745:11764   */\n      and\n        /* \"#utility.yul\":11738:11743   */\n      dup5\n        /* \"#utility.yul\":11735:11765   */\n      or\n        /* \"#utility.yul\":11725:11765   */\n      swap3\n      pop\n        /* \"#utility.yul\":11454:11771   */\n      pop\n      pop\n        /* \"#utility.yul\":11378:11771   */\n      swap4\n      swap3\n      pop\n      pop\n      pop\n      jump\t// out\n        /* \"#utility.yul\":11777:11919   */\n    tag_127:\n        /* \"#utility.yul\":11827:11836   */\n      0x00\n        /* \"#utility.yul\":11860:11913   */\n      tag_265\n        /* \"#utility.yul\":11878:11912   */\n      tag_266\n        /* \"#utility.yul\":11887:11911   */\n      tag_267\n        /* \"#utility.yul\":11905:11910   */\n      dup5\n        /* \"#utility.yul\":11887:11911   */\n      tag_88\n      jump\t// in\n    tag_267:\n        /* \"#utility.yul\":11878:11912   */\n      tag_111\n      jump\t// in\n    tag_266:\n        /* \"#utility.yul\":11860:11913   */\n      tag_88\n      jump\t// in\n    tag_265:\n        /* \"#utility.yul\":11847:11913   */\n      swap1\n      pop\n        /* \"#utility.yul\":11777:11919   */\n      swap2\n      swap1\n      pop\n      jump\t// out\n        /* \"#utility.yul\":11925:12000   */\n    tag_128:\n        /* \"#utility.yul\":11968:11971   */\n      0x00\n        /* \"#utility.yul\":11989:11994   */\n      dup2\n        /* \"#utility.yul\":11982:11994   */\n      swap1\n      pop\n        /* \"#utility.yul\":11925:12000   */\n      swap2\n      swap1\n      pop\n      jump\t// out\n        /* \"#utility.yul\":12006:12275   */\n    tag_129:\n        /* \"#utility.yul\":12116:12155   */\n      tag_270\n        /* \"#utility.yul\":12147:12154   */\n      dup4\n        /* \"#utility.yul\":12116:12155   */\n      tag_127\n      jump\t// in\n    tag_270:\n        /* \"#utility.yul\":12177:12268   */\n      tag_271\n        /* \"#utility.yul\":12226:12267   */\n      tag_272\n        /* \"#utility.yul\":12250:12266   */\n      dup3\n        /* \"#utility.yul\":12226:12267   */\n      tag_128\n      jump\t// in\n    tag_272:\n        /* \"#utility.yul\":12218:12224   */\n      dup5\n        /* \"#utility.yul\":12211:12215   */\n      dup5\n        /* \"#utility.yul\":12205:12216   */\n      sload\n        /* \"#utility.yul\":12177:12268   */\n      tag_126\n      jump\t// in\n    tag_271:\n        /* \"#utility.yul\":12171:12175   */\n      dup3\n        /* \"#utility.yul\":12164:12269   */\n      sstore\n        /* \"#utility.yul\":12082:12275   */\n      pop\n        /* \"#utility.yul\":12006:12275   */\n      pop\n      pop\n      pop\n      jump\t// out\n        /* \"#utility.yul\":12281:12354   */\n    tag_130:\n        /* \"#utility.yul\":12326:12329   */\n      0x00\n        /* \"#utility.yul\":12281:12354   */\n      swap1\n      jump\t// out\n        /* \"#utility.yul\":12360:12549   */\n    tag_131:\n        /* \"#utility.yul\":12437:12469   */\n      tag_275\n      tag_130\n      jump\t// in\n    tag_275:\n        /* \"#utility.yul\":12478:12543   */\n      tag_276\n        /* \"#utility.yul\":12536:12542   */\n      dup2\n        /* \"#utility.yul\":12528:12534   */\n      dup5\n        /* \"#utility.yul\":12522:12526   */\n      dup5\n        /* \"#utility.yul\":12478:12543   */\n      tag_129\n      jump\t// in\n    tag_276:\n        /* \"#utility.yul\":12413:12549   */\n      pop\n        /* \"#utility.yul\":12360:12549   */\n      pop\n      pop\n      jump\t// out\n        /* \"#utility.yul\":12555:12741   */\n    tag_132:\n        /* \"#utility.yul\":12615:12735   */\n    tag_278:\n        /* \"#utility.yul\":12632:12635   */\n      dup2\n        /* \"#utility.yul\":12625:12630   */\n      dup2\n        /* \"#utility.yul\":12622:12636   */\n      lt\n        /* \"#utility.yul\":12615:12735   */\n      iszero\n      tag_280\n      jumpi\n        /* \"#utility.yul\":12686:12725   */\n      tag_281\n        /* \"#utility.yul\":12723:12724   */\n      0x00\n        /* \"#utility.yul\":12716:12721   */\n      dup3\n        /* \"#utility.yul\":12686:12725   */\n      tag_131\n      jump\t// in\n    tag_281:\n        /* \"#utility.yul\":12659:12660   */\n      0x01\n        /* \"#utility.yul\":12652:12657   */\n      dup2\n        /* \"#utility.yul\":12648:12661   */\n      add\n        /* \"#utility.yul\":12639:12661   */\n      swap1\n      pop\n        /* \"#utility.yul\":12615:12735   */\n      jump(tag_278)\n    tag_280:\n        /* \"#utility.yul\":12555:12741   */\n      pop\n      pop\n      jump\t// out\n        /* \"#utility.yul\":12747:13290   */\n    tag_133:\n        /* \"#utility.yul\":12848:12850   */\n      0x1f\n        /* \"#utility.yul\":12843:12846   */\n      dup3\n        /* \"#utility.yul\":12840:12851   */\n      gt\n        /* \"#utility.yul\":12837:13283   */\n      iszero\n      tag_283\n      jumpi\n        /* \"#utility.yul\":12882:12920   */\n      tag_284\n        /* \"#utility.yul\":12914:12919   */\n      dup2\n        /* \"#utility.yul\":12882:12920   */\n      tag_123\n      jump\t// in\n    tag_284:\n        /* \"#utility.yul\":12966:12995   */\n      tag_285\n        /* \"#utility.yul\":12984:12994   */\n      dup5\n        /* \"#utility.yul\":12966:12995   */\n      tag_124\n      jump\t// in\n    tag_285:\n        /* \"#utility.yul\":12956:12964   */\n      dup2\n        /* \"#utility.yul\":12952:12996   */\n      add\n        /* \"#utility.yul\":13149:13151   */\n      0x20\n        /* \"#utility.yul\":13137:13147   */\n      dup6\n        /* \"#utility.yul\":13134:13152   */\n      lt\n        /* \"#utility.yul\":13131:13180   */\n      iszero\n      tag_286\n      jumpi\n        /* \"#utility.yul\":13170:13178   */\n      dup2\n        /* \"#utility.yul\":13155:13178   */\n      swap1\n      pop\n        /* \"#utility.yul\":13131:13180   */\n    tag_286:\n        /* \"#utility.yul\":13193:13273   */\n      tag_287\n        /* \"#utility.yul\":13249:13271   */\n      tag_288\n        /* \"#utility.yul\":13267:13270   */\n      dup6\n        /* \"#utility.yul\":13249:13271   */\n      tag_124\n      jump\t// in\n    tag_288:\n        /* \"#utility.yul\":13239:13247   */\n      dup4\n        /* \"#utility.yul\":13235:13272   */\n      add\n        /* \"#utility.yul\":13222:13233   */\n      dup3\n        /* \"#utility.yul\":13193:13273   */\n      tag_132\n      jump\t// in\n    tag_287:\n        /* \"#utility.yul\":12852:13283   */\n      pop\n      pop\n        /* \"#utility.yul\":12837:13283   */\n    tag_283:\n        /* \"#utility.yul\":12747:13290   */\n      pop\n      pop\n      pop\n      jump\t// out\n        /* \"#utility.yul\":13296:13413   */\n    tag_134:\n        /* \"#utility.yul\":13350:13358   */\n      0x00\n        /* \"#utility.yul\":13400:13405   */\n      dup3\n        /* \"#utility.yul\":13394:13398   */\n      dup3\n        /* \"#utility.yul\":13390:13406   */\n      shr\n        /* \"#utility.yul\":13369:13406   */\n      swap1\n      pop\n        /* \"#utility.yul\":13296:13413   */\n      swap3\n      swap2\n      pop\n      pop\n      jump\t// out\n        /* \"#utility.yul\":13419:13588   */\n    tag_135:\n        /* \"#utility.yul\":13463:13469   */\n      0x00\n        /* \"#utility.yul\":13496:13547   */\n      tag_291\n        /* \"#utility.yul\":13544:13545   */\n      0x00\n        /* \"#utility.yul\":13540:13546   */\n      not\n        /* \"#utility.yul\":13532:13537   */\n      dup5\n        /* \"#utility.yul\":13529:13530   */\n      0x08\n        /* \"#utility.yul\":13525:13538   */\n      mul\n        /* \"#utility.yul\":13496:13547   */\n      tag_134\n      jump\t// in\n    tag_291:\n        /* \"#utility.yul\":13492:13548   */\n      not\n        /* \"#utility.yul\":13577:13581   */\n      dup1\n        /* \"#utility.yul\":13571:13575   */\n      dup4\n        /* \"#utility.yul\":13567:13582   */\n      and\n        /* \"#utility.yul\":13557:13582   */\n      swap2\n      pop\n        /* \"#utility.yul\":13470:13588   */\n      pop\n        /* \"#utility.yul\":13419:13588   */\n      swap3\n      swap2\n      pop\n      pop\n      jump\t// out\n        /* \"#utility.yul\":13593:13888   */\n    tag_136:\n        /* \"#utility.yul\":13669:13673   */\n      0x00\n        /* \"#utility.yul\":13815:13844   */\n      tag_293\n        /* \"#utility.yul\":13840:13843   */\n      dup4\n        /* \"#utility.yul\":13834:13838   */\n      dup4\n        /* \"#utility.yul\":13815:13844   */\n      tag_135\n      jump\t// in\n    tag_293:\n        /* \"#utility.yul\":13807:13844   */\n      swap2\n      pop\n        /* \"#utility.yul\":13877:13880   */\n      dup3\n        /* \"#utility.yul\":13874:13875   */\n      0x02\n        /* \"#utility.yul\":13870:13881   */\n      mul\n        /* \"#utility.yul\":13864:13868   */\n      dup3\n        /* \"#utility.yul\":13861:13882   */\n      or\n        /* \"#utility.yul\":13853:13882   */\n      swap1\n      pop\n        /* \"#utility.yul\":13593:13888   */\n      swap3\n      swap2\n      pop\n      pop\n      jump\t// out\n        /* \"#utility.yul\":13893:15288   */\n    tag_75:\n        /* \"#utility.yul\":14010:14047   */\n      tag_295\n        /* \"#utility.yul\":14043:14046   */\n      dup3\n        /* \"#utility.yul\":14010:14047   */\n      tag_90\n      jump\t// in\n    tag_295:\n        /* \"#utility.yul\":14112:14130   */\n      0xffffffffffffffff\n        /* \"#utility.yul\":14104:14110   */\n      dup2\n        /* \"#utility.yul\":14101:14131   */\n      gt\n        /* \"#utility.yul\":14098:14154   */\n      iszero\n      tag_296\n      jumpi\n        /* \"#utility.yul\":14134:14152   */\n      tag_297\n      tag_104\n      jump\t// in\n    tag_297:\n        /* \"#utility.yul\":14098:14154   */\n    tag_296:\n        /* \"#utility.yul\":14178:14216   */\n      tag_298\n        /* \"#utility.yul\":14210:14214   */\n      dup3\n        /* \"#utility.yul\":14204:14215   */\n      sload\n        /* \"#utility.yul\":14178:14216   */\n      tag_32\n      jump\t// in\n    tag_298:\n        /* \"#utility.yul\":14263:14330   */\n      tag_299\n        /* \"#utility.yul\":14323:14329   */\n      dup3\n        /* \"#utility.yul\":14315:14321   */\n      dup3\n        /* \"#utility.yul\":14309:14313   */\n      dup6\n        /* \"#utility.yul\":14263:14330   */\n      tag_133\n      jump\t// in\n    tag_299:\n        /* \"#utility.yul\":14357:14358   */\n      0x00\n        /* \"#utility.yul\":14381:14385   */\n      0x20\n        /* \"#utility.yul\":14368:14385   */\n      swap1\n      pop\n        /* \"#utility.yul\":14413:14415   */\n      0x1f\n        /* \"#utility.yul\":14405:14411   */\n      dup4\n        /* \"#utility.yul\":14402:14416   */\n      gt\n        /* \"#utility.yul\":14430:14431   */\n      0x01\n        /* \"#utility.yul\":14425:15043   */\n      dup2\n      eq\n      tag_301\n      jumpi\n        /* \"#utility.yul\":15087:15088   */\n      0x00\n        /* \"#utility.yul\":15104:15110   */\n      dup5\n        /* \"#utility.yul\":15101:15178   */\n      iszero\n      tag_302\n      jumpi\n        /* \"#utility.yul\":15153:15162   */\n      dup3\n        /* \"#utility.yul\":15148:15151   */\n      dup8\n        /* \"#utility.yul\":15144:15163   */\n      add\n        /* \"#utility.yul\":15138:15164   */\n      mload\n        /* \"#utility.yul\":15129:15164   */\n      swap1\n      pop\n        /* \"#utility.yul\":15101:15178   */\n    tag_302:\n        /* \"#utility.yul\":15204:15271   */\n      tag_303\n        /* \"#utility.yul\":15264:15270   */\n      dup6\n        /* \"#utility.yul\":15257:15262   */\n      dup3\n        /* \"#utility.yul\":15204:15271   */\n      tag_136\n      jump\t// in\n    tag_303:\n        /* \"#utility.yul\":15198:15202   */\n      dup7\n        /* \"#utility.yul\":15191:15272   */\n      sstore\n        /* \"#utility.yul\":15060:15282   */\n      pop\n        /* \"#utility.yul\":14395:15282   */\n      jump(tag_300)\n        /* \"#utility.yul\":14425:15043   */\n    tag_301:\n        /* \"#utility.yul\":14477:14481   */\n      0x1f\n        /* \"#utility.yul\":14473:14482   */\n      not\n        /* \"#utility.yul\":14465:14471   */\n      dup5\n        /* \"#utility.yul\":14461:14483   */\n      and\n        /* \"#utility.yul\":14511:14548   */\n      tag_304\n        /* \"#utility.yul\":14543:14547   */\n      dup7\n        /* \"#utility.yul\":14511:14548   */\n      tag_123\n      jump\t// in\n    tag_304:\n        /* \"#utility.yul\":14570:14571   */\n      0x00\n        /* \"#utility.yul\":14584:14792   */\n    tag_305:\n        /* \"#utility.yul\":14598:14605   */\n      dup3\n        /* \"#utility.yul\":14595:14596   */\n      dup2\n        /* \"#utility.yul\":14592:14606   */\n      lt\n        /* \"#utility.yul\":14584:14792   */\n      iszero\n      tag_307\n      jumpi\n        /* \"#utility.yul\":14677:14686   */\n      dup5\n        /* \"#utility.yul\":14672:14675   */\n      dup10\n        /* \"#utility.yul\":14668:14687   */\n      add\n        /* \"#utility.yul\":14662:14688   */\n      mload\n        /* \"#utility.yul\":14654:14660   */\n      dup3\n        /* \"#utility.yul\":14647:14689   */\n      sstore\n        /* \"#utility.yul\":14728:14729   */\n      0x01\n        /* \"#utility.yul\":14720:14726   */\n      dup3\n        /* \"#utility.yul\":14716:14730   */\n      add\n        /* \"#utility.yul\":14706:14730   */\n      swap2\n      pop\n        /* \"#utility.yul\":14775:14777   */\n      0x20\n        /* \"#utility.yul\":14764:14773   */\n      dup6\n        /* \"#utility.yul\":14760:14778   */\n      add\n        /* \"#utility.yul\":14747:14778   */\n      swap5\n      pop\n        /* \"#utility.yul\":14621:14625   */\n      0x20\n        /* \"#utility.yul\":14618:14619   */\n      dup2\n        /* \"#utility.yul\":14614:14626   */\n      add\n        /* \"#utility.yul\":14609:14626   */\n      swap1\n      pop\n        /* \"#utility.yul\":14584:14792   */\n      jump(tag_305)\n    tag_307:\n        /* \"#utility.yul\":14820:14826   */\n      dup7\n        /* \"#utility.yul\":14811:14818   */\n      dup4\n        /* \"#utility.yul\":14808:14827   */\n      lt\n        /* \"#utility.yul\":14805:14984   */\n      iszero\n      tag_308\n      jumpi\n        /* \"#utility.yul\":14878:14887   */\n      dup5\n        /* \"#utility.yul\":14873:14876   */\n      dup10\n        /* \"#utility.yul\":14869:14888   */\n      add\n        /* \"#utility.yul\":14863:14889   */\n      mload\n        /* \"#utility.yul\":14921:14969   */\n      tag_309\n        /* \"#utility.yul\":14963:14967   */\n      0x1f\n        /* \"#utility.yul\":14955:14961   */\n      dup10\n        /* \"#utility.yul\":14951:14968   */\n      and\n        /* \"#utility.yul\":14940:14949   */\n      dup3\n        /* \"#utility.yul\":14921:14969   */\n      tag_135\n      jump\t// in\n    tag_309:\n        /* \"#utility.yul\":14913:14919   */\n      dup4\n        /* \"#utility.yul\":14906:14970   */\n      sstore\n        /* \"#utility.yul\":14828:14984   */\n      pop\n        /* \"#utility.yul\":14805:14984   */\n    tag_308:\n        /* \"#utility.yul\":15030:15031   */\n      0x01\n        /* \"#utility.yul\":15026:15027   */\n      0x02\n        /* \"#utility.yul\":15018:15024   */\n      dup9\n        /* \"#utility.yul\":15014:15028   */\n      mul\n        /* \"#utility.yul\":15010:15032   */\n      add\n        /* \"#utility.yul\":15004:15008   */\n      dup9\n        /* \"#utility.yul\":14997:15033   */\n      sstore\n        /* \"#utility.yul\":14432:15043   */\n      pop\n      pop\n      pop\n        /* \"#utility.yul\":14395:15282   */\n    tag_300:\n      pop\n        /* \"#utility.yul\":13985:15288   */\n      pop\n      pop\n      pop\n        /* \"#utility.yul\":13893:15288   */\n      pop\n      pop\n      jump\t// out\n        /* \"#utility.yul\":15294:15459   */\n    tag_137:\n        /* \"#utility.yul\":15434:15451   */\n      0x5472616e73666572206661696c65640000000000000000000000000000000000\n        /* \"#utility.yul\":15430:15431   */\n      0x00\n        /* \"#utility.yul\":15422:15428   */\n      dup3\n        /* \"#utility.yul\":15418:15432   */\n      add\n        /* \"#utility.yul\":15411:15452   */\n      mstore\n        /* \"#utility.yul\":15294:15459   */\n      pop\n      jump\t// out\n        /* \"#utility.yul\":15465:15831   */\n    tag_138:\n        /* \"#utility.yul\":15607:15610   */\n      0x00\n        /* \"#utility.yul\":15628:15695   */\n      tag_312\n        /* \"#utility.yul\":15692:15694   */\n      0x0f\n        /* \"#utility.yul\":15687:15690   */\n      dup4\n        /* \"#utility.yul\":15628:15695   */\n      tag_91\n      jump\t// in\n    tag_312:\n        /* \"#utility.yul\":15621:15695   */\n      swap2\n      pop\n        /* \"#utility.yul\":15704:15797   */\n      tag_313\n        /* \"#utility.yul\":15793:15796   */\n      dup3\n        /* \"#utility.yul\":15704:15797   */\n      tag_137\n      jump\t// in\n    tag_313:\n        /* \"#utility.yul\":15822:15824   */\n      0x20\n        /* \"#utility.yul\":15817:15820   */\n      dup3\n        /* \"#utility.yul\":15813:15825   */\n      add\n        /* \"#utility.yul\":15806:15825   */\n      swap1\n      pop\n        /* \"#utility.yul\":15465:15831   */\n      swap2\n      swap1\n      pop\n      jump\t// out\n        /* \"#utility.yul\":15837:16256   */\n    tag_82:\n        /* \"#utility.yul\":16003:16007   */\n      0x00\n        /* \"#utility.yul\":16041:16043   */\n      0x20\n        /* \"#utility.yul\":16030:16039   */\n      dup3\n        /* \"#utility.yul\":16026:16044   */\n      add\n        /* \"#utility.yul\":16018:16044   */\n      swap1\n      pop\n        /* \"#utility.yul\":16090:16099   */\n      dup2\n        /* \"#utility.yul\":16084:16088   */\n      dup2\n        /* \"#utility.yul\":16080:16100   */\n      sub\n        /* \"#utility.yul\":16076:16077   */\n      0x00\n        /* \"#utility.yul\":16065:16074   */\n      dup4\n        /* \"#utility.yul\":16061:16078   */\n      add\n        /* \"#utility.yul\":16054:16101   */\n      mstore\n        /* \"#utility.yul\":16118:16249   */\n      tag_315\n        /* \"#utility.yul\":16244:16248   */\n      dup2\n        /* \"#utility.yul\":16118:16249   */\n      tag_138\n      jump\t// in\n    tag_315:\n        /* \"#utility.yul\":16110:16249   */\n      swap1\n      pop\n        /* \"#utility.yul\":15837:16256   */\n      swap2\n      swap1\n      pop\n      jump\t// out\n        /* \"#utility.yul\":16262:16575   */\n    tag_84:\n        /* \"#utility.yul\":16375:16379   */\n      0x00\n        /* \"#utility.yul\":16413:16415   */\n      0x20\n        /* \"#utility.yul\":16402:16411   */\n      dup3\n        /* \"#utility.yul\":16398:16416   */\n      add\n        /* \"#utility.yul\":16390:16416   */\n      swap1\n      pop\n        /* \"#utility.yul\":16462:16471   */\n      dup2\n        /* \"#utility.yul\":16456:16460   */\n      dup2\n        /* \"#utility.yul\":16452:16472   */\n      sub\n        /* \"#utility.yul\":16448:16449   */\n      0x00\n        /* \"#utility.yul\":16437:16446   */\n      dup4\n        /* \"#utility.yul\":16433:16450   */\n      add\n        /* \"#utility.yul\":16426:16473   */\n      mstore\n        /* \"#utility.yul\":16490:16568   */\n      tag_317\n        /* \"#utility.yul\":16563:16567   */\n      dup2\n        /* \"#utility.yul\":16554:16560   */\n      dup5\n        /* \"#utility.yul\":16490:16568   */\n      tag_94\n      jump\t// in\n    tag_317:\n        /* \"#utility.yul\":16482:16568   */\n      swap1\n      pop\n        /* \"#utility.yul\":16262:16575   */\n      swap3\n      swap2\n      pop\n      pop\n      jump\t// out\n\n    auxdata: 0xa26469706673582212205cb41eb4fc028f45b6e1fa56b21be793448056a23b1fe652f4989d1a201d710c64736f6c63430008160033\n}\n",
				"bytecode": {
					"linkReferences": {},
					"object": "608060405234801562000010575f80fd5b50604051620019f6380380620019f6833981810160405281019062000036919062000481565b845f806101000a81548173ffffffffffffffffffffffffffffffffffffffff021916908373ffffffffffffffffffffffffffffffffffffffff1602179055506040518060e001604052808573ffffffffffffffffffffffffffffffffffffffff1681526020018473ffffffffffffffffffffffffffffffffffffffff16815260200183815260200182815260200160405180602001604052805f81525081526020016001151581526020015f151581525060015f820151815f015f6101000a81548173ffffffffffffffffffffffffffffffffffffffff021916908373ffffffffffffffffffffffffffffffffffffffff1602179055506020820151816001015f6101000a81548173ffffffffffffffffffffffffffffffffffffffff021916908373ffffffffffffffffffffffffffffffffffffffff16021790555060408201518160020155606082015181600301908162000194919062000752565b506080820151816004019081620001ac919062000752565b5060a0820151816005015f6101000a81548160ff02191690831515021790555060c08201518160050160016101000a81548160ff0219169083151502179055509050508273ffffffffffffffffffffffffffffffffffffffff168473ffffffffffffffffffffffffffffffffffffffff167fe0194f1ab5f5896441880a5bd0d2d549e1721bfdb4d5380f86514a5a17b3935584846040516200025092919062000897565b60405180910390a35050505050620008c9565b5f604051905090565b5f80fd5b5f80fd5b5f73ffffffffffffffffffffffffffffffffffffffff82169050919050565b5f6200029f8262000274565b9050919050565b620002b18162000293565b8114620002bc575f80fd5b50565b5f81519050620002cf81620002a6565b92915050565b5f819050919050565b620002e981620002d5565b8114620002f4575f80fd5b50565b5f815190506200030781620002de565b92915050565b5f80fd5b5f80fd5b5f601f19601f8301169050919050565b7f4e487b71000000000000000000000000000000000000000000000000000000005f52604160045260245ffd5b6200035d8262000315565b810181811067ffffffffffffffff821117156200037f576200037e62000325565b5b80604052505050565b5f6200039362000263565b9050620003a1828262000352565b919050565b5f67ffffffffffffffff821115620003c357620003c262000325565b5b620003ce8262000315565b9050602081019050919050565b5f5b83811015620003fa578082015181840152602081019050620003dd565b5f8484015250505050565b5f6200041b6200041584620003a6565b62000388565b9050828152602081018484840111156200043a576200043962000311565b5b62000447848285620003db565b509392505050565b5f82601f8301126200046657620004656200030d565b5b81516200047884826020860162000405565b91505092915050565b5f805f805f60a086880312156200049d576200049c6200026c565b5b5f620004ac88828901620002bf565b9550506020620004bf88828901620002bf565b9450506040620004d288828901620002bf565b9350506060620004e588828901620002f7565b925050608086015167ffffffffffffffff81111562000509576200050862000270565b5b62000517888289016200044f565b9150509295509295909350565b5f81519050919050565b7f4e487b71000000000000000000000000000000000000000000000000000000005f52602260045260245ffd5b5f60028204905060018216806200057357607f821691505b6020821081036200058957620005886200052e565b5b50919050565b5f819050815f5260205f209050919050565b5f6020601f8301049050919050565b5f82821b905092915050565b5f60088302620005ed7fffffffffffffffffffffffffffffffffffffffffffffffffffffffffffffffff82620005b0565b620005f98683620005b0565b95508019841693508086168417925050509392505050565b5f819050919050565b5f6200063a620006346200062e84620002d5565b62000611565b620002d5565b9050919050565b5f819050919050565b62000655836200061a565b6200066d620006648262000641565b848454620005bc565b825550505050565b5f90565b6200068362000675565b620006908184846200064a565b505050565b5b81811015620006b757620006ab5f8262000679565b60018101905062000696565b5050565b601f8211156200070657620006d0816200058f565b620006db84620005a1565b81016020851015620006eb578190505b62000703620006fa85620005a1565b83018262000695565b50505b505050565b5f82821c905092915050565b5f620007285f19846008026200070b565b1980831691505092915050565b5f62000742838362000717565b9150826002028217905092915050565b6200075d8262000524565b67ffffffffffffffff81111562000779576200077862000325565b5b6200078582546200055b565b62000792828285620006bb565b5f60209050601f831160018114620007c8575f8415620007b3578287015190505b620007bf858262000735565b8655506200082e565b601f198416620007d8866200058f565b5f5b828110156200080157848901518255600182019150602085019450602081019050620007da565b868310156200082157848901516200081d601f89168262000717565b8355505b6001600288020188555050505b505050505050565b6200084181620002d5565b82525050565b5f82825260208201905092915050565b5f620008638262000524565b6200086f818562000847565b935062000881818560208601620003db565b6200088c8162000315565b840191505092915050565b5f604082019050620008ac5f83018562000836565b8181036020830152620008c0818462000857565b90509392505050565b61111f80620008d75f395ff3fe608060405234801561000f575f80fd5b5060043610610060575f3560e01c806359705f81146100645780635c8cf75014610088578063a556fabf14610092578063c99de57e146100ae578063e045761b146100d2578063e10173b6146100ee575b5f80fd5b61006c61010c565b60405161007f979695949392919061094e565b60405180910390f35b6100906102bc565b005b6100ac60048036038101906100a79190610a04565b610475565b005b6100b66104e3565b6040516100c9979695949392919061094e565b60405180910390f35b6100ec60048036038101906100e79190610b5b565b610675565b005b6100f6610830565b6040516101039190610bfd565b60405180910390f35b5f805f6060805f8060015f015f9054906101000a900473ffffffffffffffffffffffffffffffffffffffff16600180015f9054906101000a900473ffffffffffffffffffffffffffffffffffffffff166001600201546001600301600160040160016005015f9054906101000a900460ff16600160050160019054906101000a900460ff1683805461019d90610c43565b80601f01602080910402602001604051908101604052809291908181526020018280546101c990610c43565b80156102145780601f106101eb57610100808354040283529160200191610214565b820191905f5260205f20905b8154815290600101906020018083116101f757829003601f168201915b5050505050935082805461022790610c43565b80601f016020809104026020016040519081016040528092919081815260200182805461025390610c43565b801561029e5780601f106102755761010080835404028352916020019161029e565b820191905f5260205f20905b81548152906001019060200180831161028157829003601f168201915b50505050509250965096509650965096509650965090919293949596565b60016005015f9054906101000a900460ff1661030d576040517f08c379a000000000000000000000000000000000000000000000000000000000815260040161030490610ce3565b60405180910390fd5b5f60016005015f6101000a81548160ff02191690831515021790555060018060050160016101000a81548160ff0219169083151502179055505f8054906101000a900473ffffffffffffffffffffffffffffffffffffffff1673ffffffffffffffffffffffffffffffffffffffff1663a9059cbb60015f015f9054906101000a900473ffffffffffffffffffffffffffffffffffffffff166001600201546040518363ffffffff1660e01b81526004016103c8929190610d01565b6020604051808303815f875af11580156103e4573d5f803e3d5ffd5b505050506040513d601f19601f820116820180604052508101906104089190610d52565b610447576040517f08c379a000000000000000000000000000000000000000000000000000000000815260040161043e90610dc7565b60405180910390fd5b7f509aa6ff520579f8b18330e8ee30b3df1a12ec7edd39d052c6eacebd2eb9df0060405160405180910390a1565b5f8190508073ffffffffffffffffffffffffffffffffffffffff1663c09a0441306040518263ffffffff1660e01b81526004016104b29190610de5565b5f604051808303815f87803b1580156104c9575f80fd5b505af11580156104db573d5f803e3d5ffd5b505050505050565b6001805f015f9054906101000a900473ffffffffffffffffffffffffffffffffffffffff1690806001015f9054906101000a900473ffffffffffffffffffffffffffffffffffffffff169080600201549080600301805461054390610c43565b80601f016020809104026020016040519081016040528092919081815260200182805461056f90610c43565b80156105ba5780601f10610591576101008083540402835291602001916105ba565b820191905f5260205f20905b81548152906001019060200180831161059d57829003601f168201915b5050505050908060040180546105cf90610c43565b80601f01602080910402602001604051908101604052809291908181526020018280546105fb90610c43565b80156106465780601f1061061d57610100808354040283529160200191610646565b820191905f5260205f20905b81548152906001019060200180831161062957829003601f168201915b505050505090806005015f9054906101000a900460ff16908060050160019054906101000a900460ff16905087565b60016005015f9054906101000a900460ff166106c6576040517f08c379a00000000000000000000000000000000000000000000000000000000081526004016106bd90610ce3565b60405180910390fd5b5f60016005015f6101000a81548160ff02191690831515021790555080600160040190816106f49190610f92565b505f8054906101000a900473ffffffffffffffffffffffffffffffffffffffff1673ffffffffffffffffffffffffffffffffffffffff1663a9059cbb600180015f9054906101000a900473ffffffffffffffffffffffffffffffffffffffff166001600201546040518363ffffffff1660e01b8152600401610777929190610d01565b6020604051808303815f875af1158015610793573d5f803e3d5ffd5b505050506040513d601f19601f820116820180604052508101906107b79190610d52565b6107f6576040517f08c379a00000000000000000000000000000000000000000000000000000000081526004016107ed906110ab565b60405180910390fd5b7fe8f6321bf832ef7d13fdf57fec0bb0fd8fb5b3439e562bf42a001dbefbfd246d8160405161082591906110c9565b60405180910390a150565b5f8054906101000a900473ffffffffffffffffffffffffffffffffffffffff1681565b5f73ffffffffffffffffffffffffffffffffffffffff82169050919050565b5f61087c82610853565b9050919050565b61088c81610872565b82525050565b5f819050919050565b6108a481610892565b82525050565b5f81519050919050565b5f82825260208201905092915050565b5f5b838110156108e15780820151818401526020810190506108c6565b5f8484015250505050565b5f601f19601f8301169050919050565b5f610906826108aa565b61091081856108b4565b93506109208185602086016108c4565b610929816108ec565b840191505092915050565b5f8115159050919050565b61094881610934565b82525050565b5f60e0820190506109615f83018a610883565b61096e6020830189610883565b61097b604083018861089b565b818103606083015261098d81876108fc565b905081810360808301526109a181866108fc565b90506109b060a083018561093f565b6109bd60c083018461093f565b98975050505050505050565b5f604051905090565b5f80fd5b5f80fd5b6109e381610872565b81146109ed575f80fd5b50565b5f813590506109fe816109da565b92915050565b5f60208284031215610a1957610a186109d2565b5b5f610a26848285016109f0565b91505092915050565b5f80fd5b5f80fd5b7f4e487b71000000000000000000000000000000000000000000000000000000005f52604160045260245ffd5b610a6d826108ec565b810181811067ffffffffffffffff82111715610a8c57610a8b610a37565b5b80604052505050565b5f610a9e6109c9565b9050610aaa8282610a64565b919050565b5f67ffffffffffffffff821115610ac957610ac8610a37565b5b610ad2826108ec565b9050602081019050919050565b828183375f83830152505050565b5f610aff610afa84610aaf565b610a95565b905082815260208101848484011115610b1b57610b1a610a33565b5b610b26848285610adf565b509392505050565b5f82601f830112610b4257610b41610a2f565b5b8135610b52848260208601610aed565b91505092915050565b5f60208284031215610b7057610b6f6109d2565b5b5f82013567ffffffffffffffff811115610b8d57610b8c6109d6565b5b610b9984828501610b2e565b91505092915050565b5f819050919050565b5f610bc5610bc0610bbb84610853565b610ba2565b610853565b9050919050565b5f610bd682610bab565b9050919050565b5f610be782610bcc565b9050919050565b610bf781610bdd565b82525050565b5f602082019050610c105f830184610bee565b92915050565b7f4e487b71000000000000000000000000000000000000000000000000000000005f52602260045260245ffd5b5f6002820490506001821680610c5a57607f821691505b602082108103610c6d57610c6c610c16565b5b50919050565b7f5472616e73616374696f6e20697320616c726561647920736574746c6564206f5f8201527f722063616e63656c6c65642e0000000000000000000000000000000000000000602082015250565b5f610ccd602c836108b4565b9150610cd882610c73565b604082019050919050565b5f6020820190508181035f830152610cfa81610cc1565b9050919050565b5f604082019050610d145f830185610883565b610d21602083018461089b565b9392505050565b610d3181610934565b8114610d3b575f80fd5b50565b5f81519050610d4c81610d28565b92915050565b5f60208284031215610d6757610d666109d2565b5b5f610d7484828501610d3e565b91505092915050565b7f526566756e64206661696c6564000000000000000000000000000000000000005f82015250565b5f610db1600d836108b4565b9150610dbc82610d7d565b602082019050919050565b5f6020820190508181035f830152610dde81610da5565b9050919050565b5f602082019050610df85f830184610883565b92915050565b5f819050815f5260205f209050919050565b5f6020601f8301049050919050565b5f82821b905092915050565b5f60088302610e5a7fffffffffffffffffffffffffffffffffffffffffffffffffffffffffffffffff82610e1f565b610e648683610e1f565b95508019841693508086168417925050509392505050565b5f610e96610e91610e8c84610892565b610ba2565b610892565b9050919050565b5f819050919050565b610eaf83610e7c565b610ec3610ebb82610e9d565b848454610e2b565b825550505050565b5f90565b610ed7610ecb565b610ee2818484610ea6565b505050565b5b81811015610f0557610efa5f82610ecf565b600181019050610ee8565b5050565b601f821115610f4a57610f1b81610dfe565b610f2484610e10565b81016020851015610f33578190505b610f47610f3f85610e10565b830182610ee7565b50505b505050565b5f82821c905092915050565b5f610f6a5f1984600802610f4f565b1980831691505092915050565b5f610f828383610f5b565b9150826002028217905092915050565b610f9b826108aa565b67ffffffffffffffff811115610fb457610fb3610a37565b5b610fbe8254610c43565b610fc9828285610f09565b5f60209050601f831160018114610ffa575f8415610fe8578287015190505b610ff28582610f77565b865550611059565b601f19841661100886610dfe565b5f5b8281101561102f5784890151825560018201915060208501945060208101905061100a565b8683101561104c5784890151611048601f891682610f5b565b8355505b6001600288020188555050505b505050505050565b7f5472616e73666572206661696c656400000000000000000000000000000000005f82015250565b5f611095600f836108b4565b91506110a082611061565b602082019050919050565b5f6020820190508181035f8301526110c281611089565b9050919050565b5f6020820190508181035f8301526110e181846108fc565b90509291505056fea26469706673582212205cb41eb4fc028f45b6e1fa56b21be793448056a23b1fe652f4989d1a201d710c64736f6c63430008160033",
					"opcodes": "PUSH1 0x80 PUSH1 0x40 MSTORE CALLVALUE DUP1 ISZERO PUSH3 0x10 JUMPI PUSH0 DUP1 REVERT JUMPDEST POP PUSH1 0x40 MLOAD PUSH3 0x19F6 CODESIZE SUB DUP1 PUSH3 0x19F6 DUP4 CODECOPY DUP2 DUP2 ADD PUSH1 0x40 MSTORE DUP2 ADD SWAP1 PUSH3 0x36 SWAP2 SWAP1 PUSH3 0x481 JUMP JUMPDEST DUP5 PUSH0 DUP1 PUSH2 0x100 EXP DUP2 SLOAD DUP2 PUSH20 0xFFFFFFFFFFFFFFFFFFFFFFFFFFFFFFFFFFFFFFFF MUL NOT AND SWAP1 DUP4 PUSH20 0xFFFFFFFFFFFFFFFFFFFFFFFFFFFFFFFFFFFFFFFF AND MUL OR SWAP1 SSTORE POP PUSH1 0x40 MLOAD DUP1 PUSH1 0xE0 ADD PUSH1 0x40 MSTORE DUP1 DUP6 PUSH20 0xFFFFFFFFFFFFFFFFFFFFFFFFFFFFFFFFFFFFFFFF AND DUP2 MSTORE PUSH1 0x20 ADD DUP5 PUSH20 0xFFFFFFFFFFFFFFFFFFFFFFFFFFFFFFFFFFFFFFFF AND DUP2 MSTORE PUSH1 0x20 ADD DUP4 DUP2 MSTORE PUSH1 0x20 ADD DUP3 DUP2 MSTORE PUSH1 0x20 ADD PUSH1 0x40 MLOAD DUP1 PUSH1 0x20 ADD PUSH1 0x40 MSTORE DUP1 PUSH0 DUP2 MSTORE POP DUP2 MSTORE PUSH1 0x20 ADD PUSH1 0x1 ISZERO ISZERO DUP2 MSTORE PUSH1 0x20 ADD PUSH0 ISZERO ISZERO DUP2 MSTORE POP PUSH1 0x1 PUSH0 DUP3 ADD MLOAD DUP2 PUSH0 ADD PUSH0 PUSH2 0x100 EXP DUP2 SLOAD DUP2 PUSH20 0xFFFFFFFFFFFFFFFFFFFFFFFFFFFFFFFFFFFFFFFF MUL NOT AND SWAP1 DUP4 PUSH20 0xFFFFFFFFFFFFFFFFFFFFFFFFFFFFFFFFFFFFFFFF AND MUL OR SWAP1 SSTORE POP PUSH1 0x20 DUP3 ADD MLOAD DUP2 PUSH1 0x1 ADD PUSH0 PUSH2 0x100 EXP DUP2 SLOAD DUP2 PUSH20 0xFFFFFFFFFFFFFFFFFFFFFFFFFFFFFFFFFFFFFFFF MUL NOT AND SWAP1 DUP4 PUSH20 0xFFFFFFFFFFFFFFFFFFFFFFFFFFFFFFFFFFFFFFFF AND MUL OR SWAP1 SSTORE POP PUSH1 0x40 DUP3 ADD MLOAD DUP2 PUSH1 0x2 ADD SSTORE PUSH1 0x60 DUP3 ADD MLOAD DUP2 PUSH1 0x3 ADD SWAP1 DUP2 PUSH3 0x194 SWAP2 SWAP1 PUSH3 0x752 JUMP JUMPDEST POP PUSH1 0x80 DUP3 ADD MLOAD DUP2 PUSH1 0x4 ADD SWAP1 DUP2 PUSH3 0x1AC SWAP2 SWAP1 PUSH3 0x752 JUMP JUMPDEST POP PUSH1 0xA0 DUP3 ADD MLOAD DUP2 PUSH1 0x5 ADD PUSH0 PUSH2 0x100 EXP DUP2 SLOAD DUP2 PUSH1 0xFF MUL NOT AND SWAP1 DUP4 ISZERO ISZERO MUL OR SWAP1 SSTORE POP PUSH1 0xC0 DUP3 ADD MLOAD DUP2 PUSH1 0x5 ADD PUSH1 0x1 PUSH2 0x100 EXP DUP2 SLOAD DUP2 PUSH1 0xFF MUL NOT AND SWAP1 DUP4 ISZERO ISZERO MUL OR SWAP1 SSTORE POP SWAP1 POP POP DUP3 PUSH20 0xFFFFFFFFFFFFFFFFFFFFFFFFFFFFFFFFFFFFFFFF AND DUP5 PUSH20 0xFFFFFFFFFFFFFFFFFFFFFFFFFFFFFFFFFFFFFFFF AND PUSH32 0xE0194F1AB5F5896441880A5BD0D2D549E1721BFDB4D5380F86514A5A17B39355 DUP5 DUP5 PUSH1 0x40 MLOAD PUSH3 0x250 SWAP3 SWAP2 SWAP1 PUSH3 0x897 JUMP JUMPDEST PUSH1 0x40 MLOAD DUP1 SWAP2 SUB SWAP1 LOG3 POP POP POP POP POP PUSH3 0x8C9 JUMP JUMPDEST PUSH0 PUSH1 0x40 MLOAD SWAP1 POP SWAP1 JUMP JUMPDEST PUSH0 DUP1 REVERT JUMPDEST PUSH0 DUP1 REVERT JUMPDEST PUSH0 PUSH20 0xFFFFFFFFFFFFFFFFFFFFFFFFFFFFFFFFFFFFFFFF DUP3 AND SWAP1 POP SWAP2 SWAP1 POP JUMP JUMPDEST PUSH0 PUSH3 0x29F DUP3 PUSH3 0x274 JUMP JUMPDEST SWAP1 POP SWAP2 SWAP1 POP JUMP JUMPDEST PUSH3 0x2B1 DUP2 PUSH3 0x293 JUMP JUMPDEST DUP2 EQ PUSH3 0x2BC JUMPI PUSH0 DUP1 REVERT JUMPDEST POP JUMP JUMPDEST PUSH0 DUP2 MLOAD SWAP1 POP PUSH3 0x2CF DUP2 PUSH3 0x2A6 JUMP JUMPDEST SWAP3 SWAP2 POP POP JUMP JUMPDEST PUSH0 DUP2 SWAP1 POP SWAP2 SWAP1 POP JUMP JUMPDEST PUSH3 0x2E9 DUP2 PUSH3 0x2D5 JUMP JUMPDEST DUP2 EQ PUSH3 0x2F4 JUMPI PUSH0 DUP1 REVERT JUMPDEST POP JUMP JUMPDEST PUSH0 DUP2 MLOAD SWAP1 POP PUSH3 0x307 DUP2 PUSH3 0x2DE JUMP JUMPDEST SWAP3 SWAP2 POP POP JUMP JUMPDEST PUSH0 DUP1 REVERT JUMPDEST PUSH0 DUP1 REVERT JUMPDEST PUSH0 PUSH1 0x1F NOT PUSH1 0x1F DUP4 ADD AND SWAP1 POP SWAP2 SWAP1 POP JUMP JUMPDEST PUSH32 0x4E487B7100000000000000000000000000000000000000000000000000000000 PUSH0 MSTORE PUSH1 0x41 PUSH1 0x4 MSTORE PUSH1 0x24 PUSH0 REVERT JUMPDEST PUSH3 0x35D DUP3 PUSH3 0x315 JUMP JUMPDEST DUP2 ADD DUP2 DUP2 LT PUSH8 0xFFFFFFFFFFFFFFFF DUP3 GT OR ISZERO PUSH3 0x37F JUMPI PUSH3 0x37E PUSH3 0x325 JUMP JUMPDEST JUMPDEST DUP1 PUSH1 0x40 MSTORE POP POP POP JUMP JUMPDEST PUSH0 PUSH3 0x393 PUSH3 0x263 JUMP JUMPDEST SWAP1 POP PUSH3 0x3A1 DUP3 DUP3 PUSH3 0x352 JUMP JUMPDEST SWAP2 SWAP1 POP JUMP JUMPDEST PUSH0 PUSH8 0xFFFFFFFFFFFFFFFF DUP3 GT ISZERO PUSH3 0x3C3 JUMPI PUSH3 0x3C2 PUSH3 0x325 JUMP JUMPDEST JUMPDEST PUSH3 0x3CE DUP3 PUSH3 0x315 JUMP JUMPDEST SWAP1 POP PUSH1 0x20 DUP2 ADD SWAP1 POP SWAP2 SWAP1 POP JUMP JUMPDEST PUSH0 JUMPDEST DUP4 DUP2 LT ISZERO PUSH3 0x3FA JUMPI DUP1 DUP3 ADD MLOAD DUP2 DUP5 ADD MSTORE PUSH1 0x20 DUP2 ADD SWAP1 POP PUSH3 0x3DD JUMP JUMPDEST PUSH0 DUP5 DUP5 ADD MSTORE POP POP POP POP JUMP JUMPDEST PUSH0 PUSH3 0x41B PUSH3 0x415 DUP5 PUSH3 0x3A6 JUMP JUMPDEST PUSH3 0x388 JUMP JUMPDEST SWAP1 POP DUP3 DUP2 MSTORE PUSH1 0x20 DUP2 ADD DUP5 DUP5 DUP5 ADD GT ISZERO PUSH3 0x43A JUMPI PUSH3 0x439 PUSH3 0x311 JUMP JUMPDEST JUMPDEST PUSH3 0x447 DUP5 DUP3 DUP6 PUSH3 0x3DB JUMP JUMPDEST POP SWAP4 SWAP3 POP POP POP JUMP JUMPDEST PUSH0 DUP3 PUSH1 0x1F DUP4 ADD SLT PUSH3 0x466 JUMPI PUSH3 0x465 PUSH3 0x30D JUMP JUMPDEST JUMPDEST DUP2 MLOAD PUSH3 0x478 DUP5 DUP3 PUSH1 0x20 DUP7 ADD PUSH3 0x405 JUMP JUMPDEST SWAP2 POP POP SWAP3 SWAP2 POP POP JUMP JUMPDEST PUSH0 DUP1 PUSH0 DUP1 PUSH0 PUSH1 0xA0 DUP7 DUP9 SUB SLT ISZERO PUSH3 0x49D JUMPI PUSH3 0x49C PUSH3 0x26C JUMP JUMPDEST JUMPDEST PUSH0 PUSH3 0x4AC DUP9 DUP3 DUP10 ADD PUSH3 0x2BF JUMP JUMPDEST SWAP6 POP POP PUSH1 0x20 PUSH3 0x4BF DUP9 DUP3 DUP10 ADD PUSH3 0x2BF JUMP JUMPDEST SWAP5 POP POP PUSH1 0x40 PUSH3 0x4D2 DUP9 DUP3 DUP10 ADD PUSH3 0x2BF JUMP JUMPDEST SWAP4 POP POP PUSH1 0x60 PUSH3 0x4E5 DUP9 DUP3 DUP10 ADD PUSH3 0x2F7 JUMP JUMPDEST SWAP3 POP POP PUSH1 0x80 DUP7 ADD MLOAD PUSH8 0xFFFFFFFFFFFFFFFF DUP2 GT ISZERO PUSH3 0x509 JUMPI PUSH3 0x508 PUSH3 0x270 JUMP JUMPDEST JUMPDEST PUSH3 0x517 DUP9 DUP3 DUP10 ADD PUSH3 0x44F JUMP JUMPDEST SWAP2 POP POP SWAP3 SWAP6 POP SWAP3 SWAP6 SWAP1 SWAP4 POP JUMP JUMPDEST PUSH0 DUP2 MLOAD SWAP1 POP SWAP2 SWAP1 POP JUMP JUMPDEST PUSH32 0x4E487B7100000000000000000000000000000000000000000000000000000000 PUSH0 MSTORE PUSH1 0x22 PUSH1 0x4 MSTORE PUSH1 0x24 PUSH0 REVERT JUMPDEST PUSH0 PUSH1 0x2 DUP3 DIV SWAP1 POP PUSH1 0x1 DUP3 AND DUP1 PUSH3 0x573 JUMPI PUSH1 0x7F DUP3 AND SWAP2 POP JUMPDEST PUSH1 0x20 DUP3 LT DUP2 SUB PUSH3 0x589 JUMPI PUSH3 0x588 PUSH3 0x52E JUMP JUMPDEST JUMPDEST POP SWAP2 SWAP1 POP JUMP JUMPDEST PUSH0 DUP2 SWAP1 POP DUP2 PUSH0 MSTORE PUSH1 0x20 PUSH0 KECCAK256 SWAP1 POP SWAP2 SWAP1 POP JUMP JUMPDEST PUSH0 PUSH1 0x20 PUSH1 0x1F DUP4 ADD DIV SWAP1 POP SWAP2 SWAP1 POP JUMP JUMPDEST PUSH0 DUP3 DUP3 SHL SWAP1 POP SWAP3 SWAP2 POP POP JUMP JUMPDEST PUSH0 PUSH1 0x8 DUP4 MUL PUSH3 0x5ED PUSH32 0xFFFFFFFFFFFFFFFFFFFFFFFFFFFFFFFFFFFFFFFFFFFFFFFFFFFFFFFFFFFFFFFF DUP3 PUSH3 0x5B0 JUMP JUMPDEST PUSH3 0x5F9 DUP7 DUP4 PUSH3 0x5B0 JUMP JUMPDEST SWAP6 POP DUP1 NOT DUP5 AND SWAP4 POP DUP1 DUP7 AND DUP5 OR SWAP3 POP POP POP SWAP4 SWAP3 POP POP POP JUMP JUMPDEST PUSH0 DUP2 SWAP1 POP SWAP2 SWAP1 POP JUMP JUMPDEST PUSH0 PUSH3 0x63A PUSH3 0x634 PUSH3 0x62E DUP5 PUSH3 0x2D5 JUMP JUMPDEST PUSH3 0x611 JUMP JUMPDEST PUSH3 0x2D5 JUMP JUMPDEST SWAP1 POP SWAP2 SWAP1 POP JUMP JUMPDEST PUSH0 DUP2 SWAP1 POP SWAP2 SWAP1 POP JUMP JUMPDEST PUSH3 0x655 DUP4 PUSH3 0x61A JUMP JUMPDEST PUSH3 0x66D PUSH3 0x664 DUP3 PUSH3 0x641 JUMP JUMPDEST DUP5 DUP5 SLOAD PUSH3 0x5BC JUMP JUMPDEST DUP3 SSTORE POP POP POP POP JUMP JUMPDEST PUSH0 SWAP1 JUMP JUMPDEST PUSH3 0x683 PUSH3 0x675 JUMP JUMPDEST PUSH3 0x690 DUP2 DUP5 DUP5 PUSH3 0x64A JUMP JUMPDEST POP POP POP JUMP JUMPDEST JUMPDEST DUP2 DUP2 LT ISZERO PUSH3 0x6B7 JUMPI PUSH3 0x6AB PUSH0 DUP3 PUSH3 0x679 JUMP JUMPDEST PUSH1 0x1 DUP2 ADD SWAP1 POP PUSH3 0x696 JUMP JUMPDEST POP POP JUMP JUMPDEST PUSH1 0x1F DUP3 GT ISZERO PUSH3 0x706 JUMPI PUSH3 0x6D0 DUP2 PUSH3 0x58F JUMP JUMPDEST PUSH3 0x6DB DUP5 PUSH3 0x5A1 JUMP JUMPDEST DUP2 ADD PUSH1 0x20 DUP6 LT ISZERO PUSH3 0x6EB JUMPI DUP2 SWAP1 POP JUMPDEST PUSH3 0x703 PUSH3 0x6FA DUP6 PUSH3 0x5A1 JUMP JUMPDEST DUP4 ADD DUP3 PUSH3 0x695 JUMP JUMPDEST POP POP JUMPDEST POP POP POP JUMP JUMPDEST PUSH0 DUP3 DUP3 SHR SWAP1 POP SWAP3 SWAP2 POP POP JUMP JUMPDEST PUSH0 PUSH3 0x728 PUSH0 NOT DUP5 PUSH1 0x8 MUL PUSH3 0x70B JUMP JUMPDEST NOT DUP1 DUP4 AND SWAP2 POP POP SWAP3 SWAP2 POP POP JUMP JUMPDEST PUSH0 PUSH3 0x742 DUP4 DUP4 PUSH3 0x717 JUMP JUMPDEST SWAP2 POP DUP3 PUSH1 0x2 MUL DUP3 OR SWAP1 POP SWAP3 SWAP2 POP POP JUMP JUMPDEST PUSH3 0x75D DUP3 PUSH3 0x524 JUMP JUMPDEST PUSH8 0xFFFFFFFFFFFFFFFF DUP2 GT ISZERO PUSH3 0x779 JUMPI PUSH3 0x778 PUSH3 0x325 JUMP JUMPDEST JUMPDEST PUSH3 0x785 DUP3 SLOAD PUSH3 0x55B JUMP JUMPDEST PUSH3 0x792 DUP3 DUP3 DUP6 PUSH3 0x6BB JUMP JUMPDEST PUSH0 PUSH1 0x20 SWAP1 POP PUSH1 0x1F DUP4 GT PUSH1 0x1 DUP2 EQ PUSH3 0x7C8 JUMPI PUSH0 DUP5 ISZERO PUSH3 0x7B3 JUMPI DUP3 DUP8 ADD MLOAD SWAP1 POP JUMPDEST PUSH3 0x7BF DUP6 DUP3 PUSH3 0x735 JUMP JUMPDEST DUP7 SSTORE POP PUSH3 0x82E JUMP JUMPDEST PUSH1 0x1F NOT DUP5 AND PUSH3 0x7D8 DUP7 PUSH3 0x58F JUMP JUMPDEST PUSH0 JUMPDEST DUP3 DUP2 LT ISZERO PUSH3 0x801 JUMPI DUP5 DUP10 ADD MLOAD DUP3 SSTORE PUSH1 0x1 DUP3 ADD SWAP2 POP PUSH1 0x20 DUP6 ADD SWAP5 POP PUSH1 0x20 DUP2 ADD SWAP1 POP PUSH3 0x7DA JUMP JUMPDEST DUP7 DUP4 LT ISZERO PUSH3 0x821 JUMPI DUP5 DUP10 ADD MLOAD PUSH3 0x81D PUSH1 0x1F DUP10 AND DUP3 PUSH3 0x717 JUMP JUMPDEST DUP4 SSTORE POP JUMPDEST PUSH1 0x1 PUSH1 0x2 DUP9 MUL ADD DUP9 SSTORE POP POP POP JUMPDEST POP POP POP POP POP POP JUMP JUMPDEST PUSH3 0x841 DUP2 PUSH3 0x2D5 JUMP JUMPDEST DUP3 MSTORE POP POP JUMP JUMPDEST PUSH0 DUP3 DUP3 MSTORE PUSH1 0x20 DUP3 ADD SWAP1 POP SWAP3 SWAP2 POP POP JUMP JUMPDEST PUSH0 PUSH3 0x863 DUP3 PUSH3 0x524 JUMP JUMPDEST PUSH3 0x86F DUP2 DUP6 PUSH3 0x847 JUMP JUMPDEST SWAP4 POP PUSH3 0x881 DUP2 DUP6 PUSH1 0x20 DUP7 ADD PUSH3 0x3DB JUMP JUMPDEST PUSH3 0x88C DUP2 PUSH3 0x315 JUMP JUMPDEST DUP5 ADD SWAP2 POP POP SWAP3 SWAP2 POP POP JUMP JUMPDEST PUSH0 PUSH1 0x40 DUP3 ADD SWAP1 POP PUSH3 0x8AC PUSH0 DUP4 ADD DUP6 PUSH3 0x836 JUMP JUMPDEST DUP2 DUP2 SUB PUSH1 0x20 DUP4 ADD MSTORE PUSH3 0x8C0 DUP2 DUP5 PUSH3 0x857 JUMP JUMPDEST SWAP1 POP SWAP4 SWAP3 POP POP POP JUMP JUMPDEST PUSH2 0x111F DUP1 PUSH3 0x8D7 PUSH0 CODECOPY PUSH0 RETURN INVALID PUSH1 0x80 PUSH1 0x40 MSTORE CALLVALUE DUP1 ISZERO PUSH2 0xF JUMPI PUSH0 DUP1 REVERT JUMPDEST POP PUSH1 0x4 CALLDATASIZE LT PUSH2 0x60 JUMPI PUSH0 CALLDATALOAD PUSH1 0xE0 SHR DUP1 PUSH4 0x59705F81 EQ PUSH2 0x64 JUMPI DUP1 PUSH4 0x5C8CF750 EQ PUSH2 0x88 JUMPI DUP1 PUSH4 0xA556FABF EQ PUSH2 0x92 JUMPI DUP1 PUSH4 0xC99DE57E EQ PUSH2 0xAE JUMPI DUP1 PUSH4 0xE045761B EQ PUSH2 0xD2 JUMPI DUP1 PUSH4 0xE10173B6 EQ PUSH2 0xEE JUMPI JUMPDEST PUSH0 DUP1 REVERT JUMPDEST PUSH2 0x6C PUSH2 0x10C JUMP JUMPDEST PUSH1 0x40 MLOAD PUSH2 0x7F SWAP8 SWAP7 SWAP6 SWAP5 SWAP4 SWAP3 SWAP2 SWAP1 PUSH2 0x94E JUMP JUMPDEST PUSH1 0x40 MLOAD DUP1 SWAP2 SUB SWAP1 RETURN JUMPDEST PUSH2 0x90 PUSH2 0x2BC JUMP JUMPDEST STOP JUMPDEST PUSH2 0xAC PUSH1 0x4 DUP1 CALLDATASIZE SUB DUP2 ADD SWAP1 PUSH2 0xA7 SWAP2 SWAP1 PUSH2 0xA04 JUMP JUMPDEST PUSH2 0x475 JUMP JUMPDEST STOP JUMPDEST PUSH2 0xB6 PUSH2 0x4E3 JUMP JUMPDEST PUSH1 0x40 MLOAD PUSH2 0xC9 SWAP8 SWAP7 SWAP6 SWAP5 SWAP4 SWAP3 SWAP2 SWAP1 PUSH2 0x94E JUMP JUMPDEST PUSH1 0x40 MLOAD DUP1 SWAP2 SUB SWAP1 RETURN JUMPDEST PUSH2 0xEC PUSH1 0x4 DUP1 CALLDATASIZE SUB DUP2 ADD SWAP1 PUSH2 0xE7 SWAP2 SWAP1 PUSH2 0xB5B JUMP JUMPDEST PUSH2 0x675 JUMP JUMPDEST STOP JUMPDEST PUSH2 0xF6 PUSH2 0x830 JUMP JUMPDEST PUSH1 0x40 MLOAD PUSH2 0x103 SWAP2 SWAP1 PUSH2 0xBFD JUMP JUMPDEST PUSH1 0x40 MLOAD DUP1 SWAP2 SUB SWAP1 RETURN JUMPDEST PUSH0 DUP1 PUSH0 PUSH1 0x60 DUP1 PUSH0 DUP1 PUSH1 0x1 PUSH0 ADD PUSH0 SWAP1 SLOAD SWAP1 PUSH2 0x100 EXP SWAP1 DIV PUSH20 0xFFFFFFFFFFFFFFFFFFFFFFFFFFFFFFFFFFFFFFFF AND PUSH1 0x1 DUP1 ADD PUSH0 SWAP1 SLOAD SWAP1 PUSH2 0x100 EXP SWAP1 DIV PUSH20 0xFFFFFFFFFFFFFFFFFFFFFFFFFFFFFFFFFFFFFFFF AND PUSH1 0x1 PUSH1 0x2 ADD SLOAD PUSH1 0x1 PUSH1 0x3 ADD PUSH1 0x1 PUSH1 0x4 ADD PUSH1 0x1 PUSH1 0x5 ADD PUSH0 SWAP1 SLOAD SWAP1 PUSH2 0x100 EXP SWAP1 DIV PUSH1 0xFF AND PUSH1 0x1 PUSH1 0x5 ADD PUSH1 0x1 SWAP1 SLOAD SWAP1 PUSH2 0x100 EXP SWAP1 DIV PUSH1 0xFF AND DUP4 DUP1 SLOAD PUSH2 0x19D SWAP1 PUSH2 0xC43 JUMP JUMPDEST DUP1 PUSH1 0x1F ADD PUSH1 0x20 DUP1 SWAP2 DIV MUL PUSH1 0x20 ADD PUSH1 0x40 MLOAD SWAP1 DUP2 ADD PUSH1 0x40 MSTORE DUP1 SWAP3 SWAP2 SWAP1 DUP2 DUP2 MSTORE PUSH1 0x20 ADD DUP3 DUP1 SLOAD PUSH2 0x1C9 SWAP1 PUSH2 0xC43 JUMP JUMPDEST DUP1 ISZERO PUSH2 0x214 JUMPI DUP1 PUSH1 0x1F LT PUSH2 0x1EB JUMPI PUSH2 0x100 DUP1 DUP4 SLOAD DIV MUL DUP4 MSTORE SWAP2 PUSH1 0x20 ADD SWAP2 PUSH2 0x214 JUMP JUMPDEST DUP3 ADD SWAP2 SWAP1 PUSH0 MSTORE PUSH1 0x20 PUSH0 KECCAK256 SWAP1 JUMPDEST DUP2 SLOAD DUP2 MSTORE SWAP1 PUSH1 0x1 ADD SWAP1 PUSH1 0x20 ADD DUP1 DUP4 GT PUSH2 0x1F7 JUMPI DUP3 SWAP1 SUB PUSH1 0x1F AND DUP3 ADD SWAP2 JUMPDEST POP POP POP POP POP SWAP4 POP DUP3 DUP1 SLOAD PUSH2 0x227 SWAP1 PUSH2 0xC43 JUMP JUMPDEST DUP1 PUSH1 0x1F ADD PUSH1 0x20 DUP1 SWAP2 DIV MUL PUSH1 0x20 ADD PUSH1 0x40 MLOAD SWAP1 DUP2 ADD PUSH1 0x40 MSTORE DUP1 SWAP3 SWAP2 SWAP1 DUP2 DUP2 MSTORE PUSH1 0x20 ADD DUP3 DUP1 SLOAD PUSH2 0x253 SWAP1 PUSH2 0xC43 JUMP JUMPDEST DUP1 ISZERO PUSH2 0x29E JUMPI DUP1 PUSH1 0x1F LT PUSH2 0x275 JUMPI PUSH2 0x100 DUP1 DUP4 SLOAD DIV MUL DUP4 MSTORE SWAP2 PUSH1 0x20 ADD SWAP2 PUSH2 0x29E JUMP JUMPDEST DUP3 ADD SWAP2 SWAP1 PUSH0 MSTORE PUSH1 0x20 PUSH0 KECCAK256 SWAP1 JUMPDEST DUP2 SLOAD DUP2 MSTORE SWAP1 PUSH1 0x1 ADD SWAP1 PUSH1 0x20 ADD DUP1 DUP4 GT PUSH2 0x281 JUMPI DUP3 SWAP1 SUB PUSH1 0x1F AND DUP3 ADD SWAP2 JUMPDEST POP POP POP POP POP SWAP3 POP SWAP7 POP SWAP7 POP SWAP7 POP SWAP7 POP SWAP7 POP SWAP7 POP SWAP7 POP SWAP1 SWAP2 SWAP3 SWAP4 SWAP5 SWAP6 SWAP7 JUMP JUMPDEST PUSH1 0x1 PUSH1 0x5 ADD PUSH0 SWAP1 SLOAD SWAP1 PUSH2 0x100 EXP SWAP1 DIV PUSH1 0xFF AND PUSH2 0x30D JUMPI PUSH1 0x40 MLOAD PUSH32 0x8C379A000000000000000000000000000000000000000000000000000000000 DUP2 MSTORE PUSH1 0x4 ADD PUSH2 0x304 SWAP1 PUSH2 0xCE3 JUMP JUMPDEST PUSH1 0x40 MLOAD DUP1 SWAP2 SUB SWAP1 REVERT JUMPDEST PUSH0 PUSH1 0x1 PUSH1 0x5 ADD PUSH0 PUSH2 0x100 EXP DUP2 SLOAD DUP2 PUSH1 0xFF MUL NOT AND SWAP1 DUP4 ISZERO ISZERO MUL OR SWAP1 SSTORE POP PUSH1 0x1 DUP1 PUSH1 0x5 ADD PUSH1 0x1 PUSH2 0x100 EXP DUP2 SLOAD DUP2 PUSH1 0xFF MUL NOT AND SWAP1 DUP4 ISZERO ISZERO MUL OR SWAP1 SSTORE POP PUSH0 DUP1 SLOAD SWAP1 PUSH2 0x100 EXP SWAP1 DIV PUSH20 0xFFFFFFFFFFFFFFFFFFFFFFFFFFFFFFFFFFFFFFFF AND PUSH20 0xFFFFFFFFFFFFFFFFFFFFFFFFFFFFFFFFFFFFFFFF AND PUSH4 0xA9059CBB PUSH1 0x1 PUSH0 ADD PUSH0 SWAP1 SLOAD SWAP1 PUSH2 0x100 EXP SWAP1 DIV PUSH20 0xFFFFFFFFFFFFFFFFFFFFFFFFFFFFFFFFFFFFFFFF AND PUSH1 0x1 PUSH1 0x2 ADD SLOAD PUSH1 0x40 MLOAD DUP4 PUSH4 0xFFFFFFFF AND PUSH1 0xE0 SHL DUP2 MSTORE PUSH1 0x4 ADD PUSH2 0x3C8 SWAP3 SWAP2 SWAP1 PUSH2 0xD01 JUMP JUMPDEST PUSH1 0x20 PUSH1 0x40 MLOAD DUP1 DUP4 SUB DUP2 PUSH0 DUP8 GAS CALL ISZERO DUP1 ISZERO PUSH2 0x3E4 JUMPI RETURNDATASIZE PUSH0 DUP1 RETURNDATACOPY RETURNDATASIZE PUSH0 REVERT JUMPDEST POP POP POP POP PUSH1 0x40 MLOAD RETURNDATASIZE PUSH1 0x1F NOT PUSH1 0x1F DUP3 ADD AND DUP3 ADD DUP1 PUSH1 0x40 MSTORE POP DUP2 ADD SWAP1 PUSH2 0x408 SWAP2 SWAP1 PUSH2 0xD52 JUMP JUMPDEST PUSH2 0x447 JUMPI PUSH1 0x40 MLOAD PUSH32 0x8C379A000000000000000000000000000000000000000000000000000000000 DUP2 MSTORE PUSH1 0x4 ADD PUSH2 0x43E SWAP1 PUSH2 0xDC7 JUMP JUMPDEST PUSH1 0x40 MLOAD DUP1 SWAP2 SUB SWAP1 REVERT JUMPDEST PUSH32 0x509AA6FF520579F8B18330E8EE30B3DF1A12EC7EDD39D052C6EACEBD2EB9DF00 PUSH1 0x40 MLOAD PUSH1 0x40 MLOAD DUP1 SWAP2 SUB SWAP1 LOG1 JUMP JUMPDEST PUSH0 DUP2 SWAP1 POP DUP1 PUSH20 0xFFFFFFFFFFFFFFFFFFFFFFFFFFFFFFFFFFFFFFFF AND PUSH4 0xC09A0441 ADDRESS PUSH1 0x40 MLOAD DUP3 PUSH4 0xFFFFFFFF AND PUSH1 0xE0 SHL DUP2 MSTORE PUSH1 0x4 ADD PUSH2 0x4B2 SWAP2 SWAP1 PUSH2 0xDE5 JUMP JUMPDEST PUSH0 PUSH1 0x40 MLOAD DUP1 DUP4 SUB DUP2 PUSH0 DUP8 DUP1 EXTCODESIZE ISZERO DUP1 ISZERO PUSH2 0x4C9 JUMPI PUSH0 DUP1 REVERT JUMPDEST POP GAS CALL ISZERO DUP1 ISZERO PUSH2 0x4DB JUMPI RETURNDATASIZE PUSH0 DUP1 RETURNDATACOPY RETURNDATASIZE PUSH0 REVERT JUMPDEST POP POP POP POP POP POP JUMP JUMPDEST PUSH1 0x1 DUP1 PUSH0 ADD PUSH0 SWAP1 SLOAD SWAP1 PUSH2 0x100 EXP SWAP1 DIV PUSH20 0xFFFFFFFFFFFFFFFFFFFFFFFFFFFFFFFFFFFFFFFF AND SWAP1 DUP1 PUSH1 0x1 ADD PUSH0 SWAP1 SLOAD SWAP1 PUSH2 0x100 EXP SWAP1 DIV PUSH20 0xFFFFFFFFFFFFFFFFFFFFFFFFFFFFFFFFFFFFFFFF AND SWAP1 DUP1 PUSH1 0x2 ADD SLOAD SWAP1 DUP1 PUSH1 0x3 ADD DUP1 SLOAD PUSH2 0x543 SWAP1 PUSH2 0xC43 JUMP JUMPDEST DUP1 PUSH1 0x1F ADD PUSH1 0x20 DUP1 SWAP2 DIV MUL PUSH1 0x20 ADD PUSH1 0x40 MLOAD SWAP1 DUP2 ADD PUSH1 0x40 MSTORE DUP1 SWAP3 SWAP2 SWAP1 DUP2 DUP2 MSTORE PUSH1 0x20 ADD DUP3 DUP1 SLOAD PUSH2 0x56F SWAP1 PUSH2 0xC43 JUMP JUMPDEST DUP1 ISZERO PUSH2 0x5BA JUMPI DUP1 PUSH1 0x1F LT PUSH2 0x591 JUMPI PUSH2 0x100 DUP1 DUP4 SLOAD DIV MUL DUP4 MSTORE SWAP2 PUSH1 0x20 ADD SWAP2 PUSH2 0x5BA JUMP JUMPDEST DUP3 ADD SWAP2 SWAP1 PUSH0 MSTORE PUSH1 0x20 PUSH0 KECCAK256 SWAP1 JUMPDEST DUP2 SLOAD DUP2 MSTORE SWAP1 PUSH1 0x1 ADD SWAP1 PUSH1 0x20 ADD DUP1 DUP4 GT PUSH2 0x59D JUMPI DUP3 SWAP1 SUB PUSH1 0x1F AND DUP3 ADD SWAP2 JUMPDEST POP POP POP POP POP SWAP1 DUP1 PUSH1 0x4 ADD DUP1 SLOAD PUSH2 0x5CF SWAP1 PUSH2 0xC43 JUMP JUMPDEST DUP1 PUSH1 0x1F ADD PUSH1 0x20 DUP1 SWAP2 DIV MUL PUSH1 0x20 ADD PUSH1 0x40 MLOAD SWAP1 DUP2 ADD PUSH1 0x40 MSTORE DUP1 SWAP3 SWAP2 SWAP1 DUP2 DUP2 MSTORE PUSH1 0x20 ADD DUP3 DUP1 SLOAD PUSH2 0x5FB SWAP1 PUSH2 0xC43 JUMP JUMPDEST DUP1 ISZERO PUSH2 0x646 JUMPI DUP1 PUSH1 0x1F LT PUSH2 0x61D JUMPI PUSH2 0x100 DUP1 DUP4 SLOAD DIV MUL DUP4 MSTORE SWAP2 PUSH1 0x20 ADD SWAP2 PUSH2 0x646 JUMP JUMPDEST DUP3 ADD SWAP2 SWAP1 PUSH0 MSTORE PUSH1 0x20 PUSH0 KECCAK256 SWAP1 JUMPDEST DUP2 SLOAD DUP2 MSTORE SWAP1 PUSH1 0x1 ADD SWAP1 PUSH1 0x20 ADD DUP1 DUP4 GT PUSH2 0x629 JUMPI DUP3 SWAP1 SUB PUSH1 0x1F AND DUP3 ADD SWAP2 JUMPDEST POP POP POP POP POP SWAP1 DUP1 PUSH1 0x5 ADD PUSH0 SWAP1 SLOAD SWAP1 PUSH2 0x100 EXP SWAP1 DIV PUSH1 0xFF AND SWAP1 DUP1 PUSH1 0x5 ADD PUSH1 0x1 SWAP1 SLOAD SWAP1 PUSH2 0x100 EXP SWAP1 DIV PUSH1 0xFF AND SWAP1 POP DUP8 JUMP JUMPDEST PUSH1 0x1 PUSH1 0x5 ADD PUSH0 SWAP1 SLOAD SWAP1 PUSH2 0x100 EXP SWAP1 DIV PUSH1 0xFF AND PUSH2 0x6C6 JUMPI PUSH1 0x40 MLOAD PUSH32 0x8C379A000000000000000000000000000000000000000000000000000000000 DUP2 MSTORE PUSH1 0x4 ADD PUSH2 0x6BD SWAP1 PUSH2 0xCE3 JUMP JUMPDEST PUSH1 0x40 MLOAD DUP1 SWAP2 SUB SWAP1 REVERT JUMPDEST PUSH0 PUSH1 0x1 PUSH1 0x5 ADD PUSH0 PUSH2 0x100 EXP DUP2 SLOAD DUP2 PUSH1 0xFF MUL NOT AND SWAP1 DUP4 ISZERO ISZERO MUL OR SWAP1 SSTORE POP DUP1 PUSH1 0x1 PUSH1 0x4 ADD SWAP1 DUP2 PUSH2 0x6F4 SWAP2 SWAP1 PUSH2 0xF92 JUMP JUMPDEST POP PUSH0 DUP1 SLOAD SWAP1 PUSH2 0x100 EXP SWAP1 DIV PUSH20 0xFFFFFFFFFFFFFFFFFFFFFFFFFFFFFFFFFFFFFFFF AND PUSH20 0xFFFFFFFFFFFFFFFFFFFFFFFFFFFFFFFFFFFFFFFF AND PUSH4 0xA9059CBB PUSH1 0x1 DUP1 ADD PUSH0 SWAP1 SLOAD SWAP1 PUSH2 0x100 EXP SWAP1 DIV PUSH20 0xFFFFFFFFFFFFFFFFFFFFFFFFFFFFFFFFFFFFFFFF AND PUSH1 0x1 PUSH1 0x2 ADD SLOAD PUSH1 0x40 MLOAD DUP4 PUSH4 0xFFFFFFFF AND PUSH1 0xE0 SHL DUP2 MSTORE PUSH1 0x4 ADD PUSH2 0x777 SWAP3 SWAP2 SWAP1 PUSH2 0xD01 JUMP JUMPDEST PUSH1 0x20 PUSH1 0x40 MLOAD DUP1 DUP4 SUB DUP2 PUSH0 DUP8 GAS CALL ISZERO DUP1 ISZERO PUSH2 0x793 JUMPI RETURNDATASIZE PUSH0 DUP1 RETURNDATACOPY RETURNDATASIZE PUSH0 REVERT JUMPDEST POP POP POP POP PUSH1 0x40 MLOAD RETURNDATASIZE PUSH1 0x1F NOT PUSH1 0x1F DUP3 ADD AND DUP3 ADD DUP1 PUSH1 0x40 MSTORE POP DUP2 ADD SWAP1 PUSH2 0x7B7 SWAP2 SWAP1 PUSH2 0xD52 JUMP JUMPDEST PUSH2 0x7F6 JUMPI PUSH1 0x40 MLOAD PUSH32 0x8C379A000000000000000000000000000000000000000000000000000000000 DUP2 MSTORE PUSH1 0x4 ADD PUSH2 0x7ED SWAP1 PUSH2 0x10AB JUMP JUMPDEST PUSH1 0x40 MLOAD DUP1 SWAP2 SUB SWAP1 REVERT JUMPDEST PUSH32 0xE8F6321BF832EF7D13FDF57FEC0BB0FD8FB5B3439E562BF42A001DBEFBFD246D DUP2 PUSH1 0x40 MLOAD PUSH2 0x825 SWAP2 SWAP1 PUSH2 0x10C9 JUMP JUMPDEST PUSH1 0x40 MLOAD DUP1 SWAP2 SUB SWAP1 LOG1 POP JUMP JUMPDEST PUSH0 DUP1 SLOAD SWAP1 PUSH2 0x100 EXP SWAP1 DIV PUSH20 0xFFFFFFFFFFFFFFFFFFFFFFFFFFFFFFFFFFFFFFFF AND DUP2 JUMP JUMPDEST PUSH0 PUSH20 0xFFFFFFFFFFFFFFFFFFFFFFFFFFFFFFFFFFFFFFFF DUP3 AND SWAP1 POP SWAP2 SWAP1 POP JUMP JUMPDEST PUSH0 PUSH2 0x87C DUP3 PUSH2 0x853 JUMP JUMPDEST SWAP1 POP SWAP2 SWAP1 POP JUMP JUMPDEST PUSH2 0x88C DUP2 PUSH2 0x872 JUMP JUMPDEST DUP3 MSTORE POP POP JUMP JUMPDEST PUSH0 DUP2 SWAP1 POP SWAP2 SWAP1 POP JUMP JUMPDEST PUSH2 0x8A4 DUP2 PUSH2 0x892 JUMP JUMPDEST DUP3 MSTORE POP POP JUMP JUMPDEST PUSH0 DUP2 MLOAD SWAP1 POP SWAP2 SWAP1 POP JUMP JUMPDEST PUSH0 DUP3 DUP3 MSTORE PUSH1 0x20 DUP3 ADD SWAP1 POP SWAP3 SWAP2 POP POP JUMP JUMPDEST PUSH0 JUMPDEST DUP4 DUP2 LT ISZERO PUSH2 0x8E1 JUMPI DUP1 DUP3 ADD MLOAD DUP2 DUP5 ADD MSTORE PUSH1 0x20 DUP2 ADD SWAP1 POP PUSH2 0x8C6 JUMP JUMPDEST PUSH0 DUP5 DUP5 ADD MSTORE POP POP POP POP JUMP JUMPDEST PUSH0 PUSH1 0x1F NOT PUSH1 0x1F DUP4 ADD AND SWAP1 POP SWAP2 SWAP1 POP JUMP JUMPDEST PUSH0 PUSH2 0x906 DUP3 PUSH2 0x8AA JUMP JUMPDEST PUSH2 0x910 DUP2 DUP6 PUSH2 0x8B4 JUMP JUMPDEST SWAP4 POP PUSH2 0x920 DUP2 DUP6 PUSH1 0x20 DUP7 ADD PUSH2 0x8C4 JUMP JUMPDEST PUSH2 0x929 DUP2 PUSH2 0x8EC JUMP JUMPDEST DUP5 ADD SWAP2 POP POP SWAP3 SWAP2 POP POP JUMP JUMPDEST PUSH0 DUP2 ISZERO ISZERO SWAP1 POP SWAP2 SWAP1 POP JUMP JUMPDEST PUSH2 0x948 DUP2 PUSH2 0x934 JUMP JUMPDEST DUP3 MSTORE POP POP JUMP JUMPDEST PUSH0 PUSH1 0xE0 DUP3 ADD SWAP1 POP PUSH2 0x961 PUSH0 DUP4 ADD DUP11 PUSH2 0x883 JUMP JUMPDEST PUSH2 0x96E PUSH1 0x20 DUP4 ADD DUP10 PUSH2 0x883 JUMP JUMPDEST PUSH2 0x97B PUSH1 0x40 DUP4 ADD DUP9 PUSH2 0x89B JUMP JUMPDEST DUP2 DUP2 SUB PUSH1 0x60 DUP4 ADD MSTORE PUSH2 0x98D DUP2 DUP8 PUSH2 0x8FC JUMP JUMPDEST SWAP1 POP DUP2 DUP2 SUB PUSH1 0x80 DUP4 ADD MSTORE PUSH2 0x9A1 DUP2 DUP7 PUSH2 0x8FC JUMP JUMPDEST SWAP1 POP PUSH2 0x9B0 PUSH1 0xA0 DUP4 ADD DUP6 PUSH2 0x93F JUMP JUMPDEST PUSH2 0x9BD PUSH1 0xC0 DUP4 ADD DUP5 PUSH2 0x93F JUMP JUMPDEST SWAP9 SWAP8 POP POP POP POP POP POP POP POP JUMP JUMPDEST PUSH0 PUSH1 0x40 MLOAD SWAP1 POP SWAP1 JUMP JUMPDEST PUSH0 DUP1 REVERT JUMPDEST PUSH0 DUP1 REVERT JUMPDEST PUSH2 0x9E3 DUP2 PUSH2 0x872 JUMP JUMPDEST DUP2 EQ PUSH2 0x9ED JUMPI PUSH0 DUP1 REVERT JUMPDEST POP JUMP JUMPDEST PUSH0 DUP2 CALLDATALOAD SWAP1 POP PUSH2 0x9FE DUP2 PUSH2 0x9DA JUMP JUMPDEST SWAP3 SWAP2 POP POP JUMP JUMPDEST PUSH0 PUSH1 0x20 DUP3 DUP5 SUB SLT ISZERO PUSH2 0xA19 JUMPI PUSH2 0xA18 PUSH2 0x9D2 JUMP JUMPDEST JUMPDEST PUSH0 PUSH2 0xA26 DUP5 DUP3 DUP6 ADD PUSH2 0x9F0 JUMP JUMPDEST SWAP2 POP POP SWAP3 SWAP2 POP POP JUMP JUMPDEST PUSH0 DUP1 REVERT JUMPDEST PUSH0 DUP1 REVERT JUMPDEST PUSH32 0x4E487B7100000000000000000000000000000000000000000000000000000000 PUSH0 MSTORE PUSH1 0x41 PUSH1 0x4 MSTORE PUSH1 0x24 PUSH0 REVERT JUMPDEST PUSH2 0xA6D DUP3 PUSH2 0x8EC JUMP JUMPDEST DUP2 ADD DUP2 DUP2 LT PUSH8 0xFFFFFFFFFFFFFFFF DUP3 GT OR ISZERO PUSH2 0xA8C JUMPI PUSH2 0xA8B PUSH2 0xA37 JUMP JUMPDEST JUMPDEST DUP1 PUSH1 0x40 MSTORE POP POP POP JUMP JUMPDEST PUSH0 PUSH2 0xA9E PUSH2 0x9C9 JUMP JUMPDEST SWAP1 POP PUSH2 0xAAA DUP3 DUP3 PUSH2 0xA64 JUMP JUMPDEST SWAP2 SWAP1 POP JUMP JUMPDEST PUSH0 PUSH8 0xFFFFFFFFFFFFFFFF DUP3 GT ISZERO PUSH2 0xAC9 JUMPI PUSH2 0xAC8 PUSH2 0xA37 JUMP JUMPDEST JUMPDEST PUSH2 0xAD2 DUP3 PUSH2 0x8EC JUMP JUMPDEST SWAP1 POP PUSH1 0x20 DUP2 ADD SWAP1 POP SWAP2 SWAP1 POP JUMP JUMPDEST DUP3 DUP2 DUP4 CALLDATACOPY PUSH0 DUP4 DUP4 ADD MSTORE POP POP POP JUMP JUMPDEST PUSH0 PUSH2 0xAFF PUSH2 0xAFA DUP5 PUSH2 0xAAF JUMP JUMPDEST PUSH2 0xA95 JUMP JUMPDEST SWAP1 POP DUP3 DUP2 MSTORE PUSH1 0x20 DUP2 ADD DUP5 DUP5 DUP5 ADD GT ISZERO PUSH2 0xB1B JUMPI PUSH2 0xB1A PUSH2 0xA33 JUMP JUMPDEST JUMPDEST PUSH2 0xB26 DUP5 DUP3 DUP6 PUSH2 0xADF JUMP JUMPDEST POP SWAP4 SWAP3 POP POP POP JUMP JUMPDEST PUSH0 DUP3 PUSH1 0x1F DUP4 ADD SLT PUSH2 0xB42 JUMPI PUSH2 0xB41 PUSH2 0xA2F JUMP JUMPDEST JUMPDEST DUP2 CALLDATALOAD PUSH2 0xB52 DUP5 DUP3 PUSH1 0x20 DUP7 ADD PUSH2 0xAED JUMP JUMPDEST SWAP2 POP POP SWAP3 SWAP2 POP POP JUMP JUMPDEST PUSH0 PUSH1 0x20 DUP3 DUP5 SUB SLT ISZERO PUSH2 0xB70 JUMPI PUSH2 0xB6F PUSH2 0x9D2 JUMP JUMPDEST JUMPDEST PUSH0 DUP3 ADD CALLDATALOAD PUSH8 0xFFFFFFFFFFFFFFFF DUP2 GT ISZERO PUSH2 0xB8D JUMPI PUSH2 0xB8C PUSH2 0x9D6 JUMP JUMPDEST JUMPDEST PUSH2 0xB99 DUP5 DUP3 DUP6 ADD PUSH2 0xB2E JUMP JUMPDEST SWAP2 POP POP SWAP3 SWAP2 POP POP JUMP JUMPDEST PUSH0 DUP2 SWAP1 POP SWAP2 SWAP1 POP JUMP JUMPDEST PUSH0 PUSH2 0xBC5 PUSH2 0xBC0 PUSH2 0xBBB DUP5 PUSH2 0x853 JUMP JUMPDEST PUSH2 0xBA2 JUMP JUMPDEST PUSH2 0x853 JUMP JUMPDEST SWAP1 POP SWAP2 SWAP1 POP JUMP JUMPDEST PUSH0 PUSH2 0xBD6 DUP3 PUSH2 0xBAB JUMP JUMPDEST SWAP1 POP SWAP2 SWAP1 POP JUMP JUMPDEST PUSH0 PUSH2 0xBE7 DUP3 PUSH2 0xBCC JUMP JUMPDEST SWAP1 POP SWAP2 SWAP1 POP JUMP JUMPDEST PUSH2 0xBF7 DUP2 PUSH2 0xBDD JUMP JUMPDEST DUP3 MSTORE POP POP JUMP JUMPDEST PUSH0 PUSH1 0x20 DUP3 ADD SWAP1 POP PUSH2 0xC10 PUSH0 DUP4 ADD DUP5 PUSH2 0xBEE JUMP JUMPDEST SWAP3 SWAP2 POP POP JUMP JUMPDEST PUSH32 0x4E487B7100000000000000000000000000000000000000000000000000000000 PUSH0 MSTORE PUSH1 0x22 PUSH1 0x4 MSTORE PUSH1 0x24 PUSH0 REVERT JUMPDEST PUSH0 PUSH1 0x2 DUP3 DIV SWAP1 POP PUSH1 0x1 DUP3 AND DUP1 PUSH2 0xC5A JUMPI PUSH1 0x7F DUP3 AND SWAP2 POP JUMPDEST PUSH1 0x20 DUP3 LT DUP2 SUB PUSH2 0xC6D JUMPI PUSH2 0xC6C PUSH2 0xC16 JUMP JUMPDEST JUMPDEST POP SWAP2 SWAP1 POP JUMP JUMPDEST PUSH32 0x5472616E73616374696F6E20697320616C726561647920736574746C6564206F PUSH0 DUP3 ADD MSTORE PUSH32 0x722063616E63656C6C65642E0000000000000000000000000000000000000000 PUSH1 0x20 DUP3 ADD MSTORE POP JUMP JUMPDEST PUSH0 PUSH2 0xCCD PUSH1 0x2C DUP4 PUSH2 0x8B4 JUMP JUMPDEST SWAP2 POP PUSH2 0xCD8 DUP3 PUSH2 0xC73 JUMP JUMPDEST PUSH1 0x40 DUP3 ADD SWAP1 POP SWAP2 SWAP1 POP JUMP JUMPDEST PUSH0 PUSH1 0x20 DUP3 ADD SWAP1 POP DUP2 DUP2 SUB PUSH0 DUP4 ADD MSTORE PUSH2 0xCFA DUP2 PUSH2 0xCC1 JUMP JUMPDEST SWAP1 POP SWAP2 SWAP1 POP JUMP JUMPDEST PUSH0 PUSH1 0x40 DUP3 ADD SWAP1 POP PUSH2 0xD14 PUSH0 DUP4 ADD DUP6 PUSH2 0x883 JUMP JUMPDEST PUSH2 0xD21 PUSH1 0x20 DUP4 ADD DUP5 PUSH2 0x89B JUMP JUMPDEST SWAP4 SWAP3 POP POP POP JUMP JUMPDEST PUSH2 0xD31 DUP2 PUSH2 0x934 JUMP JUMPDEST DUP2 EQ PUSH2 0xD3B JUMPI PUSH0 DUP1 REVERT JUMPDEST POP JUMP JUMPDEST PUSH0 DUP2 MLOAD SWAP1 POP PUSH2 0xD4C DUP2 PUSH2 0xD28 JUMP JUMPDEST SWAP3 SWAP2 POP POP JUMP JUMPDEST PUSH0 PUSH1 0x20 DUP3 DUP5 SUB SLT ISZERO PUSH2 0xD67 JUMPI PUSH2 0xD66 PUSH2 0x9D2 JUMP JUMPDEST JUMPDEST PUSH0 PUSH2 0xD74 DUP5 DUP3 DUP6 ADD PUSH2 0xD3E JUMP JUMPDEST SWAP2 POP POP SWAP3 SWAP2 POP POP JUMP JUMPDEST PUSH32 0x526566756E64206661696C656400000000000000000000000000000000000000 PUSH0 DUP3 ADD MSTORE POP JUMP JUMPDEST PUSH0 PUSH2 0xDB1 PUSH1 0xD DUP4 PUSH2 0x8B4 JUMP JUMPDEST SWAP2 POP PUSH2 0xDBC DUP3 PUSH2 0xD7D JUMP JUMPDEST PUSH1 0x20 DUP3 ADD SWAP1 POP SWAP2 SWAP1 POP JUMP JUMPDEST PUSH0 PUSH1 0x20 DUP3 ADD SWAP1 POP DUP2 DUP2 SUB PUSH0 DUP4 ADD MSTORE PUSH2 0xDDE DUP2 PUSH2 0xDA5 JUMP JUMPDEST SWAP1 POP SWAP2 SWAP1 POP JUMP JUMPDEST PUSH0 PUSH1 0x20 DUP3 ADD SWAP1 POP PUSH2 0xDF8 PUSH0 DUP4 ADD DUP5 PUSH2 0x883 JUMP JUMPDEST SWAP3 SWAP2 POP POP JUMP JUMPDEST PUSH0 DUP2 SWAP1 POP DUP2 PUSH0 MSTORE PUSH1 0x20 PUSH0 KECCAK256 SWAP1 POP SWAP2 SWAP1 POP JUMP JUMPDEST PUSH0 PUSH1 0x20 PUSH1 0x1F DUP4 ADD DIV SWAP1 POP SWAP2 SWAP1 POP JUMP JUMPDEST PUSH0 DUP3 DUP3 SHL SWAP1 POP SWAP3 SWAP2 POP POP JUMP JUMPDEST PUSH0 PUSH1 0x8 DUP4 MUL PUSH2 0xE5A PUSH32 0xFFFFFFFFFFFFFFFFFFFFFFFFFFFFFFFFFFFFFFFFFFFFFFFFFFFFFFFFFFFFFFFF DUP3 PUSH2 0xE1F JUMP JUMPDEST PUSH2 0xE64 DUP7 DUP4 PUSH2 0xE1F JUMP JUMPDEST SWAP6 POP DUP1 NOT DUP5 AND SWAP4 POP DUP1 DUP7 AND DUP5 OR SWAP3 POP POP POP SWAP4 SWAP3 POP POP POP JUMP JUMPDEST PUSH0 PUSH2 0xE96 PUSH2 0xE91 PUSH2 0xE8C DUP5 PUSH2 0x892 JUMP JUMPDEST PUSH2 0xBA2 JUMP JUMPDEST PUSH2 0x892 JUMP JUMPDEST SWAP1 POP SWAP2 SWAP1 POP JUMP JUMPDEST PUSH0 DUP2 SWAP1 POP SWAP2 SWAP1 POP JUMP JUMPDEST PUSH2 0xEAF DUP4 PUSH2 0xE7C JUMP JUMPDEST PUSH2 0xEC3 PUSH2 0xEBB DUP3 PUSH2 0xE9D JUMP JUMPDEST DUP5 DUP5 SLOAD PUSH2 0xE2B JUMP JUMPDEST DUP3 SSTORE POP POP POP POP JUMP JUMPDEST PUSH0 SWAP1 JUMP JUMPDEST PUSH2 0xED7 PUSH2 0xECB JUMP JUMPDEST PUSH2 0xEE2 DUP2 DUP5 DUP5 PUSH2 0xEA6 JUMP JUMPDEST POP POP POP JUMP JUMPDEST JUMPDEST DUP2 DUP2 LT ISZERO PUSH2 0xF05 JUMPI PUSH2 0xEFA PUSH0 DUP3 PUSH2 0xECF JUMP JUMPDEST PUSH1 0x1 DUP2 ADD SWAP1 POP PUSH2 0xEE8 JUMP JUMPDEST POP POP JUMP JUMPDEST PUSH1 0x1F DUP3 GT ISZERO PUSH2 0xF4A JUMPI PUSH2 0xF1B DUP2 PUSH2 0xDFE JUMP JUMPDEST PUSH2 0xF24 DUP5 PUSH2 0xE10 JUMP JUMPDEST DUP2 ADD PUSH1 0x20 DUP6 LT ISZERO PUSH2 0xF33 JUMPI DUP2 SWAP1 POP JUMPDEST PUSH2 0xF47 PUSH2 0xF3F DUP6 PUSH2 0xE10 JUMP JUMPDEST DUP4 ADD DUP3 PUSH2 0xEE7 JUMP JUMPDEST POP POP JUMPDEST POP POP POP JUMP JUMPDEST PUSH0 DUP3 DUP3 SHR SWAP1 POP SWAP3 SWAP2 POP POP JUMP JUMPDEST PUSH0 PUSH2 0xF6A PUSH0 NOT DUP5 PUSH1 0x8 MUL PUSH2 0xF4F JUMP JUMPDEST NOT DUP1 DUP4 AND SWAP2 POP POP SWAP3 SWAP2 POP POP JUMP JUMPDEST PUSH0 PUSH2 0xF82 DUP4 DUP4 PUSH2 0xF5B JUMP JUMPDEST SWAP2 POP DUP3 PUSH1 0x2 MUL DUP3 OR SWAP1 POP SWAP3 SWAP2 POP POP JUMP JUMPDEST PUSH2 0xF9B DUP3 PUSH2 0x8AA JUMP JUMPDEST PUSH8 0xFFFFFFFFFFFFFFFF DUP2 GT ISZERO PUSH2 0xFB4 JUMPI PUSH2 0xFB3 PUSH2 0xA37 JUMP JUMPDEST JUMPDEST PUSH2 0xFBE DUP3 SLOAD PUSH2 0xC43 JUMP JUMPDEST PUSH2 0xFC9 DUP3 DUP3 DUP6 PUSH2 0xF09 JUMP JUMPDEST PUSH0 PUSH1 0x20 SWAP1 POP PUSH1 0x1F DUP4 GT PUSH1 0x1 DUP2 EQ PUSH2 0xFFA JUMPI PUSH0 DUP5 ISZERO PUSH2 0xFE8 JUMPI DUP3 DUP8 ADD MLOAD SWAP1 POP JUMPDEST PUSH2 0xFF2 DUP6 DUP3 PUSH2 0xF77 JUMP JUMPDEST DUP7 SSTORE POP PUSH2 0x1059 JUMP JUMPDEST PUSH1 0x1F NOT DUP5 AND PUSH2 0x1008 DUP7 PUSH2 0xDFE JUMP JUMPDEST PUSH0 JUMPDEST DUP3 DUP2 LT ISZERO PUSH2 0x102F JUMPI DUP5 DUP10 ADD MLOAD DUP3 SSTORE PUSH1 0x1 DUP3 ADD SWAP2 POP PUSH1 0x20 DUP6 ADD SWAP5 POP PUSH1 0x20 DUP2 ADD SWAP1 POP PUSH2 0x100A JUMP JUMPDEST DUP7 DUP4 LT ISZERO PUSH2 0x104C JUMPI DUP5 DUP10 ADD MLOAD PUSH2 0x1048 PUSH1 0x1F DUP10 AND DUP3 PUSH2 0xF5B JUMP JUMPDEST DUP4 SSTORE POP JUMPDEST PUSH1 0x1 PUSH1 0x2 DUP9 MUL ADD DUP9 SSTORE POP POP POP JUMPDEST POP POP POP POP POP POP JUMP JUMPDEST PUSH32 0x5472616E73666572206661696C65640000000000000000000000000000000000 PUSH0 DUP3 ADD MSTORE POP JUMP JUMPDEST PUSH0 PUSH2 0x1095 PUSH1 0xF DUP4 PUSH2 0x8B4 JUMP JUMPDEST SWAP2 POP PUSH2 0x10A0 DUP3 PUSH2 0x1061 JUMP JUMPDEST PUSH1 0x20 DUP3 ADD SWAP1 POP SWAP2 SWAP1 POP JUMP JUMPDEST PUSH0 PUSH1 0x20 DUP3 ADD SWAP1 POP DUP2 DUP2 SUB PUSH0 DUP4 ADD MSTORE PUSH2 0x10C2 DUP2 PUSH2 0x1089 JUMP JUMPDEST SWAP1 POP SWAP2 SWAP1 POP JUMP JUMPDEST PUSH0 PUSH1 0x20 DUP3 ADD SWAP1 POP DUP2 DUP2 SUB PUSH0 DUP4 ADD MSTORE PUSH2 0x10E1 DUP2 DUP5 PUSH2 0x8FC JUMP JUMPDEST SWAP1 POP SWAP3 SWAP2 POP POP JUMP INVALID LOG2 PUSH5 0x6970667358 0x22 SLT KECCAK256 0x5C 0xB4 0x1E 0xB4 0xFC MUL DUP16 GASLIMIT 0xB6 0xE1 STATICCALL JUMP 0xB2 SHL 0xE7 SWAP4 PREVRANDAO DUP1 JUMP LOG2 EXTCODESIZE 0x1F 0xE6 MSTORE DELEGATECALL SWAP9 SWAP14 BYTE KECCAK256 SAR PUSH18 0xC64736F6C63430008160033000000000000 "
				},
				"gasEstimates": {
					"creation": {
						"codeDepositCost": "876600",
						"executionCost": "infinite",
						"totalCost": "infinite"
					},
					"external": {
						"cancelTransaction()": "infinite",
						"cbdcToken()": "infinite",
						"getTransaction()": "infinite",
						"loadIntoSystemContract(address)": "infinite",
						"settleTransaction(string)": "infinite",
						"transaction()": "infinite"
					}
				},
				"methodIdentifiers": {
					"cancelTransaction()": "5c8cf750",
					"cbdcToken()": "e10173b6",
					"getTransaction()": "59705f81",
					"loadIntoSystemContract(address)": "a556fabf",
					"settleTransaction(string)": "e045761b",
					"transaction()": "c99de57e"
				}
			},
			"storageLayout": {
				"storage": [
					{
						"astId": 89,
						"contract": "contracts/transaction.sol:TransactionContract",
						"label": "cbdcToken",
						"offset": 0,
						"slot": "0",
						"type": "t_contract(IERC20)77"
					},
					{
						"astId": 107,
						"contract": "contracts/transaction.sol:TransactionContract",
						"label": "transaction",
						"offset": 0,
						"slot": "1",
						"type": "t_struct(Transaction)104_storage"
					}
				],
				"types": {
					"t_address": {
						"encoding": "inplace",
						"label": "address",
						"numberOfBytes": "20"
					},
					"t_bool": {
						"encoding": "inplace",
						"label": "bool",
						"numberOfBytes": "1"
					},
					"t_contract(IERC20)77": {
						"encoding": "inplace",
						"label": "contract IERC20",
						"numberOfBytes": "20"
					},
					"t_string_storage": {
						"encoding": "bytes",
						"label": "string",
						"numberOfBytes": "32"
					},
					"t_struct(Transaction)104_storage": {
						"encoding": "inplace",
						"label": "struct TransactionContract.Transaction",
						"members": [
							{
								"astId": 91,
								"contract": "contracts/transaction.sol:TransactionContract",
								"label": "payor",
								"offset": 0,
								"slot": "0",
								"type": "t_address"
							},
							{
								"astId": 93,
								"contract": "contracts/transaction.sol:TransactionContract",
								"label": "recipient",
								"offset": 0,
								"slot": "1",
								"type": "t_address"
							},
							{
								"astId": 95,
								"contract": "contracts/transaction.sol:TransactionContract",
								"label": "amount",
								"offset": 0,
								"slot": "2",
								"type": "t_uint256"
							},
							{
								"astId": 97,
								"contract": "contracts/transaction.sol:TransactionContract",
								"label": "creationPeriod",
								"offset": 0,
								"slot": "3",
								"type": "t_string_storage"
							},
							{
								"astId": 99,
								"contract": "contracts/transaction.sol:TransactionContract",
								"label": "settlementPeriod",
								"offset": 0,
								"slot": "4",
								"type": "t_string_storage"
							},
							{
								"astId": 101,
								"contract": "contracts/transaction.sol:TransactionContract",
								"label": "isOpen",
								"offset": 0,
								"slot": "5",
								"type": "t_bool"
							},
							{
								"astId": 103,
								"contract": "contracts/transaction.sol:TransactionContract",
								"label": "isCancelled",
								"offset": 1,
								"slot": "5",
								"type": "t_bool"
							}
						],
						"numberOfBytes": "192"
					},
					"t_uint256": {
						"encoding": "inplace",
						"label": "uint256",
						"numberOfBytes": "32"
					}
				}
			},
			"userdoc": {
				"kind": "user",
				"methods": {},
				"version": 1
			}
		}
	}
}