{
	"contracts/transactions.sol": {
		"Transactions": {
			"abi": [
				{
					"inputs": [
						{
							"internalType": "address",
							"name": "_cbdcTokenAddress",
							"type": "address"
						},
						{
							"internalType": "address",
							"name": "_systemContract",
							"type": "address"
						},
						{
							"internalType": "string",
							"name": "_contractPeriod",
							"type": "string"
						}
					],
					"stateMutability": "nonpayable",
					"type": "constructor"
				},
				{
					"anonymous": false,
					"inputs": [
						{
							"indexed": true,
							"internalType": "uint256",
							"name": "transactionId",
							"type": "uint256"
						}
					],
					"name": "TransactionCancelled",
					"type": "event"
				},
				{
					"anonymous": false,
					"inputs": [
						{
							"indexed": true,
							"internalType": "uint256",
							"name": "transactionId",
							"type": "uint256"
						},
						{
							"indexed": true,
							"internalType": "address",
							"name": "payor",
							"type": "address"
						},
						{
							"indexed": true,
							"internalType": "address",
							"name": "recipient",
							"type": "address"
						},
						{
							"indexed": false,
							"internalType": "uint256",
							"name": "amount",
							"type": "uint256"
						},
						{
							"indexed": false,
							"internalType": "string",
							"name": "creationPeriod",
							"type": "string"
						}
					],
					"name": "TransactionCreated",
					"type": "event"
				},
				{
					"anonymous": false,
					"inputs": [
						{
							"indexed": true,
							"internalType": "uint256",
							"name": "transactionId",
							"type": "uint256"
						},
						{
							"indexed": false,
							"internalType": "string",
							"name": "settlementPeriod",
							"type": "string"
						}
					],
					"name": "TransactionSettled",
					"type": "event"
				},
				{
					"inputs": [
						{
							"internalType": "uint256",
							"name": "_transactionId",
							"type": "uint256"
						}
					],
					"name": "cancelTransaction",
					"outputs": [],
					"stateMutability": "nonpayable",
					"type": "function"
				},
				{
					"inputs": [],
					"name": "cbdcToken",
					"outputs": [
						{
							"internalType": "contract IERC20",
							"name": "",
							"type": "address"
						}
					],
					"stateMutability": "view",
					"type": "function"
				},
				{
					"inputs": [],
					"name": "contractPeriod",
					"outputs": [
						{
							"internalType": "string",
							"name": "",
							"type": "string"
						}
					],
					"stateMutability": "view",
					"type": "function"
				},
				{
					"inputs": [
						{
							"internalType": "address",
							"name": "_recipient",
							"type": "address"
						},
						{
							"internalType": "uint256",
							"name": "_amount",
							"type": "uint256"
						}
					],
					"name": "createTransaction",
					"outputs": [],
					"stateMutability": "nonpayable",
					"type": "function"
				},
				{
					"inputs": [
						{
							"internalType": "uint256",
							"name": "_transactionId",
							"type": "uint256"
						}
					],
					"name": "getTransaction",
					"outputs": [
						{
							"internalType": "address",
							"name": "",
							"type": "address"
						},
						{
							"internalType": "address",
							"name": "",
							"type": "address"
						},
						{
							"internalType": "uint256",
							"name": "",
							"type": "uint256"
						},
						{
							"internalType": "string",
							"name": "",
							"type": "string"
						},
						{
							"internalType": "string",
							"name": "",
							"type": "string"
						},
						{
							"internalType": "bool",
							"name": "",
							"type": "bool"
						},
						{
							"internalType": "bool",
							"name": "",
							"type": "bool"
						}
					],
					"stateMutability": "view",
					"type": "function"
				},
				{
					"inputs": [],
					"name": "loadIntoSystemContract",
					"outputs": [],
					"stateMutability": "nonpayable",
					"type": "function"
				},
				{
					"inputs": [
						{
							"internalType": "uint256",
							"name": "_transactionId",
							"type": "uint256"
						},
						{
							"internalType": "string",
							"name": "_settlementPeriod",
							"type": "string"
						}
					],
					"name": "settleTransaction",
					"outputs": [],
					"stateMutability": "nonpayable",
					"type": "function"
				},
				{
					"inputs": [],
					"name": "systemContract",
					"outputs": [
						{
							"internalType": "address",
							"name": "",
							"type": "address"
						}
					],
					"stateMutability": "view",
					"type": "function"
				},
				{
					"inputs": [
						{
							"internalType": "uint256",
							"name": "",
							"type": "uint256"
						}
					],
					"name": "transactions",
					"outputs": [
						{
							"internalType": "address",
							"name": "payor",
							"type": "address"
						},
						{
							"internalType": "address",
							"name": "recipient",
							"type": "address"
						},
						{
							"internalType": "uint256",
							"name": "amount",
							"type": "uint256"
						},
						{
							"internalType": "string",
							"name": "creationPeriod",
							"type": "string"
						},
						{
							"internalType": "string",
							"name": "settlementPeriod",
							"type": "string"
						},
						{
							"internalType": "bool",
							"name": "isOpen",
							"type": "bool"
						},
						{
							"internalType": "bool",
							"name": "isCancelled",
							"type": "bool"
						}
					],
					"stateMutability": "view",
					"type": "function"
				}
			],
			"devdoc": {
				"kind": "dev",
				"methods": {},
				"version": 1
			},
			"evm": {
				"assembly": "    /* \"contracts/transactions.sol\":116:4420  contract Transactions {... */\n  mstore(0x40, 0x80)\n    /* \"contracts/transactions.sol\":828:1137  constructor(address _cbdcTokenAddress, address _systemContract, string memory _contractPeriod) {... */\n  callvalue\n  dup1\n  iszero\n  tag_1\n  jumpi\n  0x00\n  dup1\n  revert\ntag_1:\n  pop\n  mload(0x40)\n  sub(codesize, bytecodeSize)\n  dup1\n  bytecodeSize\n  dup4\n  codecopy\n  dup2\n  dup2\n  add\n  0x40\n  mstore\n  dup2\n  add\n  swap1\n  tag_2\n  swap2\n  swap1\n  tag_3\n  jump\t// in\ntag_2:\n    /* \"contracts/transactions.sol\":941:971  isValidPeriod(_contractPeriod) */\n  tag_6\n    /* \"contracts/transactions.sol\":955:970  _contractPeriod */\n  dup2\n    /* \"contracts/transactions.sol\":941:954  isValidPeriod */\n  shl(0x20, tag_7)\n    /* \"contracts/transactions.sol\":941:971  isValidPeriod(_contractPeriod) */\n  0x20\n  shr\n  jump\t// in\ntag_6:\n    /* \"contracts/transactions.sol\":933:999  require(isValidPeriod(_contractPeriod), \"Invalid contract period\") */\n  tag_8\n  jumpi\n  mload(0x40)\n  0x08c379a000000000000000000000000000000000000000000000000000000000\n  dup2\n  mstore\n  0x04\n  add\n  tag_9\n  swap1\n  tag_10\n  jump\t// in\ntag_9:\n  mload(0x40)\n  dup1\n  swap2\n  sub\n  swap1\n  revert\ntag_8:\n    /* \"contracts/transactions.sol\":1028:1045  _cbdcTokenAddress */\n  dup3\n    /* \"contracts/transactions.sol\":1009:1018  cbdcToken */\n  0x00\n  dup1\n    /* \"contracts/transactions.sol\":1009:1046  cbdcToken = IERC20(_cbdcTokenAddress) */\n  0x0100\n  exp\n  dup2\n  sload\n  dup2\n  0xffffffffffffffffffffffffffffffffffffffff\n  mul\n  not\n  and\n  swap1\n  dup4\n  0xffffffffffffffffffffffffffffffffffffffff\n  and\n  mul\n  or\n  swap1\n  sstore\n  pop\n    /* \"contracts/transactions.sol\":1073:1088  _systemContract */\n  dup2\n    /* \"contracts/transactions.sol\":1056:1070  systemContract */\n  0x01\n  0x00\n    /* \"contracts/transactions.sol\":1056:1088  systemContract = _systemContract */\n  0x0100\n  exp\n  dup2\n  sload\n  dup2\n  0xffffffffffffffffffffffffffffffffffffffff\n  mul\n  not\n  and\n  swap1\n  dup4\n  0xffffffffffffffffffffffffffffffffffffffff\n  and\n  mul\n  or\n  swap1\n  sstore\n  pop\n    /* \"contracts/transactions.sol\":1115:1130  _contractPeriod */\n  dup1\n    /* \"contracts/transactions.sol\":1098:1112  contractPeriod */\n  0x02\n    /* \"contracts/transactions.sol\":1098:1130  contractPeriod = _contractPeriod */\n  swap1\n  dup2\n  tag_11\n  swap2\n  swap1\n  tag_12\n  jump\t// in\ntag_11:\n  pop\n    /* \"contracts/transactions.sol\":828:1137  constructor(address _cbdcTokenAddress, address _systemContract, string memory _contractPeriod) {... */\n  pop\n  pop\n  pop\n    /* \"contracts/transactions.sol\":116:4420  contract Transactions {... */\n  jump(tag_13)\n    /* \"contracts/transactions.sol\":3561:3828  function isValidPeriod(string memory period) private pure returns (bool) {... */\ntag_7:\n    /* \"contracts/transactions.sol\":3628:3632  bool */\n  0x00\n    /* \"contracts/transactions.sol\":3703:3732  abi.encodePacked((\"morning\")) */\n  add(0x20, mload(0x40))\n  tag_15\n  swap1\n  tag_16\n  jump\t// in\ntag_15:\n  mload(0x40)\n  0x20\n  dup2\n  dup4\n  sub\n  sub\n  dup2\n  mstore\n  swap1\n  0x40\n  mstore\n    /* \"contracts/transactions.sol\":3693:3733  keccak256(abi.encodePacked((\"morning\"))) */\n  dup1\n  mload\n  swap1\n  0x20\n  add\n  keccak256\n    /* \"contracts/transactions.sol\":3680:3686  period */\n  dup3\n    /* \"contracts/transactions.sol\":3662:3688  abi.encodePacked((period)) */\n  add(0x20, mload(0x40))\n  tag_17\n  swap2\n  swap1\n  tag_18\n  jump\t// in\ntag_17:\n  mload(0x40)\n  0x20\n  dup2\n  dup4\n  sub\n  sub\n  dup2\n  mstore\n  swap1\n  0x40\n  mstore\n    /* \"contracts/transactions.sol\":3652:3689  keccak256(abi.encodePacked((period))) */\n  dup1\n  mload\n  swap1\n  0x20\n  add\n  keccak256\n    /* \"contracts/transactions.sol\":3652:3733  keccak256(abi.encodePacked((period))) == keccak256(abi.encodePacked((\"morning\"))) */\n  eq\n    /* \"contracts/transactions.sol\":3652:3820  keccak256(abi.encodePacked((period))) == keccak256(abi.encodePacked((\"morning\"))) || keccak256(abi.encodePacked((period))) == keccak256(abi.encodePacked((\"afternoon\"))) */\n  dup1\n  tag_19\n  jumpi\n  pop\n    /* \"contracts/transactions.sol\":3788:3819  abi.encodePacked((\"afternoon\")) */\n  add(0x20, mload(0x40))\n  tag_20\n  swap1\n  tag_21\n  jump\t// in\ntag_20:\n  mload(0x40)\n  0x20\n  dup2\n  dup4\n  sub\n  sub\n  dup2\n  mstore\n  swap1\n  0x40\n  mstore\n    /* \"contracts/transactions.sol\":3778:3820  keccak256(abi.encodePacked((\"afternoon\"))) */\n  dup1\n  mload\n  swap1\n  0x20\n  add\n  keccak256\n    /* \"contracts/transactions.sol\":3765:3771  period */\n  dup3\n    /* \"contracts/transactions.sol\":3747:3773  abi.encodePacked((period)) */\n  add(0x20, mload(0x40))\n  tag_22\n  swap2\n  swap1\n  tag_18\n  jump\t// in\ntag_22:\n  mload(0x40)\n  0x20\n  dup2\n  dup4\n  sub\n  sub\n  dup2\n  mstore\n  swap1\n  0x40\n  mstore\n    /* \"contracts/transactions.sol\":3737:3774  keccak256(abi.encodePacked((period))) */\n  dup1\n  mload\n  swap1\n  0x20\n  add\n  keccak256\n    /* \"contracts/transactions.sol\":3737:3820  keccak256(abi.encodePacked((period))) == keccak256(abi.encodePacked((\"afternoon\"))) */\n  eq\n    /* \"contracts/transactions.sol\":3652:3820  keccak256(abi.encodePacked((period))) == keccak256(abi.encodePacked((\"morning\"))) || keccak256(abi.encodePacked((period))) == keccak256(abi.encodePacked((\"afternoon\"))) */\ntag_19:\n    /* \"contracts/transactions.sol\":3644:3821  return (keccak256(abi.encodePacked((period))) == keccak256(abi.encodePacked((\"morning\"))) || keccak256(abi.encodePacked((period))) == keccak256(abi.encodePacked((\"afternoon\")))) */\n  swap1\n  pop\n    /* \"contracts/transactions.sol\":3561:3828  function isValidPeriod(string memory period) private pure returns (bool) {... */\n  swap2\n  swap1\n  pop\n  jump\t// out\n    /* \"#utility.yul\":7:82   */\ntag_23:\n    /* \"#utility.yul\":40:46   */\n  0x00\n    /* \"#utility.yul\":73:75   */\n  0x40\n    /* \"#utility.yul\":67:76   */\n  mload\n    /* \"#utility.yul\":57:76   */\n  swap1\n  pop\n    /* \"#utility.yul\":7:82   */\n  swap1\n  jump\t// out\n    /* \"#utility.yul\":88:205   */\ntag_24:\n    /* \"#utility.yul\":197:198   */\n  0x00\n    /* \"#utility.yul\":194:195   */\n  dup1\n    /* \"#utility.yul\":187:199   */\n  revert\n    /* \"#utility.yul\":211:328   */\ntag_25:\n    /* \"#utility.yul\":320:321   */\n  0x00\n    /* \"#utility.yul\":317:318   */\n  dup1\n    /* \"#utility.yul\":310:322   */\n  revert\n    /* \"#utility.yul\":334:460   */\ntag_26:\n    /* \"#utility.yul\":371:378   */\n  0x00\n    /* \"#utility.yul\":411:453   */\n  0xffffffffffffffffffffffffffffffffffffffff\n    /* \"#utility.yul\":404:409   */\n  dup3\n    /* \"#utility.yul\":400:454   */\n  and\n    /* \"#utility.yul\":389:454   */\n  swap1\n  pop\n    /* \"#utility.yul\":334:460   */\n  swap2\n  swap1\n  pop\n  jump\t// out\n    /* \"#utility.yul\":466:562   */\ntag_27:\n    /* \"#utility.yul\":503:510   */\n  0x00\n    /* \"#utility.yul\":532:556   */\n  tag_74\n    /* \"#utility.yul\":550:555   */\n  dup3\n    /* \"#utility.yul\":532:556   */\n  tag_26\n  jump\t// in\ntag_74:\n    /* \"#utility.yul\":521:556   */\n  swap1\n  pop\n    /* \"#utility.yul\":466:562   */\n  swap2\n  swap1\n  pop\n  jump\t// out\n    /* \"#utility.yul\":568:690   */\ntag_28:\n    /* \"#utility.yul\":641:665   */\n  tag_76\n    /* \"#utility.yul\":659:664   */\n  dup2\n    /* \"#utility.yul\":641:665   */\n  tag_27\n  jump\t// in\ntag_76:\n    /* \"#utility.yul\":634:639   */\n  dup2\n    /* \"#utility.yul\":631:666   */\n  eq\n    /* \"#utility.yul\":621:684   */\n  tag_77\n  jumpi\n    /* \"#utility.yul\":680:681   */\n  0x00\n    /* \"#utility.yul\":677:678   */\n  dup1\n    /* \"#utility.yul\":670:682   */\n  revert\n    /* \"#utility.yul\":621:684   */\ntag_77:\n    /* \"#utility.yul\":568:690   */\n  pop\n  jump\t// out\n    /* \"#utility.yul\":696:839   */\ntag_29:\n    /* \"#utility.yul\":753:758   */\n  0x00\n    /* \"#utility.yul\":784:790   */\n  dup2\n    /* \"#utility.yul\":778:791   */\n  mload\n    /* \"#utility.yul\":769:791   */\n  swap1\n  pop\n    /* \"#utility.yul\":800:833   */\n  tag_79\n    /* \"#utility.yul\":827:832   */\n  dup2\n    /* \"#utility.yul\":800:833   */\n  tag_28\n  jump\t// in\ntag_79:\n    /* \"#utility.yul\":696:839   */\n  swap3\n  swap2\n  pop\n  pop\n  jump\t// out\n    /* \"#utility.yul\":845:962   */\ntag_30:\n    /* \"#utility.yul\":954:955   */\n  0x00\n    /* \"#utility.yul\":951:952   */\n  dup1\n    /* \"#utility.yul\":944:956   */\n  revert\n    /* \"#utility.yul\":968:1085   */\ntag_31:\n    /* \"#utility.yul\":1077:1078   */\n  0x00\n    /* \"#utility.yul\":1074:1075   */\n  dup1\n    /* \"#utility.yul\":1067:1079   */\n  revert\n    /* \"#utility.yul\":1091:1193   */\ntag_32:\n    /* \"#utility.yul\":1132:1138   */\n  0x00\n    /* \"#utility.yul\":1183:1185   */\n  0x1f\n    /* \"#utility.yul\":1179:1186   */\n  not\n    /* \"#utility.yul\":1174:1176   */\n  0x1f\n    /* \"#utility.yul\":1167:1172   */\n  dup4\n    /* \"#utility.yul\":1163:1177   */\n  add\n    /* \"#utility.yul\":1159:1187   */\n  and\n    /* \"#utility.yul\":1149:1187   */\n  swap1\n  pop\n    /* \"#utility.yul\":1091:1193   */\n  swap2\n  swap1\n  pop\n  jump\t// out\n    /* \"#utility.yul\":1199:1379   */\ntag_33:\n    /* \"#utility.yul\":1247:1324   */\n  0x4e487b7100000000000000000000000000000000000000000000000000000000\n    /* \"#utility.yul\":1244:1245   */\n  0x00\n    /* \"#utility.yul\":1237:1325   */\n  mstore\n    /* \"#utility.yul\":1344:1348   */\n  0x41\n    /* \"#utility.yul\":1341:1342   */\n  0x04\n    /* \"#utility.yul\":1334:1349   */\n  mstore\n    /* \"#utility.yul\":1368:1372   */\n  0x24\n    /* \"#utility.yul\":1365:1366   */\n  0x00\n    /* \"#utility.yul\":1358:1373   */\n  revert\n    /* \"#utility.yul\":1385:1666   */\ntag_34:\n    /* \"#utility.yul\":1468:1495   */\n  tag_85\n    /* \"#utility.yul\":1490:1494   */\n  dup3\n    /* \"#utility.yul\":1468:1495   */\n  tag_32\n  jump\t// in\ntag_85:\n    /* \"#utility.yul\":1460:1466   */\n  dup2\n    /* \"#utility.yul\":1456:1496   */\n  add\n    /* \"#utility.yul\":1598:1604   */\n  dup2\n    /* \"#utility.yul\":1586:1596   */\n  dup2\n    /* \"#utility.yul\":1583:1605   */\n  lt\n    /* \"#utility.yul\":1562:1580   */\n  0xffffffffffffffff\n    /* \"#utility.yul\":1550:1560   */\n  dup3\n    /* \"#utility.yul\":1547:1581   */\n  gt\n    /* \"#utility.yul\":1544:1606   */\n  or\n    /* \"#utility.yul\":1541:1629   */\n  iszero\n  tag_86\n  jumpi\n    /* \"#utility.yul\":1609:1627   */\n  tag_87\n  tag_33\n  jump\t// in\ntag_87:\n    /* \"#utility.yul\":1541:1629   */\ntag_86:\n    /* \"#utility.yul\":1649:1659   */\n  dup1\n    /* \"#utility.yul\":1645:1647   */\n  0x40\n    /* \"#utility.yul\":1638:1660   */\n  mstore\n    /* \"#utility.yul\":1428:1666   */\n  pop\n    /* \"#utility.yul\":1385:1666   */\n  pop\n  pop\n  jump\t// out\n    /* \"#utility.yul\":1672:1801   */\ntag_35:\n    /* \"#utility.yul\":1706:1712   */\n  0x00\n    /* \"#utility.yul\":1733:1753   */\n  tag_89\n  tag_23\n  jump\t// in\ntag_89:\n    /* \"#utility.yul\":1723:1753   */\n  swap1\n  pop\n    /* \"#utility.yul\":1762:1795   */\n  tag_90\n    /* \"#utility.yul\":1790:1794   */\n  dup3\n    /* \"#utility.yul\":1782:1788   */\n  dup3\n    /* \"#utility.yul\":1762:1795   */\n  tag_34\n  jump\t// in\ntag_90:\n    /* \"#utility.yul\":1672:1801   */\n  swap2\n  swap1\n  pop\n  jump\t// out\n    /* \"#utility.yul\":1807:2115   */\ntag_36:\n    /* \"#utility.yul\":1869:1873   */\n  0x00\n    /* \"#utility.yul\":1959:1977   */\n  0xffffffffffffffff\n    /* \"#utility.yul\":1951:1957   */\n  dup3\n    /* \"#utility.yul\":1948:1978   */\n  gt\n    /* \"#utility.yul\":1945:2001   */\n  iszero\n  tag_92\n  jumpi\n    /* \"#utility.yul\":1981:1999   */\n  tag_93\n  tag_33\n  jump\t// in\ntag_93:\n    /* \"#utility.yul\":1945:2001   */\ntag_92:\n    /* \"#utility.yul\":2019:2048   */\n  tag_94\n    /* \"#utility.yul\":2041:2047   */\n  dup3\n    /* \"#utility.yul\":2019:2048   */\n  tag_32\n  jump\t// in\ntag_94:\n    /* \"#utility.yul\":2011:2048   */\n  swap1\n  pop\n    /* \"#utility.yul\":2103:2107   */\n  0x20\n    /* \"#utility.yul\":2097:2101   */\n  dup2\n    /* \"#utility.yul\":2093:2108   */\n  add\n    /* \"#utility.yul\":2085:2108   */\n  swap1\n  pop\n    /* \"#utility.yul\":1807:2115   */\n  swap2\n  swap1\n  pop\n  jump\t// out\n    /* \"#utility.yul\":2121:2367   */\ntag_37:\n    /* \"#utility.yul\":2202:2203   */\n  0x00\n    /* \"#utility.yul\":2212:2325   */\ntag_96:\n    /* \"#utility.yul\":2226:2232   */\n  dup4\n    /* \"#utility.yul\":2223:2224   */\n  dup2\n    /* \"#utility.yul\":2220:2233   */\n  lt\n    /* \"#utility.yul\":2212:2325   */\n  iszero\n  tag_98\n  jumpi\n    /* \"#utility.yul\":2311:2312   */\n  dup1\n    /* \"#utility.yul\":2306:2309   */\n  dup3\n    /* \"#utility.yul\":2302:2313   */\n  add\n    /* \"#utility.yul\":2296:2314   */\n  mload\n    /* \"#utility.yul\":2292:2293   */\n  dup2\n    /* \"#utility.yul\":2287:2290   */\n  dup5\n    /* \"#utility.yul\":2283:2294   */\n  add\n    /* \"#utility.yul\":2276:2315   */\n  mstore\n    /* \"#utility.yul\":2248:2250   */\n  0x20\n    /* \"#utility.yul\":2245:2246   */\n  dup2\n    /* \"#utility.yul\":2241:2251   */\n  add\n    /* \"#utility.yul\":2236:2251   */\n  swap1\n  pop\n    /* \"#utility.yul\":2212:2325   */\n  jump(tag_96)\ntag_98:\n    /* \"#utility.yul\":2359:2360   */\n  0x00\n    /* \"#utility.yul\":2350:2356   */\n  dup5\n    /* \"#utility.yul\":2345:2348   */\n  dup5\n    /* \"#utility.yul\":2341:2357   */\n  add\n    /* \"#utility.yul\":2334:2361   */\n  mstore\n    /* \"#utility.yul\":2183:2367   */\n  pop\n    /* \"#utility.yul\":2121:2367   */\n  pop\n  pop\n  pop\n  jump\t// out\n    /* \"#utility.yul\":2373:2807   */\ntag_38:\n    /* \"#utility.yul\":2462:2467   */\n  0x00\n    /* \"#utility.yul\":2487:2553   */\n  tag_100\n    /* \"#utility.yul\":2503:2552   */\n  tag_101\n    /* \"#utility.yul\":2545:2551   */\n  dup5\n    /* \"#utility.yul\":2503:2552   */\n  tag_36\n  jump\t// in\ntag_101:\n    /* \"#utility.yul\":2487:2553   */\n  tag_35\n  jump\t// in\ntag_100:\n    /* \"#utility.yul\":2478:2553   */\n  swap1\n  pop\n    /* \"#utility.yul\":2576:2582   */\n  dup3\n    /* \"#utility.yul\":2569:2574   */\n  dup2\n    /* \"#utility.yul\":2562:2583   */\n  mstore\n    /* \"#utility.yul\":2614:2618   */\n  0x20\n    /* \"#utility.yul\":2607:2612   */\n  dup2\n    /* \"#utility.yul\":2603:2619   */\n  add\n    /* \"#utility.yul\":2652:2655   */\n  dup5\n    /* \"#utility.yul\":2643:2649   */\n  dup5\n    /* \"#utility.yul\":2638:2641   */\n  dup5\n    /* \"#utility.yul\":2634:2650   */\n  add\n    /* \"#utility.yul\":2631:2656   */\n  gt\n    /* \"#utility.yul\":2628:2740   */\n  iszero\n  tag_102\n  jumpi\n    /* \"#utility.yul\":2659:2738   */\n  tag_103\n  tag_31\n  jump\t// in\ntag_103:\n    /* \"#utility.yul\":2628:2740   */\ntag_102:\n    /* \"#utility.yul\":2749:2801   */\n  tag_104\n    /* \"#utility.yul\":2794:2800   */\n  dup5\n    /* \"#utility.yul\":2789:2792   */\n  dup3\n    /* \"#utility.yul\":2784:2787   */\n  dup6\n    /* \"#utility.yul\":2749:2801   */\n  tag_37\n  jump\t// in\ntag_104:\n    /* \"#utility.yul\":2468:2807   */\n  pop\n    /* \"#utility.yul\":2373:2807   */\n  swap4\n  swap3\n  pop\n  pop\n  pop\n  jump\t// out\n    /* \"#utility.yul\":2827:3182   */\ntag_39:\n    /* \"#utility.yul\":2894:2899   */\n  0x00\n    /* \"#utility.yul\":2943:2946   */\n  dup3\n    /* \"#utility.yul\":2936:2940   */\n  0x1f\n    /* \"#utility.yul\":2928:2934   */\n  dup4\n    /* \"#utility.yul\":2924:2941   */\n  add\n    /* \"#utility.yul\":2920:2947   */\n  slt\n    /* \"#utility.yul\":2910:3032   */\n  tag_106\n  jumpi\n    /* \"#utility.yul\":2951:3030   */\n  tag_107\n  tag_30\n  jump\t// in\ntag_107:\n    /* \"#utility.yul\":2910:3032   */\ntag_106:\n    /* \"#utility.yul\":3061:3067   */\n  dup2\n    /* \"#utility.yul\":3055:3068   */\n  mload\n    /* \"#utility.yul\":3086:3176   */\n  tag_108\n    /* \"#utility.yul\":3172:3175   */\n  dup5\n    /* \"#utility.yul\":3164:3170   */\n  dup3\n    /* \"#utility.yul\":3157:3161   */\n  0x20\n    /* \"#utility.yul\":3149:3155   */\n  dup7\n    /* \"#utility.yul\":3145:3162   */\n  add\n    /* \"#utility.yul\":3086:3176   */\n  tag_38\n  jump\t// in\ntag_108:\n    /* \"#utility.yul\":3077:3176   */\n  swap2\n  pop\n    /* \"#utility.yul\":2900:3182   */\n  pop\n    /* \"#utility.yul\":2827:3182   */\n  swap3\n  swap2\n  pop\n  pop\n  jump\t// out\n    /* \"#utility.yul\":3188:4024   */\ntag_3:\n    /* \"#utility.yul\":3286:3292   */\n  0x00\n    /* \"#utility.yul\":3294:3300   */\n  dup1\n    /* \"#utility.yul\":3302:3308   */\n  0x00\n    /* \"#utility.yul\":3351:3353   */\n  0x60\n    /* \"#utility.yul\":3339:3348   */\n  dup5\n    /* \"#utility.yul\":3330:3337   */\n  dup7\n    /* \"#utility.yul\":3326:3349   */\n  sub\n    /* \"#utility.yul\":3322:3354   */\n  slt\n    /* \"#utility.yul\":3319:3438   */\n  iszero\n  tag_110\n  jumpi\n    /* \"#utility.yul\":3357:3436   */\n  tag_111\n  tag_24\n  jump\t// in\ntag_111:\n    /* \"#utility.yul\":3319:3438   */\ntag_110:\n    /* \"#utility.yul\":3477:3478   */\n  0x00\n    /* \"#utility.yul\":3502:3566   */\n  tag_112\n    /* \"#utility.yul\":3558:3565   */\n  dup7\n    /* \"#utility.yul\":3549:3555   */\n  dup3\n    /* \"#utility.yul\":3538:3547   */\n  dup8\n    /* \"#utility.yul\":3534:3556   */\n  add\n    /* \"#utility.yul\":3502:3566   */\n  tag_29\n  jump\t// in\ntag_112:\n    /* \"#utility.yul\":3492:3566   */\n  swap4\n  pop\n    /* \"#utility.yul\":3448:3576   */\n  pop\n    /* \"#utility.yul\":3615:3617   */\n  0x20\n    /* \"#utility.yul\":3641:3705   */\n  tag_113\n    /* \"#utility.yul\":3697:3704   */\n  dup7\n    /* \"#utility.yul\":3688:3694   */\n  dup3\n    /* \"#utility.yul\":3677:3686   */\n  dup8\n    /* \"#utility.yul\":3673:3695   */\n  add\n    /* \"#utility.yul\":3641:3705   */\n  tag_29\n  jump\t// in\ntag_113:\n    /* \"#utility.yul\":3631:3705   */\n  swap3\n  pop\n    /* \"#utility.yul\":3586:3715   */\n  pop\n    /* \"#utility.yul\":3775:3777   */\n  0x40\n    /* \"#utility.yul\":3764:3773   */\n  dup5\n    /* \"#utility.yul\":3760:3778   */\n  add\n    /* \"#utility.yul\":3754:3779   */\n  mload\n    /* \"#utility.yul\":3806:3824   */\n  0xffffffffffffffff\n    /* \"#utility.yul\":3798:3804   */\n  dup2\n    /* \"#utility.yul\":3795:3825   */\n  gt\n    /* \"#utility.yul\":3792:3909   */\n  iszero\n  tag_114\n  jumpi\n    /* \"#utility.yul\":3828:3907   */\n  tag_115\n  tag_25\n  jump\t// in\ntag_115:\n    /* \"#utility.yul\":3792:3909   */\ntag_114:\n    /* \"#utility.yul\":3933:4007   */\n  tag_116\n    /* \"#utility.yul\":3999:4006   */\n  dup7\n    /* \"#utility.yul\":3990:3996   */\n  dup3\n    /* \"#utility.yul\":3979:3988   */\n  dup8\n    /* \"#utility.yul\":3975:3997   */\n  add\n    /* \"#utility.yul\":3933:4007   */\n  tag_39\n  jump\t// in\ntag_116:\n    /* \"#utility.yul\":3923:4007   */\n  swap2\n  pop\n    /* \"#utility.yul\":3725:4017   */\n  pop\n    /* \"#utility.yul\":3188:4024   */\n  swap3\n  pop\n  swap3\n  pop\n  swap3\n  jump\t// out\n    /* \"#utility.yul\":4030:4199   */\ntag_40:\n    /* \"#utility.yul\":4114:4125   */\n  0x00\n    /* \"#utility.yul\":4148:4154   */\n  dup3\n    /* \"#utility.yul\":4143:4146   */\n  dup3\n    /* \"#utility.yul\":4136:4155   */\n  mstore\n    /* \"#utility.yul\":4188:4192   */\n  0x20\n    /* \"#utility.yul\":4183:4186   */\n  dup3\n    /* \"#utility.yul\":4179:4193   */\n  add\n    /* \"#utility.yul\":4164:4193   */\n  swap1\n  pop\n    /* \"#utility.yul\":4030:4199   */\n  swap3\n  swap2\n  pop\n  pop\n  jump\t// out\n    /* \"#utility.yul\":4205:4378   */\ntag_41:\n    /* \"#utility.yul\":4345:4370   */\n  0x496e76616c696420636f6e747261637420706572696f64000000000000000000\n    /* \"#utility.yul\":4341:4342   */\n  0x00\n    /* \"#utility.yul\":4333:4339   */\n  dup3\n    /* \"#utility.yul\":4329:4343   */\n  add\n    /* \"#utility.yul\":4322:4371   */\n  mstore\n    /* \"#utility.yul\":4205:4378   */\n  pop\n  jump\t// out\n    /* \"#utility.yul\":4384:4750   */\ntag_42:\n    /* \"#utility.yul\":4526:4529   */\n  0x00\n    /* \"#utility.yul\":4547:4614   */\n  tag_120\n    /* \"#utility.yul\":4611:4613   */\n  0x17\n    /* \"#utility.yul\":4606:4609   */\n  dup4\n    /* \"#utility.yul\":4547:4614   */\n  tag_40\n  jump\t// in\ntag_120:\n    /* \"#utility.yul\":4540:4614   */\n  swap2\n  pop\n    /* \"#utility.yul\":4623:4716   */\n  tag_121\n    /* \"#utility.yul\":4712:4715   */\n  dup3\n    /* \"#utility.yul\":4623:4716   */\n  tag_41\n  jump\t// in\ntag_121:\n    /* \"#utility.yul\":4741:4743   */\n  0x20\n    /* \"#utility.yul\":4736:4739   */\n  dup3\n    /* \"#utility.yul\":4732:4744   */\n  add\n    /* \"#utility.yul\":4725:4744   */\n  swap1\n  pop\n    /* \"#utility.yul\":4384:4750   */\n  swap2\n  swap1\n  pop\n  jump\t// out\n    /* \"#utility.yul\":4756:5175   */\ntag_10:\n    /* \"#utility.yul\":4922:4926   */\n  0x00\n    /* \"#utility.yul\":4960:4962   */\n  0x20\n    /* \"#utility.yul\":4949:4958   */\n  dup3\n    /* \"#utility.yul\":4945:4963   */\n  add\n    /* \"#utility.yul\":4937:4963   */\n  swap1\n  pop\n    /* \"#utility.yul\":5009:5018   */\n  dup2\n    /* \"#utility.yul\":5003:5007   */\n  dup2\n    /* \"#utility.yul\":4999:5019   */\n  sub\n    /* \"#utility.yul\":4995:4996   */\n  0x00\n    /* \"#utility.yul\":4984:4993   */\n  dup4\n    /* \"#utility.yul\":4980:4997   */\n  add\n    /* \"#utility.yul\":4973:5020   */\n  mstore\n    /* \"#utility.yul\":5037:5168   */\n  tag_123\n    /* \"#utility.yul\":5163:5167   */\n  dup2\n    /* \"#utility.yul\":5037:5168   */\n  tag_42\n  jump\t// in\ntag_123:\n    /* \"#utility.yul\":5029:5168   */\n  swap1\n  pop\n    /* \"#utility.yul\":4756:5175   */\n  swap2\n  swap1\n  pop\n  jump\t// out\n    /* \"#utility.yul\":5181:5280   */\ntag_43:\n    /* \"#utility.yul\":5233:5239   */\n  0x00\n    /* \"#utility.yul\":5267:5272   */\n  dup2\n    /* \"#utility.yul\":5261:5273   */\n  mload\n    /* \"#utility.yul\":5251:5273   */\n  swap1\n  pop\n    /* \"#utility.yul\":5181:5280   */\n  swap2\n  swap1\n  pop\n  jump\t// out\n    /* \"#utility.yul\":5286:5466   */\ntag_44:\n    /* \"#utility.yul\":5334:5411   */\n  0x4e487b7100000000000000000000000000000000000000000000000000000000\n    /* \"#utility.yul\":5331:5332   */\n  0x00\n    /* \"#utility.yul\":5324:5412   */\n  mstore\n    /* \"#utility.yul\":5431:5435   */\n  0x22\n    /* \"#utility.yul\":5428:5429   */\n  0x04\n    /* \"#utility.yul\":5421:5436   */\n  mstore\n    /* \"#utility.yul\":5455:5459   */\n  0x24\n    /* \"#utility.yul\":5452:5453   */\n  0x00\n    /* \"#utility.yul\":5445:5460   */\n  revert\n    /* \"#utility.yul\":5472:5792   */\ntag_45:\n    /* \"#utility.yul\":5516:5522   */\n  0x00\n    /* \"#utility.yul\":5553:5554   */\n  0x02\n    /* \"#utility.yul\":5547:5551   */\n  dup3\n    /* \"#utility.yul\":5543:5555   */\n  div\n    /* \"#utility.yul\":5533:5555   */\n  swap1\n  pop\n    /* \"#utility.yul\":5600:5601   */\n  0x01\n    /* \"#utility.yul\":5594:5598   */\n  dup3\n    /* \"#utility.yul\":5590:5602   */\n  and\n    /* \"#utility.yul\":5621:5639   */\n  dup1\n    /* \"#utility.yul\":5611:5692   */\n  tag_127\n  jumpi\n    /* \"#utility.yul\":5677:5681   */\n  0x7f\n    /* \"#utility.yul\":5669:5675   */\n  dup3\n    /* \"#utility.yul\":5665:5682   */\n  and\n    /* \"#utility.yul\":5655:5682   */\n  swap2\n  pop\n    /* \"#utility.yul\":5611:5692   */\ntag_127:\n    /* \"#utility.yul\":5739:5741   */\n  0x20\n    /* \"#utility.yul\":5731:5737   */\n  dup3\n    /* \"#utility.yul\":5728:5742   */\n  lt\n    /* \"#utility.yul\":5708:5726   */\n  dup2\n    /* \"#utility.yul\":5705:5743   */\n  sub\n    /* \"#utility.yul\":5702:5786   */\n  tag_128\n  jumpi\n    /* \"#utility.yul\":5758:5776   */\n  tag_129\n  tag_44\n  jump\t// in\ntag_129:\n    /* \"#utility.yul\":5702:5786   */\ntag_128:\n    /* \"#utility.yul\":5523:5792   */\n  pop\n    /* \"#utility.yul\":5472:5792   */\n  swap2\n  swap1\n  pop\n  jump\t// out\n    /* \"#utility.yul\":5798:5939   */\ntag_46:\n    /* \"#utility.yul\":5847:5851   */\n  0x00\n    /* \"#utility.yul\":5870:5873   */\n  dup2\n    /* \"#utility.yul\":5862:5873   */\n  swap1\n  pop\n    /* \"#utility.yul\":5893:5896   */\n  dup2\n    /* \"#utility.yul\":5890:5891   */\n  0x00\n    /* \"#utility.yul\":5883:5897   */\n  mstore\n    /* \"#utility.yul\":5927:5931   */\n  0x20\n    /* \"#utility.yul\":5924:5925   */\n  0x00\n    /* \"#utility.yul\":5914:5932   */\n  keccak256\n    /* \"#utility.yul\":5906:5932   */\n  swap1\n  pop\n    /* \"#utility.yul\":5798:5939   */\n  swap2\n  swap1\n  pop\n  jump\t// out\n    /* \"#utility.yul\":5945:6038   */\ntag_47:\n    /* \"#utility.yul\":5982:5988   */\n  0x00\n    /* \"#utility.yul\":6029:6031   */\n  0x20\n    /* \"#utility.yul\":6024:6026   */\n  0x1f\n    /* \"#utility.yul\":6017:6022   */\n  dup4\n    /* \"#utility.yul\":6013:6027   */\n  add\n    /* \"#utility.yul\":6009:6032   */\n  div\n    /* \"#utility.yul\":5999:6032   */\n  swap1\n  pop\n    /* \"#utility.yul\":5945:6038   */\n  swap2\n  swap1\n  pop\n  jump\t// out\n    /* \"#utility.yul\":6044:6151   */\ntag_48:\n    /* \"#utility.yul\":6088:6096   */\n  0x00\n    /* \"#utility.yul\":6138:6143   */\n  dup3\n    /* \"#utility.yul\":6132:6136   */\n  dup3\n    /* \"#utility.yul\":6128:6144   */\n  shl\n    /* \"#utility.yul\":6107:6144   */\n  swap1\n  pop\n    /* \"#utility.yul\":6044:6151   */\n  swap3\n  swap2\n  pop\n  pop\n  jump\t// out\n    /* \"#utility.yul\":6157:6550   */\ntag_49:\n    /* \"#utility.yul\":6226:6232   */\n  0x00\n    /* \"#utility.yul\":6276:6277   */\n  0x08\n    /* \"#utility.yul\":6264:6274   */\n  dup4\n    /* \"#utility.yul\":6260:6278   */\n  mul\n    /* \"#utility.yul\":6299:6396   */\n  tag_134\n    /* \"#utility.yul\":6329:6395   */\n  0xffffffffffffffffffffffffffffffffffffffffffffffffffffffffffffffff\n    /* \"#utility.yul\":6318:6327   */\n  dup3\n    /* \"#utility.yul\":6299:6396   */\n  tag_48\n  jump\t// in\ntag_134:\n    /* \"#utility.yul\":6417:6456   */\n  tag_135\n    /* \"#utility.yul\":6447:6455   */\n  dup7\n    /* \"#utility.yul\":6436:6445   */\n  dup4\n    /* \"#utility.yul\":6417:6456   */\n  tag_48\n  jump\t// in\ntag_135:\n    /* \"#utility.yul\":6405:6456   */\n  swap6\n  pop\n    /* \"#utility.yul\":6489:6493   */\n  dup1\n    /* \"#utility.yul\":6485:6494   */\n  not\n    /* \"#utility.yul\":6478:6483   */\n  dup5\n    /* \"#utility.yul\":6474:6495   */\n  and\n    /* \"#utility.yul\":6465:6495   */\n  swap4\n  pop\n    /* \"#utility.yul\":6538:6542   */\n  dup1\n    /* \"#utility.yul\":6528:6536   */\n  dup7\n    /* \"#utility.yul\":6524:6543   */\n  and\n    /* \"#utility.yul\":6517:6522   */\n  dup5\n    /* \"#utility.yul\":6514:6544   */\n  or\n    /* \"#utility.yul\":6504:6544   */\n  swap3\n  pop\n    /* \"#utility.yul\":6233:6550   */\n  pop\n  pop\n    /* \"#utility.yul\":6157:6550   */\n  swap4\n  swap3\n  pop\n  pop\n  pop\n  jump\t// out\n    /* \"#utility.yul\":6556:6633   */\ntag_50:\n    /* \"#utility.yul\":6593:6600   */\n  0x00\n    /* \"#utility.yul\":6622:6627   */\n  dup2\n    /* \"#utility.yul\":6611:6627   */\n  swap1\n  pop\n    /* \"#utility.yul\":6556:6633   */\n  swap2\n  swap1\n  pop\n  jump\t// out\n    /* \"#utility.yul\":6639:6699   */\ntag_51:\n    /* \"#utility.yul\":6667:6670   */\n  0x00\n    /* \"#utility.yul\":6688:6693   */\n  dup2\n    /* \"#utility.yul\":6681:6693   */\n  swap1\n  pop\n    /* \"#utility.yul\":6639:6699   */\n  swap2\n  swap1\n  pop\n  jump\t// out\n    /* \"#utility.yul\":6705:6847   */\ntag_52:\n    /* \"#utility.yul\":6755:6764   */\n  0x00\n    /* \"#utility.yul\":6788:6841   */\n  tag_139\n    /* \"#utility.yul\":6806:6840   */\n  tag_140\n    /* \"#utility.yul\":6815:6839   */\n  tag_141\n    /* \"#utility.yul\":6833:6838   */\n  dup5\n    /* \"#utility.yul\":6815:6839   */\n  tag_50\n  jump\t// in\ntag_141:\n    /* \"#utility.yul\":6806:6840   */\n  tag_51\n  jump\t// in\ntag_140:\n    /* \"#utility.yul\":6788:6841   */\n  tag_50\n  jump\t// in\ntag_139:\n    /* \"#utility.yul\":6775:6841   */\n  swap1\n  pop\n    /* \"#utility.yul\":6705:6847   */\n  swap2\n  swap1\n  pop\n  jump\t// out\n    /* \"#utility.yul\":6853:6928   */\ntag_53:\n    /* \"#utility.yul\":6896:6899   */\n  0x00\n    /* \"#utility.yul\":6917:6922   */\n  dup2\n    /* \"#utility.yul\":6910:6922   */\n  swap1\n  pop\n    /* \"#utility.yul\":6853:6928   */\n  swap2\n  swap1\n  pop\n  jump\t// out\n    /* \"#utility.yul\":6934:7203   */\ntag_54:\n    /* \"#utility.yul\":7044:7083   */\n  tag_144\n    /* \"#utility.yul\":7075:7082   */\n  dup4\n    /* \"#utility.yul\":7044:7083   */\n  tag_52\n  jump\t// in\ntag_144:\n    /* \"#utility.yul\":7105:7196   */\n  tag_145\n    /* \"#utility.yul\":7154:7195   */\n  tag_146\n    /* \"#utility.yul\":7178:7194   */\n  dup3\n    /* \"#utility.yul\":7154:7195   */\n  tag_53\n  jump\t// in\ntag_146:\n    /* \"#utility.yul\":7146:7152   */\n  dup5\n    /* \"#utility.yul\":7139:7143   */\n  dup5\n    /* \"#utility.yul\":7133:7144   */\n  sload\n    /* \"#utility.yul\":7105:7196   */\n  tag_49\n  jump\t// in\ntag_145:\n    /* \"#utility.yul\":7099:7103   */\n  dup3\n    /* \"#utility.yul\":7092:7197   */\n  sstore\n    /* \"#utility.yul\":7010:7203   */\n  pop\n    /* \"#utility.yul\":6934:7203   */\n  pop\n  pop\n  pop\n  jump\t// out\n    /* \"#utility.yul\":7209:7282   */\ntag_55:\n    /* \"#utility.yul\":7254:7257   */\n  0x00\n    /* \"#utility.yul\":7209:7282   */\n  swap1\n  jump\t// out\n    /* \"#utility.yul\":7288:7477   */\ntag_56:\n    /* \"#utility.yul\":7365:7397   */\n  tag_149\n  tag_55\n  jump\t// in\ntag_149:\n    /* \"#utility.yul\":7406:7471   */\n  tag_150\n    /* \"#utility.yul\":7464:7470   */\n  dup2\n    /* \"#utility.yul\":7456:7462   */\n  dup5\n    /* \"#utility.yul\":7450:7454   */\n  dup5\n    /* \"#utility.yul\":7406:7471   */\n  tag_54\n  jump\t// in\ntag_150:\n    /* \"#utility.yul\":7341:7477   */\n  pop\n    /* \"#utility.yul\":7288:7477   */\n  pop\n  pop\n  jump\t// out\n    /* \"#utility.yul\":7483:7669   */\ntag_57:\n    /* \"#utility.yul\":7543:7663   */\ntag_152:\n    /* \"#utility.yul\":7560:7563   */\n  dup2\n    /* \"#utility.yul\":7553:7558   */\n  dup2\n    /* \"#utility.yul\":7550:7564   */\n  lt\n    /* \"#utility.yul\":7543:7663   */\n  iszero\n  tag_154\n  jumpi\n    /* \"#utility.yul\":7614:7653   */\n  tag_155\n    /* \"#utility.yul\":7651:7652   */\n  0x00\n    /* \"#utility.yul\":7644:7649   */\n  dup3\n    /* \"#utility.yul\":7614:7653   */\n  tag_56\n  jump\t// in\ntag_155:\n    /* \"#utility.yul\":7587:7588   */\n  0x01\n    /* \"#utility.yul\":7580:7585   */\n  dup2\n    /* \"#utility.yul\":7576:7589   */\n  add\n    /* \"#utility.yul\":7567:7589   */\n  swap1\n  pop\n    /* \"#utility.yul\":7543:7663   */\n  jump(tag_152)\ntag_154:\n    /* \"#utility.yul\":7483:7669   */\n  pop\n  pop\n  jump\t// out\n    /* \"#utility.yul\":7675:8218   */\ntag_58:\n    /* \"#utility.yul\":7776:7778   */\n  0x1f\n    /* \"#utility.yul\":7771:7774   */\n  dup3\n    /* \"#utility.yul\":7768:7779   */\n  gt\n    /* \"#utility.yul\":7765:8211   */\n  iszero\n  tag_157\n  jumpi\n    /* \"#utility.yul\":7810:7848   */\n  tag_158\n    /* \"#utility.yul\":7842:7847   */\n  dup2\n    /* \"#utility.yul\":7810:7848   */\n  tag_46\n  jump\t// in\ntag_158:\n    /* \"#utility.yul\":7894:7923   */\n  tag_159\n    /* \"#utility.yul\":7912:7922   */\n  dup5\n    /* \"#utility.yul\":7894:7923   */\n  tag_47\n  jump\t// in\ntag_159:\n    /* \"#utility.yul\":7884:7892   */\n  dup2\n    /* \"#utility.yul\":7880:7924   */\n  add\n    /* \"#utility.yul\":8077:8079   */\n  0x20\n    /* \"#utility.yul\":8065:8075   */\n  dup6\n    /* \"#utility.yul\":8062:8080   */\n  lt\n    /* \"#utility.yul\":8059:8108   */\n  iszero\n  tag_160\n  jumpi\n    /* \"#utility.yul\":8098:8106   */\n  dup2\n    /* \"#utility.yul\":8083:8106   */\n  swap1\n  pop\n    /* \"#utility.yul\":8059:8108   */\ntag_160:\n    /* \"#utility.yul\":8121:8201   */\n  tag_161\n    /* \"#utility.yul\":8177:8199   */\n  tag_162\n    /* \"#utility.yul\":8195:8198   */\n  dup6\n    /* \"#utility.yul\":8177:8199   */\n  tag_47\n  jump\t// in\ntag_162:\n    /* \"#utility.yul\":8167:8175   */\n  dup4\n    /* \"#utility.yul\":8163:8200   */\n  add\n    /* \"#utility.yul\":8150:8161   */\n  dup3\n    /* \"#utility.yul\":8121:8201   */\n  tag_57\n  jump\t// in\ntag_161:\n    /* \"#utility.yul\":7780:8211   */\n  pop\n  pop\n    /* \"#utility.yul\":7765:8211   */\ntag_157:\n    /* \"#utility.yul\":7675:8218   */\n  pop\n  pop\n  pop\n  jump\t// out\n    /* \"#utility.yul\":8224:8341   */\ntag_59:\n    /* \"#utility.yul\":8278:8286   */\n  0x00\n    /* \"#utility.yul\":8328:8333   */\n  dup3\n    /* \"#utility.yul\":8322:8326   */\n  dup3\n    /* \"#utility.yul\":8318:8334   */\n  shr\n    /* \"#utility.yul\":8297:8334   */\n  swap1\n  pop\n    /* \"#utility.yul\":8224:8341   */\n  swap3\n  swap2\n  pop\n  pop\n  jump\t// out\n    /* \"#utility.yul\":8347:8516   */\ntag_60:\n    /* \"#utility.yul\":8391:8397   */\n  0x00\n    /* \"#utility.yul\":8424:8475   */\n  tag_165\n    /* \"#utility.yul\":8472:8473   */\n  0x00\n    /* \"#utility.yul\":8468:8474   */\n  not\n    /* \"#utility.yul\":8460:8465   */\n  dup5\n    /* \"#utility.yul\":8457:8458   */\n  0x08\n    /* \"#utility.yul\":8453:8466   */\n  mul\n    /* \"#utility.yul\":8424:8475   */\n  tag_59\n  jump\t// in\ntag_165:\n    /* \"#utility.yul\":8420:8476   */\n  not\n    /* \"#utility.yul\":8505:8509   */\n  dup1\n    /* \"#utility.yul\":8499:8503   */\n  dup4\n    /* \"#utility.yul\":8495:8510   */\n  and\n    /* \"#utility.yul\":8485:8510   */\n  swap2\n  pop\n    /* \"#utility.yul\":8398:8516   */\n  pop\n    /* \"#utility.yul\":8347:8516   */\n  swap3\n  swap2\n  pop\n  pop\n  jump\t// out\n    /* \"#utility.yul\":8521:8816   */\ntag_61:\n    /* \"#utility.yul\":8597:8601   */\n  0x00\n    /* \"#utility.yul\":8743:8772   */\n  tag_167\n    /* \"#utility.yul\":8768:8771   */\n  dup4\n    /* \"#utility.yul\":8762:8766   */\n  dup4\n    /* \"#utility.yul\":8743:8772   */\n  tag_60\n  jump\t// in\ntag_167:\n    /* \"#utility.yul\":8735:8772   */\n  swap2\n  pop\n    /* \"#utility.yul\":8805:8808   */\n  dup3\n    /* \"#utility.yul\":8802:8803   */\n  0x02\n    /* \"#utility.yul\":8798:8809   */\n  mul\n    /* \"#utility.yul\":8792:8796   */\n  dup3\n    /* \"#utility.yul\":8789:8810   */\n  or\n    /* \"#utility.yul\":8781:8810   */\n  swap1\n  pop\n    /* \"#utility.yul\":8521:8816   */\n  swap3\n  swap2\n  pop\n  pop\n  jump\t// out\n    /* \"#utility.yul\":8821:10216   */\ntag_12:\n    /* \"#utility.yul\":8938:8975   */\n  tag_169\n    /* \"#utility.yul\":8971:8974   */\n  dup3\n    /* \"#utility.yul\":8938:8975   */\n  tag_43\n  jump\t// in\ntag_169:\n    /* \"#utility.yul\":9040:9058   */\n  0xffffffffffffffff\n    /* \"#utility.yul\":9032:9038   */\n  dup2\n    /* \"#utility.yul\":9029:9059   */\n  gt\n    /* \"#utility.yul\":9026:9082   */\n  iszero\n  tag_170\n  jumpi\n    /* \"#utility.yul\":9062:9080   */\n  tag_171\n  tag_33\n  jump\t// in\ntag_171:\n    /* \"#utility.yul\":9026:9082   */\ntag_170:\n    /* \"#utility.yul\":9106:9144   */\n  tag_172\n    /* \"#utility.yul\":9138:9142   */\n  dup3\n    /* \"#utility.yul\":9132:9143   */\n  sload\n    /* \"#utility.yul\":9106:9144   */\n  tag_45\n  jump\t// in\ntag_172:\n    /* \"#utility.yul\":9191:9258   */\n  tag_173\n    /* \"#utility.yul\":9251:9257   */\n  dup3\n    /* \"#utility.yul\":9243:9249   */\n  dup3\n    /* \"#utility.yul\":9237:9241   */\n  dup6\n    /* \"#utility.yul\":9191:9258   */\n  tag_58\n  jump\t// in\ntag_173:\n    /* \"#utility.yul\":9285:9286   */\n  0x00\n    /* \"#utility.yul\":9309:9313   */\n  0x20\n    /* \"#utility.yul\":9296:9313   */\n  swap1\n  pop\n    /* \"#utility.yul\":9341:9343   */\n  0x1f\n    /* \"#utility.yul\":9333:9339   */\n  dup4\n    /* \"#utility.yul\":9330:9344   */\n  gt\n    /* \"#utility.yul\":9358:9359   */\n  0x01\n    /* \"#utility.yul\":9353:9971   */\n  dup2\n  eq\n  tag_175\n  jumpi\n    /* \"#utility.yul\":10015:10016   */\n  0x00\n    /* \"#utility.yul\":10032:10038   */\n  dup5\n    /* \"#utility.yul\":10029:10106   */\n  iszero\n  tag_176\n  jumpi\n    /* \"#utility.yul\":10081:10090   */\n  dup3\n    /* \"#utility.yul\":10076:10079   */\n  dup8\n    /* \"#utility.yul\":10072:10091   */\n  add\n    /* \"#utility.yul\":10066:10092   */\n  mload\n    /* \"#utility.yul\":10057:10092   */\n  swap1\n  pop\n    /* \"#utility.yul\":10029:10106   */\ntag_176:\n    /* \"#utility.yul\":10132:10199   */\n  tag_177\n    /* \"#utility.yul\":10192:10198   */\n  dup6\n    /* \"#utility.yul\":10185:10190   */\n  dup3\n    /* \"#utility.yul\":10132:10199   */\n  tag_61\n  jump\t// in\ntag_177:\n    /* \"#utility.yul\":10126:10130   */\n  dup7\n    /* \"#utility.yul\":10119:10200   */\n  sstore\n    /* \"#utility.yul\":9988:10210   */\n  pop\n    /* \"#utility.yul\":9323:10210   */\n  jump(tag_174)\n    /* \"#utility.yul\":9353:9971   */\ntag_175:\n    /* \"#utility.yul\":9405:9409   */\n  0x1f\n    /* \"#utility.yul\":9401:9410   */\n  not\n    /* \"#utility.yul\":9393:9399   */\n  dup5\n    /* \"#utility.yul\":9389:9411   */\n  and\n    /* \"#utility.yul\":9439:9476   */\n  tag_178\n    /* \"#utility.yul\":9471:9475   */\n  dup7\n    /* \"#utility.yul\":9439:9476   */\n  tag_46\n  jump\t// in\ntag_178:\n    /* \"#utility.yul\":9498:9499   */\n  0x00\n    /* \"#utility.yul\":9512:9720   */\ntag_179:\n    /* \"#utility.yul\":9526:9533   */\n  dup3\n    /* \"#utility.yul\":9523:9524   */\n  dup2\n    /* \"#utility.yul\":9520:9534   */\n  lt\n    /* \"#utility.yul\":9512:9720   */\n  iszero\n  tag_181\n  jumpi\n    /* \"#utility.yul\":9605:9614   */\n  dup5\n    /* \"#utility.yul\":9600:9603   */\n  dup10\n    /* \"#utility.yul\":9596:9615   */\n  add\n    /* \"#utility.yul\":9590:9616   */\n  mload\n    /* \"#utility.yul\":9582:9588   */\n  dup3\n    /* \"#utility.yul\":9575:9617   */\n  sstore\n    /* \"#utility.yul\":9656:9657   */\n  0x01\n    /* \"#utility.yul\":9648:9654   */\n  dup3\n    /* \"#utility.yul\":9644:9658   */\n  add\n    /* \"#utility.yul\":9634:9658   */\n  swap2\n  pop\n    /* \"#utility.yul\":9703:9705   */\n  0x20\n    /* \"#utility.yul\":9692:9701   */\n  dup6\n    /* \"#utility.yul\":9688:9706   */\n  add\n    /* \"#utility.yul\":9675:9706   */\n  swap5\n  pop\n    /* \"#utility.yul\":9549:9553   */\n  0x20\n    /* \"#utility.yul\":9546:9547   */\n  dup2\n    /* \"#utility.yul\":9542:9554   */\n  add\n    /* \"#utility.yul\":9537:9554   */\n  swap1\n  pop\n    /* \"#utility.yul\":9512:9720   */\n  jump(tag_179)\ntag_181:\n    /* \"#utility.yul\":9748:9754   */\n  dup7\n    /* \"#utility.yul\":9739:9746   */\n  dup4\n    /* \"#utility.yul\":9736:9755   */\n  lt\n    /* \"#utility.yul\":9733:9912   */\n  iszero\n  tag_182\n  jumpi\n    /* \"#utility.yul\":9806:9815   */\n  dup5\n    /* \"#utility.yul\":9801:9804   */\n  dup10\n    /* \"#utility.yul\":9797:9816   */\n  add\n    /* \"#utility.yul\":9791:9817   */\n  mload\n    /* \"#utility.yul\":9849:9897   */\n  tag_183\n    /* \"#utility.yul\":9891:9895   */\n  0x1f\n    /* \"#utility.yul\":9883:9889   */\n  dup10\n    /* \"#utility.yul\":9879:9896   */\n  and\n    /* \"#utility.yul\":9868:9877   */\n  dup3\n    /* \"#utility.yul\":9849:9897   */\n  tag_60\n  jump\t// in\ntag_183:\n    /* \"#utility.yul\":9841:9847   */\n  dup4\n    /* \"#utility.yul\":9834:9898   */\n  sstore\n    /* \"#utility.yul\":9756:9912   */\n  pop\n    /* \"#utility.yul\":9733:9912   */\ntag_182:\n    /* \"#utility.yul\":9958:9959   */\n  0x01\n    /* \"#utility.yul\":9954:9955   */\n  0x02\n    /* \"#utility.yul\":9946:9952   */\n  dup9\n    /* \"#utility.yul\":9942:9956   */\n  mul\n    /* \"#utility.yul\":9938:9960   */\n  add\n    /* \"#utility.yul\":9932:9936   */\n  dup9\n    /* \"#utility.yul\":9925:9961   */\n  sstore\n    /* \"#utility.yul\":9360:9971   */\n  pop\n  pop\n  pop\n    /* \"#utility.yul\":9323:10210   */\ntag_174:\n  pop\n    /* \"#utility.yul\":8913:10216   */\n  pop\n  pop\n  pop\n    /* \"#utility.yul\":8821:10216   */\n  pop\n  pop\n  jump\t// out\n    /* \"#utility.yul\":10222:10370   */\ntag_62:\n    /* \"#utility.yul\":10324:10335   */\n  0x00\n    /* \"#utility.yul\":10361:10364   */\n  dup2\n    /* \"#utility.yul\":10346:10364   */\n  swap1\n  pop\n    /* \"#utility.yul\":10222:10370   */\n  swap3\n  swap2\n  pop\n  pop\n  jump\t// out\n    /* \"#utility.yul\":10376:10533   */\ntag_63:\n    /* \"#utility.yul\":10516:10525   */\n  0x6d6f726e696e6700000000000000000000000000000000000000000000000000\n    /* \"#utility.yul\":10512:10513   */\n  0x00\n    /* \"#utility.yul\":10504:10510   */\n  dup3\n    /* \"#utility.yul\":10500:10514   */\n  add\n    /* \"#utility.yul\":10493:10526   */\n  mstore\n    /* \"#utility.yul\":10376:10533   */\n  pop\n  jump\t// out\n    /* \"#utility.yul\":10539:10939   */\ntag_64:\n    /* \"#utility.yul\":10699:10702   */\n  0x00\n    /* \"#utility.yul\":10720:10804   */\n  tag_187\n    /* \"#utility.yul\":10802:10803   */\n  0x07\n    /* \"#utility.yul\":10797:10800   */\n  dup4\n    /* \"#utility.yul\":10720:10804   */\n  tag_62\n  jump\t// in\ntag_187:\n    /* \"#utility.yul\":10713:10804   */\n  swap2\n  pop\n    /* \"#utility.yul\":10813:10906   */\n  tag_188\n    /* \"#utility.yul\":10902:10905   */\n  dup3\n    /* \"#utility.yul\":10813:10906   */\n  tag_63\n  jump\t// in\ntag_188:\n    /* \"#utility.yul\":10931:10932   */\n  0x07\n    /* \"#utility.yul\":10926:10929   */\n  dup3\n    /* \"#utility.yul\":10922:10933   */\n  add\n    /* \"#utility.yul\":10915:10933   */\n  swap1\n  pop\n    /* \"#utility.yul\":10539:10939   */\n  swap2\n  swap1\n  pop\n  jump\t// out\n    /* \"#utility.yul\":10945:11326   */\ntag_16:\n    /* \"#utility.yul\":11130:11133   */\n  0x00\n    /* \"#utility.yul\":11152:11300   */\n  tag_190\n    /* \"#utility.yul\":11296:11299   */\n  dup3\n    /* \"#utility.yul\":11152:11300   */\n  tag_64\n  jump\t// in\ntag_190:\n    /* \"#utility.yul\":11145:11300   */\n  swap2\n  pop\n    /* \"#utility.yul\":11317:11320   */\n  dup2\n    /* \"#utility.yul\":11310:11320   */\n  swap1\n  pop\n    /* \"#utility.yul\":10945:11326   */\n  swap2\n  swap1\n  pop\n  jump\t// out\n    /* \"#utility.yul\":11332:11722   */\ntag_65:\n    /* \"#utility.yul\":11438:11441   */\n  0x00\n    /* \"#utility.yul\":11466:11505   */\n  tag_192\n    /* \"#utility.yul\":11499:11504   */\n  dup3\n    /* \"#utility.yul\":11466:11505   */\n  tag_43\n  jump\t// in\ntag_192:\n    /* \"#utility.yul\":11521:11610   */\n  tag_193\n    /* \"#utility.yul\":11603:11609   */\n  dup2\n    /* \"#utility.yul\":11598:11601   */\n  dup6\n    /* \"#utility.yul\":11521:11610   */\n  tag_62\n  jump\t// in\ntag_193:\n    /* \"#utility.yul\":11514:11610   */\n  swap4\n  pop\n    /* \"#utility.yul\":11619:11684   */\n  tag_194\n    /* \"#utility.yul\":11677:11683   */\n  dup2\n    /* \"#utility.yul\":11672:11675   */\n  dup6\n    /* \"#utility.yul\":11665:11669   */\n  0x20\n    /* \"#utility.yul\":11658:11663   */\n  dup7\n    /* \"#utility.yul\":11654:11670   */\n  add\n    /* \"#utility.yul\":11619:11684   */\n  tag_37\n  jump\t// in\ntag_194:\n    /* \"#utility.yul\":11709:11715   */\n  dup1\n    /* \"#utility.yul\":11704:11707   */\n  dup5\n    /* \"#utility.yul\":11700:11716   */\n  add\n    /* \"#utility.yul\":11693:11716   */\n  swap2\n  pop\n    /* \"#utility.yul\":11442:11722   */\n  pop\n    /* \"#utility.yul\":11332:11722   */\n  swap3\n  swap2\n  pop\n  pop\n  jump\t// out\n    /* \"#utility.yul\":11728:12003   */\ntag_18:\n    /* \"#utility.yul\":11860:11863   */\n  0x00\n    /* \"#utility.yul\":11882:11977   */\n  tag_196\n    /* \"#utility.yul\":11973:11976   */\n  dup3\n    /* \"#utility.yul\":11964:11970   */\n  dup5\n    /* \"#utility.yul\":11882:11977   */\n  tag_65\n  jump\t// in\ntag_196:\n    /* \"#utility.yul\":11875:11977   */\n  swap2\n  pop\n    /* \"#utility.yul\":11994:11997   */\n  dup2\n    /* \"#utility.yul\":11987:11997   */\n  swap1\n  pop\n    /* \"#utility.yul\":11728:12003   */\n  swap3\n  swap2\n  pop\n  pop\n  jump\t// out\n    /* \"#utility.yul\":12009:12168   */\ntag_66:\n    /* \"#utility.yul\":12149:12160   */\n  0x61667465726e6f6f6e0000000000000000000000000000000000000000000000\n    /* \"#utility.yul\":12145:12146   */\n  0x00\n    /* \"#utility.yul\":12137:12143   */\n  dup3\n    /* \"#utility.yul\":12133:12147   */\n  add\n    /* \"#utility.yul\":12126:12161   */\n  mstore\n    /* \"#utility.yul\":12009:12168   */\n  pop\n  jump\t// out\n    /* \"#utility.yul\":12174:12574   */\ntag_67:\n    /* \"#utility.yul\":12334:12337   */\n  0x00\n    /* \"#utility.yul\":12355:12439   */\n  tag_199\n    /* \"#utility.yul\":12437:12438   */\n  0x09\n    /* \"#utility.yul\":12432:12435   */\n  dup4\n    /* \"#utility.yul\":12355:12439   */\n  tag_62\n  jump\t// in\ntag_199:\n    /* \"#utility.yul\":12348:12439   */\n  swap2\n  pop\n    /* \"#utility.yul\":12448:12541   */\n  tag_200\n    /* \"#utility.yul\":12537:12540   */\n  dup3\n    /* \"#utility.yul\":12448:12541   */\n  tag_66\n  jump\t// in\ntag_200:\n    /* \"#utility.yul\":12566:12567   */\n  0x09\n    /* \"#utility.yul\":12561:12564   */\n  dup3\n    /* \"#utility.yul\":12557:12568   */\n  add\n    /* \"#utility.yul\":12550:12568   */\n  swap1\n  pop\n    /* \"#utility.yul\":12174:12574   */\n  swap2\n  swap1\n  pop\n  jump\t// out\n    /* \"#utility.yul\":12580:12961   */\ntag_21:\n    /* \"#utility.yul\":12765:12768   */\n  0x00\n    /* \"#utility.yul\":12787:12935   */\n  tag_202\n    /* \"#utility.yul\":12931:12934   */\n  dup3\n    /* \"#utility.yul\":12787:12935   */\n  tag_67\n  jump\t// in\ntag_202:\n    /* \"#utility.yul\":12780:12935   */\n  swap2\n  pop\n    /* \"#utility.yul\":12952:12955   */\n  dup2\n    /* \"#utility.yul\":12945:12955   */\n  swap1\n  pop\n    /* \"#utility.yul\":12580:12961   */\n  swap2\n  swap1\n  pop\n  jump\t// out\n    /* \"contracts/transactions.sol\":116:4420  contract Transactions {... */\ntag_13:\n  dataSize(sub_0)\n  dup1\n  dataOffset(sub_0)\n  0x00\n  codecopy\n  0x00\n  return\nstop\n\nsub_0: assembly {\n        /* \"contracts/transactions.sol\":116:4420  contract Transactions {... */\n      mstore(0x40, 0x80)\n      callvalue\n      dup1\n      iszero\n      tag_1\n      jumpi\n      0x00\n      dup1\n      revert\n    tag_1:\n      pop\n      jumpi(tag_2, lt(calldatasize, 0x04))\n      shr(0xe0, calldataload(0x00))\n      dup1\n      0x4fd5e730\n      gt\n      tag_12\n      jumpi\n      dup1\n      0x4fd5e730\n      eq\n      tag_7\n      jumpi\n      dup1\n      0x8862cca1\n      eq\n      tag_8\n      jumpi\n      dup1\n      0x9ace38c2\n      eq\n      tag_9\n      jumpi\n      dup1\n      0xbb88b769\n      eq\n      tag_10\n      jumpi\n      dup1\n      0xe10173b6\n      eq\n      tag_11\n      jumpi\n      jump(tag_2)\n    tag_12:\n      dup1\n      0x039969f4\n      eq\n      tag_3\n      jumpi\n      dup1\n      0x1e7f8f0f\n      eq\n      tag_4\n      jumpi\n      dup1\n      0x3380c0d8\n      eq\n      tag_5\n      jumpi\n      dup1\n      0x33ea3dc8\n      eq\n      tag_6\n      jumpi\n    tag_2:\n      0x00\n      dup1\n      revert\n        /* \"contracts/transactions.sol\":1758:2605  function settleTransaction(uint256 _transactionId, string memory _settlementPeriod) public {... */\n    tag_3:\n      tag_13\n      0x04\n      dup1\n      calldatasize\n      sub\n      dup2\n      add\n      swap1\n      tag_14\n      swap2\n      swap1\n      tag_15\n      jump\t// in\n    tag_14:\n      tag_16\n      jump\t// in\n    tag_13:\n      stop\n        /* \"contracts/transactions.sol\":1143:1752  function createTransaction(address _recipient, uint256 _amount) public {... */\n    tag_4:\n      tag_17\n      0x04\n      dup1\n      calldatasize\n      sub\n      dup2\n      add\n      swap1\n      tag_18\n      swap2\n      swap1\n      tag_19\n      jump\t// in\n    tag_18:\n      tag_20\n      jump\t// in\n    tag_17:\n      stop\n        /* \"contracts/transactions.sol\":2611:3151  function cancelTransaction(uint256 _transactionId) public {... */\n    tag_5:\n      tag_21\n      0x04\n      dup1\n      calldatasize\n      sub\n      dup2\n      add\n      swap1\n      tag_22\n      swap2\n      swap1\n      tag_23\n      jump\t// in\n    tag_22:\n      tag_24\n      jump\t// in\n    tag_21:\n      stop\n        /* \"contracts/transactions.sol\":3157:3555  function getTransaction(uint256 _transactionId) public view returns (address, address, uint256, string memory, string memory, bool, bool) {... */\n    tag_6:\n      tag_25\n      0x04\n      dup1\n      calldatasize\n      sub\n      dup2\n      add\n      swap1\n      tag_26\n      swap2\n      swap1\n      tag_23\n      jump\t// in\n    tag_26:\n      tag_27\n      jump\t// in\n    tag_25:\n      mload(0x40)\n      tag_28\n      swap8\n      swap7\n      swap6\n      swap5\n      swap4\n      swap3\n      swap2\n      swap1\n      tag_29\n      jump\t// in\n    tag_28:\n      mload(0x40)\n      dup1\n      swap2\n      sub\n      swap1\n      return\n        /* \"contracts/transactions.sol\":4306:4418  function loadIntoSystemContract() public {... */\n    tag_7:\n      tag_30\n      tag_31\n      jump\t// in\n    tag_30:\n      stop\n        /* \"contracts/transactions.sol\":208:236  string public contractPeriod */\n    tag_8:\n      tag_32\n      tag_33\n      jump\t// in\n    tag_32:\n      mload(0x40)\n      tag_34\n      swap2\n      swap1\n      tag_35\n      jump\t// in\n    tag_34:\n      mload(0x40)\n      dup1\n      swap2\n      sub\n      swap1\n      return\n        /* \"contracts/transactions.sol\":488:521  Transaction[] public transactions */\n    tag_9:\n      tag_36\n      0x04\n      dup1\n      calldatasize\n      sub\n      dup2\n      add\n      swap1\n      tag_37\n      swap2\n      swap1\n      tag_23\n      jump\t// in\n    tag_37:\n      tag_38\n      jump\t// in\n    tag_36:\n      mload(0x40)\n      tag_39\n      swap8\n      swap7\n      swap6\n      swap5\n      swap4\n      swap3\n      swap2\n      swap1\n      tag_29\n      jump\t// in\n    tag_39:\n      mload(0x40)\n      dup1\n      swap2\n      sub\n      swap1\n      return\n        /* \"contracts/transactions.sol\":173:202  address public systemContract */\n    tag_10:\n      tag_40\n      tag_41\n      jump\t// in\n    tag_40:\n      mload(0x40)\n      tag_42\n      swap2\n      swap1\n      tag_43\n      jump\t// in\n    tag_42:\n      mload(0x40)\n      dup1\n      swap2\n      sub\n      swap1\n      return\n        /* \"contracts/transactions.sol\":144:167  IERC20 public cbdcToken */\n    tag_11:\n      tag_44\n      tag_45\n      jump\t// in\n    tag_44:\n      mload(0x40)\n      tag_46\n      swap2\n      swap1\n      tag_47\n      jump\t// in\n    tag_46:\n      mload(0x40)\n      dup1\n      swap2\n      sub\n      swap1\n      return\n        /* \"contracts/transactions.sol\":1758:2605  function settleTransaction(uint256 _transactionId, string memory _settlementPeriod) public {... */\n    tag_16:\n        /* \"contracts/transactions.sol\":1881:1895  systemContract */\n      0x01\n      0x00\n      swap1\n      sload\n      swap1\n      0x0100\n      exp\n      swap1\n      div\n      0xffffffffffffffffffffffffffffffffffffffff\n      and\n        /* \"contracts/transactions.sol\":1867:1895  msg.sender == systemContract */\n      0xffffffffffffffffffffffffffffffffffffffff\n      and\n        /* \"contracts/transactions.sol\":1867:1877  msg.sender */\n      caller\n        /* \"contracts/transactions.sol\":1867:1895  msg.sender == systemContract */\n      0xffffffffffffffffffffffffffffffffffffffff\n      and\n      eq\n        /* \"contracts/transactions.sol\":1859:1949  require(msg.sender == systemContract, \"Only the system contract can settle transactions.\") */\n      tag_49\n      jumpi\n      mload(0x40)\n      0x08c379a000000000000000000000000000000000000000000000000000000000\n      dup2\n      mstore\n      0x04\n      add\n      tag_50\n      swap1\n      tag_51\n      jump\t// in\n    tag_50:\n      mload(0x40)\n      dup1\n      swap2\n      sub\n      swap1\n      revert\n    tag_49:\n        /* \"contracts/transactions.sol\":1959:1990  Transaction storage transaction */\n      0x00\n        /* \"contracts/transactions.sol\":1993:2005  transactions */\n      0x03\n        /* \"contracts/transactions.sol\":2006:2020  _transactionId */\n      dup4\n        /* \"contracts/transactions.sol\":1993:2021  transactions[_transactionId] */\n      dup2\n      sload\n      dup2\n      lt\n      tag_52\n      jumpi\n      tag_53\n      tag_54\n      jump\t// in\n    tag_53:\n    tag_52:\n      swap1\n      0x00\n      mstore\n      keccak256(0x00, 0x20)\n      swap1\n      0x06\n      mul\n      add\n        /* \"contracts/transactions.sol\":1959:2021  Transaction storage transaction = transactions[_transactionId] */\n      swap1\n      pop\n        /* \"contracts/transactions.sol\":2040:2051  transaction */\n      dup1\n        /* \"contracts/transactions.sol\":2040:2058  transaction.isOpen */\n      0x05\n      add\n      0x00\n      swap1\n      sload\n      swap1\n      0x0100\n      exp\n      swap1\n      div\n      0xff\n      and\n        /* \"contracts/transactions.sol\":2032:2107  require(transaction.isOpen, \"Transaction is already settled or cancelled.\") */\n      tag_56\n      jumpi\n      mload(0x40)\n      0x08c379a000000000000000000000000000000000000000000000000000000000\n      dup2\n      mstore\n      0x04\n      add\n      tag_57\n      swap1\n      tag_58\n      jump\t// in\n    tag_57:\n      mload(0x40)\n      dup1\n      swap2\n      sub\n      swap1\n      revert\n    tag_56:\n        /* \"contracts/transactions.sol\":2125:2157  isValidPeriod(_settlementPeriod) */\n      tag_59\n        /* \"contracts/transactions.sol\":2139:2156  _settlementPeriod */\n      dup3\n        /* \"contracts/transactions.sol\":2125:2138  isValidPeriod */\n      tag_60\n        /* \"contracts/transactions.sol\":2125:2157  isValidPeriod(_settlementPeriod) */\n      jump\t// in\n    tag_59:\n        /* \"contracts/transactions.sol\":2117:2187  require(isValidPeriod(_settlementPeriod), \"Invalid settlement period\") */\n      tag_61\n      jumpi\n      mload(0x40)\n      0x08c379a000000000000000000000000000000000000000000000000000000000\n      dup2\n      mstore\n      0x04\n      add\n      tag_62\n      swap1\n      tag_63\n      jump\t// in\n    tag_62:\n      mload(0x40)\n      dup1\n      swap2\n      sub\n      swap1\n      revert\n    tag_61:\n        /* \"contracts/transactions.sol\":2205:2275  isValidSettlementPeriod(transaction.creationPeriod, _settlementPeriod) */\n      tag_64\n        /* \"contracts/transactions.sol\":2229:2240  transaction */\n      dup2\n        /* \"contracts/transactions.sol\":2229:2255  transaction.creationPeriod */\n      0x03\n      add\n        /* \"contracts/transactions.sol\":2205:2275  isValidSettlementPeriod(transaction.creationPeriod, _settlementPeriod) */\n      dup1\n      sload\n      tag_65\n      swap1\n      tag_66\n      jump\t// in\n    tag_65:\n      dup1\n      0x1f\n      add\n      0x20\n      dup1\n      swap2\n      div\n      mul\n      0x20\n      add\n      mload(0x40)\n      swap1\n      dup2\n      add\n      0x40\n      mstore\n      dup1\n      swap3\n      swap2\n      swap1\n      dup2\n      dup2\n      mstore\n      0x20\n      add\n      dup3\n      dup1\n      sload\n      tag_67\n      swap1\n      tag_66\n      jump\t// in\n    tag_67:\n      dup1\n      iszero\n      tag_68\n      jumpi\n      dup1\n      0x1f\n      lt\n      tag_69\n      jumpi\n      0x0100\n      dup1\n      dup4\n      sload\n      div\n      mul\n      dup4\n      mstore\n      swap2\n      0x20\n      add\n      swap2\n      jump(tag_68)\n    tag_69:\n      dup3\n      add\n      swap2\n      swap1\n      0x00\n      mstore\n      keccak256(0x00, 0x20)\n      swap1\n    tag_70:\n      dup2\n      sload\n      dup2\n      mstore\n      swap1\n      0x01\n      add\n      swap1\n      0x20\n      add\n      dup1\n      dup4\n      gt\n      tag_70\n      jumpi\n      dup3\n      swap1\n      sub\n      0x1f\n      and\n      dup3\n      add\n      swap2\n    tag_68:\n      pop\n      pop\n      pop\n      pop\n      pop\n        /* \"contracts/transactions.sol\":2257:2274  _settlementPeriod */\n      dup4\n        /* \"contracts/transactions.sol\":2205:2228  isValidSettlementPeriod */\n      tag_71\n        /* \"contracts/transactions.sol\":2205:2275  isValidSettlementPeriod(transaction.creationPeriod, _settlementPeriod) */\n      jump\t// in\n    tag_64:\n        /* \"contracts/transactions.sol\":2197:2335  require(isValidSettlementPeriod(transaction.creationPeriod, _settlementPeriod), \"Settlement period invalid for the given creation period\") */\n      tag_72\n      jumpi\n      mload(0x40)\n      0x08c379a000000000000000000000000000000000000000000000000000000000\n      dup2\n      mstore\n      0x04\n      add\n      tag_73\n      swap1\n      tag_74\n      jump\t// in\n    tag_73:\n      mload(0x40)\n      dup1\n      swap2\n      sub\n      swap1\n      revert\n    tag_72:\n        /* \"contracts/transactions.sol\":2367:2372  false */\n      0x00\n        /* \"contracts/transactions.sol\":2346:2357  transaction */\n      dup2\n        /* \"contracts/transactions.sol\":2346:2364  transaction.isOpen */\n      0x05\n      add\n      0x00\n        /* \"contracts/transactions.sol\":2346:2372  transaction.isOpen = false */\n      0x0100\n      exp\n      dup2\n      sload\n      dup2\n      0xff\n      mul\n      not\n      and\n      swap1\n      dup4\n      iszero\n      iszero\n      mul\n      or\n      swap1\n      sstore\n      pop\n        /* \"contracts/transactions.sol\":2413:2430  _settlementPeriod */\n      dup2\n        /* \"contracts/transactions.sol\":2382:2393  transaction */\n      dup2\n        /* \"contracts/transactions.sol\":2382:2410  transaction.settlementPeriod */\n      0x04\n      add\n        /* \"contracts/transactions.sol\":2382:2430  transaction.settlementPeriod = _settlementPeriod */\n      swap1\n      dup2\n      tag_75\n      swap2\n      swap1\n      tag_76\n      jump\t// in\n    tag_75:\n      pop\n        /* \"contracts/transactions.sol\":2448:2457  cbdcToken */\n      0x00\n      dup1\n      sload\n      swap1\n      0x0100\n      exp\n      swap1\n      div\n      0xffffffffffffffffffffffffffffffffffffffff\n      and\n        /* \"contracts/transactions.sol\":2448:2466  cbdcToken.transfer */\n      0xffffffffffffffffffffffffffffffffffffffff\n      and\n      0xa9059cbb\n        /* \"contracts/transactions.sol\":2467:2478  transaction */\n      dup3\n        /* \"contracts/transactions.sol\":2467:2488  transaction.recipient */\n      0x01\n      add\n      0x00\n      swap1\n      sload\n      swap1\n      0x0100\n      exp\n      swap1\n      div\n      0xffffffffffffffffffffffffffffffffffffffff\n      and\n        /* \"contracts/transactions.sol\":2490:2501  transaction */\n      dup4\n        /* \"contracts/transactions.sol\":2490:2508  transaction.amount */\n      0x02\n      add\n      sload\n        /* \"contracts/transactions.sol\":2448:2509  cbdcToken.transfer(transaction.recipient, transaction.amount) */\n      mload(0x40)\n      dup4\n      0xffffffff\n      and\n      0xe0\n      shl\n      dup2\n      mstore\n      0x04\n      add\n      tag_77\n      swap3\n      swap2\n      swap1\n      tag_78\n      jump\t// in\n    tag_77:\n      0x20\n      mload(0x40)\n      dup1\n      dup4\n      sub\n      dup2\n      0x00\n      dup8\n      gas\n      call\n      iszero\n      dup1\n      iszero\n      tag_80\n      jumpi\n      returndatasize\n      0x00\n      dup1\n      returndatacopy\n      revert(0x00, returndatasize)\n    tag_80:\n      pop\n      pop\n      pop\n      pop\n      mload(0x40)\n      returndatasize\n      not(0x1f)\n      0x1f\n      dup3\n      add\n      and\n      dup3\n      add\n      dup1\n      0x40\n      mstore\n      pop\n      dup2\n      add\n      swap1\n      tag_81\n      swap2\n      swap1\n      tag_82\n      jump\t// in\n    tag_81:\n        /* \"contracts/transactions.sol\":2440:2529  require(cbdcToken.transfer(transaction.recipient, transaction.amount), \"Transfer failed\") */\n      tag_83\n      jumpi\n      mload(0x40)\n      0x08c379a000000000000000000000000000000000000000000000000000000000\n      dup2\n      mstore\n      0x04\n      add\n      tag_84\n      swap1\n      tag_85\n      jump\t// in\n    tag_84:\n      mload(0x40)\n      dup1\n      swap2\n      sub\n      swap1\n      revert\n    tag_83:\n        /* \"contracts/transactions.sol\":2564:2578  _transactionId */\n      dup3\n        /* \"contracts/transactions.sol\":2545:2598  TransactionSettled(_transactionId, _settlementPeriod) */\n      0x1e474bd19342535152e5b75e9a0f0827e0cc7ba762bb93fbcf49beae571ab18b\n        /* \"contracts/transactions.sol\":2580:2597  _settlementPeriod */\n      dup4\n        /* \"contracts/transactions.sol\":2545:2598  TransactionSettled(_transactionId, _settlementPeriod) */\n      mload(0x40)\n      tag_86\n      swap2\n      swap1\n      tag_35\n      jump\t// in\n    tag_86:\n      mload(0x40)\n      dup1\n      swap2\n      sub\n      swap1\n      log2\n        /* \"contracts/transactions.sol\":1849:2605  {... */\n      pop\n        /* \"contracts/transactions.sol\":1758:2605  function settleTransaction(uint256 _transactionId, string memory _settlementPeriod) public {... */\n      pop\n      pop\n      jump\t// out\n        /* \"contracts/transactions.sol\":1143:1752  function createTransaction(address _recipient, uint256 _amount) public {... */\n    tag_20:\n        /* \"contracts/transactions.sol\":1224:1245  uint256 transactionId */\n      0x00\n        /* \"contracts/transactions.sol\":1248:1260  transactions */\n      0x03\n        /* \"contracts/transactions.sol\":1248:1267  transactions.length */\n      dup1\n      sload\n      swap1\n      pop\n        /* \"contracts/transactions.sol\":1224:1267  uint256 transactionId = transactions.length */\n      swap1\n      pop\n        /* \"contracts/transactions.sol\":1277:1289  transactions */\n      0x03\n        /* \"contracts/transactions.sol\":1295:1549  Transaction({... */\n      mload(0x40)\n      dup1\n      0xe0\n      add\n      0x40\n      mstore\n      dup1\n        /* \"contracts/transactions.sol\":1328:1338  msg.sender */\n      caller\n        /* \"contracts/transactions.sol\":1295:1549  Transaction({... */\n      0xffffffffffffffffffffffffffffffffffffffff\n      and\n      dup2\n      mstore\n      0x20\n      add\n        /* \"contracts/transactions.sol\":1363:1373  _recipient */\n      dup6\n        /* \"contracts/transactions.sol\":1295:1549  Transaction({... */\n      0xffffffffffffffffffffffffffffffffffffffff\n      and\n      dup2\n      mstore\n      0x20\n      add\n        /* \"contracts/transactions.sol\":1395:1402  _amount */\n      dup5\n        /* \"contracts/transactions.sol\":1295:1549  Transaction({... */\n      dup2\n      mstore\n      0x20\n      add\n        /* \"contracts/transactions.sol\":1432:1446  contractPeriod */\n      0x02\n        /* \"contracts/transactions.sol\":1295:1549  Transaction({... */\n      dup1\n      sload\n      tag_88\n      swap1\n      tag_66\n      jump\t// in\n    tag_88:\n      dup1\n      0x1f\n      add\n      0x20\n      dup1\n      swap2\n      div\n      mul\n      0x20\n      add\n      mload(0x40)\n      swap1\n      dup2\n      add\n      0x40\n      mstore\n      dup1\n      swap3\n      swap2\n      swap1\n      dup2\n      dup2\n      mstore\n      0x20\n      add\n      dup3\n      dup1\n      sload\n      tag_89\n      swap1\n      tag_66\n      jump\t// in\n    tag_89:\n      dup1\n      iszero\n      tag_90\n      jumpi\n      dup1\n      0x1f\n      lt\n      tag_91\n      jumpi\n      0x0100\n      dup1\n      dup4\n      sload\n      div\n      mul\n      dup4\n      mstore\n      swap2\n      0x20\n      add\n      swap2\n      jump(tag_90)\n    tag_91:\n      dup3\n      add\n      swap2\n      swap1\n      0x00\n      mstore\n      keccak256(0x00, 0x20)\n      swap1\n    tag_92:\n      dup2\n      sload\n      dup2\n      mstore\n      swap1\n      0x01\n      add\n      swap1\n      0x20\n      add\n      dup1\n      dup4\n      gt\n      tag_92\n      jumpi\n      dup3\n      swap1\n      sub\n      0x1f\n      and\n      dup3\n      add\n      swap2\n    tag_90:\n      pop\n      pop\n      pop\n      pop\n      pop\n      dup2\n      mstore\n      0x20\n      add\n      mload(0x40)\n      dup1\n      0x20\n      add\n      0x40\n      mstore\n      dup1\n      0x00\n      dup2\n      mstore\n      pop\n      dup2\n      mstore\n      0x20\n      add\n        /* \"contracts/transactions.sol\":1502:1506  true */\n      0x01\n        /* \"contracts/transactions.sol\":1295:1549  Transaction({... */\n      iszero\n      iszero\n      dup2\n      mstore\n      0x20\n      add\n        /* \"contracts/transactions.sol\":1533:1538  false */\n      0x00\n        /* \"contracts/transactions.sol\":1295:1549  Transaction({... */\n      iszero\n      iszero\n      dup2\n      mstore\n      pop\n        /* \"contracts/transactions.sol\":1277:1550  transactions.push(Transaction({... */\n      swap1\n      dup1\n      0x01\n      dup2\n      sload\n      add\n      dup1\n      dup3\n      sstore\n      dup1\n      swap2\n      pop\n      pop\n      0x01\n      swap1\n      sub\n      swap1\n      0x00\n      mstore\n      keccak256(0x00, 0x20)\n      swap1\n      0x06\n      mul\n      add\n      0x00\n      swap1\n      swap2\n      swap1\n      swap2\n      swap1\n      swap2\n      pop\n      0x00\n      dup3\n      add\n      mload\n      dup2\n      0x00\n      add\n      exp(0x0100, 0x00)\n      dup2\n      sload\n      dup2\n      0xffffffffffffffffffffffffffffffffffffffff\n      mul\n      not\n      and\n      swap1\n      dup4\n      0xffffffffffffffffffffffffffffffffffffffff\n      and\n      mul\n      or\n      swap1\n      sstore\n      pop\n      0x20\n      dup3\n      add\n      mload\n      dup2\n      0x01\n      add\n      exp(0x0100, 0x00)\n      dup2\n      sload\n      dup2\n      0xffffffffffffffffffffffffffffffffffffffff\n      mul\n      not\n      and\n      swap1\n      dup4\n      0xffffffffffffffffffffffffffffffffffffffff\n      and\n      mul\n      or\n      swap1\n      sstore\n      pop\n      0x40\n      dup3\n      add\n      mload\n      dup2\n      0x02\n      add\n      sstore\n      0x60\n      dup3\n      add\n      mload\n      dup2\n      0x03\n      add\n      swap1\n      dup2\n      tag_94\n      swap2\n      swap1\n      tag_76\n      jump\t// in\n    tag_94:\n      pop\n      0x80\n      dup3\n      add\n      mload\n      dup2\n      0x04\n      add\n      swap1\n      dup2\n      tag_95\n      swap2\n      swap1\n      tag_76\n      jump\t// in\n    tag_95:\n      pop\n      0xa0\n      dup3\n      add\n      mload\n      dup2\n      0x05\n      add\n      exp(0x0100, 0x00)\n      dup2\n      sload\n      dup2\n      0xff\n      mul\n      not\n      and\n      swap1\n      dup4\n      iszero\n      iszero\n      mul\n      or\n      swap1\n      sstore\n      pop\n      0xc0\n      dup3\n      add\n      mload\n      dup2\n      0x05\n      add\n      exp(0x0100, 0x01)\n      dup2\n      sload\n      dup2\n      0xff\n      mul\n      not\n      and\n      swap1\n      dup4\n      iszero\n      iszero\n      mul\n      or\n      swap1\n      sstore\n      pop\n      pop\n      pop\n        /* \"contracts/transactions.sol\":1569:1578  cbdcToken */\n      0x00\n      dup1\n      sload\n      swap1\n      0x0100\n      exp\n      swap1\n      div\n      0xffffffffffffffffffffffffffffffffffffffff\n      and\n        /* \"contracts/transactions.sol\":1569:1591  cbdcToken.transferFrom */\n      0xffffffffffffffffffffffffffffffffffffffff\n      and\n      0x23b872dd\n        /* \"contracts/transactions.sol\":1592:1602  msg.sender */\n      caller\n        /* \"contracts/transactions.sol\":1612:1616  this */\n      address\n        /* \"contracts/transactions.sol\":1619:1626  _amount */\n      dup6\n        /* \"contracts/transactions.sol\":1569:1627  cbdcToken.transferFrom(msg.sender, address(this), _amount) */\n      mload(0x40)\n      dup5\n      0xffffffff\n      and\n      0xe0\n      shl\n      dup2\n      mstore\n      0x04\n      add\n      tag_96\n      swap4\n      swap3\n      swap2\n      swap1\n      tag_97\n      jump\t// in\n    tag_96:\n      0x20\n      mload(0x40)\n      dup1\n      dup4\n      sub\n      dup2\n      0x00\n      dup8\n      gas\n      call\n      iszero\n      dup1\n      iszero\n      tag_99\n      jumpi\n      returndatasize\n      0x00\n      dup1\n      returndatacopy\n      revert(0x00, returndatasize)\n    tag_99:\n      pop\n      pop\n      pop\n      pop\n      mload(0x40)\n      returndatasize\n      not(0x1f)\n      0x1f\n      dup3\n      add\n      and\n      dup3\n      add\n      dup1\n      0x40\n      mstore\n      pop\n      dup2\n      add\n      swap1\n      tag_100\n      swap2\n      swap1\n      tag_82\n      jump\t// in\n    tag_100:\n        /* \"contracts/transactions.sol\":1561:1647  require(cbdcToken.transferFrom(msg.sender, address(this), _amount), \"Transfer failed\") */\n      tag_101\n      jumpi\n      mload(0x40)\n      0x08c379a000000000000000000000000000000000000000000000000000000000\n      dup2\n      mstore\n      0x04\n      add\n      tag_102\n      swap1\n      tag_85\n      jump\t// in\n    tag_102:\n      mload(0x40)\n      dup1\n      swap2\n      sub\n      swap1\n      revert\n    tag_101:\n        /* \"contracts/transactions.sol\":1709:1719  _recipient */\n      dup3\n        /* \"contracts/transactions.sol\":1663:1745  TransactionCreated(transactionId, msg.sender, _recipient, _amount, contractPeriod) */\n      0xffffffffffffffffffffffffffffffffffffffff\n      and\n        /* \"contracts/transactions.sol\":1697:1707  msg.sender */\n      caller\n        /* \"contracts/transactions.sol\":1663:1745  TransactionCreated(transactionId, msg.sender, _recipient, _amount, contractPeriod) */\n      0xffffffffffffffffffffffffffffffffffffffff\n      and\n        /* \"contracts/transactions.sol\":1682:1695  transactionId */\n      dup3\n        /* \"contracts/transactions.sol\":1663:1745  TransactionCreated(transactionId, msg.sender, _recipient, _amount, contractPeriod) */\n      0xd89212767b09009579b99fc5cbef0ea94e619624ff6501e3b609bb2acb5b947c\n        /* \"contracts/transactions.sol\":1721:1728  _amount */\n      dup6\n        /* \"contracts/transactions.sol\":1730:1744  contractPeriod */\n      0x02\n        /* \"contracts/transactions.sol\":1663:1745  TransactionCreated(transactionId, msg.sender, _recipient, _amount, contractPeriod) */\n      mload(0x40)\n      tag_103\n      swap3\n      swap2\n      swap1\n      tag_104\n      jump\t// in\n    tag_103:\n      mload(0x40)\n      dup1\n      swap2\n      sub\n      swap1\n      log4\n        /* \"contracts/transactions.sol\":1214:1752  {... */\n      pop\n        /* \"contracts/transactions.sol\":1143:1752  function createTransaction(address _recipient, uint256 _amount) public {... */\n      pop\n      pop\n      jump\t// out\n        /* \"contracts/transactions.sol\":2611:3151  function cancelTransaction(uint256 _transactionId) public {... */\n    tag_24:\n        /* \"contracts/transactions.sol\":2679:2710  Transaction storage transaction */\n      0x00\n        /* \"contracts/transactions.sol\":2713:2725  transactions */\n      0x03\n        /* \"contracts/transactions.sol\":2726:2740  _transactionId */\n      dup3\n        /* \"contracts/transactions.sol\":2713:2741  transactions[_transactionId] */\n      dup2\n      sload\n      dup2\n      lt\n      tag_106\n      jumpi\n      tag_107\n      tag_54\n      jump\t// in\n    tag_107:\n    tag_106:\n      swap1\n      0x00\n      mstore\n      keccak256(0x00, 0x20)\n      swap1\n      0x06\n      mul\n      add\n        /* \"contracts/transactions.sol\":2679:2741  Transaction storage transaction = transactions[_transactionId] */\n      swap1\n      pop\n        /* \"contracts/transactions.sol\":2774:2785  transaction */\n      dup1\n        /* \"contracts/transactions.sol\":2774:2791  transaction.payor */\n      0x00\n      add\n      0x00\n      swap1\n      sload\n      swap1\n      0x0100\n      exp\n      swap1\n      div\n      0xffffffffffffffffffffffffffffffffffffffff\n      and\n        /* \"contracts/transactions.sol\":2760:2791  msg.sender == transaction.payor */\n      0xffffffffffffffffffffffffffffffffffffffff\n      and\n        /* \"contracts/transactions.sol\":2760:2770  msg.sender */\n      caller\n        /* \"contracts/transactions.sol\":2760:2791  msg.sender == transaction.payor */\n      0xffffffffffffffffffffffffffffffffffffffff\n      and\n      eq\n        /* \"contracts/transactions.sol\":2752:2838  require(msg.sender == transaction.payor, \"Only the payor can cancel the transaction.\") */\n      tag_109\n      jumpi\n      mload(0x40)\n      0x08c379a000000000000000000000000000000000000000000000000000000000\n      dup2\n      mstore\n      0x04\n      add\n      tag_110\n      swap1\n      tag_111\n      jump\t// in\n    tag_110:\n      mload(0x40)\n      dup1\n      swap2\n      sub\n      swap1\n      revert\n    tag_109:\n        /* \"contracts/transactions.sol\":2856:2867  transaction */\n      dup1\n        /* \"contracts/transactions.sol\":2856:2874  transaction.isOpen */\n      0x05\n      add\n      0x00\n      swap1\n      sload\n      swap1\n      0x0100\n      exp\n      swap1\n      div\n      0xff\n      and\n        /* \"contracts/transactions.sol\":2848:2923  require(transaction.isOpen, \"Transaction is already settled or cancelled.\") */\n      tag_112\n      jumpi\n      mload(0x40)\n      0x08c379a000000000000000000000000000000000000000000000000000000000\n      dup2\n      mstore\n      0x04\n      add\n      tag_113\n      swap1\n      tag_58\n      jump\t// in\n    tag_113:\n      mload(0x40)\n      dup1\n      swap2\n      sub\n      swap1\n      revert\n    tag_112:\n        /* \"contracts/transactions.sol\":2954:2959  false */\n      0x00\n        /* \"contracts/transactions.sol\":2933:2944  transaction */\n      dup2\n        /* \"contracts/transactions.sol\":2933:2951  transaction.isOpen */\n      0x05\n      add\n      0x00\n        /* \"contracts/transactions.sol\":2933:2959  transaction.isOpen = false */\n      0x0100\n      exp\n      dup2\n      sload\n      dup2\n      0xff\n      mul\n      not\n      and\n      swap1\n      dup4\n      iszero\n      iszero\n      mul\n      or\n      swap1\n      sstore\n      pop\n        /* \"contracts/transactions.sol\":2995:2999  true */\n      0x01\n        /* \"contracts/transactions.sol\":2969:2980  transaction */\n      dup2\n        /* \"contracts/transactions.sol\":2969:2992  transaction.isCancelled */\n      0x05\n      add\n      0x01\n        /* \"contracts/transactions.sol\":2969:2999  transaction.isCancelled = true */\n      0x0100\n      exp\n      dup2\n      sload\n      dup2\n      0xff\n      mul\n      not\n      and\n      swap1\n      dup4\n      iszero\n      iszero\n      mul\n      or\n      swap1\n      sstore\n      pop\n        /* \"contracts/transactions.sol\":3017:3026  cbdcToken */\n      0x00\n      dup1\n      sload\n      swap1\n      0x0100\n      exp\n      swap1\n      div\n      0xffffffffffffffffffffffffffffffffffffffff\n      and\n        /* \"contracts/transactions.sol\":3017:3035  cbdcToken.transfer */\n      0xffffffffffffffffffffffffffffffffffffffff\n      and\n      0xa9059cbb\n        /* \"contracts/transactions.sol\":3036:3047  transaction */\n      dup3\n        /* \"contracts/transactions.sol\":3036:3053  transaction.payor */\n      0x00\n      add\n      0x00\n      swap1\n      sload\n      swap1\n      0x0100\n      exp\n      swap1\n      div\n      0xffffffffffffffffffffffffffffffffffffffff\n      and\n        /* \"contracts/transactions.sol\":3055:3066  transaction */\n      dup4\n        /* \"contracts/transactions.sol\":3055:3073  transaction.amount */\n      0x02\n      add\n      sload\n        /* \"contracts/transactions.sol\":3017:3074  cbdcToken.transfer(transaction.payor, transaction.amount) */\n      mload(0x40)\n      dup4\n      0xffffffff\n      and\n      0xe0\n      shl\n      dup2\n      mstore\n      0x04\n      add\n      tag_114\n      swap3\n      swap2\n      swap1\n      tag_78\n      jump\t// in\n    tag_114:\n      0x20\n      mload(0x40)\n      dup1\n      dup4\n      sub\n      dup2\n      0x00\n      dup8\n      gas\n      call\n      iszero\n      dup1\n      iszero\n      tag_116\n      jumpi\n      returndatasize\n      0x00\n      dup1\n      returndatacopy\n      revert(0x00, returndatasize)\n    tag_116:\n      pop\n      pop\n      pop\n      pop\n      mload(0x40)\n      returndatasize\n      not(0x1f)\n      0x1f\n      dup3\n      add\n      and\n      dup3\n      add\n      dup1\n      0x40\n      mstore\n      pop\n      dup2\n      add\n      swap1\n      tag_117\n      swap2\n      swap1\n      tag_82\n      jump\t// in\n    tag_117:\n        /* \"contracts/transactions.sol\":3009:3092  require(cbdcToken.transfer(transaction.payor, transaction.amount), \"Refund failed\") */\n      tag_118\n      jumpi\n      mload(0x40)\n      0x08c379a000000000000000000000000000000000000000000000000000000000\n      dup2\n      mstore\n      0x04\n      add\n      tag_119\n      swap1\n      tag_120\n      jump\t// in\n    tag_119:\n      mload(0x40)\n      dup1\n      swap2\n      sub\n      swap1\n      revert\n    tag_118:\n        /* \"contracts/transactions.sol\":3129:3143  _transactionId */\n      dup2\n        /* \"contracts/transactions.sol\":3108:3144  TransactionCancelled(_transactionId) */\n      0x956fb32199d8b882b2039a14e1be35ab14f7a80b9089fc223f14b43937173e60\n      mload(0x40)\n      mload(0x40)\n      dup1\n      swap2\n      sub\n      swap1\n      log2\n        /* \"contracts/transactions.sol\":2669:3151  {... */\n      pop\n        /* \"contracts/transactions.sol\":2611:3151  function cancelTransaction(uint256 _transactionId) public {... */\n      pop\n      jump\t// out\n        /* \"contracts/transactions.sol\":3157:3555  function getTransaction(uint256 _transactionId) public view returns (address, address, uint256, string memory, string memory, bool, bool) {... */\n    tag_27:\n        /* \"contracts/transactions.sol\":3226:3233  address */\n      0x00\n        /* \"contracts/transactions.sol\":3235:3242  address */\n      dup1\n        /* \"contracts/transactions.sol\":3244:3251  uint256 */\n      0x00\n        /* \"contracts/transactions.sol\":3253:3266  string memory */\n      0x60\n        /* \"contracts/transactions.sol\":3268:3281  string memory */\n      dup1\n        /* \"contracts/transactions.sol\":3283:3287  bool */\n      0x00\n        /* \"contracts/transactions.sol\":3289:3293  bool */\n      dup1\n        /* \"contracts/transactions.sol\":3305:3335  Transaction memory transaction */\n      0x00\n        /* \"contracts/transactions.sol\":3338:3350  transactions */\n      0x03\n        /* \"contracts/transactions.sol\":3351:3365  _transactionId */\n      dup10\n        /* \"contracts/transactions.sol\":3338:3366  transactions[_transactionId] */\n      dup2\n      sload\n      dup2\n      lt\n      tag_122\n      jumpi\n      tag_123\n      tag_54\n      jump\t// in\n    tag_123:\n    tag_122:\n      swap1\n      0x00\n      mstore\n      keccak256(0x00, 0x20)\n      swap1\n      0x06\n      mul\n      add\n        /* \"contracts/transactions.sol\":3305:3366  Transaction memory transaction = transactions[_transactionId] */\n      mload(0x40)\n      dup1\n      0xe0\n      add\n      0x40\n      mstore\n      swap1\n      dup2\n      0x00\n      dup3\n      add\n      0x00\n      swap1\n      sload\n      swap1\n      0x0100\n      exp\n      swap1\n      div\n      0xffffffffffffffffffffffffffffffffffffffff\n      and\n      0xffffffffffffffffffffffffffffffffffffffff\n      and\n      0xffffffffffffffffffffffffffffffffffffffff\n      and\n      dup2\n      mstore\n      0x20\n      add\n      0x01\n      dup3\n      add\n      0x00\n      swap1\n      sload\n      swap1\n      0x0100\n      exp\n      swap1\n      div\n      0xffffffffffffffffffffffffffffffffffffffff\n      and\n      0xffffffffffffffffffffffffffffffffffffffff\n      and\n      0xffffffffffffffffffffffffffffffffffffffff\n      and\n      dup2\n      mstore\n      0x20\n      add\n      0x02\n      dup3\n      add\n      sload\n      dup2\n      mstore\n      0x20\n      add\n      0x03\n      dup3\n      add\n      dup1\n      sload\n      tag_125\n      swap1\n      tag_66\n      jump\t// in\n    tag_125:\n      dup1\n      0x1f\n      add\n      0x20\n      dup1\n      swap2\n      div\n      mul\n      0x20\n      add\n      mload(0x40)\n      swap1\n      dup2\n      add\n      0x40\n      mstore\n      dup1\n      swap3\n      swap2\n      swap1\n      dup2\n      dup2\n      mstore\n      0x20\n      add\n      dup3\n      dup1\n      sload\n      tag_126\n      swap1\n      tag_66\n      jump\t// in\n    tag_126:\n      dup1\n      iszero\n      tag_127\n      jumpi\n      dup1\n      0x1f\n      lt\n      tag_128\n      jumpi\n      0x0100\n      dup1\n      dup4\n      sload\n      div\n      mul\n      dup4\n      mstore\n      swap2\n      0x20\n      add\n      swap2\n      jump(tag_127)\n    tag_128:\n      dup3\n      add\n      swap2\n      swap1\n      0x00\n      mstore\n      keccak256(0x00, 0x20)\n      swap1\n    tag_129:\n      dup2\n      sload\n      dup2\n      mstore\n      swap1\n      0x01\n      add\n      swap1\n      0x20\n      add\n      dup1\n      dup4\n      gt\n      tag_129\n      jumpi\n      dup3\n      swap1\n      sub\n      0x1f\n      and\n      dup3\n      add\n      swap2\n    tag_127:\n      pop\n      pop\n      pop\n      pop\n      pop\n      dup2\n      mstore\n      0x20\n      add\n      0x04\n      dup3\n      add\n      dup1\n      sload\n      tag_130\n      swap1\n      tag_66\n      jump\t// in\n    tag_130:\n      dup1\n      0x1f\n      add\n      0x20\n      dup1\n      swap2\n      div\n      mul\n      0x20\n      add\n      mload(0x40)\n      swap1\n      dup2\n      add\n      0x40\n      mstore\n      dup1\n      swap3\n      swap2\n      swap1\n      dup2\n      dup2\n      mstore\n      0x20\n      add\n      dup3\n      dup1\n      sload\n      tag_131\n      swap1\n      tag_66\n      jump\t// in\n    tag_131:\n      dup1\n      iszero\n      tag_132\n      jumpi\n      dup1\n      0x1f\n      lt\n      tag_133\n      jumpi\n      0x0100\n      dup1\n      dup4\n      sload\n      div\n      mul\n      dup4\n      mstore\n      swap2\n      0x20\n      add\n      swap2\n      jump(tag_132)\n    tag_133:\n      dup3\n      add\n      swap2\n      swap1\n      0x00\n      mstore\n      keccak256(0x00, 0x20)\n      swap1\n    tag_134:\n      dup2\n      sload\n      dup2\n      mstore\n      swap1\n      0x01\n      add\n      swap1\n      0x20\n      add\n      dup1\n      dup4\n      gt\n      tag_134\n      jumpi\n      dup3\n      swap1\n      sub\n      0x1f\n      and\n      dup3\n      add\n      swap2\n    tag_132:\n      pop\n      pop\n      pop\n      pop\n      pop\n      dup2\n      mstore\n      0x20\n      add\n      0x05\n      dup3\n      add\n      0x00\n      swap1\n      sload\n      swap1\n      0x0100\n      exp\n      swap1\n      div\n      0xff\n      and\n      iszero\n      iszero\n      iszero\n      iszero\n      dup2\n      mstore\n      0x20\n      add\n      0x05\n      dup3\n      add\n      0x01\n      swap1\n      sload\n      swap1\n      0x0100\n      exp\n      swap1\n      div\n      0xff\n      and\n      iszero\n      iszero\n      iszero\n      iszero\n      dup2\n      mstore\n      pop\n      pop\n      swap1\n      pop\n        /* \"contracts/transactions.sol\":3384:3395  transaction */\n      dup1\n        /* \"contracts/transactions.sol\":3384:3401  transaction.payor */\n      0x00\n      add\n      mload\n        /* \"contracts/transactions.sol\":3403:3414  transaction */\n      dup2\n        /* \"contracts/transactions.sol\":3403:3424  transaction.recipient */\n      0x20\n      add\n      mload\n        /* \"contracts/transactions.sol\":3426:3437  transaction */\n      dup3\n        /* \"contracts/transactions.sol\":3426:3444  transaction.amount */\n      0x40\n      add\n      mload\n        /* \"contracts/transactions.sol\":3446:3457  transaction */\n      dup4\n        /* \"contracts/transactions.sol\":3446:3472  transaction.creationPeriod */\n      0x60\n      add\n      mload\n        /* \"contracts/transactions.sol\":3474:3485  transaction */\n      dup5\n        /* \"contracts/transactions.sol\":3474:3502  transaction.settlementPeriod */\n      0x80\n      add\n      mload\n        /* \"contracts/transactions.sol\":3504:3515  transaction */\n      dup6\n        /* \"contracts/transactions.sol\":3504:3522  transaction.isOpen */\n      0xa0\n      add\n      mload\n        /* \"contracts/transactions.sol\":3524:3535  transaction */\n      dup7\n        /* \"contracts/transactions.sol\":3524:3547  transaction.isCancelled */\n      0xc0\n      add\n      mload\n        /* \"contracts/transactions.sol\":3376:3548  return (transaction.payor, transaction.recipient, transaction.amount, transaction.creationPeriod, transaction.settlementPeriod, transaction.isOpen, transaction.isCancelled) */\n      swap8\n      pop\n      swap8\n      pop\n      swap8\n      pop\n      swap8\n      pop\n      swap8\n      pop\n      swap8\n      pop\n      swap8\n      pop\n      pop\n        /* \"contracts/transactions.sol\":3157:3555  function getTransaction(uint256 _transactionId) public view returns (address, address, uint256, string memory, string memory, bool, bool) {... */\n      swap2\n      swap4\n      swap6\n      swap8\n      swap1\n      swap3\n      swap5\n      swap7\n      pop\n      jump\t// out\n        /* \"contracts/transactions.sol\":4306:4418  function loadIntoSystemContract() public {... */\n    tag_31:\n      jump\t// out\n        /* \"contracts/transactions.sol\":208:236  string public contractPeriod */\n    tag_33:\n      0x02\n      dup1\n      sload\n      tag_136\n      swap1\n      tag_66\n      jump\t// in\n    tag_136:\n      dup1\n      0x1f\n      add\n      0x20\n      dup1\n      swap2\n      div\n      mul\n      0x20\n      add\n      mload(0x40)\n      swap1\n      dup2\n      add\n      0x40\n      mstore\n      dup1\n      swap3\n      swap2\n      swap1\n      dup2\n      dup2\n      mstore\n      0x20\n      add\n      dup3\n      dup1\n      sload\n      tag_137\n      swap1\n      tag_66\n      jump\t// in\n    tag_137:\n      dup1\n      iszero\n      tag_138\n      jumpi\n      dup1\n      0x1f\n      lt\n      tag_139\n      jumpi\n      0x0100\n      dup1\n      dup4\n      sload\n      div\n      mul\n      dup4\n      mstore\n      swap2\n      0x20\n      add\n      swap2\n      jump(tag_138)\n    tag_139:\n      dup3\n      add\n      swap2\n      swap1\n      0x00\n      mstore\n      keccak256(0x00, 0x20)\n      swap1\n    tag_140:\n      dup2\n      sload\n      dup2\n      mstore\n      swap1\n      0x01\n      add\n      swap1\n      0x20\n      add\n      dup1\n      dup4\n      gt\n      tag_140\n      jumpi\n      dup3\n      swap1\n      sub\n      0x1f\n      and\n      dup3\n      add\n      swap2\n    tag_138:\n      pop\n      pop\n      pop\n      pop\n      pop\n      dup2\n      jump\t// out\n        /* \"contracts/transactions.sol\":488:521  Transaction[] public transactions */\n    tag_38:\n      0x03\n      dup2\n      dup2\n      sload\n      dup2\n      lt\n      tag_141\n      jumpi\n      0x00\n      dup1\n      revert\n    tag_141:\n      swap1\n      0x00\n      mstore\n      keccak256(0x00, 0x20)\n      swap1\n      0x06\n      mul\n      add\n      0x00\n      swap2\n      pop\n      swap1\n      pop\n      dup1\n      0x00\n      add\n      0x00\n      swap1\n      sload\n      swap1\n      0x0100\n      exp\n      swap1\n      div\n      0xffffffffffffffffffffffffffffffffffffffff\n      and\n      swap1\n      dup1\n      0x01\n      add\n      0x00\n      swap1\n      sload\n      swap1\n      0x0100\n      exp\n      swap1\n      div\n      0xffffffffffffffffffffffffffffffffffffffff\n      and\n      swap1\n      dup1\n      0x02\n      add\n      sload\n      swap1\n      dup1\n      0x03\n      add\n      dup1\n      sload\n      tag_143\n      swap1\n      tag_66\n      jump\t// in\n    tag_143:\n      dup1\n      0x1f\n      add\n      0x20\n      dup1\n      swap2\n      div\n      mul\n      0x20\n      add\n      mload(0x40)\n      swap1\n      dup2\n      add\n      0x40\n      mstore\n      dup1\n      swap3\n      swap2\n      swap1\n      dup2\n      dup2\n      mstore\n      0x20\n      add\n      dup3\n      dup1\n      sload\n      tag_144\n      swap1\n      tag_66\n      jump\t// in\n    tag_144:\n      dup1\n      iszero\n      tag_145\n      jumpi\n      dup1\n      0x1f\n      lt\n      tag_146\n      jumpi\n      0x0100\n      dup1\n      dup4\n      sload\n      div\n      mul\n      dup4\n      mstore\n      swap2\n      0x20\n      add\n      swap2\n      jump(tag_145)\n    tag_146:\n      dup3\n      add\n      swap2\n      swap1\n      0x00\n      mstore\n      keccak256(0x00, 0x20)\n      swap1\n    tag_147:\n      dup2\n      sload\n      dup2\n      mstore\n      swap1\n      0x01\n      add\n      swap1\n      0x20\n      add\n      dup1\n      dup4\n      gt\n      tag_147\n      jumpi\n      dup3\n      swap1\n      sub\n      0x1f\n      and\n      dup3\n      add\n      swap2\n    tag_145:\n      pop\n      pop\n      pop\n      pop\n      pop\n      swap1\n      dup1\n      0x04\n      add\n      dup1\n      sload\n      tag_148\n      swap1\n      tag_66\n      jump\t// in\n    tag_148:\n      dup1\n      0x1f\n      add\n      0x20\n      dup1\n      swap2\n      div\n      mul\n      0x20\n      add\n      mload(0x40)\n      swap1\n      dup2\n      add\n      0x40\n      mstore\n      dup1\n      swap3\n      swap2\n      swap1\n      dup2\n      dup2\n      mstore\n      0x20\n      add\n      dup3\n      dup1\n      sload\n      tag_149\n      swap1\n      tag_66\n      jump\t// in\n    tag_149:\n      dup1\n      iszero\n      tag_150\n      jumpi\n      dup1\n      0x1f\n      lt\n      tag_151\n      jumpi\n      0x0100\n      dup1\n      dup4\n      sload\n      div\n      mul\n      dup4\n      mstore\n      swap2\n      0x20\n      add\n      swap2\n      jump(tag_150)\n    tag_151:\n      dup3\n      add\n      swap2\n      swap1\n      0x00\n      mstore\n      keccak256(0x00, 0x20)\n      swap1\n    tag_152:\n      dup2\n      sload\n      dup2\n      mstore\n      swap1\n      0x01\n      add\n      swap1\n      0x20\n      add\n      dup1\n      dup4\n      gt\n      tag_152\n      jumpi\n      dup3\n      swap1\n      sub\n      0x1f\n      and\n      dup3\n      add\n      swap2\n    tag_150:\n      pop\n      pop\n      pop\n      pop\n      pop\n      swap1\n      dup1\n      0x05\n      add\n      0x00\n      swap1\n      sload\n      swap1\n      0x0100\n      exp\n      swap1\n      div\n      0xff\n      and\n      swap1\n      dup1\n      0x05\n      add\n      0x01\n      swap1\n      sload\n      swap1\n      0x0100\n      exp\n      swap1\n      div\n      0xff\n      and\n      swap1\n      pop\n      dup8\n      jump\t// out\n        /* \"contracts/transactions.sol\":173:202  address public systemContract */\n    tag_41:\n      0x01\n      0x00\n      swap1\n      sload\n      swap1\n      0x0100\n      exp\n      swap1\n      div\n      0xffffffffffffffffffffffffffffffffffffffff\n      and\n      dup2\n      jump\t// out\n        /* \"contracts/transactions.sol\":144:167  IERC20 public cbdcToken */\n    tag_45:\n      0x00\n      dup1\n      sload\n      swap1\n      0x0100\n      exp\n      swap1\n      div\n      0xffffffffffffffffffffffffffffffffffffffff\n      and\n      dup2\n      jump\t// out\n        /* \"contracts/transactions.sol\":3561:3828  function isValidPeriod(string memory period) private pure returns (bool) {... */\n    tag_60:\n        /* \"contracts/transactions.sol\":3628:3632  bool */\n      0x00\n        /* \"contracts/transactions.sol\":3703:3732  abi.encodePacked((\"morning\")) */\n      add(0x20, mload(0x40))\n      tag_154\n      swap1\n      tag_155\n      jump\t// in\n    tag_154:\n      mload(0x40)\n      0x20\n      dup2\n      dup4\n      sub\n      sub\n      dup2\n      mstore\n      swap1\n      0x40\n      mstore\n        /* \"contracts/transactions.sol\":3693:3733  keccak256(abi.encodePacked((\"morning\"))) */\n      dup1\n      mload\n      swap1\n      0x20\n      add\n      keccak256\n        /* \"contracts/transactions.sol\":3680:3686  period */\n      dup3\n        /* \"contracts/transactions.sol\":3662:3688  abi.encodePacked((period)) */\n      add(0x20, mload(0x40))\n      tag_156\n      swap2\n      swap1\n      tag_157\n      jump\t// in\n    tag_156:\n      mload(0x40)\n      0x20\n      dup2\n      dup4\n      sub\n      sub\n      dup2\n      mstore\n      swap1\n      0x40\n      mstore\n        /* \"contracts/transactions.sol\":3652:3689  keccak256(abi.encodePacked((period))) */\n      dup1\n      mload\n      swap1\n      0x20\n      add\n      keccak256\n        /* \"contracts/transactions.sol\":3652:3733  keccak256(abi.encodePacked((period))) == keccak256(abi.encodePacked((\"morning\"))) */\n      eq\n        /* \"contracts/transactions.sol\":3652:3820  keccak256(abi.encodePacked((period))) == keccak256(abi.encodePacked((\"morning\"))) || keccak256(abi.encodePacked((period))) == keccak256(abi.encodePacked((\"afternoon\"))) */\n      dup1\n      tag_158\n      jumpi\n      pop\n        /* \"contracts/transactions.sol\":3788:3819  abi.encodePacked((\"afternoon\")) */\n      add(0x20, mload(0x40))\n      tag_159\n      swap1\n      tag_160\n      jump\t// in\n    tag_159:\n      mload(0x40)\n      0x20\n      dup2\n      dup4\n      sub\n      sub\n      dup2\n      mstore\n      swap1\n      0x40\n      mstore\n        /* \"contracts/transactions.sol\":3778:3820  keccak256(abi.encodePacked((\"afternoon\"))) */\n      dup1\n      mload\n      swap1\n      0x20\n      add\n      keccak256\n        /* \"contracts/transactions.sol\":3765:3771  period */\n      dup3\n        /* \"contracts/transactions.sol\":3747:3773  abi.encodePacked((period)) */\n      add(0x20, mload(0x40))\n      tag_161\n      swap2\n      swap1\n      tag_157\n      jump\t// in\n    tag_161:\n      mload(0x40)\n      0x20\n      dup2\n      dup4\n      sub\n      sub\n      dup2\n      mstore\n      swap1\n      0x40\n      mstore\n        /* \"contracts/transactions.sol\":3737:3774  keccak256(abi.encodePacked((period))) */\n      dup1\n      mload\n      swap1\n      0x20\n      add\n      keccak256\n        /* \"contracts/transactions.sol\":3737:3820  keccak256(abi.encodePacked((period))) == keccak256(abi.encodePacked((\"afternoon\"))) */\n      eq\n        /* \"contracts/transactions.sol\":3652:3820  keccak256(abi.encodePacked((period))) == keccak256(abi.encodePacked((\"morning\"))) || keccak256(abi.encodePacked((period))) == keccak256(abi.encodePacked((\"afternoon\"))) */\n    tag_158:\n        /* \"contracts/transactions.sol\":3644:3821  return (keccak256(abi.encodePacked((period))) == keccak256(abi.encodePacked((\"morning\"))) || keccak256(abi.encodePacked((period))) == keccak256(abi.encodePacked((\"afternoon\")))) */\n      swap1\n      pop\n        /* \"contracts/transactions.sol\":3561:3828  function isValidPeriod(string memory period) private pure returns (bool) {... */\n      swap2\n      swap1\n      pop\n      jump\t// out\n        /* \"contracts/transactions.sol\":3834:4223  function isValidSettlementPeriod(string memory creationPeriod, string memory settlementPeriod) private pure returns (bool) {... */\n    tag_71:\n        /* \"contracts/transactions.sol\":3951:3955  bool */\n      0x00\n        /* \"contracts/transactions.sol\":4030:4061  abi.encodePacked((\"afternoon\")) */\n      add(0x20, mload(0x40))\n      tag_163\n      swap1\n      tag_160\n      jump\t// in\n    tag_163:\n      mload(0x40)\n      0x20\n      dup2\n      dup4\n      sub\n      sub\n      dup2\n      mstore\n      swap1\n      0x40\n      mstore\n        /* \"contracts/transactions.sol\":4020:4062  keccak256(abi.encodePacked((\"afternoon\"))) */\n      dup1\n      mload\n      swap1\n      0x20\n      add\n      keccak256\n        /* \"contracts/transactions.sol\":3999:4013  creationPeriod */\n      dup4\n        /* \"contracts/transactions.sol\":3981:4015  abi.encodePacked((creationPeriod)) */\n      add(0x20, mload(0x40))\n      tag_164\n      swap2\n      swap1\n      tag_157\n      jump\t// in\n    tag_164:\n      mload(0x40)\n      0x20\n      dup2\n      dup4\n      sub\n      sub\n      dup2\n      mstore\n      swap1\n      0x40\n      mstore\n        /* \"contracts/transactions.sol\":3971:4016  keccak256(abi.encodePacked((creationPeriod))) */\n      dup1\n      mload\n      swap1\n      0x20\n      add\n      keccak256\n        /* \"contracts/transactions.sol\":3971:4062  keccak256(abi.encodePacked((creationPeriod))) == keccak256(abi.encodePacked((\"afternoon\"))) */\n      eq\n        /* \"contracts/transactions.sol\":3971:4157  keccak256(abi.encodePacked((creationPeriod))) == keccak256(abi.encodePacked((\"afternoon\"))) && keccak256(abi.encodePacked((settlementPeriod))) == keccak256(abi.encodePacked((\"morning\"))) */\n      dup1\n      iszero\n      tag_165\n      jumpi\n      pop\n        /* \"contracts/transactions.sol\":4127:4156  abi.encodePacked((\"morning\")) */\n      add(0x20, mload(0x40))\n      tag_166\n      swap1\n      tag_155\n      jump\t// in\n    tag_166:\n      mload(0x40)\n      0x20\n      dup2\n      dup4\n      sub\n      sub\n      dup2\n      mstore\n      swap1\n      0x40\n      mstore\n        /* \"contracts/transactions.sol\":4117:4157  keccak256(abi.encodePacked((\"morning\"))) */\n      dup1\n      mload\n      swap1\n      0x20\n      add\n      keccak256\n        /* \"contracts/transactions.sol\":4094:4110  settlementPeriod */\n      dup3\n        /* \"contracts/transactions.sol\":4076:4112  abi.encodePacked((settlementPeriod)) */\n      add(0x20, mload(0x40))\n      tag_167\n      swap2\n      swap1\n      tag_157\n      jump\t// in\n    tag_167:\n      mload(0x40)\n      0x20\n      dup2\n      dup4\n      sub\n      sub\n      dup2\n      mstore\n      swap1\n      0x40\n      mstore\n        /* \"contracts/transactions.sol\":4066:4113  keccak256(abi.encodePacked((settlementPeriod))) */\n      dup1\n      mload\n      swap1\n      0x20\n      add\n      keccak256\n        /* \"contracts/transactions.sol\":4066:4157  keccak256(abi.encodePacked((settlementPeriod))) == keccak256(abi.encodePacked((\"morning\"))) */\n      eq\n        /* \"contracts/transactions.sol\":3971:4157  keccak256(abi.encodePacked((creationPeriod))) == keccak256(abi.encodePacked((\"afternoon\"))) && keccak256(abi.encodePacked((settlementPeriod))) == keccak256(abi.encodePacked((\"morning\"))) */\n    tag_165:\n        /* \"contracts/transactions.sol\":3967:4196  if (keccak256(abi.encodePacked((creationPeriod))) == keccak256(abi.encodePacked((\"afternoon\"))) && keccak256(abi.encodePacked((settlementPeriod))) == keccak256(abi.encodePacked((\"morning\")))) {... */\n      iszero\n      tag_168\n      jumpi\n        /* \"contracts/transactions.sol\":4180:4185  false */\n      0x00\n        /* \"contracts/transactions.sol\":4173:4185  return false */\n      swap1\n      pop\n      jump(tag_162)\n        /* \"contracts/transactions.sol\":3967:4196  if (keccak256(abi.encodePacked((creationPeriod))) == keccak256(abi.encodePacked((\"afternoon\"))) && keccak256(abi.encodePacked((settlementPeriod))) == keccak256(abi.encodePacked((\"morning\")))) {... */\n    tag_168:\n        /* \"contracts/transactions.sol\":4212:4216  true */\n      0x01\n        /* \"contracts/transactions.sol\":4205:4216  return true */\n      swap1\n      pop\n        /* \"contracts/transactions.sol\":3834:4223  function isValidSettlementPeriod(string memory creationPeriod, string memory settlementPeriod) private pure returns (bool) {... */\n    tag_162:\n      swap3\n      swap2\n      pop\n      pop\n      jump\t// out\n        /* \"#utility.yul\":7:82   */\n    tag_169:\n        /* \"#utility.yul\":40:46   */\n      0x00\n        /* \"#utility.yul\":73:75   */\n      0x40\n        /* \"#utility.yul\":67:76   */\n      mload\n        /* \"#utility.yul\":57:76   */\n      swap1\n      pop\n        /* \"#utility.yul\":7:82   */\n      swap1\n      jump\t// out\n        /* \"#utility.yul\":88:205   */\n    tag_170:\n        /* \"#utility.yul\":197:198   */\n      0x00\n        /* \"#utility.yul\":194:195   */\n      dup1\n        /* \"#utility.yul\":187:199   */\n      revert\n        /* \"#utility.yul\":211:328   */\n    tag_171:\n        /* \"#utility.yul\":320:321   */\n      0x00\n        /* \"#utility.yul\":317:318   */\n      dup1\n        /* \"#utility.yul\":310:322   */\n      revert\n        /* \"#utility.yul\":334:411   */\n    tag_172:\n        /* \"#utility.yul\":371:378   */\n      0x00\n        /* \"#utility.yul\":400:405   */\n      dup2\n        /* \"#utility.yul\":389:405   */\n      swap1\n      pop\n        /* \"#utility.yul\":334:411   */\n      swap2\n      swap1\n      pop\n      jump\t// out\n        /* \"#utility.yul\":417:539   */\n    tag_173:\n        /* \"#utility.yul\":490:514   */\n      tag_246\n        /* \"#utility.yul\":508:513   */\n      dup2\n        /* \"#utility.yul\":490:514   */\n      tag_172\n      jump\t// in\n    tag_246:\n        /* \"#utility.yul\":483:488   */\n      dup2\n        /* \"#utility.yul\":480:515   */\n      eq\n        /* \"#utility.yul\":470:533   */\n      tag_247\n      jumpi\n        /* \"#utility.yul\":529:530   */\n      0x00\n        /* \"#utility.yul\":526:527   */\n      dup1\n        /* \"#utility.yul\":519:531   */\n      revert\n        /* \"#utility.yul\":470:533   */\n    tag_247:\n        /* \"#utility.yul\":417:539   */\n      pop\n      jump\t// out\n        /* \"#utility.yul\":545:684   */\n    tag_174:\n        /* \"#utility.yul\":591:596   */\n      0x00\n        /* \"#utility.yul\":629:635   */\n      dup2\n        /* \"#utility.yul\":616:636   */\n      calldataload\n        /* \"#utility.yul\":607:636   */\n      swap1\n      pop\n        /* \"#utility.yul\":645:678   */\n      tag_249\n        /* \"#utility.yul\":672:677   */\n      dup2\n        /* \"#utility.yul\":645:678   */\n      tag_173\n      jump\t// in\n    tag_249:\n        /* \"#utility.yul\":545:684   */\n      swap3\n      swap2\n      pop\n      pop\n      jump\t// out\n        /* \"#utility.yul\":690:807   */\n    tag_175:\n        /* \"#utility.yul\":799:800   */\n      0x00\n        /* \"#utility.yul\":796:797   */\n      dup1\n        /* \"#utility.yul\":789:801   */\n      revert\n        /* \"#utility.yul\":813:930   */\n    tag_176:\n        /* \"#utility.yul\":922:923   */\n      0x00\n        /* \"#utility.yul\":919:920   */\n      dup1\n        /* \"#utility.yul\":912:924   */\n      revert\n        /* \"#utility.yul\":936:1038   */\n    tag_177:\n        /* \"#utility.yul\":977:983   */\n      0x00\n        /* \"#utility.yul\":1028:1030   */\n      0x1f\n        /* \"#utility.yul\":1024:1031   */\n      not\n        /* \"#utility.yul\":1019:1021   */\n      0x1f\n        /* \"#utility.yul\":1012:1017   */\n      dup4\n        /* \"#utility.yul\":1008:1022   */\n      add\n        /* \"#utility.yul\":1004:1032   */\n      and\n        /* \"#utility.yul\":994:1032   */\n      swap1\n      pop\n        /* \"#utility.yul\":936:1038   */\n      swap2\n      swap1\n      pop\n      jump\t// out\n        /* \"#utility.yul\":1044:1224   */\n    tag_178:\n        /* \"#utility.yul\":1092:1169   */\n      0x4e487b7100000000000000000000000000000000000000000000000000000000\n        /* \"#utility.yul\":1089:1090   */\n      0x00\n        /* \"#utility.yul\":1082:1170   */\n      mstore\n        /* \"#utility.yul\":1189:1193   */\n      0x41\n        /* \"#utility.yul\":1186:1187   */\n      0x04\n        /* \"#utility.yul\":1179:1194   */\n      mstore\n        /* \"#utility.yul\":1213:1217   */\n      0x24\n        /* \"#utility.yul\":1210:1211   */\n      0x00\n        /* \"#utility.yul\":1203:1218   */\n      revert\n        /* \"#utility.yul\":1230:1511   */\n    tag_179:\n        /* \"#utility.yul\":1313:1340   */\n      tag_255\n        /* \"#utility.yul\":1335:1339   */\n      dup3\n        /* \"#utility.yul\":1313:1340   */\n      tag_177\n      jump\t// in\n    tag_255:\n        /* \"#utility.yul\":1305:1311   */\n      dup2\n        /* \"#utility.yul\":1301:1341   */\n      add\n        /* \"#utility.yul\":1443:1449   */\n      dup2\n        /* \"#utility.yul\":1431:1441   */\n      dup2\n        /* \"#utility.yul\":1428:1450   */\n      lt\n        /* \"#utility.yul\":1407:1425   */\n      0xffffffffffffffff\n        /* \"#utility.yul\":1395:1405   */\n      dup3\n        /* \"#utility.yul\":1392:1426   */\n      gt\n        /* \"#utility.yul\":1389:1451   */\n      or\n        /* \"#utility.yul\":1386:1474   */\n      iszero\n      tag_256\n      jumpi\n        /* \"#utility.yul\":1454:1472   */\n      tag_257\n      tag_178\n      jump\t// in\n    tag_257:\n        /* \"#utility.yul\":1386:1474   */\n    tag_256:\n        /* \"#utility.yul\":1494:1504   */\n      dup1\n        /* \"#utility.yul\":1490:1492   */\n      0x40\n        /* \"#utility.yul\":1483:1505   */\n      mstore\n        /* \"#utility.yul\":1273:1511   */\n      pop\n        /* \"#utility.yul\":1230:1511   */\n      pop\n      pop\n      jump\t// out\n        /* \"#utility.yul\":1517:1646   */\n    tag_180:\n        /* \"#utility.yul\":1551:1557   */\n      0x00\n        /* \"#utility.yul\":1578:1598   */\n      tag_259\n      tag_169\n      jump\t// in\n    tag_259:\n        /* \"#utility.yul\":1568:1598   */\n      swap1\n      pop\n        /* \"#utility.yul\":1607:1640   */\n      tag_260\n        /* \"#utility.yul\":1635:1639   */\n      dup3\n        /* \"#utility.yul\":1627:1633   */\n      dup3\n        /* \"#utility.yul\":1607:1640   */\n      tag_179\n      jump\t// in\n    tag_260:\n        /* \"#utility.yul\":1517:1646   */\n      swap2\n      swap1\n      pop\n      jump\t// out\n        /* \"#utility.yul\":1652:1960   */\n    tag_181:\n        /* \"#utility.yul\":1714:1718   */\n      0x00\n        /* \"#utility.yul\":1804:1822   */\n      0xffffffffffffffff\n        /* \"#utility.yul\":1796:1802   */\n      dup3\n        /* \"#utility.yul\":1793:1823   */\n      gt\n        /* \"#utility.yul\":1790:1846   */\n      iszero\n      tag_262\n      jumpi\n        /* \"#utility.yul\":1826:1844   */\n      tag_263\n      tag_178\n      jump\t// in\n    tag_263:\n        /* \"#utility.yul\":1790:1846   */\n    tag_262:\n        /* \"#utility.yul\":1864:1893   */\n      tag_264\n        /* \"#utility.yul\":1886:1892   */\n      dup3\n        /* \"#utility.yul\":1864:1893   */\n      tag_177\n      jump\t// in\n    tag_264:\n        /* \"#utility.yul\":1856:1893   */\n      swap1\n      pop\n        /* \"#utility.yul\":1948:1952   */\n      0x20\n        /* \"#utility.yul\":1942:1946   */\n      dup2\n        /* \"#utility.yul\":1938:1953   */\n      add\n        /* \"#utility.yul\":1930:1953   */\n      swap1\n      pop\n        /* \"#utility.yul\":1652:1960   */\n      swap2\n      swap1\n      pop\n      jump\t// out\n        /* \"#utility.yul\":1966:2112   */\n    tag_182:\n        /* \"#utility.yul\":2063:2069   */\n      dup3\n        /* \"#utility.yul\":2058:2061   */\n      dup2\n        /* \"#utility.yul\":2053:2056   */\n      dup4\n        /* \"#utility.yul\":2040:2070   */\n      calldatacopy\n        /* \"#utility.yul\":2104:2105   */\n      0x00\n        /* \"#utility.yul\":2095:2101   */\n      dup4\n        /* \"#utility.yul\":2090:2093   */\n      dup4\n        /* \"#utility.yul\":2086:2102   */\n      add\n        /* \"#utility.yul\":2079:2106   */\n      mstore\n        /* \"#utility.yul\":1966:2112   */\n      pop\n      pop\n      pop\n      jump\t// out\n        /* \"#utility.yul\":2118:2543   */\n    tag_183:\n        /* \"#utility.yul\":2196:2201   */\n      0x00\n        /* \"#utility.yul\":2221:2287   */\n      tag_267\n        /* \"#utility.yul\":2237:2286   */\n      tag_268\n        /* \"#utility.yul\":2279:2285   */\n      dup5\n        /* \"#utility.yul\":2237:2286   */\n      tag_181\n      jump\t// in\n    tag_268:\n        /* \"#utility.yul\":2221:2287   */\n      tag_180\n      jump\t// in\n    tag_267:\n        /* \"#utility.yul\":2212:2287   */\n      swap1\n      pop\n        /* \"#utility.yul\":2310:2316   */\n      dup3\n        /* \"#utility.yul\":2303:2308   */\n      dup2\n        /* \"#utility.yul\":2296:2317   */\n      mstore\n        /* \"#utility.yul\":2348:2352   */\n      0x20\n        /* \"#utility.yul\":2341:2346   */\n      dup2\n        /* \"#utility.yul\":2337:2353   */\n      add\n        /* \"#utility.yul\":2386:2389   */\n      dup5\n        /* \"#utility.yul\":2377:2383   */\n      dup5\n        /* \"#utility.yul\":2372:2375   */\n      dup5\n        /* \"#utility.yul\":2368:2384   */\n      add\n        /* \"#utility.yul\":2365:2390   */\n      gt\n        /* \"#utility.yul\":2362:2474   */\n      iszero\n      tag_269\n      jumpi\n        /* \"#utility.yul\":2393:2472   */\n      tag_270\n      tag_176\n      jump\t// in\n    tag_270:\n        /* \"#utility.yul\":2362:2474   */\n    tag_269:\n        /* \"#utility.yul\":2483:2537   */\n      tag_271\n        /* \"#utility.yul\":2530:2536   */\n      dup5\n        /* \"#utility.yul\":2525:2528   */\n      dup3\n        /* \"#utility.yul\":2520:2523   */\n      dup6\n        /* \"#utility.yul\":2483:2537   */\n      tag_182\n      jump\t// in\n    tag_271:\n        /* \"#utility.yul\":2202:2543   */\n      pop\n        /* \"#utility.yul\":2118:2543   */\n      swap4\n      swap3\n      pop\n      pop\n      pop\n      jump\t// out\n        /* \"#utility.yul\":2563:2903   */\n    tag_184:\n        /* \"#utility.yul\":2619:2624   */\n      0x00\n        /* \"#utility.yul\":2668:2671   */\n      dup3\n        /* \"#utility.yul\":2661:2665   */\n      0x1f\n        /* \"#utility.yul\":2653:2659   */\n      dup4\n        /* \"#utility.yul\":2649:2666   */\n      add\n        /* \"#utility.yul\":2645:2672   */\n      slt\n        /* \"#utility.yul\":2635:2757   */\n      tag_273\n      jumpi\n        /* \"#utility.yul\":2676:2755   */\n      tag_274\n      tag_175\n      jump\t// in\n    tag_274:\n        /* \"#utility.yul\":2635:2757   */\n    tag_273:\n        /* \"#utility.yul\":2793:2799   */\n      dup2\n        /* \"#utility.yul\":2780:2800   */\n      calldataload\n        /* \"#utility.yul\":2818:2897   */\n      tag_275\n        /* \"#utility.yul\":2893:2896   */\n      dup5\n        /* \"#utility.yul\":2885:2891   */\n      dup3\n        /* \"#utility.yul\":2878:2882   */\n      0x20\n        /* \"#utility.yul\":2870:2876   */\n      dup7\n        /* \"#utility.yul\":2866:2883   */\n      add\n        /* \"#utility.yul\":2818:2897   */\n      tag_183\n      jump\t// in\n    tag_275:\n        /* \"#utility.yul\":2809:2897   */\n      swap2\n      pop\n        /* \"#utility.yul\":2625:2903   */\n      pop\n        /* \"#utility.yul\":2563:2903   */\n      swap3\n      swap2\n      pop\n      pop\n      jump\t// out\n        /* \"#utility.yul\":2909:3563   */\n    tag_15:\n        /* \"#utility.yul\":2987:2993   */\n      0x00\n        /* \"#utility.yul\":2995:3001   */\n      dup1\n        /* \"#utility.yul\":3044:3046   */\n      0x40\n        /* \"#utility.yul\":3032:3041   */\n      dup4\n        /* \"#utility.yul\":3023:3030   */\n      dup6\n        /* \"#utility.yul\":3019:3042   */\n      sub\n        /* \"#utility.yul\":3015:3047   */\n      slt\n        /* \"#utility.yul\":3012:3131   */\n      iszero\n      tag_277\n      jumpi\n        /* \"#utility.yul\":3050:3129   */\n      tag_278\n      tag_170\n      jump\t// in\n    tag_278:\n        /* \"#utility.yul\":3012:3131   */\n    tag_277:\n        /* \"#utility.yul\":3170:3171   */\n      0x00\n        /* \"#utility.yul\":3195:3248   */\n      tag_279\n        /* \"#utility.yul\":3240:3247   */\n      dup6\n        /* \"#utility.yul\":3231:3237   */\n      dup3\n        /* \"#utility.yul\":3220:3229   */\n      dup7\n        /* \"#utility.yul\":3216:3238   */\n      add\n        /* \"#utility.yul\":3195:3248   */\n      tag_174\n      jump\t// in\n    tag_279:\n        /* \"#utility.yul\":3185:3248   */\n      swap3\n      pop\n        /* \"#utility.yul\":3141:3258   */\n      pop\n        /* \"#utility.yul\":3325:3327   */\n      0x20\n        /* \"#utility.yul\":3314:3323   */\n      dup4\n        /* \"#utility.yul\":3310:3328   */\n      add\n        /* \"#utility.yul\":3297:3329   */\n      calldataload\n        /* \"#utility.yul\":3356:3374   */\n      0xffffffffffffffff\n        /* \"#utility.yul\":3348:3354   */\n      dup2\n        /* \"#utility.yul\":3345:3375   */\n      gt\n        /* \"#utility.yul\":3342:3459   */\n      iszero\n      tag_280\n      jumpi\n        /* \"#utility.yul\":3378:3457   */\n      tag_281\n      tag_171\n      jump\t// in\n    tag_281:\n        /* \"#utility.yul\":3342:3459   */\n    tag_280:\n        /* \"#utility.yul\":3483:3546   */\n      tag_282\n        /* \"#utility.yul\":3538:3545   */\n      dup6\n        /* \"#utility.yul\":3529:3535   */\n      dup3\n        /* \"#utility.yul\":3518:3527   */\n      dup7\n        /* \"#utility.yul\":3514:3536   */\n      add\n        /* \"#utility.yul\":3483:3546   */\n      tag_184\n      jump\t// in\n    tag_282:\n        /* \"#utility.yul\":3473:3546   */\n      swap2\n      pop\n        /* \"#utility.yul\":3268:3556   */\n      pop\n        /* \"#utility.yul\":2909:3563   */\n      swap3\n      pop\n      swap3\n      swap1\n      pop\n      jump\t// out\n        /* \"#utility.yul\":3569:3695   */\n    tag_185:\n        /* \"#utility.yul\":3606:3613   */\n      0x00\n        /* \"#utility.yul\":3646:3688   */\n      0xffffffffffffffffffffffffffffffffffffffff\n        /* \"#utility.yul\":3639:3644   */\n      dup3\n        /* \"#utility.yul\":3635:3689   */\n      and\n        /* \"#utility.yul\":3624:3689   */\n      swap1\n      pop\n        /* \"#utility.yul\":3569:3695   */\n      swap2\n      swap1\n      pop\n      jump\t// out\n        /* \"#utility.yul\":3701:3797   */\n    tag_186:\n        /* \"#utility.yul\":3738:3745   */\n      0x00\n        /* \"#utility.yul\":3767:3791   */\n      tag_285\n        /* \"#utility.yul\":3785:3790   */\n      dup3\n        /* \"#utility.yul\":3767:3791   */\n      tag_185\n      jump\t// in\n    tag_285:\n        /* \"#utility.yul\":3756:3791   */\n      swap1\n      pop\n        /* \"#utility.yul\":3701:3797   */\n      swap2\n      swap1\n      pop\n      jump\t// out\n        /* \"#utility.yul\":3803:3925   */\n    tag_187:\n        /* \"#utility.yul\":3876:3900   */\n      tag_287\n        /* \"#utility.yul\":3894:3899   */\n      dup2\n        /* \"#utility.yul\":3876:3900   */\n      tag_186\n      jump\t// in\n    tag_287:\n        /* \"#utility.yul\":3869:3874   */\n      dup2\n        /* \"#utility.yul\":3866:3901   */\n      eq\n        /* \"#utility.yul\":3856:3919   */\n      tag_288\n      jumpi\n        /* \"#utility.yul\":3915:3916   */\n      0x00\n        /* \"#utility.yul\":3912:3913   */\n      dup1\n        /* \"#utility.yul\":3905:3917   */\n      revert\n        /* \"#utility.yul\":3856:3919   */\n    tag_288:\n        /* \"#utility.yul\":3803:3925   */\n      pop\n      jump\t// out\n        /* \"#utility.yul\":3931:4070   */\n    tag_188:\n        /* \"#utility.yul\":3977:3982   */\n      0x00\n        /* \"#utility.yul\":4015:4021   */\n      dup2\n        /* \"#utility.yul\":4002:4022   */\n      calldataload\n        /* \"#utility.yul\":3993:4022   */\n      swap1\n      pop\n        /* \"#utility.yul\":4031:4064   */\n      tag_290\n        /* \"#utility.yul\":4058:4063   */\n      dup2\n        /* \"#utility.yul\":4031:4064   */\n      tag_187\n      jump\t// in\n    tag_290:\n        /* \"#utility.yul\":3931:4070   */\n      swap3\n      swap2\n      pop\n      pop\n      jump\t// out\n        /* \"#utility.yul\":4076:4550   */\n    tag_19:\n        /* \"#utility.yul\":4144:4150   */\n      0x00\n        /* \"#utility.yul\":4152:4158   */\n      dup1\n        /* \"#utility.yul\":4201:4203   */\n      0x40\n        /* \"#utility.yul\":4189:4198   */\n      dup4\n        /* \"#utility.yul\":4180:4187   */\n      dup6\n        /* \"#utility.yul\":4176:4199   */\n      sub\n        /* \"#utility.yul\":4172:4204   */\n      slt\n        /* \"#utility.yul\":4169:4288   */\n      iszero\n      tag_292\n      jumpi\n        /* \"#utility.yul\":4207:4286   */\n      tag_293\n      tag_170\n      jump\t// in\n    tag_293:\n        /* \"#utility.yul\":4169:4288   */\n    tag_292:\n        /* \"#utility.yul\":4327:4328   */\n      0x00\n        /* \"#utility.yul\":4352:4405   */\n      tag_294\n        /* \"#utility.yul\":4397:4404   */\n      dup6\n        /* \"#utility.yul\":4388:4394   */\n      dup3\n        /* \"#utility.yul\":4377:4386   */\n      dup7\n        /* \"#utility.yul\":4373:4395   */\n      add\n        /* \"#utility.yul\":4352:4405   */\n      tag_188\n      jump\t// in\n    tag_294:\n        /* \"#utility.yul\":4342:4405   */\n      swap3\n      pop\n        /* \"#utility.yul\":4298:4415   */\n      pop\n        /* \"#utility.yul\":4454:4456   */\n      0x20\n        /* \"#utility.yul\":4480:4533   */\n      tag_295\n        /* \"#utility.yul\":4525:4532   */\n      dup6\n        /* \"#utility.yul\":4516:4522   */\n      dup3\n        /* \"#utility.yul\":4505:4514   */\n      dup7\n        /* \"#utility.yul\":4501:4523   */\n      add\n        /* \"#utility.yul\":4480:4533   */\n      tag_174\n      jump\t// in\n    tag_295:\n        /* \"#utility.yul\":4470:4533   */\n      swap2\n      pop\n        /* \"#utility.yul\":4425:4543   */\n      pop\n        /* \"#utility.yul\":4076:4550   */\n      swap3\n      pop\n      swap3\n      swap1\n      pop\n      jump\t// out\n        /* \"#utility.yul\":4556:4885   */\n    tag_23:\n        /* \"#utility.yul\":4615:4621   */\n      0x00\n        /* \"#utility.yul\":4664:4666   */\n      0x20\n        /* \"#utility.yul\":4652:4661   */\n      dup3\n        /* \"#utility.yul\":4643:4650   */\n      dup5\n        /* \"#utility.yul\":4639:4662   */\n      sub\n        /* \"#utility.yul\":4635:4667   */\n      slt\n        /* \"#utility.yul\":4632:4751   */\n      iszero\n      tag_297\n      jumpi\n        /* \"#utility.yul\":4670:4749   */\n      tag_298\n      tag_170\n      jump\t// in\n    tag_298:\n        /* \"#utility.yul\":4632:4751   */\n    tag_297:\n        /* \"#utility.yul\":4790:4791   */\n      0x00\n        /* \"#utility.yul\":4815:4868   */\n      tag_299\n        /* \"#utility.yul\":4860:4867   */\n      dup5\n        /* \"#utility.yul\":4851:4857   */\n      dup3\n        /* \"#utility.yul\":4840:4849   */\n      dup6\n        /* \"#utility.yul\":4836:4858   */\n      add\n        /* \"#utility.yul\":4815:4868   */\n      tag_174\n      jump\t// in\n    tag_299:\n        /* \"#utility.yul\":4805:4868   */\n      swap2\n      pop\n        /* \"#utility.yul\":4761:4878   */\n      pop\n        /* \"#utility.yul\":4556:4885   */\n      swap3\n      swap2\n      pop\n      pop\n      jump\t// out\n        /* \"#utility.yul\":4891:5009   */\n    tag_189:\n        /* \"#utility.yul\":4978:5002   */\n      tag_301\n        /* \"#utility.yul\":4996:5001   */\n      dup2\n        /* \"#utility.yul\":4978:5002   */\n      tag_186\n      jump\t// in\n    tag_301:\n        /* \"#utility.yul\":4973:4976   */\n      dup3\n        /* \"#utility.yul\":4966:5003   */\n      mstore\n        /* \"#utility.yul\":4891:5009   */\n      pop\n      pop\n      jump\t// out\n        /* \"#utility.yul\":5015:5133   */\n    tag_190:\n        /* \"#utility.yul\":5102:5126   */\n      tag_303\n        /* \"#utility.yul\":5120:5125   */\n      dup2\n        /* \"#utility.yul\":5102:5126   */\n      tag_172\n      jump\t// in\n    tag_303:\n        /* \"#utility.yul\":5097:5100   */\n      dup3\n        /* \"#utility.yul\":5090:5127   */\n      mstore\n        /* \"#utility.yul\":5015:5133   */\n      pop\n      pop\n      jump\t// out\n        /* \"#utility.yul\":5139:5238   */\n    tag_191:\n        /* \"#utility.yul\":5191:5197   */\n      0x00\n        /* \"#utility.yul\":5225:5230   */\n      dup2\n        /* \"#utility.yul\":5219:5231   */\n      mload\n        /* \"#utility.yul\":5209:5231   */\n      swap1\n      pop\n        /* \"#utility.yul\":5139:5238   */\n      swap2\n      swap1\n      pop\n      jump\t// out\n        /* \"#utility.yul\":5244:5413   */\n    tag_192:\n        /* \"#utility.yul\":5328:5339   */\n      0x00\n        /* \"#utility.yul\":5362:5368   */\n      dup3\n        /* \"#utility.yul\":5357:5360   */\n      dup3\n        /* \"#utility.yul\":5350:5369   */\n      mstore\n        /* \"#utility.yul\":5402:5406   */\n      0x20\n        /* \"#utility.yul\":5397:5400   */\n      dup3\n        /* \"#utility.yul\":5393:5407   */\n      add\n        /* \"#utility.yul\":5378:5407   */\n      swap1\n      pop\n        /* \"#utility.yul\":5244:5413   */\n      swap3\n      swap2\n      pop\n      pop\n      jump\t// out\n        /* \"#utility.yul\":5419:5665   */\n    tag_193:\n        /* \"#utility.yul\":5500:5501   */\n      0x00\n        /* \"#utility.yul\":5510:5623   */\n    tag_307:\n        /* \"#utility.yul\":5524:5530   */\n      dup4\n        /* \"#utility.yul\":5521:5522   */\n      dup2\n        /* \"#utility.yul\":5518:5531   */\n      lt\n        /* \"#utility.yul\":5510:5623   */\n      iszero\n      tag_309\n      jumpi\n        /* \"#utility.yul\":5609:5610   */\n      dup1\n        /* \"#utility.yul\":5604:5607   */\n      dup3\n        /* \"#utility.yul\":5600:5611   */\n      add\n        /* \"#utility.yul\":5594:5612   */\n      mload\n        /* \"#utility.yul\":5590:5591   */\n      dup2\n        /* \"#utility.yul\":5585:5588   */\n      dup5\n        /* \"#utility.yul\":5581:5592   */\n      add\n        /* \"#utility.yul\":5574:5613   */\n      mstore\n        /* \"#utility.yul\":5546:5548   */\n      0x20\n        /* \"#utility.yul\":5543:5544   */\n      dup2\n        /* \"#utility.yul\":5539:5549   */\n      add\n        /* \"#utility.yul\":5534:5549   */\n      swap1\n      pop\n        /* \"#utility.yul\":5510:5623   */\n      jump(tag_307)\n    tag_309:\n        /* \"#utility.yul\":5657:5658   */\n      0x00\n        /* \"#utility.yul\":5648:5654   */\n      dup5\n        /* \"#utility.yul\":5643:5646   */\n      dup5\n        /* \"#utility.yul\":5639:5655   */\n      add\n        /* \"#utility.yul\":5632:5659   */\n      mstore\n        /* \"#utility.yul\":5481:5665   */\n      pop\n        /* \"#utility.yul\":5419:5665   */\n      pop\n      pop\n      pop\n      jump\t// out\n        /* \"#utility.yul\":5671:6048   */\n    tag_194:\n        /* \"#utility.yul\":5759:5762   */\n      0x00\n        /* \"#utility.yul\":5787:5826   */\n      tag_311\n        /* \"#utility.yul\":5820:5825   */\n      dup3\n        /* \"#utility.yul\":5787:5826   */\n      tag_191\n      jump\t// in\n    tag_311:\n        /* \"#utility.yul\":5842:5913   */\n      tag_312\n        /* \"#utility.yul\":5906:5912   */\n      dup2\n        /* \"#utility.yul\":5901:5904   */\n      dup6\n        /* \"#utility.yul\":5842:5913   */\n      tag_192\n      jump\t// in\n    tag_312:\n        /* \"#utility.yul\":5835:5913   */\n      swap4\n      pop\n        /* \"#utility.yul\":5922:5987   */\n      tag_313\n        /* \"#utility.yul\":5980:5986   */\n      dup2\n        /* \"#utility.yul\":5975:5978   */\n      dup6\n        /* \"#utility.yul\":5968:5972   */\n      0x20\n        /* \"#utility.yul\":5961:5966   */\n      dup7\n        /* \"#utility.yul\":5957:5973   */\n      add\n        /* \"#utility.yul\":5922:5987   */\n      tag_193\n      jump\t// in\n    tag_313:\n        /* \"#utility.yul\":6012:6041   */\n      tag_314\n        /* \"#utility.yul\":6034:6040   */\n      dup2\n        /* \"#utility.yul\":6012:6041   */\n      tag_177\n      jump\t// in\n    tag_314:\n        /* \"#utility.yul\":6007:6010   */\n      dup5\n        /* \"#utility.yul\":6003:6042   */\n      add\n        /* \"#utility.yul\":5996:6042   */\n      swap2\n      pop\n        /* \"#utility.yul\":5763:6048   */\n      pop\n        /* \"#utility.yul\":5671:6048   */\n      swap3\n      swap2\n      pop\n      pop\n      jump\t// out\n        /* \"#utility.yul\":6054:6144   */\n    tag_195:\n        /* \"#utility.yul\":6088:6095   */\n      0x00\n        /* \"#utility.yul\":6131:6136   */\n      dup2\n        /* \"#utility.yul\":6124:6137   */\n      iszero\n        /* \"#utility.yul\":6117:6138   */\n      iszero\n        /* \"#utility.yul\":6106:6138   */\n      swap1\n      pop\n        /* \"#utility.yul\":6054:6144   */\n      swap2\n      swap1\n      pop\n      jump\t// out\n        /* \"#utility.yul\":6150:6259   */\n    tag_196:\n        /* \"#utility.yul\":6231:6252   */\n      tag_317\n        /* \"#utility.yul\":6246:6251   */\n      dup2\n        /* \"#utility.yul\":6231:6252   */\n      tag_195\n      jump\t// in\n    tag_317:\n        /* \"#utility.yul\":6226:6229   */\n      dup3\n        /* \"#utility.yul\":6219:6253   */\n      mstore\n        /* \"#utility.yul\":6150:6259   */\n      pop\n      pop\n      jump\t// out\n        /* \"#utility.yul\":6265:7309   */\n    tag_29:\n        /* \"#utility.yul\":6554:6558   */\n      0x00\n        /* \"#utility.yul\":6592:6595   */\n      0xe0\n        /* \"#utility.yul\":6581:6590   */\n      dup3\n        /* \"#utility.yul\":6577:6596   */\n      add\n        /* \"#utility.yul\":6569:6596   */\n      swap1\n      pop\n        /* \"#utility.yul\":6606:6677   */\n      tag_319\n        /* \"#utility.yul\":6674:6675   */\n      0x00\n        /* \"#utility.yul\":6663:6672   */\n      dup4\n        /* \"#utility.yul\":6659:6676   */\n      add\n        /* \"#utility.yul\":6650:6656   */\n      dup11\n        /* \"#utility.yul\":6606:6677   */\n      tag_189\n      jump\t// in\n    tag_319:\n        /* \"#utility.yul\":6687:6759   */\n      tag_320\n        /* \"#utility.yul\":6755:6757   */\n      0x20\n        /* \"#utility.yul\":6744:6753   */\n      dup4\n        /* \"#utility.yul\":6740:6758   */\n      add\n        /* \"#utility.yul\":6731:6737   */\n      dup10\n        /* \"#utility.yul\":6687:6759   */\n      tag_189\n      jump\t// in\n    tag_320:\n        /* \"#utility.yul\":6769:6841   */\n      tag_321\n        /* \"#utility.yul\":6837:6839   */\n      0x40\n        /* \"#utility.yul\":6826:6835   */\n      dup4\n        /* \"#utility.yul\":6822:6840   */\n      add\n        /* \"#utility.yul\":6813:6819   */\n      dup9\n        /* \"#utility.yul\":6769:6841   */\n      tag_190\n      jump\t// in\n    tag_321:\n        /* \"#utility.yul\":6888:6897   */\n      dup2\n        /* \"#utility.yul\":6882:6886   */\n      dup2\n        /* \"#utility.yul\":6878:6898   */\n      sub\n        /* \"#utility.yul\":6873:6875   */\n      0x60\n        /* \"#utility.yul\":6862:6871   */\n      dup4\n        /* \"#utility.yul\":6858:6876   */\n      add\n        /* \"#utility.yul\":6851:6899   */\n      mstore\n        /* \"#utility.yul\":6916:6994   */\n      tag_322\n        /* \"#utility.yul\":6989:6993   */\n      dup2\n        /* \"#utility.yul\":6980:6986   */\n      dup8\n        /* \"#utility.yul\":6916:6994   */\n      tag_194\n      jump\t// in\n    tag_322:\n        /* \"#utility.yul\":6908:6994   */\n      swap1\n      pop\n        /* \"#utility.yul\":7042:7051   */\n      dup2\n        /* \"#utility.yul\":7036:7040   */\n      dup2\n        /* \"#utility.yul\":7032:7052   */\n      sub\n        /* \"#utility.yul\":7026:7029   */\n      0x80\n        /* \"#utility.yul\":7015:7024   */\n      dup4\n        /* \"#utility.yul\":7011:7030   */\n      add\n        /* \"#utility.yul\":7004:7053   */\n      mstore\n        /* \"#utility.yul\":7070:7148   */\n      tag_323\n        /* \"#utility.yul\":7143:7147   */\n      dup2\n        /* \"#utility.yul\":7134:7140   */\n      dup7\n        /* \"#utility.yul\":7070:7148   */\n      tag_194\n      jump\t// in\n    tag_323:\n        /* \"#utility.yul\":7062:7148   */\n      swap1\n      pop\n        /* \"#utility.yul\":7158:7225   */\n      tag_324\n        /* \"#utility.yul\":7220:7223   */\n      0xa0\n        /* \"#utility.yul\":7209:7218   */\n      dup4\n        /* \"#utility.yul\":7205:7224   */\n      add\n        /* \"#utility.yul\":7196:7202   */\n      dup6\n        /* \"#utility.yul\":7158:7225   */\n      tag_196\n      jump\t// in\n    tag_324:\n        /* \"#utility.yul\":7235:7302   */\n      tag_325\n        /* \"#utility.yul\":7297:7300   */\n      0xc0\n        /* \"#utility.yul\":7286:7295   */\n      dup4\n        /* \"#utility.yul\":7282:7301   */\n      add\n        /* \"#utility.yul\":7273:7279   */\n      dup5\n        /* \"#utility.yul\":7235:7302   */\n      tag_196\n      jump\t// in\n    tag_325:\n        /* \"#utility.yul\":6265:7309   */\n      swap9\n      swap8\n      pop\n      pop\n      pop\n      pop\n      pop\n      pop\n      pop\n      pop\n      jump\t// out\n        /* \"#utility.yul\":7315:7628   */\n    tag_35:\n        /* \"#utility.yul\":7428:7432   */\n      0x00\n        /* \"#utility.yul\":7466:7468   */\n      0x20\n        /* \"#utility.yul\":7455:7464   */\n      dup3\n        /* \"#utility.yul\":7451:7469   */\n      add\n        /* \"#utility.yul\":7443:7469   */\n      swap1\n      pop\n        /* \"#utility.yul\":7515:7524   */\n      dup2\n        /* \"#utility.yul\":7509:7513   */\n      dup2\n        /* \"#utility.yul\":7505:7525   */\n      sub\n        /* \"#utility.yul\":7501:7502   */\n      0x00\n        /* \"#utility.yul\":7490:7499   */\n      dup4\n        /* \"#utility.yul\":7486:7503   */\n      add\n        /* \"#utility.yul\":7479:7526   */\n      mstore\n        /* \"#utility.yul\":7543:7621   */\n      tag_327\n        /* \"#utility.yul\":7616:7620   */\n      dup2\n        /* \"#utility.yul\":7607:7613   */\n      dup5\n        /* \"#utility.yul\":7543:7621   */\n      tag_194\n      jump\t// in\n    tag_327:\n        /* \"#utility.yul\":7535:7621   */\n      swap1\n      pop\n        /* \"#utility.yul\":7315:7628   */\n      swap3\n      swap2\n      pop\n      pop\n      jump\t// out\n        /* \"#utility.yul\":7634:7856   */\n    tag_43:\n        /* \"#utility.yul\":7727:7731   */\n      0x00\n        /* \"#utility.yul\":7765:7767   */\n      0x20\n        /* \"#utility.yul\":7754:7763   */\n      dup3\n        /* \"#utility.yul\":7750:7768   */\n      add\n        /* \"#utility.yul\":7742:7768   */\n      swap1\n      pop\n        /* \"#utility.yul\":7778:7849   */\n      tag_329\n        /* \"#utility.yul\":7846:7847   */\n      0x00\n        /* \"#utility.yul\":7835:7844   */\n      dup4\n        /* \"#utility.yul\":7831:7848   */\n      add\n        /* \"#utility.yul\":7822:7828   */\n      dup5\n        /* \"#utility.yul\":7778:7849   */\n      tag_189\n      jump\t// in\n    tag_329:\n        /* \"#utility.yul\":7634:7856   */\n      swap3\n      swap2\n      pop\n      pop\n      jump\t// out\n        /* \"#utility.yul\":7862:7922   */\n    tag_197:\n        /* \"#utility.yul\":7890:7893   */\n      0x00\n        /* \"#utility.yul\":7911:7916   */\n      dup2\n        /* \"#utility.yul\":7904:7916   */\n      swap1\n      pop\n        /* \"#utility.yul\":7862:7922   */\n      swap2\n      swap1\n      pop\n      jump\t// out\n        /* \"#utility.yul\":7928:8070   */\n    tag_198:\n        /* \"#utility.yul\":7978:7987   */\n      0x00\n        /* \"#utility.yul\":8011:8064   */\n      tag_332\n        /* \"#utility.yul\":8029:8063   */\n      tag_333\n        /* \"#utility.yul\":8038:8062   */\n      tag_334\n        /* \"#utility.yul\":8056:8061   */\n      dup5\n        /* \"#utility.yul\":8038:8062   */\n      tag_185\n      jump\t// in\n    tag_334:\n        /* \"#utility.yul\":8029:8063   */\n      tag_197\n      jump\t// in\n    tag_333:\n        /* \"#utility.yul\":8011:8064   */\n      tag_185\n      jump\t// in\n    tag_332:\n        /* \"#utility.yul\":7998:8064   */\n      swap1\n      pop\n        /* \"#utility.yul\":7928:8070   */\n      swap2\n      swap1\n      pop\n      jump\t// out\n        /* \"#utility.yul\":8076:8202   */\n    tag_199:\n        /* \"#utility.yul\":8126:8135   */\n      0x00\n        /* \"#utility.yul\":8159:8196   */\n      tag_336\n        /* \"#utility.yul\":8190:8195   */\n      dup3\n        /* \"#utility.yul\":8159:8196   */\n      tag_198\n      jump\t// in\n    tag_336:\n        /* \"#utility.yul\":8146:8196   */\n      swap1\n      pop\n        /* \"#utility.yul\":8076:8202   */\n      swap2\n      swap1\n      pop\n      jump\t// out\n        /* \"#utility.yul\":8208:8347   */\n    tag_200:\n        /* \"#utility.yul\":8271:8280   */\n      0x00\n        /* \"#utility.yul\":8304:8341   */\n      tag_338\n        /* \"#utility.yul\":8335:8340   */\n      dup3\n        /* \"#utility.yul\":8304:8341   */\n      tag_199\n      jump\t// in\n    tag_338:\n        /* \"#utility.yul\":8291:8341   */\n      swap1\n      pop\n        /* \"#utility.yul\":8208:8347   */\n      swap2\n      swap1\n      pop\n      jump\t// out\n        /* \"#utility.yul\":8353:8510   */\n    tag_201:\n        /* \"#utility.yul\":8453:8503   */\n      tag_340\n        /* \"#utility.yul\":8497:8502   */\n      dup2\n        /* \"#utility.yul\":8453:8503   */\n      tag_200\n      jump\t// in\n    tag_340:\n        /* \"#utility.yul\":8448:8451   */\n      dup3\n        /* \"#utility.yul\":8441:8504   */\n      mstore\n        /* \"#utility.yul\":8353:8510   */\n      pop\n      pop\n      jump\t// out\n        /* \"#utility.yul\":8516:8764   */\n    tag_47:\n        /* \"#utility.yul\":8622:8626   */\n      0x00\n        /* \"#utility.yul\":8660:8662   */\n      0x20\n        /* \"#utility.yul\":8649:8658   */\n      dup3\n        /* \"#utility.yul\":8645:8663   */\n      add\n        /* \"#utility.yul\":8637:8663   */\n      swap1\n      pop\n        /* \"#utility.yul\":8673:8757   */\n      tag_342\n        /* \"#utility.yul\":8754:8755   */\n      0x00\n        /* \"#utility.yul\":8743:8752   */\n      dup4\n        /* \"#utility.yul\":8739:8756   */\n      add\n        /* \"#utility.yul\":8730:8736   */\n      dup5\n        /* \"#utility.yul\":8673:8757   */\n      tag_201\n      jump\t// in\n    tag_342:\n        /* \"#utility.yul\":8516:8764   */\n      swap3\n      swap2\n      pop\n      pop\n      jump\t// out\n        /* \"#utility.yul\":8770:9006   */\n    tag_202:\n        /* \"#utility.yul\":8910:8944   */\n      0x4f6e6c79207468652073797374656d20636f6e74726163742063616e20736574\n        /* \"#utility.yul\":8906:8907   */\n      0x00\n        /* \"#utility.yul\":8898:8904   */\n      dup3\n        /* \"#utility.yul\":8894:8908   */\n      add\n        /* \"#utility.yul\":8887:8945   */\n      mstore\n        /* \"#utility.yul\":8979:8998   */\n      0x746c65207472616e73616374696f6e732e000000000000000000000000000000\n        /* \"#utility.yul\":8974:8976   */\n      0x20\n        /* \"#utility.yul\":8966:8972   */\n      dup3\n        /* \"#utility.yul\":8962:8977   */\n      add\n        /* \"#utility.yul\":8955:8999   */\n      mstore\n        /* \"#utility.yul\":8770:9006   */\n      pop\n      jump\t// out\n        /* \"#utility.yul\":9012:9378   */\n    tag_203:\n        /* \"#utility.yul\":9154:9157   */\n      0x00\n        /* \"#utility.yul\":9175:9242   */\n      tag_345\n        /* \"#utility.yul\":9239:9241   */\n      0x31\n        /* \"#utility.yul\":9234:9237   */\n      dup4\n        /* \"#utility.yul\":9175:9242   */\n      tag_192\n      jump\t// in\n    tag_345:\n        /* \"#utility.yul\":9168:9242   */\n      swap2\n      pop\n        /* \"#utility.yul\":9251:9344   */\n      tag_346\n        /* \"#utility.yul\":9340:9343   */\n      dup3\n        /* \"#utility.yul\":9251:9344   */\n      tag_202\n      jump\t// in\n    tag_346:\n        /* \"#utility.yul\":9369:9371   */\n      0x40\n        /* \"#utility.yul\":9364:9367   */\n      dup3\n        /* \"#utility.yul\":9360:9372   */\n      add\n        /* \"#utility.yul\":9353:9372   */\n      swap1\n      pop\n        /* \"#utility.yul\":9012:9378   */\n      swap2\n      swap1\n      pop\n      jump\t// out\n        /* \"#utility.yul\":9384:9803   */\n    tag_51:\n        /* \"#utility.yul\":9550:9554   */\n      0x00\n        /* \"#utility.yul\":9588:9590   */\n      0x20\n        /* \"#utility.yul\":9577:9586   */\n      dup3\n        /* \"#utility.yul\":9573:9591   */\n      add\n        /* \"#utility.yul\":9565:9591   */\n      swap1\n      pop\n        /* \"#utility.yul\":9637:9646   */\n      dup2\n        /* \"#utility.yul\":9631:9635   */\n      dup2\n        /* \"#utility.yul\":9627:9647   */\n      sub\n        /* \"#utility.yul\":9623:9624   */\n      0x00\n        /* \"#utility.yul\":9612:9621   */\n      dup4\n        /* \"#utility.yul\":9608:9625   */\n      add\n        /* \"#utility.yul\":9601:9648   */\n      mstore\n        /* \"#utility.yul\":9665:9796   */\n      tag_348\n        /* \"#utility.yul\":9791:9795   */\n      dup2\n        /* \"#utility.yul\":9665:9796   */\n      tag_203\n      jump\t// in\n    tag_348:\n        /* \"#utility.yul\":9657:9796   */\n      swap1\n      pop\n        /* \"#utility.yul\":9384:9803   */\n      swap2\n      swap1\n      pop\n      jump\t// out\n        /* \"#utility.yul\":9809:9989   */\n    tag_54:\n        /* \"#utility.yul\":9857:9934   */\n      0x4e487b7100000000000000000000000000000000000000000000000000000000\n        /* \"#utility.yul\":9854:9855   */\n      0x00\n        /* \"#utility.yul\":9847:9935   */\n      mstore\n        /* \"#utility.yul\":9954:9958   */\n      0x32\n        /* \"#utility.yul\":9951:9952   */\n      0x04\n        /* \"#utility.yul\":9944:9959   */\n      mstore\n        /* \"#utility.yul\":9978:9982   */\n      0x24\n        /* \"#utility.yul\":9975:9976   */\n      0x00\n        /* \"#utility.yul\":9968:9983   */\n      revert\n        /* \"#utility.yul\":9995:10226   */\n    tag_204:\n        /* \"#utility.yul\":10135:10169   */\n      0x5472616e73616374696f6e20697320616c726561647920736574746c6564206f\n        /* \"#utility.yul\":10131:10132   */\n      0x00\n        /* \"#utility.yul\":10123:10129   */\n      dup3\n        /* \"#utility.yul\":10119:10133   */\n      add\n        /* \"#utility.yul\":10112:10170   */\n      mstore\n        /* \"#utility.yul\":10204:10218   */\n      0x722063616e63656c6c65642e0000000000000000000000000000000000000000\n        /* \"#utility.yul\":10199:10201   */\n      0x20\n        /* \"#utility.yul\":10191:10197   */\n      dup3\n        /* \"#utility.yul\":10187:10202   */\n      add\n        /* \"#utility.yul\":10180:10219   */\n      mstore\n        /* \"#utility.yul\":9995:10226   */\n      pop\n      jump\t// out\n        /* \"#utility.yul\":10232:10598   */\n    tag_205:\n        /* \"#utility.yul\":10374:10377   */\n      0x00\n        /* \"#utility.yul\":10395:10462   */\n      tag_352\n        /* \"#utility.yul\":10459:10461   */\n      0x2c\n        /* \"#utility.yul\":10454:10457   */\n      dup4\n        /* \"#utility.yul\":10395:10462   */\n      tag_192\n      jump\t// in\n    tag_352:\n        /* \"#utility.yul\":10388:10462   */\n      swap2\n      pop\n        /* \"#utility.yul\":10471:10564   */\n      tag_353\n        /* \"#utility.yul\":10560:10563   */\n      dup3\n        /* \"#utility.yul\":10471:10564   */\n      tag_204\n      jump\t// in\n    tag_353:\n        /* \"#utility.yul\":10589:10591   */\n      0x40\n        /* \"#utility.yul\":10584:10587   */\n      dup3\n        /* \"#utility.yul\":10580:10592   */\n      add\n        /* \"#utility.yul\":10573:10592   */\n      swap1\n      pop\n        /* \"#utility.yul\":10232:10598   */\n      swap2\n      swap1\n      pop\n      jump\t// out\n        /* \"#utility.yul\":10604:11023   */\n    tag_58:\n        /* \"#utility.yul\":10770:10774   */\n      0x00\n        /* \"#utility.yul\":10808:10810   */\n      0x20\n        /* \"#utility.yul\":10797:10806   */\n      dup3\n        /* \"#utility.yul\":10793:10811   */\n      add\n        /* \"#utility.yul\":10785:10811   */\n      swap1\n      pop\n        /* \"#utility.yul\":10857:10866   */\n      dup2\n        /* \"#utility.yul\":10851:10855   */\n      dup2\n        /* \"#utility.yul\":10847:10867   */\n      sub\n        /* \"#utility.yul\":10843:10844   */\n      0x00\n        /* \"#utility.yul\":10832:10841   */\n      dup4\n        /* \"#utility.yul\":10828:10845   */\n      add\n        /* \"#utility.yul\":10821:10868   */\n      mstore\n        /* \"#utility.yul\":10885:11016   */\n      tag_355\n        /* \"#utility.yul\":11011:11015   */\n      dup2\n        /* \"#utility.yul\":10885:11016   */\n      tag_205\n      jump\t// in\n    tag_355:\n        /* \"#utility.yul\":10877:11016   */\n      swap1\n      pop\n        /* \"#utility.yul\":10604:11023   */\n      swap2\n      swap1\n      pop\n      jump\t// out\n        /* \"#utility.yul\":11029:11204   */\n    tag_206:\n        /* \"#utility.yul\":11169:11196   */\n      0x496e76616c696420736574746c656d656e7420706572696f6400000000000000\n        /* \"#utility.yul\":11165:11166   */\n      0x00\n        /* \"#utility.yul\":11157:11163   */\n      dup3\n        /* \"#utility.yul\":11153:11167   */\n      add\n        /* \"#utility.yul\":11146:11197   */\n      mstore\n        /* \"#utility.yul\":11029:11204   */\n      pop\n      jump\t// out\n        /* \"#utility.yul\":11210:11576   */\n    tag_207:\n        /* \"#utility.yul\":11352:11355   */\n      0x00\n        /* \"#utility.yul\":11373:11440   */\n      tag_358\n        /* \"#utility.yul\":11437:11439   */\n      0x19\n        /* \"#utility.yul\":11432:11435   */\n      dup4\n        /* \"#utility.yul\":11373:11440   */\n      tag_192\n      jump\t// in\n    tag_358:\n        /* \"#utility.yul\":11366:11440   */\n      swap2\n      pop\n        /* \"#utility.yul\":11449:11542   */\n      tag_359\n        /* \"#utility.yul\":11538:11541   */\n      dup3\n        /* \"#utility.yul\":11449:11542   */\n      tag_206\n      jump\t// in\n    tag_359:\n        /* \"#utility.yul\":11567:11569   */\n      0x20\n        /* \"#utility.yul\":11562:11565   */\n      dup3\n        /* \"#utility.yul\":11558:11570   */\n      add\n        /* \"#utility.yul\":11551:11570   */\n      swap1\n      pop\n        /* \"#utility.yul\":11210:11576   */\n      swap2\n      swap1\n      pop\n      jump\t// out\n        /* \"#utility.yul\":11582:12001   */\n    tag_63:\n        /* \"#utility.yul\":11748:11752   */\n      0x00\n        /* \"#utility.yul\":11786:11788   */\n      0x20\n        /* \"#utility.yul\":11775:11784   */\n      dup3\n        /* \"#utility.yul\":11771:11789   */\n      add\n        /* \"#utility.yul\":11763:11789   */\n      swap1\n      pop\n        /* \"#utility.yul\":11835:11844   */\n      dup2\n        /* \"#utility.yul\":11829:11833   */\n      dup2\n        /* \"#utility.yul\":11825:11845   */\n      sub\n        /* \"#utility.yul\":11821:11822   */\n      0x00\n        /* \"#utility.yul\":11810:11819   */\n      dup4\n        /* \"#utility.yul\":11806:11823   */\n      add\n        /* \"#utility.yul\":11799:11846   */\n      mstore\n        /* \"#utility.yul\":11863:11994   */\n      tag_361\n        /* \"#utility.yul\":11989:11993   */\n      dup2\n        /* \"#utility.yul\":11863:11994   */\n      tag_207\n      jump\t// in\n    tag_361:\n        /* \"#utility.yul\":11855:11994   */\n      swap1\n      pop\n        /* \"#utility.yul\":11582:12001   */\n      swap2\n      swap1\n      pop\n      jump\t// out\n        /* \"#utility.yul\":12007:12187   */\n    tag_208:\n        /* \"#utility.yul\":12055:12132   */\n      0x4e487b7100000000000000000000000000000000000000000000000000000000\n        /* \"#utility.yul\":12052:12053   */\n      0x00\n        /* \"#utility.yul\":12045:12133   */\n      mstore\n        /* \"#utility.yul\":12152:12156   */\n      0x22\n        /* \"#utility.yul\":12149:12150   */\n      0x04\n        /* \"#utility.yul\":12142:12157   */\n      mstore\n        /* \"#utility.yul\":12176:12180   */\n      0x24\n        /* \"#utility.yul\":12173:12174   */\n      0x00\n        /* \"#utility.yul\":12166:12181   */\n      revert\n        /* \"#utility.yul\":12193:12513   */\n    tag_66:\n        /* \"#utility.yul\":12237:12243   */\n      0x00\n        /* \"#utility.yul\":12274:12275   */\n      0x02\n        /* \"#utility.yul\":12268:12272   */\n      dup3\n        /* \"#utility.yul\":12264:12276   */\n      div\n        /* \"#utility.yul\":12254:12276   */\n      swap1\n      pop\n        /* \"#utility.yul\":12321:12322   */\n      0x01\n        /* \"#utility.yul\":12315:12319   */\n      dup3\n        /* \"#utility.yul\":12311:12323   */\n      and\n        /* \"#utility.yul\":12342:12360   */\n      dup1\n        /* \"#utility.yul\":12332:12413   */\n      tag_364\n      jumpi\n        /* \"#utility.yul\":12398:12402   */\n      0x7f\n        /* \"#utility.yul\":12390:12396   */\n      dup3\n        /* \"#utility.yul\":12386:12403   */\n      and\n        /* \"#utility.yul\":12376:12403   */\n      swap2\n      pop\n        /* \"#utility.yul\":12332:12413   */\n    tag_364:\n        /* \"#utility.yul\":12460:12462   */\n      0x20\n        /* \"#utility.yul\":12452:12458   */\n      dup3\n        /* \"#utility.yul\":12449:12463   */\n      lt\n        /* \"#utility.yul\":12429:12447   */\n      dup2\n        /* \"#utility.yul\":12426:12464   */\n      sub\n        /* \"#utility.yul\":12423:12507   */\n      tag_365\n      jumpi\n        /* \"#utility.yul\":12479:12497   */\n      tag_366\n      tag_208\n      jump\t// in\n    tag_366:\n        /* \"#utility.yul\":12423:12507   */\n    tag_365:\n        /* \"#utility.yul\":12244:12513   */\n      pop\n        /* \"#utility.yul\":12193:12513   */\n      swap2\n      swap1\n      pop\n      jump\t// out\n        /* \"#utility.yul\":12519:12761   */\n    tag_209:\n        /* \"#utility.yul\":12659:12693   */\n      0x536574746c656d656e7420706572696f6420696e76616c696420666f72207468\n        /* \"#utility.yul\":12655:12656   */\n      0x00\n        /* \"#utility.yul\":12647:12653   */\n      dup3\n        /* \"#utility.yul\":12643:12657   */\n      add\n        /* \"#utility.yul\":12636:12694   */\n      mstore\n        /* \"#utility.yul\":12728:12753   */\n      0x6520676976656e206372656174696f6e20706572696f64000000000000000000\n        /* \"#utility.yul\":12723:12725   */\n      0x20\n        /* \"#utility.yul\":12715:12721   */\n      dup3\n        /* \"#utility.yul\":12711:12726   */\n      add\n        /* \"#utility.yul\":12704:12754   */\n      mstore\n        /* \"#utility.yul\":12519:12761   */\n      pop\n      jump\t// out\n        /* \"#utility.yul\":12767:13133   */\n    tag_210:\n        /* \"#utility.yul\":12909:12912   */\n      0x00\n        /* \"#utility.yul\":12930:12997   */\n      tag_369\n        /* \"#utility.yul\":12994:12996   */\n      0x37\n        /* \"#utility.yul\":12989:12992   */\n      dup4\n        /* \"#utility.yul\":12930:12997   */\n      tag_192\n      jump\t// in\n    tag_369:\n        /* \"#utility.yul\":12923:12997   */\n      swap2\n      pop\n        /* \"#utility.yul\":13006:13099   */\n      tag_370\n        /* \"#utility.yul\":13095:13098   */\n      dup3\n        /* \"#utility.yul\":13006:13099   */\n      tag_209\n      jump\t// in\n    tag_370:\n        /* \"#utility.yul\":13124:13126   */\n      0x40\n        /* \"#utility.yul\":13119:13122   */\n      dup3\n        /* \"#utility.yul\":13115:13127   */\n      add\n        /* \"#utility.yul\":13108:13127   */\n      swap1\n      pop\n        /* \"#utility.yul\":12767:13133   */\n      swap2\n      swap1\n      pop\n      jump\t// out\n        /* \"#utility.yul\":13139:13558   */\n    tag_74:\n        /* \"#utility.yul\":13305:13309   */\n      0x00\n        /* \"#utility.yul\":13343:13345   */\n      0x20\n        /* \"#utility.yul\":13332:13341   */\n      dup3\n        /* \"#utility.yul\":13328:13346   */\n      add\n        /* \"#utility.yul\":13320:13346   */\n      swap1\n      pop\n        /* \"#utility.yul\":13392:13401   */\n      dup2\n        /* \"#utility.yul\":13386:13390   */\n      dup2\n        /* \"#utility.yul\":13382:13402   */\n      sub\n        /* \"#utility.yul\":13378:13379   */\n      0x00\n        /* \"#utility.yul\":13367:13376   */\n      dup4\n        /* \"#utility.yul\":13363:13380   */\n      add\n        /* \"#utility.yul\":13356:13403   */\n      mstore\n        /* \"#utility.yul\":13420:13551   */\n      tag_372\n        /* \"#utility.yul\":13546:13550   */\n      dup2\n        /* \"#utility.yul\":13420:13551   */\n      tag_210\n      jump\t// in\n    tag_372:\n        /* \"#utility.yul\":13412:13551   */\n      swap1\n      pop\n        /* \"#utility.yul\":13139:13558   */\n      swap2\n      swap1\n      pop\n      jump\t// out\n        /* \"#utility.yul\":13564:13705   */\n    tag_211:\n        /* \"#utility.yul\":13613:13617   */\n      0x00\n        /* \"#utility.yul\":13636:13639   */\n      dup2\n        /* \"#utility.yul\":13628:13639   */\n      swap1\n      pop\n        /* \"#utility.yul\":13659:13662   */\n      dup2\n        /* \"#utility.yul\":13656:13657   */\n      0x00\n        /* \"#utility.yul\":13649:13663   */\n      mstore\n        /* \"#utility.yul\":13693:13697   */\n      0x20\n        /* \"#utility.yul\":13690:13691   */\n      0x00\n        /* \"#utility.yul\":13680:13698   */\n      keccak256\n        /* \"#utility.yul\":13672:13698   */\n      swap1\n      pop\n        /* \"#utility.yul\":13564:13705   */\n      swap2\n      swap1\n      pop\n      jump\t// out\n        /* \"#utility.yul\":13711:13804   */\n    tag_212:\n        /* \"#utility.yul\":13748:13754   */\n      0x00\n        /* \"#utility.yul\":13795:13797   */\n      0x20\n        /* \"#utility.yul\":13790:13792   */\n      0x1f\n        /* \"#utility.yul\":13783:13788   */\n      dup4\n        /* \"#utility.yul\":13779:13793   */\n      add\n        /* \"#utility.yul\":13775:13798   */\n      div\n        /* \"#utility.yul\":13765:13798   */\n      swap1\n      pop\n        /* \"#utility.yul\":13711:13804   */\n      swap2\n      swap1\n      pop\n      jump\t// out\n        /* \"#utility.yul\":13810:13917   */\n    tag_213:\n        /* \"#utility.yul\":13854:13862   */\n      0x00\n        /* \"#utility.yul\":13904:13909   */\n      dup3\n        /* \"#utility.yul\":13898:13902   */\n      dup3\n        /* \"#utility.yul\":13894:13910   */\n      shl\n        /* \"#utility.yul\":13873:13910   */\n      swap1\n      pop\n        /* \"#utility.yul\":13810:13917   */\n      swap3\n      swap2\n      pop\n      pop\n      jump\t// out\n        /* \"#utility.yul\":13923:14316   */\n    tag_214:\n        /* \"#utility.yul\":13992:13998   */\n      0x00\n        /* \"#utility.yul\":14042:14043   */\n      0x08\n        /* \"#utility.yul\":14030:14040   */\n      dup4\n        /* \"#utility.yul\":14026:14044   */\n      mul\n        /* \"#utility.yul\":14065:14162   */\n      tag_377\n        /* \"#utility.yul\":14095:14161   */\n      0xffffffffffffffffffffffffffffffffffffffffffffffffffffffffffffffff\n        /* \"#utility.yul\":14084:14093   */\n      dup3\n        /* \"#utility.yul\":14065:14162   */\n      tag_213\n      jump\t// in\n    tag_377:\n        /* \"#utility.yul\":14183:14222   */\n      tag_378\n        /* \"#utility.yul\":14213:14221   */\n      dup7\n        /* \"#utility.yul\":14202:14211   */\n      dup4\n        /* \"#utility.yul\":14183:14222   */\n      tag_213\n      jump\t// in\n    tag_378:\n        /* \"#utility.yul\":14171:14222   */\n      swap6\n      pop\n        /* \"#utility.yul\":14255:14259   */\n      dup1\n        /* \"#utility.yul\":14251:14260   */\n      not\n        /* \"#utility.yul\":14244:14249   */\n      dup5\n        /* \"#utility.yul\":14240:14261   */\n      and\n        /* \"#utility.yul\":14231:14261   */\n      swap4\n      pop\n        /* \"#utility.yul\":14304:14308   */\n      dup1\n        /* \"#utility.yul\":14294:14302   */\n      dup7\n        /* \"#utility.yul\":14290:14309   */\n      and\n        /* \"#utility.yul\":14283:14288   */\n      dup5\n        /* \"#utility.yul\":14280:14310   */\n      or\n        /* \"#utility.yul\":14270:14310   */\n      swap3\n      pop\n        /* \"#utility.yul\":13999:14316   */\n      pop\n      pop\n        /* \"#utility.yul\":13923:14316   */\n      swap4\n      swap3\n      pop\n      pop\n      pop\n      jump\t// out\n        /* \"#utility.yul\":14322:14464   */\n    tag_215:\n        /* \"#utility.yul\":14372:14381   */\n      0x00\n        /* \"#utility.yul\":14405:14458   */\n      tag_380\n        /* \"#utility.yul\":14423:14457   */\n      tag_381\n        /* \"#utility.yul\":14432:14456   */\n      tag_382\n        /* \"#utility.yul\":14450:14455   */\n      dup5\n        /* \"#utility.yul\":14432:14456   */\n      tag_172\n      jump\t// in\n    tag_382:\n        /* \"#utility.yul\":14423:14457   */\n      tag_197\n      jump\t// in\n    tag_381:\n        /* \"#utility.yul\":14405:14458   */\n      tag_172\n      jump\t// in\n    tag_380:\n        /* \"#utility.yul\":14392:14458   */\n      swap1\n      pop\n        /* \"#utility.yul\":14322:14464   */\n      swap2\n      swap1\n      pop\n      jump\t// out\n        /* \"#utility.yul\":14470:14545   */\n    tag_216:\n        /* \"#utility.yul\":14513:14516   */\n      0x00\n        /* \"#utility.yul\":14534:14539   */\n      dup2\n        /* \"#utility.yul\":14527:14539   */\n      swap1\n      pop\n        /* \"#utility.yul\":14470:14545   */\n      swap2\n      swap1\n      pop\n      jump\t// out\n        /* \"#utility.yul\":14551:14820   */\n    tag_217:\n        /* \"#utility.yul\":14661:14700   */\n      tag_385\n        /* \"#utility.yul\":14692:14699   */\n      dup4\n        /* \"#utility.yul\":14661:14700   */\n      tag_215\n      jump\t// in\n    tag_385:\n        /* \"#utility.yul\":14722:14813   */\n      tag_386\n        /* \"#utility.yul\":14771:14812   */\n      tag_387\n        /* \"#utility.yul\":14795:14811   */\n      dup3\n        /* \"#utility.yul\":14771:14812   */\n      tag_216\n      jump\t// in\n    tag_387:\n        /* \"#utility.yul\":14763:14769   */\n      dup5\n        /* \"#utility.yul\":14756:14760   */\n      dup5\n        /* \"#utility.yul\":14750:14761   */\n      sload\n        /* \"#utility.yul\":14722:14813   */\n      tag_214\n      jump\t// in\n    tag_386:\n        /* \"#utility.yul\":14716:14720   */\n      dup3\n        /* \"#utility.yul\":14709:14814   */\n      sstore\n        /* \"#utility.yul\":14627:14820   */\n      pop\n        /* \"#utility.yul\":14551:14820   */\n      pop\n      pop\n      pop\n      jump\t// out\n        /* \"#utility.yul\":14826:14899   */\n    tag_218:\n        /* \"#utility.yul\":14871:14874   */\n      0x00\n        /* \"#utility.yul\":14826:14899   */\n      swap1\n      jump\t// out\n        /* \"#utility.yul\":14905:15094   */\n    tag_219:\n        /* \"#utility.yul\":14982:15014   */\n      tag_390\n      tag_218\n      jump\t// in\n    tag_390:\n        /* \"#utility.yul\":15023:15088   */\n      tag_391\n        /* \"#utility.yul\":15081:15087   */\n      dup2\n        /* \"#utility.yul\":15073:15079   */\n      dup5\n        /* \"#utility.yul\":15067:15071   */\n      dup5\n        /* \"#utility.yul\":15023:15088   */\n      tag_217\n      jump\t// in\n    tag_391:\n        /* \"#utility.yul\":14958:15094   */\n      pop\n        /* \"#utility.yul\":14905:15094   */\n      pop\n      pop\n      jump\t// out\n        /* \"#utility.yul\":15100:15286   */\n    tag_220:\n        /* \"#utility.yul\":15160:15280   */\n    tag_393:\n        /* \"#utility.yul\":15177:15180   */\n      dup2\n        /* \"#utility.yul\":15170:15175   */\n      dup2\n        /* \"#utility.yul\":15167:15181   */\n      lt\n        /* \"#utility.yul\":15160:15280   */\n      iszero\n      tag_395\n      jumpi\n        /* \"#utility.yul\":15231:15270   */\n      tag_396\n        /* \"#utility.yul\":15268:15269   */\n      0x00\n        /* \"#utility.yul\":15261:15266   */\n      dup3\n        /* \"#utility.yul\":15231:15270   */\n      tag_219\n      jump\t// in\n    tag_396:\n        /* \"#utility.yul\":15204:15205   */\n      0x01\n        /* \"#utility.yul\":15197:15202   */\n      dup2\n        /* \"#utility.yul\":15193:15206   */\n      add\n        /* \"#utility.yul\":15184:15206   */\n      swap1\n      pop\n        /* \"#utility.yul\":15160:15280   */\n      jump(tag_393)\n    tag_395:\n        /* \"#utility.yul\":15100:15286   */\n      pop\n      pop\n      jump\t// out\n        /* \"#utility.yul\":15292:15835   */\n    tag_221:\n        /* \"#utility.yul\":15393:15395   */\n      0x1f\n        /* \"#utility.yul\":15388:15391   */\n      dup3\n        /* \"#utility.yul\":15385:15396   */\n      gt\n        /* \"#utility.yul\":15382:15828   */\n      iszero\n      tag_398\n      jumpi\n        /* \"#utility.yul\":15427:15465   */\n      tag_399\n        /* \"#utility.yul\":15459:15464   */\n      dup2\n        /* \"#utility.yul\":15427:15465   */\n      tag_211\n      jump\t// in\n    tag_399:\n        /* \"#utility.yul\":15511:15540   */\n      tag_400\n        /* \"#utility.yul\":15529:15539   */\n      dup5\n        /* \"#utility.yul\":15511:15540   */\n      tag_212\n      jump\t// in\n    tag_400:\n        /* \"#utility.yul\":15501:15509   */\n      dup2\n        /* \"#utility.yul\":15497:15541   */\n      add\n        /* \"#utility.yul\":15694:15696   */\n      0x20\n        /* \"#utility.yul\":15682:15692   */\n      dup6\n        /* \"#utility.yul\":15679:15697   */\n      lt\n        /* \"#utility.yul\":15676:15725   */\n      iszero\n      tag_401\n      jumpi\n        /* \"#utility.yul\":15715:15723   */\n      dup2\n        /* \"#utility.yul\":15700:15723   */\n      swap1\n      pop\n        /* \"#utility.yul\":15676:15725   */\n    tag_401:\n        /* \"#utility.yul\":15738:15818   */\n      tag_402\n        /* \"#utility.yul\":15794:15816   */\n      tag_403\n        /* \"#utility.yul\":15812:15815   */\n      dup6\n        /* \"#utility.yul\":15794:15816   */\n      tag_212\n      jump\t// in\n    tag_403:\n        /* \"#utility.yul\":15784:15792   */\n      dup4\n        /* \"#utility.yul\":15780:15817   */\n      add\n        /* \"#utility.yul\":15767:15778   */\n      dup3\n        /* \"#utility.yul\":15738:15818   */\n      tag_220\n      jump\t// in\n    tag_402:\n        /* \"#utility.yul\":15397:15828   */\n      pop\n      pop\n        /* \"#utility.yul\":15382:15828   */\n    tag_398:\n        /* \"#utility.yul\":15292:15835   */\n      pop\n      pop\n      pop\n      jump\t// out\n        /* \"#utility.yul\":15841:15958   */\n    tag_222:\n        /* \"#utility.yul\":15895:15903   */\n      0x00\n        /* \"#utility.yul\":15945:15950   */\n      dup3\n        /* \"#utility.yul\":15939:15943   */\n      dup3\n        /* \"#utility.yul\":15935:15951   */\n      shr\n        /* \"#utility.yul\":15914:15951   */\n      swap1\n      pop\n        /* \"#utility.yul\":15841:15958   */\n      swap3\n      swap2\n      pop\n      pop\n      jump\t// out\n        /* \"#utility.yul\":15964:16133   */\n    tag_223:\n        /* \"#utility.yul\":16008:16014   */\n      0x00\n        /* \"#utility.yul\":16041:16092   */\n      tag_406\n        /* \"#utility.yul\":16089:16090   */\n      0x00\n        /* \"#utility.yul\":16085:16091   */\n      not\n        /* \"#utility.yul\":16077:16082   */\n      dup5\n        /* \"#utility.yul\":16074:16075   */\n      0x08\n        /* \"#utility.yul\":16070:16083   */\n      mul\n        /* \"#utility.yul\":16041:16092   */\n      tag_222\n      jump\t// in\n    tag_406:\n        /* \"#utility.yul\":16037:16093   */\n      not\n        /* \"#utility.yul\":16122:16126   */\n      dup1\n        /* \"#utility.yul\":16116:16120   */\n      dup4\n        /* \"#utility.yul\":16112:16127   */\n      and\n        /* \"#utility.yul\":16102:16127   */\n      swap2\n      pop\n        /* \"#utility.yul\":16015:16133   */\n      pop\n        /* \"#utility.yul\":15964:16133   */\n      swap3\n      swap2\n      pop\n      pop\n      jump\t// out\n        /* \"#utility.yul\":16138:16433   */\n    tag_224:\n        /* \"#utility.yul\":16214:16218   */\n      0x00\n        /* \"#utility.yul\":16360:16389   */\n      tag_408\n        /* \"#utility.yul\":16385:16388   */\n      dup4\n        /* \"#utility.yul\":16379:16383   */\n      dup4\n        /* \"#utility.yul\":16360:16389   */\n      tag_223\n      jump\t// in\n    tag_408:\n        /* \"#utility.yul\":16352:16389   */\n      swap2\n      pop\n        /* \"#utility.yul\":16422:16425   */\n      dup3\n        /* \"#utility.yul\":16419:16420   */\n      0x02\n        /* \"#utility.yul\":16415:16426   */\n      mul\n        /* \"#utility.yul\":16409:16413   */\n      dup3\n        /* \"#utility.yul\":16406:16427   */\n      or\n        /* \"#utility.yul\":16398:16427   */\n      swap1\n      pop\n        /* \"#utility.yul\":16138:16433   */\n      swap3\n      swap2\n      pop\n      pop\n      jump\t// out\n        /* \"#utility.yul\":16438:17833   */\n    tag_76:\n        /* \"#utility.yul\":16555:16592   */\n      tag_410\n        /* \"#utility.yul\":16588:16591   */\n      dup3\n        /* \"#utility.yul\":16555:16592   */\n      tag_191\n      jump\t// in\n    tag_410:\n        /* \"#utility.yul\":16657:16675   */\n      0xffffffffffffffff\n        /* \"#utility.yul\":16649:16655   */\n      dup2\n        /* \"#utility.yul\":16646:16676   */\n      gt\n        /* \"#utility.yul\":16643:16699   */\n      iszero\n      tag_411\n      jumpi\n        /* \"#utility.yul\":16679:16697   */\n      tag_412\n      tag_178\n      jump\t// in\n    tag_412:\n        /* \"#utility.yul\":16643:16699   */\n    tag_411:\n        /* \"#utility.yul\":16723:16761   */\n      tag_413\n        /* \"#utility.yul\":16755:16759   */\n      dup3\n        /* \"#utility.yul\":16749:16760   */\n      sload\n        /* \"#utility.yul\":16723:16761   */\n      tag_66\n      jump\t// in\n    tag_413:\n        /* \"#utility.yul\":16808:16875   */\n      tag_414\n        /* \"#utility.yul\":16868:16874   */\n      dup3\n        /* \"#utility.yul\":16860:16866   */\n      dup3\n        /* \"#utility.yul\":16854:16858   */\n      dup6\n        /* \"#utility.yul\":16808:16875   */\n      tag_221\n      jump\t// in\n    tag_414:\n        /* \"#utility.yul\":16902:16903   */\n      0x00\n        /* \"#utility.yul\":16926:16930   */\n      0x20\n        /* \"#utility.yul\":16913:16930   */\n      swap1\n      pop\n        /* \"#utility.yul\":16958:16960   */\n      0x1f\n        /* \"#utility.yul\":16950:16956   */\n      dup4\n        /* \"#utility.yul\":16947:16961   */\n      gt\n        /* \"#utility.yul\":16975:16976   */\n      0x01\n        /* \"#utility.yul\":16970:17588   */\n      dup2\n      eq\n      tag_416\n      jumpi\n        /* \"#utility.yul\":17632:17633   */\n      0x00\n        /* \"#utility.yul\":17649:17655   */\n      dup5\n        /* \"#utility.yul\":17646:17723   */\n      iszero\n      tag_417\n      jumpi\n        /* \"#utility.yul\":17698:17707   */\n      dup3\n        /* \"#utility.yul\":17693:17696   */\n      dup8\n        /* \"#utility.yul\":17689:17708   */\n      add\n        /* \"#utility.yul\":17683:17709   */\n      mload\n        /* \"#utility.yul\":17674:17709   */\n      swap1\n      pop\n        /* \"#utility.yul\":17646:17723   */\n    tag_417:\n        /* \"#utility.yul\":17749:17816   */\n      tag_418\n        /* \"#utility.yul\":17809:17815   */\n      dup6\n        /* \"#utility.yul\":17802:17807   */\n      dup3\n        /* \"#utility.yul\":17749:17816   */\n      tag_224\n      jump\t// in\n    tag_418:\n        /* \"#utility.yul\":17743:17747   */\n      dup7\n        /* \"#utility.yul\":17736:17817   */\n      sstore\n        /* \"#utility.yul\":17605:17827   */\n      pop\n        /* \"#utility.yul\":16940:17827   */\n      jump(tag_415)\n        /* \"#utility.yul\":16970:17588   */\n    tag_416:\n        /* \"#utility.yul\":17022:17026   */\n      0x1f\n        /* \"#utility.yul\":17018:17027   */\n      not\n        /* \"#utility.yul\":17010:17016   */\n      dup5\n        /* \"#utility.yul\":17006:17028   */\n      and\n        /* \"#utility.yul\":17056:17093   */\n      tag_419\n        /* \"#utility.yul\":17088:17092   */\n      dup7\n        /* \"#utility.yul\":17056:17093   */\n      tag_211\n      jump\t// in\n    tag_419:\n        /* \"#utility.yul\":17115:17116   */\n      0x00\n        /* \"#utility.yul\":17129:17337   */\n    tag_420:\n        /* \"#utility.yul\":17143:17150   */\n      dup3\n        /* \"#utility.yul\":17140:17141   */\n      dup2\n        /* \"#utility.yul\":17137:17151   */\n      lt\n        /* \"#utility.yul\":17129:17337   */\n      iszero\n      tag_422\n      jumpi\n        /* \"#utility.yul\":17222:17231   */\n      dup5\n        /* \"#utility.yul\":17217:17220   */\n      dup10\n        /* \"#utility.yul\":17213:17232   */\n      add\n        /* \"#utility.yul\":17207:17233   */\n      mload\n        /* \"#utility.yul\":17199:17205   */\n      dup3\n        /* \"#utility.yul\":17192:17234   */\n      sstore\n        /* \"#utility.yul\":17273:17274   */\n      0x01\n        /* \"#utility.yul\":17265:17271   */\n      dup3\n        /* \"#utility.yul\":17261:17275   */\n      add\n        /* \"#utility.yul\":17251:17275   */\n      swap2\n      pop\n        /* \"#utility.yul\":17320:17322   */\n      0x20\n        /* \"#utility.yul\":17309:17318   */\n      dup6\n        /* \"#utility.yul\":17305:17323   */\n      add\n        /* \"#utility.yul\":17292:17323   */\n      swap5\n      pop\n        /* \"#utility.yul\":17166:17170   */\n      0x20\n        /* \"#utility.yul\":17163:17164   */\n      dup2\n        /* \"#utility.yul\":17159:17171   */\n      add\n        /* \"#utility.yul\":17154:17171   */\n      swap1\n      pop\n        /* \"#utility.yul\":17129:17337   */\n      jump(tag_420)\n    tag_422:\n        /* \"#utility.yul\":17365:17371   */\n      dup7\n        /* \"#utility.yul\":17356:17363   */\n      dup4\n        /* \"#utility.yul\":17353:17372   */\n      lt\n        /* \"#utility.yul\":17350:17529   */\n      iszero\n      tag_423\n      jumpi\n        /* \"#utility.yul\":17423:17432   */\n      dup5\n        /* \"#utility.yul\":17418:17421   */\n      dup10\n        /* \"#utility.yul\":17414:17433   */\n      add\n        /* \"#utility.yul\":17408:17434   */\n      mload\n        /* \"#utility.yul\":17466:17514   */\n      tag_424\n        /* \"#utility.yul\":17508:17512   */\n      0x1f\n        /* \"#utility.yul\":17500:17506   */\n      dup10\n        /* \"#utility.yul\":17496:17513   */\n      and\n        /* \"#utility.yul\":17485:17494   */\n      dup3\n        /* \"#utility.yul\":17466:17514   */\n      tag_223\n      jump\t// in\n    tag_424:\n        /* \"#utility.yul\":17458:17464   */\n      dup4\n        /* \"#utility.yul\":17451:17515   */\n      sstore\n        /* \"#utility.yul\":17373:17529   */\n      pop\n        /* \"#utility.yul\":17350:17529   */\n    tag_423:\n        /* \"#utility.yul\":17575:17576   */\n      0x01\n        /* \"#utility.yul\":17571:17572   */\n      0x02\n        /* \"#utility.yul\":17563:17569   */\n      dup9\n        /* \"#utility.yul\":17559:17573   */\n      mul\n        /* \"#utility.yul\":17555:17577   */\n      add\n        /* \"#utility.yul\":17549:17553   */\n      dup9\n        /* \"#utility.yul\":17542:17578   */\n      sstore\n        /* \"#utility.yul\":16977:17588   */\n      pop\n      pop\n      pop\n        /* \"#utility.yul\":16940:17827   */\n    tag_415:\n      pop\n        /* \"#utility.yul\":16530:17833   */\n      pop\n      pop\n      pop\n        /* \"#utility.yul\":16438:17833   */\n      pop\n      pop\n      jump\t// out\n        /* \"#utility.yul\":17839:18171   */\n    tag_78:\n        /* \"#utility.yul\":17960:17964   */\n      0x00\n        /* \"#utility.yul\":17998:18000   */\n      0x40\n        /* \"#utility.yul\":17987:17996   */\n      dup3\n        /* \"#utility.yul\":17983:18001   */\n      add\n        /* \"#utility.yul\":17975:18001   */\n      swap1\n      pop\n        /* \"#utility.yul\":18011:18082   */\n      tag_426\n        /* \"#utility.yul\":18079:18080   */\n      0x00\n        /* \"#utility.yul\":18068:18077   */\n      dup4\n        /* \"#utility.yul\":18064:18081   */\n      add\n        /* \"#utility.yul\":18055:18061   */\n      dup6\n        /* \"#utility.yul\":18011:18082   */\n      tag_189\n      jump\t// in\n    tag_426:\n        /* \"#utility.yul\":18092:18164   */\n      tag_427\n        /* \"#utility.yul\":18160:18162   */\n      0x20\n        /* \"#utility.yul\":18149:18158   */\n      dup4\n        /* \"#utility.yul\":18145:18163   */\n      add\n        /* \"#utility.yul\":18136:18142   */\n      dup5\n        /* \"#utility.yul\":18092:18164   */\n      tag_190\n      jump\t// in\n    tag_427:\n        /* \"#utility.yul\":17839:18171   */\n      swap4\n      swap3\n      pop\n      pop\n      pop\n      jump\t// out\n        /* \"#utility.yul\":18177:18293   */\n    tag_225:\n        /* \"#utility.yul\":18247:18268   */\n      tag_429\n        /* \"#utility.yul\":18262:18267   */\n      dup2\n        /* \"#utility.yul\":18247:18268   */\n      tag_195\n      jump\t// in\n    tag_429:\n        /* \"#utility.yul\":18240:18245   */\n      dup2\n        /* \"#utility.yul\":18237:18269   */\n      eq\n        /* \"#utility.yul\":18227:18287   */\n      tag_430\n      jumpi\n        /* \"#utility.yul\":18283:18284   */\n      0x00\n        /* \"#utility.yul\":18280:18281   */\n      dup1\n        /* \"#utility.yul\":18273:18285   */\n      revert\n        /* \"#utility.yul\":18227:18287   */\n    tag_430:\n        /* \"#utility.yul\":18177:18293   */\n      pop\n      jump\t// out\n        /* \"#utility.yul\":18299:18436   */\n    tag_226:\n        /* \"#utility.yul\":18353:18358   */\n      0x00\n        /* \"#utility.yul\":18384:18390   */\n      dup2\n        /* \"#utility.yul\":18378:18391   */\n      mload\n        /* \"#utility.yul\":18369:18391   */\n      swap1\n      pop\n        /* \"#utility.yul\":18400:18430   */\n      tag_432\n        /* \"#utility.yul\":18424:18429   */\n      dup2\n        /* \"#utility.yul\":18400:18430   */\n      tag_225\n      jump\t// in\n    tag_432:\n        /* \"#utility.yul\":18299:18436   */\n      swap3\n      swap2\n      pop\n      pop\n      jump\t// out\n        /* \"#utility.yul\":18442:18787   */\n    tag_82:\n        /* \"#utility.yul\":18509:18515   */\n      0x00\n        /* \"#utility.yul\":18558:18560   */\n      0x20\n        /* \"#utility.yul\":18546:18555   */\n      dup3\n        /* \"#utility.yul\":18537:18544   */\n      dup5\n        /* \"#utility.yul\":18533:18556   */\n      sub\n        /* \"#utility.yul\":18529:18561   */\n      slt\n        /* \"#utility.yul\":18526:18645   */\n      iszero\n      tag_434\n      jumpi\n        /* \"#utility.yul\":18564:18643   */\n      tag_435\n      tag_170\n      jump\t// in\n    tag_435:\n        /* \"#utility.yul\":18526:18645   */\n    tag_434:\n        /* \"#utility.yul\":18684:18685   */\n      0x00\n        /* \"#utility.yul\":18709:18770   */\n      tag_436\n        /* \"#utility.yul\":18762:18769   */\n      dup5\n        /* \"#utility.yul\":18753:18759   */\n      dup3\n        /* \"#utility.yul\":18742:18751   */\n      dup6\n        /* \"#utility.yul\":18738:18760   */\n      add\n        /* \"#utility.yul\":18709:18770   */\n      tag_226\n      jump\t// in\n    tag_436:\n        /* \"#utility.yul\":18699:18770   */\n      swap2\n      pop\n        /* \"#utility.yul\":18655:18780   */\n      pop\n        /* \"#utility.yul\":18442:18787   */\n      swap3\n      swap2\n      pop\n      pop\n      jump\t// out\n        /* \"#utility.yul\":18793:18958   */\n    tag_227:\n        /* \"#utility.yul\":18933:18950   */\n      0x5472616e73666572206661696c65640000000000000000000000000000000000\n        /* \"#utility.yul\":18929:18930   */\n      0x00\n        /* \"#utility.yul\":18921:18927   */\n      dup3\n        /* \"#utility.yul\":18917:18931   */\n      add\n        /* \"#utility.yul\":18910:18951   */\n      mstore\n        /* \"#utility.yul\":18793:18958   */\n      pop\n      jump\t// out\n        /* \"#utility.yul\":18964:19330   */\n    tag_228:\n        /* \"#utility.yul\":19106:19109   */\n      0x00\n        /* \"#utility.yul\":19127:19194   */\n      tag_439\n        /* \"#utility.yul\":19191:19193   */\n      0x0f\n        /* \"#utility.yul\":19186:19189   */\n      dup4\n        /* \"#utility.yul\":19127:19194   */\n      tag_192\n      jump\t// in\n    tag_439:\n        /* \"#utility.yul\":19120:19194   */\n      swap2\n      pop\n        /* \"#utility.yul\":19203:19296   */\n      tag_440\n        /* \"#utility.yul\":19292:19295   */\n      dup3\n        /* \"#utility.yul\":19203:19296   */\n      tag_227\n      jump\t// in\n    tag_440:\n        /* \"#utility.yul\":19321:19323   */\n      0x20\n        /* \"#utility.yul\":19316:19319   */\n      dup3\n        /* \"#utility.yul\":19312:19324   */\n      add\n        /* \"#utility.yul\":19305:19324   */\n      swap1\n      pop\n        /* \"#utility.yul\":18964:19330   */\n      swap2\n      swap1\n      pop\n      jump\t// out\n        /* \"#utility.yul\":19336:19755   */\n    tag_85:\n        /* \"#utility.yul\":19502:19506   */\n      0x00\n        /* \"#utility.yul\":19540:19542   */\n      0x20\n        /* \"#utility.yul\":19529:19538   */\n      dup3\n        /* \"#utility.yul\":19525:19543   */\n      add\n        /* \"#utility.yul\":19517:19543   */\n      swap1\n      pop\n        /* \"#utility.yul\":19589:19598   */\n      dup2\n        /* \"#utility.yul\":19583:19587   */\n      dup2\n        /* \"#utility.yul\":19579:19599   */\n      sub\n        /* \"#utility.yul\":19575:19576   */\n      0x00\n        /* \"#utility.yul\":19564:19573   */\n      dup4\n        /* \"#utility.yul\":19560:19577   */\n      add\n        /* \"#utility.yul\":19553:19600   */\n      mstore\n        /* \"#utility.yul\":19617:19748   */\n      tag_442\n        /* \"#utility.yul\":19743:19747   */\n      dup2\n        /* \"#utility.yul\":19617:19748   */\n      tag_228\n      jump\t// in\n    tag_442:\n        /* \"#utility.yul\":19609:19748   */\n      swap1\n      pop\n        /* \"#utility.yul\":19336:19755   */\n      swap2\n      swap1\n      pop\n      jump\t// out\n        /* \"#utility.yul\":19761:20203   */\n    tag_97:\n        /* \"#utility.yul\":19910:19914   */\n      0x00\n        /* \"#utility.yul\":19948:19950   */\n      0x60\n        /* \"#utility.yul\":19937:19946   */\n      dup3\n        /* \"#utility.yul\":19933:19951   */\n      add\n        /* \"#utility.yul\":19925:19951   */\n      swap1\n      pop\n        /* \"#utility.yul\":19961:20032   */\n      tag_444\n        /* \"#utility.yul\":20029:20030   */\n      0x00\n        /* \"#utility.yul\":20018:20027   */\n      dup4\n        /* \"#utility.yul\":20014:20031   */\n      add\n        /* \"#utility.yul\":20005:20011   */\n      dup7\n        /* \"#utility.yul\":19961:20032   */\n      tag_189\n      jump\t// in\n    tag_444:\n        /* \"#utility.yul\":20042:20114   */\n      tag_445\n        /* \"#utility.yul\":20110:20112   */\n      0x20\n        /* \"#utility.yul\":20099:20108   */\n      dup4\n        /* \"#utility.yul\":20095:20113   */\n      add\n        /* \"#utility.yul\":20086:20092   */\n      dup6\n        /* \"#utility.yul\":20042:20114   */\n      tag_189\n      jump\t// in\n    tag_445:\n        /* \"#utility.yul\":20124:20196   */\n      tag_446\n        /* \"#utility.yul\":20192:20194   */\n      0x40\n        /* \"#utility.yul\":20181:20190   */\n      dup4\n        /* \"#utility.yul\":20177:20195   */\n      add\n        /* \"#utility.yul\":20168:20174   */\n      dup5\n        /* \"#utility.yul\":20124:20196   */\n      tag_190\n      jump\t// in\n    tag_446:\n        /* \"#utility.yul\":19761:20203   */\n      swap5\n      swap4\n      pop\n      pop\n      pop\n      pop\n      jump\t// out\n        /* \"#utility.yul\":20233:21064   */\n    tag_229:\n        /* \"#utility.yul\":20318:20321   */\n      0x00\n        /* \"#utility.yul\":20355:20360   */\n      dup2\n        /* \"#utility.yul\":20349:20361   */\n      sload\n        /* \"#utility.yul\":20384:20420   */\n      tag_448\n        /* \"#utility.yul\":20410:20419   */\n      dup2\n        /* \"#utility.yul\":20384:20420   */\n      tag_66\n      jump\t// in\n    tag_448:\n        /* \"#utility.yul\":20436:20507   */\n      tag_449\n        /* \"#utility.yul\":20500:20506   */\n      dup2\n        /* \"#utility.yul\":20495:20498   */\n      dup7\n        /* \"#utility.yul\":20436:20507   */\n      tag_192\n      jump\t// in\n    tag_449:\n        /* \"#utility.yul\":20429:20507   */\n      swap5\n      pop\n        /* \"#utility.yul\":20538:20539   */\n      0x01\n        /* \"#utility.yul\":20527:20536   */\n      dup3\n        /* \"#utility.yul\":20523:20540   */\n      and\n        /* \"#utility.yul\":20554:20555   */\n      0x00\n        /* \"#utility.yul\":20549:20713   */\n      dup2\n      eq\n      tag_451\n      jumpi\n        /* \"#utility.yul\":20727:20728   */\n      0x01\n        /* \"#utility.yul\":20722:21058   */\n      dup2\n      eq\n      tag_452\n      jumpi\n        /* \"#utility.yul\":20516:21058   */\n      jump(tag_450)\n        /* \"#utility.yul\":20549:20713   */\n    tag_451:\n        /* \"#utility.yul\":20633:20637   */\n      0xff\n        /* \"#utility.yul\":20629:20638   */\n      not\n        /* \"#utility.yul\":20618:20627   */\n      dup4\n        /* \"#utility.yul\":20614:20639   */\n      and\n        /* \"#utility.yul\":20609:20612   */\n      dup7\n        /* \"#utility.yul\":20602:20640   */\n      mstore\n        /* \"#utility.yul\":20693:20699   */\n      dup2\n        /* \"#utility.yul\":20686:20700   */\n      iszero\n        /* \"#utility.yul\":20679:20701   */\n      iszero\n        /* \"#utility.yul\":20673:20677   */\n      0x20\n        /* \"#utility.yul\":20669:20702   */\n      mul\n        /* \"#utility.yul\":20664:20667   */\n      dup7\n        /* \"#utility.yul\":20660:20703   */\n      add\n        /* \"#utility.yul\":20653:20703   */\n      swap4\n      pop\n        /* \"#utility.yul\":20549:20713   */\n      jump(tag_450)\n        /* \"#utility.yul\":20722:21058   */\n    tag_452:\n        /* \"#utility.yul\":20789:20827   */\n      tag_453\n        /* \"#utility.yul\":20821:20826   */\n      dup6\n        /* \"#utility.yul\":20789:20827   */\n      tag_211\n      jump\t// in\n    tag_453:\n        /* \"#utility.yul\":20849:20850   */\n      0x00\n        /* \"#utility.yul\":20863:21017   */\n    tag_454:\n        /* \"#utility.yul\":20877:20883   */\n      dup4\n        /* \"#utility.yul\":20874:20875   */\n      dup2\n        /* \"#utility.yul\":20871:20884   */\n      lt\n        /* \"#utility.yul\":20863:21017   */\n      iszero\n      tag_456\n      jumpi\n        /* \"#utility.yul\":20951:20958   */\n      dup2\n        /* \"#utility.yul\":20945:20959   */\n      sload\n        /* \"#utility.yul\":20941:20942   */\n      dup2\n        /* \"#utility.yul\":20936:20939   */\n      dup10\n        /* \"#utility.yul\":20932:20943   */\n      add\n        /* \"#utility.yul\":20925:20960   */\n      mstore\n        /* \"#utility.yul\":21001:21002   */\n      0x01\n        /* \"#utility.yul\":20992:20999   */\n      dup3\n        /* \"#utility.yul\":20988:21003   */\n      add\n        /* \"#utility.yul\":20977:21003   */\n      swap2\n      pop\n        /* \"#utility.yul\":20899:20903   */\n      0x20\n        /* \"#utility.yul\":20896:20897   */\n      dup2\n        /* \"#utility.yul\":20892:20904   */\n      add\n        /* \"#utility.yul\":20887:20904   */\n      swap1\n      pop\n        /* \"#utility.yul\":20863:21017   */\n      jump(tag_454)\n    tag_456:\n        /* \"#utility.yul\":21046:21047   */\n      dup1\n        /* \"#utility.yul\":21041:21044   */\n      dup9\n        /* \"#utility.yul\":21037:21048   */\n      add\n        /* \"#utility.yul\":21030:21048   */\n      swap6\n      pop\n        /* \"#utility.yul\":20729:21058   */\n      pop\n      pop\n        /* \"#utility.yul\":20516:21058   */\n    tag_450:\n      pop\n        /* \"#utility.yul\":20322:21064   */\n      pop\n      pop\n        /* \"#utility.yul\":20233:21064   */\n      swap3\n      swap2\n      pop\n      pop\n      jump\t// out\n        /* \"#utility.yul\":21070:21487   */\n    tag_104:\n        /* \"#utility.yul\":21208:21212   */\n      0x00\n        /* \"#utility.yul\":21246:21248   */\n      0x40\n        /* \"#utility.yul\":21235:21244   */\n      dup3\n        /* \"#utility.yul\":21231:21249   */\n      add\n        /* \"#utility.yul\":21223:21249   */\n      swap1\n      pop\n        /* \"#utility.yul\":21259:21330   */\n      tag_458\n        /* \"#utility.yul\":21327:21328   */\n      0x00\n        /* \"#utility.yul\":21316:21325   */\n      dup4\n        /* \"#utility.yul\":21312:21329   */\n      add\n        /* \"#utility.yul\":21303:21309   */\n      dup6\n        /* \"#utility.yul\":21259:21330   */\n      tag_190\n      jump\t// in\n    tag_458:\n        /* \"#utility.yul\":21377:21386   */\n      dup2\n        /* \"#utility.yul\":21371:21375   */\n      dup2\n        /* \"#utility.yul\":21367:21387   */\n      sub\n        /* \"#utility.yul\":21362:21364   */\n      0x20\n        /* \"#utility.yul\":21351:21360   */\n      dup4\n        /* \"#utility.yul\":21347:21365   */\n      add\n        /* \"#utility.yul\":21340:21388   */\n      mstore\n        /* \"#utility.yul\":21405:21480   */\n      tag_459\n        /* \"#utility.yul\":21475:21479   */\n      dup2\n        /* \"#utility.yul\":21466:21472   */\n      dup5\n        /* \"#utility.yul\":21405:21480   */\n      tag_229\n      jump\t// in\n    tag_459:\n        /* \"#utility.yul\":21397:21480   */\n      swap1\n      pop\n        /* \"#utility.yul\":21070:21487   */\n      swap4\n      swap3\n      pop\n      pop\n      pop\n      jump\t// out\n        /* \"#utility.yul\":21493:21722   */\n    tag_230:\n        /* \"#utility.yul\":21633:21667   */\n      0x4f6e6c7920746865207061796f722063616e2063616e63656c20746865207472\n        /* \"#utility.yul\":21629:21630   */\n      0x00\n        /* \"#utility.yul\":21621:21627   */\n      dup3\n        /* \"#utility.yul\":21617:21631   */\n      add\n        /* \"#utility.yul\":21610:21668   */\n      mstore\n        /* \"#utility.yul\":21702:21714   */\n      0x616e73616374696f6e2e00000000000000000000000000000000000000000000\n        /* \"#utility.yul\":21697:21699   */\n      0x20\n        /* \"#utility.yul\":21689:21695   */\n      dup3\n        /* \"#utility.yul\":21685:21700   */\n      add\n        /* \"#utility.yul\":21678:21715   */\n      mstore\n        /* \"#utility.yul\":21493:21722   */\n      pop\n      jump\t// out\n        /* \"#utility.yul\":21728:22094   */\n    tag_231:\n        /* \"#utility.yul\":21870:21873   */\n      0x00\n        /* \"#utility.yul\":21891:21958   */\n      tag_462\n        /* \"#utility.yul\":21955:21957   */\n      0x2a\n        /* \"#utility.yul\":21950:21953   */\n      dup4\n        /* \"#utility.yul\":21891:21958   */\n      tag_192\n      jump\t// in\n    tag_462:\n        /* \"#utility.yul\":21884:21958   */\n      swap2\n      pop\n        /* \"#utility.yul\":21967:22060   */\n      tag_463\n        /* \"#utility.yul\":22056:22059   */\n      dup3\n        /* \"#utility.yul\":21967:22060   */\n      tag_230\n      jump\t// in\n    tag_463:\n        /* \"#utility.yul\":22085:22087   */\n      0x40\n        /* \"#utility.yul\":22080:22083   */\n      dup3\n        /* \"#utility.yul\":22076:22088   */\n      add\n        /* \"#utility.yul\":22069:22088   */\n      swap1\n      pop\n        /* \"#utility.yul\":21728:22094   */\n      swap2\n      swap1\n      pop\n      jump\t// out\n        /* \"#utility.yul\":22100:22519   */\n    tag_111:\n        /* \"#utility.yul\":22266:22270   */\n      0x00\n        /* \"#utility.yul\":22304:22306   */\n      0x20\n        /* \"#utility.yul\":22293:22302   */\n      dup3\n        /* \"#utility.yul\":22289:22307   */\n      add\n        /* \"#utility.yul\":22281:22307   */\n      swap1\n      pop\n        /* \"#utility.yul\":22353:22362   */\n      dup2\n        /* \"#utility.yul\":22347:22351   */\n      dup2\n        /* \"#utility.yul\":22343:22363   */\n      sub\n        /* \"#utility.yul\":22339:22340   */\n      0x00\n        /* \"#utility.yul\":22328:22337   */\n      dup4\n        /* \"#utility.yul\":22324:22341   */\n      add\n        /* \"#utility.yul\":22317:22364   */\n      mstore\n        /* \"#utility.yul\":22381:22512   */\n      tag_465\n        /* \"#utility.yul\":22507:22511   */\n      dup2\n        /* \"#utility.yul\":22381:22512   */\n      tag_231\n      jump\t// in\n    tag_465:\n        /* \"#utility.yul\":22373:22512   */\n      swap1\n      pop\n        /* \"#utility.yul\":22100:22519   */\n      swap2\n      swap1\n      pop\n      jump\t// out\n        /* \"#utility.yul\":22525:22688   */\n    tag_232:\n        /* \"#utility.yul\":22665:22680   */\n      0x526566756e64206661696c656400000000000000000000000000000000000000\n        /* \"#utility.yul\":22661:22662   */\n      0x00\n        /* \"#utility.yul\":22653:22659   */\n      dup3\n        /* \"#utility.yul\":22649:22663   */\n      add\n        /* \"#utility.yul\":22642:22681   */\n      mstore\n        /* \"#utility.yul\":22525:22688   */\n      pop\n      jump\t// out\n        /* \"#utility.yul\":22694:23060   */\n    tag_233:\n        /* \"#utility.yul\":22836:22839   */\n      0x00\n        /* \"#utility.yul\":22857:22924   */\n      tag_468\n        /* \"#utility.yul\":22921:22923   */\n      0x0d\n        /* \"#utility.yul\":22916:22919   */\n      dup4\n        /* \"#utility.yul\":22857:22924   */\n      tag_192\n      jump\t// in\n    tag_468:\n        /* \"#utility.yul\":22850:22924   */\n      swap2\n      pop\n        /* \"#utility.yul\":22933:23026   */\n      tag_469\n        /* \"#utility.yul\":23022:23025   */\n      dup3\n        /* \"#utility.yul\":22933:23026   */\n      tag_232\n      jump\t// in\n    tag_469:\n        /* \"#utility.yul\":23051:23053   */\n      0x20\n        /* \"#utility.yul\":23046:23049   */\n      dup3\n        /* \"#utility.yul\":23042:23054   */\n      add\n        /* \"#utility.yul\":23035:23054   */\n      swap1\n      pop\n        /* \"#utility.yul\":22694:23060   */\n      swap2\n      swap1\n      pop\n      jump\t// out\n        /* \"#utility.yul\":23066:23485   */\n    tag_120:\n        /* \"#utility.yul\":23232:23236   */\n      0x00\n        /* \"#utility.yul\":23270:23272   */\n      0x20\n        /* \"#utility.yul\":23259:23268   */\n      dup3\n        /* \"#utility.yul\":23255:23273   */\n      add\n        /* \"#utility.yul\":23247:23273   */\n      swap1\n      pop\n        /* \"#utility.yul\":23319:23328   */\n      dup2\n        /* \"#utility.yul\":23313:23317   */\n      dup2\n        /* \"#utility.yul\":23309:23329   */\n      sub\n        /* \"#utility.yul\":23305:23306   */\n      0x00\n        /* \"#utility.yul\":23294:23303   */\n      dup4\n        /* \"#utility.yul\":23290:23307   */\n      add\n        /* \"#utility.yul\":23283:23330   */\n      mstore\n        /* \"#utility.yul\":23347:23478   */\n      tag_471\n        /* \"#utility.yul\":23473:23477   */\n      dup2\n        /* \"#utility.yul\":23347:23478   */\n      tag_233\n      jump\t// in\n    tag_471:\n        /* \"#utility.yul\":23339:23478   */\n      swap1\n      pop\n        /* \"#utility.yul\":23066:23485   */\n      swap2\n      swap1\n      pop\n      jump\t// out\n        /* \"#utility.yul\":23491:23639   */\n    tag_234:\n        /* \"#utility.yul\":23593:23604   */\n      0x00\n        /* \"#utility.yul\":23630:23633   */\n      dup2\n        /* \"#utility.yul\":23615:23633   */\n      swap1\n      pop\n        /* \"#utility.yul\":23491:23639   */\n      swap3\n      swap2\n      pop\n      pop\n      jump\t// out\n        /* \"#utility.yul\":23645:23802   */\n    tag_235:\n        /* \"#utility.yul\":23785:23794   */\n      0x6d6f726e696e6700000000000000000000000000000000000000000000000000\n        /* \"#utility.yul\":23781:23782   */\n      0x00\n        /* \"#utility.yul\":23773:23779   */\n      dup3\n        /* \"#utility.yul\":23769:23783   */\n      add\n        /* \"#utility.yul\":23762:23795   */\n      mstore\n        /* \"#utility.yul\":23645:23802   */\n      pop\n      jump\t// out\n        /* \"#utility.yul\":23808:24208   */\n    tag_236:\n        /* \"#utility.yul\":23968:23971   */\n      0x00\n        /* \"#utility.yul\":23989:24073   */\n      tag_475\n        /* \"#utility.yul\":24071:24072   */\n      0x07\n        /* \"#utility.yul\":24066:24069   */\n      dup4\n        /* \"#utility.yul\":23989:24073   */\n      tag_234\n      jump\t// in\n    tag_475:\n        /* \"#utility.yul\":23982:24073   */\n      swap2\n      pop\n        /* \"#utility.yul\":24082:24175   */\n      tag_476\n        /* \"#utility.yul\":24171:24174   */\n      dup3\n        /* \"#utility.yul\":24082:24175   */\n      tag_235\n      jump\t// in\n    tag_476:\n        /* \"#utility.yul\":24200:24201   */\n      0x07\n        /* \"#utility.yul\":24195:24198   */\n      dup3\n        /* \"#utility.yul\":24191:24202   */\n      add\n        /* \"#utility.yul\":24184:24202   */\n      swap1\n      pop\n        /* \"#utility.yul\":23808:24208   */\n      swap2\n      swap1\n      pop\n      jump\t// out\n        /* \"#utility.yul\":24214:24595   */\n    tag_155:\n        /* \"#utility.yul\":24399:24402   */\n      0x00\n        /* \"#utility.yul\":24421:24569   */\n      tag_478\n        /* \"#utility.yul\":24565:24568   */\n      dup3\n        /* \"#utility.yul\":24421:24569   */\n      tag_236\n      jump\t// in\n    tag_478:\n        /* \"#utility.yul\":24414:24569   */\n      swap2\n      pop\n        /* \"#utility.yul\":24586:24589   */\n      dup2\n        /* \"#utility.yul\":24579:24589   */\n      swap1\n      pop\n        /* \"#utility.yul\":24214:24595   */\n      swap2\n      swap1\n      pop\n      jump\t// out\n        /* \"#utility.yul\":24601:24991   */\n    tag_237:\n        /* \"#utility.yul\":24707:24710   */\n      0x00\n        /* \"#utility.yul\":24735:24774   */\n      tag_480\n        /* \"#utility.yul\":24768:24773   */\n      dup3\n        /* \"#utility.yul\":24735:24774   */\n      tag_191\n      jump\t// in\n    tag_480:\n        /* \"#utility.yul\":24790:24879   */\n      tag_481\n        /* \"#utility.yul\":24872:24878   */\n      dup2\n        /* \"#utility.yul\":24867:24870   */\n      dup6\n        /* \"#utility.yul\":24790:24879   */\n      tag_234\n      jump\t// in\n    tag_481:\n        /* \"#utility.yul\":24783:24879   */\n      swap4\n      pop\n        /* \"#utility.yul\":24888:24953   */\n      tag_482\n        /* \"#utility.yul\":24946:24952   */\n      dup2\n        /* \"#utility.yul\":24941:24944   */\n      dup6\n        /* \"#utility.yul\":24934:24938   */\n      0x20\n        /* \"#utility.yul\":24927:24932   */\n      dup7\n        /* \"#utility.yul\":24923:24939   */\n      add\n        /* \"#utility.yul\":24888:24953   */\n      tag_193\n      jump\t// in\n    tag_482:\n        /* \"#utility.yul\":24978:24984   */\n      dup1\n        /* \"#utility.yul\":24973:24976   */\n      dup5\n        /* \"#utility.yul\":24969:24985   */\n      add\n        /* \"#utility.yul\":24962:24985   */\n      swap2\n      pop\n        /* \"#utility.yul\":24711:24991   */\n      pop\n        /* \"#utility.yul\":24601:24991   */\n      swap3\n      swap2\n      pop\n      pop\n      jump\t// out\n        /* \"#utility.yul\":24997:25272   */\n    tag_157:\n        /* \"#utility.yul\":25129:25132   */\n      0x00\n        /* \"#utility.yul\":25151:25246   */\n      tag_484\n        /* \"#utility.yul\":25242:25245   */\n      dup3\n        /* \"#utility.yul\":25233:25239   */\n      dup5\n        /* \"#utility.yul\":25151:25246   */\n      tag_237\n      jump\t// in\n    tag_484:\n        /* \"#utility.yul\":25144:25246   */\n      swap2\n      pop\n        /* \"#utility.yul\":25263:25266   */\n      dup2\n        /* \"#utility.yul\":25256:25266   */\n      swap1\n      pop\n        /* \"#utility.yul\":24997:25272   */\n      swap3\n      swap2\n      pop\n      pop\n      jump\t// out\n        /* \"#utility.yul\":25278:25437   */\n    tag_238:\n        /* \"#utility.yul\":25418:25429   */\n      0x61667465726e6f6f6e0000000000000000000000000000000000000000000000\n        /* \"#utility.yul\":25414:25415   */\n      0x00\n        /* \"#utility.yul\":25406:25412   */\n      dup3\n        /* \"#utility.yul\":25402:25416   */\n      add\n        /* \"#utility.yul\":25395:25430   */\n      mstore\n        /* \"#utility.yul\":25278:25437   */\n      pop\n      jump\t// out\n        /* \"#utility.yul\":25443:25843   */\n    tag_239:\n        /* \"#utility.yul\":25603:25606   */\n      0x00\n        /* \"#utility.yul\":25624:25708   */\n      tag_487\n        /* \"#utility.yul\":25706:25707   */\n      0x09\n        /* \"#utility.yul\":25701:25704   */\n      dup4\n        /* \"#utility.yul\":25624:25708   */\n      tag_234\n      jump\t// in\n    tag_487:\n        /* \"#utility.yul\":25617:25708   */\n      swap2\n      pop\n        /* \"#utility.yul\":25717:25810   */\n      tag_488\n        /* \"#utility.yul\":25806:25809   */\n      dup3\n        /* \"#utility.yul\":25717:25810   */\n      tag_238\n      jump\t// in\n    tag_488:\n        /* \"#utility.yul\":25835:25836   */\n      0x09\n        /* \"#utility.yul\":25830:25833   */\n      dup3\n        /* \"#utility.yul\":25826:25837   */\n      add\n        /* \"#utility.yul\":25819:25837   */\n      swap1\n      pop\n        /* \"#utility.yul\":25443:25843   */\n      swap2\n      swap1\n      pop\n      jump\t// out\n        /* \"#utility.yul\":25849:26230   */\n    tag_160:\n        /* \"#utility.yul\":26034:26037   */\n      0x00\n        /* \"#utility.yul\":26056:26204   */\n      tag_490\n        /* \"#utility.yul\":26200:26203   */\n      dup3\n        /* \"#utility.yul\":26056:26204   */\n      tag_239\n      jump\t// in\n    tag_490:\n        /* \"#utility.yul\":26049:26204   */\n      swap2\n      pop\n        /* \"#utility.yul\":26221:26224   */\n      dup2\n        /* \"#utility.yul\":26214:26224   */\n      swap1\n      pop\n        /* \"#utility.yul\":25849:26230   */\n      swap2\n      swap1\n      pop\n      jump\t// out\n\n    auxdata: 0xa2646970667358221220ccb1254da18383620beaceeee499a19a4e9e965fd1afedbb5993b35072aa873964736f6c63430008160033\n}\n",
				"bytecode": {
					"linkReferences": {},
					"object": "608060405234801562000010575f80fd5b50604051620027f4380380620027f48339818101604052810190620000369190620003bb565b62000047816200012360201b60201c565b62000089576040517f08c379a0000000000000000000000000000000000000000000000000000000008152600401620000809062000491565b60405180910390fd5b825f806101000a81548173ffffffffffffffffffffffffffffffffffffffff021916908373ffffffffffffffffffffffffffffffffffffffff1602179055508160015f6101000a81548173ffffffffffffffffffffffffffffffffffffffff021916908373ffffffffffffffffffffffffffffffffffffffff1602179055508060029081620001199190620006e8565b50505050620008ec565b5f604051602001620001359062000824565b60405160208183030381529060405280519060200120826040516020016200015e919062000870565b604051602081830303815290604052805190602001201480620001ce57506040516020016200018d90620008d6565b6040516020818303038152906040528051906020012082604051602001620001b6919062000870565b60405160208183030381529060405280519060200120145b9050919050565b5f604051905090565b5f80fd5b5f80fd5b5f73ffffffffffffffffffffffffffffffffffffffff82169050919050565b5f6200021182620001e6565b9050919050565b620002238162000205565b81146200022e575f80fd5b50565b5f81519050620002418162000218565b92915050565b5f80fd5b5f80fd5b5f601f19601f8301169050919050565b7f4e487b71000000000000000000000000000000000000000000000000000000005f52604160045260245ffd5b62000297826200024f565b810181811067ffffffffffffffff82111715620002b957620002b86200025f565b5b80604052505050565b5f620002cd620001d5565b9050620002db82826200028c565b919050565b5f67ffffffffffffffff821115620002fd57620002fc6200025f565b5b62000308826200024f565b9050602081019050919050565b5f5b838110156200033457808201518184015260208101905062000317565b5f8484015250505050565b5f620003556200034f84620002e0565b620002c2565b9050828152602081018484840111156200037457620003736200024b565b5b6200038184828562000315565b509392505050565b5f82601f830112620003a0576200039f62000247565b5b8151620003b28482602086016200033f565b91505092915050565b5f805f60608486031215620003d557620003d4620001de565b5b5f620003e48682870162000231565b9350506020620003f78682870162000231565b925050604084015167ffffffffffffffff8111156200041b576200041a620001e2565b5b620004298682870162000389565b9150509250925092565b5f82825260208201905092915050565b7f496e76616c696420636f6e747261637420706572696f640000000000000000005f82015250565b5f6200047960178362000433565b9150620004868262000443565b602082019050919050565b5f6020820190508181035f830152620004aa816200046b565b9050919050565b5f81519050919050565b7f4e487b71000000000000000000000000000000000000000000000000000000005f52602260045260245ffd5b5f60028204905060018216806200050057607f821691505b602082108103620005165762000515620004bb565b5b50919050565b5f819050815f5260205f209050919050565b5f6020601f8301049050919050565b5f82821b905092915050565b5f600883026200057a7fffffffffffffffffffffffffffffffffffffffffffffffffffffffffffffffff826200053d565b6200058686836200053d565b95508019841693508086168417925050509392505050565b5f819050919050565b5f819050919050565b5f620005d0620005ca620005c4846200059e565b620005a7565b6200059e565b9050919050565b5f819050919050565b620005eb83620005b0565b62000603620005fa82620005d7565b84845462000549565b825550505050565b5f90565b620006196200060b565b62000626818484620005e0565b505050565b5b818110156200064d57620006415f826200060f565b6001810190506200062c565b5050565b601f8211156200069c5762000666816200051c565b62000671846200052e565b8101602085101562000681578190505b6200069962000690856200052e565b8301826200062b565b50505b505050565b5f82821c905092915050565b5f620006be5f1984600802620006a1565b1980831691505092915050565b5f620006d88383620006ad565b9150826002028217905092915050565b620006f382620004b1565b67ffffffffffffffff8111156200070f576200070e6200025f565b5b6200071b8254620004e8565b6200072882828562000651565b5f60209050601f8311600181146200075e575f841562000749578287015190505b620007558582620006cb565b865550620007c4565b601f1984166200076e866200051c565b5f5b82811015620007975784890151825560018201915060208501945060208101905062000770565b86831015620007b75784890151620007b3601f891682620006ad565b8355505b6001600288020188555050505b505050505050565b5f81905092915050565b7f6d6f726e696e67000000000000000000000000000000000000000000000000005f82015250565b5f6200080c600783620007cc565b91506200081982620007d6565b600782019050919050565b5f6200083082620007fe565b9150819050919050565b5f6200084682620004b1565b620008528185620007cc565b93506200086481856020860162000315565b80840191505092915050565b5f6200087d82846200083a565b915081905092915050565b7f61667465726e6f6f6e00000000000000000000000000000000000000000000005f82015250565b5f620008be600983620007cc565b9150620008cb8262000888565b600982019050919050565b5f620008e282620008b0565b9150819050919050565b611efa80620008fa5f395ff3fe608060405234801561000f575f80fd5b5060043610610091575f3560e01c80634fd5e730116100645780634fd5e7301461011f5780638862cca1146101295780639ace38c214610147578063bb88b7691461017d578063e10173b61461019b57610091565b8063039969f4146100955780631e7f8f0f146100b15780633380c0d8146100cd57806333ea3dc8146100e9575b5f80fd5b6100af60048036038101906100aa9190611304565b6101b9565b005b6100cb60048036038101906100c691906113b8565b610540565b005b6100e760048036038101906100e291906113f6565b6108b5565b005b61010360048036038101906100fe91906113f6565b610b20565b60405161011697969594939291906114d3565b60405180910390f35b610127610d9a565b005b610131610d9c565b60405161013e919061154e565b60405180910390f35b610161600480360381019061015c91906113f6565b610e28565b60405161017497969594939291906114d3565b60405180910390f35b610185610fd8565b604051610192919061156e565b60405180910390f35b6101a3610ffd565b6040516101b091906115e2565b60405180910390f35b60015f9054906101000a900473ffffffffffffffffffffffffffffffffffffffff1673ffffffffffffffffffffffffffffffffffffffff163373ffffffffffffffffffffffffffffffffffffffff1614610248576040517f08c379a000000000000000000000000000000000000000000000000000000000815260040161023f9061166b565b60405180910390fd5b5f6003838154811061025d5761025c611689565b5b905f5260205f2090600602019050806005015f9054906101000a900460ff166102bb576040517f08c379a00000000000000000000000000000000000000000000000000000000081526004016102b290611726565b60405180910390fd5b6102c482611020565b610303576040517f08c379a00000000000000000000000000000000000000000000000000000000081526004016102fa9061178e565b60405180910390fd5b610397816003018054610315906117d9565b80601f0160208091040260200160405190810160405280929190818152602001828054610341906117d9565b801561038c5780601f106103635761010080835404028352916020019161038c565b820191905f5260205f20905b81548152906001019060200180831161036f57829003601f168201915b5050505050836110c9565b6103d6576040517f08c379a00000000000000000000000000000000000000000000000000000000081526004016103cd90611879565b60405180910390fd5b5f816005015f6101000a81548160ff021916908315150217905550818160040190816104029190611a2b565b505f8054906101000a900473ffffffffffffffffffffffffffffffffffffffff1673ffffffffffffffffffffffffffffffffffffffff1663a9059cbb826001015f9054906101000a900473ffffffffffffffffffffffffffffffffffffffff1683600201546040518363ffffffff1660e01b8152600401610484929190611afa565b6020604051808303815f875af11580156104a0573d5f803e3d5ffd5b505050506040513d601f19601f820116820180604052508101906104c49190611b4b565b610503576040517f08c379a00000000000000000000000000000000000000000000000000000000081526004016104fa90611bc0565b60405180910390fd5b827f1e474bd19342535152e5b75e9a0f0827e0cc7ba762bb93fbcf49beae571ab18b83604051610533919061154e565b60405180910390a2505050565b5f600380549050905060036040518060e001604052803373ffffffffffffffffffffffffffffffffffffffff1681526020018573ffffffffffffffffffffffffffffffffffffffff168152602001848152602001600280546105a1906117d9565b80601f01602080910402602001604051908101604052809291908181526020018280546105cd906117d9565b80156106185780601f106105ef57610100808354040283529160200191610618565b820191905f5260205f20905b8154815290600101906020018083116105fb57829003601f168201915b5050505050815260200160405180602001604052805f81525081526020016001151581526020015f1515815250908060018154018082558091505060019003905f5260205f2090600602015f909190919091505f820151815f015f6101000a81548173ffffffffffffffffffffffffffffffffffffffff021916908373ffffffffffffffffffffffffffffffffffffffff1602179055506020820151816001015f6101000a81548173ffffffffffffffffffffffffffffffffffffffff021916908373ffffffffffffffffffffffffffffffffffffffff1602179055506040820151816002015560608201518160030190816107149190611a2b565b50608082015181600401908161072a9190611a2b565b5060a0820151816005015f6101000a81548160ff02191690831515021790555060c08201518160050160016101000a81548160ff02191690831515021790555050505f8054906101000a900473ffffffffffffffffffffffffffffffffffffffff1673ffffffffffffffffffffffffffffffffffffffff166323b872dd3330856040518463ffffffff1660e01b81526004016107c893929190611bde565b6020604051808303815f875af11580156107e4573d5f803e3d5ffd5b505050506040513d601f19601f820116820180604052508101906108089190611b4b565b610847576040517f08c379a000000000000000000000000000000000000000000000000000000000815260040161083e90611bc0565b60405180910390fd5b8273ffffffffffffffffffffffffffffffffffffffff163373ffffffffffffffffffffffffffffffffffffffff16827fd89212767b09009579b99fc5cbef0ea94e619624ff6501e3b609bb2acb5b947c8560026040516108a8929190611c94565b60405180910390a4505050565b5f600382815481106108ca576108c9611689565b5b905f5260205f2090600602019050805f015f9054906101000a900473ffffffffffffffffffffffffffffffffffffffff1673ffffffffffffffffffffffffffffffffffffffff163373ffffffffffffffffffffffffffffffffffffffff1614610968576040517f08c379a000000000000000000000000000000000000000000000000000000000815260040161095f90611d32565b60405180910390fd5b806005015f9054906101000a900460ff166109b8576040517f08c379a00000000000000000000000000000000000000000000000000000000081526004016109af90611726565b60405180910390fd5b5f816005015f6101000a81548160ff02191690831515021790555060018160050160016101000a81548160ff0219169083151502179055505f8054906101000a900473ffffffffffffffffffffffffffffffffffffffff1673ffffffffffffffffffffffffffffffffffffffff1663a9059cbb825f015f9054906101000a900473ffffffffffffffffffffffffffffffffffffffff1683600201546040518363ffffffff1660e01b8152600401610a70929190611afa565b6020604051808303815f875af1158015610a8c573d5f803e3d5ffd5b505050506040513d601f19601f82011682018060405250810190610ab09190611b4b565b610aef576040517f08c379a0000000000000000000000000000000000000000000000000000000008152600401610ae690611d9a565b60405180910390fd5b817f956fb32199d8b882b2039a14e1be35ab14f7a80b9089fc223f14b43937173e6060405160405180910390a25050565b5f805f6060805f805f60038981548110610b3d57610b3c611689565b5b905f5260205f2090600602016040518060e00160405290815f82015f9054906101000a900473ffffffffffffffffffffffffffffffffffffffff1673ffffffffffffffffffffffffffffffffffffffff1673ffffffffffffffffffffffffffffffffffffffff168152602001600182015f9054906101000a900473ffffffffffffffffffffffffffffffffffffffff1673ffffffffffffffffffffffffffffffffffffffff1673ffffffffffffffffffffffffffffffffffffffff16815260200160028201548152602001600382018054610c17906117d9565b80601f0160208091040260200160405190810160405280929190818152602001828054610c43906117d9565b8015610c8e5780601f10610c6557610100808354040283529160200191610c8e565b820191905f5260205f20905b815481529060010190602001808311610c7157829003601f168201915b50505050508152602001600482018054610ca7906117d9565b80601f0160208091040260200160405190810160405280929190818152602001828054610cd3906117d9565b8015610d1e5780601f10610cf557610100808354040283529160200191610d1e565b820191905f5260205f20905b815481529060010190602001808311610d0157829003601f168201915b50505050508152602001600582015f9054906101000a900460ff161515151581526020016005820160019054906101000a900460ff1615151515815250509050805f015181602001518260400151836060015184608001518560a001518660c00151975097509750975097509750975050919395979092949650565b565b60028054610da9906117d9565b80601f0160208091040260200160405190810160405280929190818152602001828054610dd5906117d9565b8015610e205780601f10610df757610100808354040283529160200191610e20565b820191905f5260205f20905b815481529060010190602001808311610e0357829003601f168201915b505050505081565b60038181548110610e37575f80fd5b905f5260205f2090600602015f91509050805f015f9054906101000a900473ffffffffffffffffffffffffffffffffffffffff1690806001015f9054906101000a900473ffffffffffffffffffffffffffffffffffffffff1690806002015490806003018054610ea6906117d9565b80601f0160208091040260200160405190810160405280929190818152602001828054610ed2906117d9565b8015610f1d5780601f10610ef457610100808354040283529160200191610f1d565b820191905f5260205f20905b815481529060010190602001808311610f0057829003601f168201915b505050505090806004018054610f32906117d9565b80601f0160208091040260200160405190810160405280929190818152602001828054610f5e906117d9565b8015610fa95780601f10610f8057610100808354040283529160200191610fa9565b820191905f5260205f20905b815481529060010190602001808311610f8c57829003601f168201915b505050505090806005015f9054906101000a900460ff16908060050160019054906101000a900460ff16905087565b60015f9054906101000a900473ffffffffffffffffffffffffffffffffffffffff1681565b5f8054906101000a900473ffffffffffffffffffffffffffffffffffffffff1681565b5f60405160200161103090611e0c565b60405160208183030381529060405280519060200120826040516020016110579190611e50565b6040516020818303038152906040528051906020012014806110c2575060405160200161108390611eb0565b60405160208183030381529060405280519060200120826040516020016110aa9190611e50565b60405160208183030381529060405280519060200120145b9050919050565b5f6040516020016110d990611eb0565b60405160208183030381529060405280519060200120836040516020016111009190611e50565b6040516020818303038152906040528051906020012014801561116c575060405160200161112d90611e0c565b60405160208183030381529060405280519060200120826040516020016111549190611e50565b60405160208183030381529060405280519060200120145b15611179575f905061117e565b600190505b92915050565b5f604051905090565b5f80fd5b5f80fd5b5f819050919050565b6111a781611195565b81146111b1575f80fd5b50565b5f813590506111c28161119e565b92915050565b5f80fd5b5f80fd5b5f601f19601f8301169050919050565b7f4e487b71000000000000000000000000000000000000000000000000000000005f52604160045260245ffd5b611216826111d0565b810181811067ffffffffffffffff82111715611235576112346111e0565b5b80604052505050565b5f611247611184565b9050611253828261120d565b919050565b5f67ffffffffffffffff821115611272576112716111e0565b5b61127b826111d0565b9050602081019050919050565b828183375f83830152505050565b5f6112a86112a384611258565b61123e565b9050828152602081018484840111156112c4576112c36111cc565b5b6112cf848285611288565b509392505050565b5f82601f8301126112eb576112ea6111c8565b5b81356112fb848260208601611296565b91505092915050565b5f806040838503121561131a5761131961118d565b5b5f611327858286016111b4565b925050602083013567ffffffffffffffff81111561134857611347611191565b5b611354858286016112d7565b9150509250929050565b5f73ffffffffffffffffffffffffffffffffffffffff82169050919050565b5f6113878261135e565b9050919050565b6113978161137d565b81146113a1575f80fd5b50565b5f813590506113b28161138e565b92915050565b5f80604083850312156113ce576113cd61118d565b5b5f6113db858286016113a4565b92505060206113ec858286016111b4565b9150509250929050565b5f6020828403121561140b5761140a61118d565b5b5f611418848285016111b4565b91505092915050565b61142a8161137d565b82525050565b61143981611195565b82525050565b5f81519050919050565b5f82825260208201905092915050565b5f5b8381101561147657808201518184015260208101905061145b565b5f8484015250505050565b5f61148b8261143f565b6114958185611449565b93506114a5818560208601611459565b6114ae816111d0565b840191505092915050565b5f8115159050919050565b6114cd816114b9565b82525050565b5f60e0820190506114e65f83018a611421565b6114f36020830189611421565b6115006040830188611430565b81810360608301526115128187611481565b905081810360808301526115268186611481565b905061153560a08301856114c4565b61154260c08301846114c4565b98975050505050505050565b5f6020820190508181035f8301526115668184611481565b905092915050565b5f6020820190506115815f830184611421565b92915050565b5f819050919050565b5f6115aa6115a56115a08461135e565b611587565b61135e565b9050919050565b5f6115bb82611590565b9050919050565b5f6115cc826115b1565b9050919050565b6115dc816115c2565b82525050565b5f6020820190506115f55f8301846115d3565b92915050565b7f4f6e6c79207468652073797374656d20636f6e74726163742063616e207365745f8201527f746c65207472616e73616374696f6e732e000000000000000000000000000000602082015250565b5f611655603183611449565b9150611660826115fb565b604082019050919050565b5f6020820190508181035f83015261168281611649565b9050919050565b7f4e487b71000000000000000000000000000000000000000000000000000000005f52603260045260245ffd5b7f5472616e73616374696f6e20697320616c726561647920736574746c6564206f5f8201527f722063616e63656c6c65642e0000000000000000000000000000000000000000602082015250565b5f611710602c83611449565b915061171b826116b6565b604082019050919050565b5f6020820190508181035f83015261173d81611704565b9050919050565b7f496e76616c696420736574746c656d656e7420706572696f64000000000000005f82015250565b5f611778601983611449565b915061178382611744565b602082019050919050565b5f6020820190508181035f8301526117a58161176c565b9050919050565b7f4e487b71000000000000000000000000000000000000000000000000000000005f52602260045260245ffd5b5f60028204905060018216806117f057607f821691505b602082108103611803576118026117ac565b5b50919050565b7f536574746c656d656e7420706572696f6420696e76616c696420666f722074685f8201527f6520676976656e206372656174696f6e20706572696f64000000000000000000602082015250565b5f611863603783611449565b915061186e82611809565b604082019050919050565b5f6020820190508181035f83015261189081611857565b9050919050565b5f819050815f5260205f209050919050565b5f6020601f8301049050919050565b5f82821b905092915050565b5f600883026118f37fffffffffffffffffffffffffffffffffffffffffffffffffffffffffffffffff826118b8565b6118fd86836118b8565b95508019841693508086168417925050509392505050565b5f61192f61192a61192584611195565b611587565b611195565b9050919050565b5f819050919050565b61194883611915565b61195c61195482611936565b8484546118c4565b825550505050565b5f90565b611970611964565b61197b81848461193f565b505050565b5b8181101561199e576119935f82611968565b600181019050611981565b5050565b601f8211156119e3576119b481611897565b6119bd846118a9565b810160208510156119cc578190505b6119e06119d8856118a9565b830182611980565b50505b505050565b5f82821c905092915050565b5f611a035f19846008026119e8565b1980831691505092915050565b5f611a1b83836119f4565b9150826002028217905092915050565b611a348261143f565b67ffffffffffffffff811115611a4d57611a4c6111e0565b5b611a5782546117d9565b611a628282856119a2565b5f60209050601f831160018114611a93575f8415611a81578287015190505b611a8b8582611a10565b865550611af2565b601f198416611aa186611897565b5f5b82811015611ac857848901518255600182019150602085019450602081019050611aa3565b86831015611ae55784890151611ae1601f8916826119f4565b8355505b6001600288020188555050505b505050505050565b5f604082019050611b0d5f830185611421565b611b1a6020830184611430565b9392505050565b611b2a816114b9565b8114611b34575f80fd5b50565b5f81519050611b4581611b21565b92915050565b5f60208284031215611b6057611b5f61118d565b5b5f611b6d84828501611b37565b91505092915050565b7f5472616e73666572206661696c656400000000000000000000000000000000005f82015250565b5f611baa600f83611449565b9150611bb582611b76565b602082019050919050565b5f6020820190508181035f830152611bd781611b9e565b9050919050565b5f606082019050611bf15f830186611421565b611bfe6020830185611421565b611c0b6040830184611430565b949350505050565b5f8154611c1f816117d9565b611c298186611449565b9450600182165f8114611c435760018114611c5957611c8b565b60ff198316865281151560200286019350611c8b565b611c6285611897565b5f5b83811015611c8357815481890152600182019150602081019050611c64565b808801955050505b50505092915050565b5f604082019050611ca75f830185611430565b8181036020830152611cb98184611c13565b90509392505050565b7f4f6e6c7920746865207061796f722063616e2063616e63656c207468652074725f8201527f616e73616374696f6e2e00000000000000000000000000000000000000000000602082015250565b5f611d1c602a83611449565b9150611d2782611cc2565b604082019050919050565b5f6020820190508181035f830152611d4981611d10565b9050919050565b7f526566756e64206661696c6564000000000000000000000000000000000000005f82015250565b5f611d84600d83611449565b9150611d8f82611d50565b602082019050919050565b5f6020820190508181035f830152611db181611d78565b9050919050565b5f81905092915050565b7f6d6f726e696e67000000000000000000000000000000000000000000000000005f82015250565b5f611df6600783611db8565b9150611e0182611dc2565b600782019050919050565b5f611e1682611dea565b9150819050919050565b5f611e2a8261143f565b611e348185611db8565b9350611e44818560208601611459565b80840191505092915050565b5f611e5b8284611e20565b915081905092915050565b7f61667465726e6f6f6e00000000000000000000000000000000000000000000005f82015250565b5f611e9a600983611db8565b9150611ea582611e66565b600982019050919050565b5f611eba82611e8e565b915081905091905056fea2646970667358221220ccb1254da18383620beaceeee499a19a4e9e965fd1afedbb5993b35072aa873964736f6c63430008160033",
					"opcodes": "PUSH1 0x80 PUSH1 0x40 MSTORE CALLVALUE DUP1 ISZERO PUSH3 0x10 JUMPI PUSH0 DUP1 REVERT JUMPDEST POP PUSH1 0x40 MLOAD PUSH3 0x27F4 CODESIZE SUB DUP1 PUSH3 0x27F4 DUP4 CODECOPY DUP2 DUP2 ADD PUSH1 0x40 MSTORE DUP2 ADD SWAP1 PUSH3 0x36 SWAP2 SWAP1 PUSH3 0x3BB JUMP JUMPDEST PUSH3 0x47 DUP2 PUSH3 0x123 PUSH1 0x20 SHL PUSH1 0x20 SHR JUMP JUMPDEST PUSH3 0x89 JUMPI PUSH1 0x40 MLOAD PUSH32 0x8C379A000000000000000000000000000000000000000000000000000000000 DUP2 MSTORE PUSH1 0x4 ADD PUSH3 0x80 SWAP1 PUSH3 0x491 JUMP JUMPDEST PUSH1 0x40 MLOAD DUP1 SWAP2 SUB SWAP1 REVERT JUMPDEST DUP3 PUSH0 DUP1 PUSH2 0x100 EXP DUP2 SLOAD DUP2 PUSH20 0xFFFFFFFFFFFFFFFFFFFFFFFFFFFFFFFFFFFFFFFF MUL NOT AND SWAP1 DUP4 PUSH20 0xFFFFFFFFFFFFFFFFFFFFFFFFFFFFFFFFFFFFFFFF AND MUL OR SWAP1 SSTORE POP DUP2 PUSH1 0x1 PUSH0 PUSH2 0x100 EXP DUP2 SLOAD DUP2 PUSH20 0xFFFFFFFFFFFFFFFFFFFFFFFFFFFFFFFFFFFFFFFF MUL NOT AND SWAP1 DUP4 PUSH20 0xFFFFFFFFFFFFFFFFFFFFFFFFFFFFFFFFFFFFFFFF AND MUL OR SWAP1 SSTORE POP DUP1 PUSH1 0x2 SWAP1 DUP2 PUSH3 0x119 SWAP2 SWAP1 PUSH3 0x6E8 JUMP JUMPDEST POP POP POP POP PUSH3 0x8EC JUMP JUMPDEST PUSH0 PUSH1 0x40 MLOAD PUSH1 0x20 ADD PUSH3 0x135 SWAP1 PUSH3 0x824 JUMP JUMPDEST PUSH1 0x40 MLOAD PUSH1 0x20 DUP2 DUP4 SUB SUB DUP2 MSTORE SWAP1 PUSH1 0x40 MSTORE DUP1 MLOAD SWAP1 PUSH1 0x20 ADD KECCAK256 DUP3 PUSH1 0x40 MLOAD PUSH1 0x20 ADD PUSH3 0x15E SWAP2 SWAP1 PUSH3 0x870 JUMP JUMPDEST PUSH1 0x40 MLOAD PUSH1 0x20 DUP2 DUP4 SUB SUB DUP2 MSTORE SWAP1 PUSH1 0x40 MSTORE DUP1 MLOAD SWAP1 PUSH1 0x20 ADD KECCAK256 EQ DUP1 PUSH3 0x1CE JUMPI POP PUSH1 0x40 MLOAD PUSH1 0x20 ADD PUSH3 0x18D SWAP1 PUSH3 0x8D6 JUMP JUMPDEST PUSH1 0x40 MLOAD PUSH1 0x20 DUP2 DUP4 SUB SUB DUP2 MSTORE SWAP1 PUSH1 0x40 MSTORE DUP1 MLOAD SWAP1 PUSH1 0x20 ADD KECCAK256 DUP3 PUSH1 0x40 MLOAD PUSH1 0x20 ADD PUSH3 0x1B6 SWAP2 SWAP1 PUSH3 0x870 JUMP JUMPDEST PUSH1 0x40 MLOAD PUSH1 0x20 DUP2 DUP4 SUB SUB DUP2 MSTORE SWAP1 PUSH1 0x40 MSTORE DUP1 MLOAD SWAP1 PUSH1 0x20 ADD KECCAK256 EQ JUMPDEST SWAP1 POP SWAP2 SWAP1 POP JUMP JUMPDEST PUSH0 PUSH1 0x40 MLOAD SWAP1 POP SWAP1 JUMP JUMPDEST PUSH0 DUP1 REVERT JUMPDEST PUSH0 DUP1 REVERT JUMPDEST PUSH0 PUSH20 0xFFFFFFFFFFFFFFFFFFFFFFFFFFFFFFFFFFFFFFFF DUP3 AND SWAP1 POP SWAP2 SWAP1 POP JUMP JUMPDEST PUSH0 PUSH3 0x211 DUP3 PUSH3 0x1E6 JUMP JUMPDEST SWAP1 POP SWAP2 SWAP1 POP JUMP JUMPDEST PUSH3 0x223 DUP2 PUSH3 0x205 JUMP JUMPDEST DUP2 EQ PUSH3 0x22E JUMPI PUSH0 DUP1 REVERT JUMPDEST POP JUMP JUMPDEST PUSH0 DUP2 MLOAD SWAP1 POP PUSH3 0x241 DUP2 PUSH3 0x218 JUMP JUMPDEST SWAP3 SWAP2 POP POP JUMP JUMPDEST PUSH0 DUP1 REVERT JUMPDEST PUSH0 DUP1 REVERT JUMPDEST PUSH0 PUSH1 0x1F NOT PUSH1 0x1F DUP4 ADD AND SWAP1 POP SWAP2 SWAP1 POP JUMP JUMPDEST PUSH32 0x4E487B7100000000000000000000000000000000000000000000000000000000 PUSH0 MSTORE PUSH1 0x41 PUSH1 0x4 MSTORE PUSH1 0x24 PUSH0 REVERT JUMPDEST PUSH3 0x297 DUP3 PUSH3 0x24F JUMP JUMPDEST DUP2 ADD DUP2 DUP2 LT PUSH8 0xFFFFFFFFFFFFFFFF DUP3 GT OR ISZERO PUSH3 0x2B9 JUMPI PUSH3 0x2B8 PUSH3 0x25F JUMP JUMPDEST JUMPDEST DUP1 PUSH1 0x40 MSTORE POP POP POP JUMP JUMPDEST PUSH0 PUSH3 0x2CD PUSH3 0x1D5 JUMP JUMPDEST SWAP1 POP PUSH3 0x2DB DUP3 DUP3 PUSH3 0x28C JUMP JUMPDEST SWAP2 SWAP1 POP JUMP JUMPDEST PUSH0 PUSH8 0xFFFFFFFFFFFFFFFF DUP3 GT ISZERO PUSH3 0x2FD JUMPI PUSH3 0x2FC PUSH3 0x25F JUMP JUMPDEST JUMPDEST PUSH3 0x308 DUP3 PUSH3 0x24F JUMP JUMPDEST SWAP1 POP PUSH1 0x20 DUP2 ADD SWAP1 POP SWAP2 SWAP1 POP JUMP JUMPDEST PUSH0 JUMPDEST DUP4 DUP2 LT ISZERO PUSH3 0x334 JUMPI DUP1 DUP3 ADD MLOAD DUP2 DUP5 ADD MSTORE PUSH1 0x20 DUP2 ADD SWAP1 POP PUSH3 0x317 JUMP JUMPDEST PUSH0 DUP5 DUP5 ADD MSTORE POP POP POP POP JUMP JUMPDEST PUSH0 PUSH3 0x355 PUSH3 0x34F DUP5 PUSH3 0x2E0 JUMP JUMPDEST PUSH3 0x2C2 JUMP JUMPDEST SWAP1 POP DUP3 DUP2 MSTORE PUSH1 0x20 DUP2 ADD DUP5 DUP5 DUP5 ADD GT ISZERO PUSH3 0x374 JUMPI PUSH3 0x373 PUSH3 0x24B JUMP JUMPDEST JUMPDEST PUSH3 0x381 DUP5 DUP3 DUP6 PUSH3 0x315 JUMP JUMPDEST POP SWAP4 SWAP3 POP POP POP JUMP JUMPDEST PUSH0 DUP3 PUSH1 0x1F DUP4 ADD SLT PUSH3 0x3A0 JUMPI PUSH3 0x39F PUSH3 0x247 JUMP JUMPDEST JUMPDEST DUP2 MLOAD PUSH3 0x3B2 DUP5 DUP3 PUSH1 0x20 DUP7 ADD PUSH3 0x33F JUMP JUMPDEST SWAP2 POP POP SWAP3 SWAP2 POP POP JUMP JUMPDEST PUSH0 DUP1 PUSH0 PUSH1 0x60 DUP5 DUP7 SUB SLT ISZERO PUSH3 0x3D5 JUMPI PUSH3 0x3D4 PUSH3 0x1DE JUMP JUMPDEST JUMPDEST PUSH0 PUSH3 0x3E4 DUP7 DUP3 DUP8 ADD PUSH3 0x231 JUMP JUMPDEST SWAP4 POP POP PUSH1 0x20 PUSH3 0x3F7 DUP7 DUP3 DUP8 ADD PUSH3 0x231 JUMP JUMPDEST SWAP3 POP POP PUSH1 0x40 DUP5 ADD MLOAD PUSH8 0xFFFFFFFFFFFFFFFF DUP2 GT ISZERO PUSH3 0x41B JUMPI PUSH3 0x41A PUSH3 0x1E2 JUMP JUMPDEST JUMPDEST PUSH3 0x429 DUP7 DUP3 DUP8 ADD PUSH3 0x389 JUMP JUMPDEST SWAP2 POP POP SWAP3 POP SWAP3 POP SWAP3 JUMP JUMPDEST PUSH0 DUP3 DUP3 MSTORE PUSH1 0x20 DUP3 ADD SWAP1 POP SWAP3 SWAP2 POP POP JUMP JUMPDEST PUSH32 0x496E76616C696420636F6E747261637420706572696F64000000000000000000 PUSH0 DUP3 ADD MSTORE POP JUMP JUMPDEST PUSH0 PUSH3 0x479 PUSH1 0x17 DUP4 PUSH3 0x433 JUMP JUMPDEST SWAP2 POP PUSH3 0x486 DUP3 PUSH3 0x443 JUMP JUMPDEST PUSH1 0x20 DUP3 ADD SWAP1 POP SWAP2 SWAP1 POP JUMP JUMPDEST PUSH0 PUSH1 0x20 DUP3 ADD SWAP1 POP DUP2 DUP2 SUB PUSH0 DUP4 ADD MSTORE PUSH3 0x4AA DUP2 PUSH3 0x46B JUMP JUMPDEST SWAP1 POP SWAP2 SWAP1 POP JUMP JUMPDEST PUSH0 DUP2 MLOAD SWAP1 POP SWAP2 SWAP1 POP JUMP JUMPDEST PUSH32 0x4E487B7100000000000000000000000000000000000000000000000000000000 PUSH0 MSTORE PUSH1 0x22 PUSH1 0x4 MSTORE PUSH1 0x24 PUSH0 REVERT JUMPDEST PUSH0 PUSH1 0x2 DUP3 DIV SWAP1 POP PUSH1 0x1 DUP3 AND DUP1 PUSH3 0x500 JUMPI PUSH1 0x7F DUP3 AND SWAP2 POP JUMPDEST PUSH1 0x20 DUP3 LT DUP2 SUB PUSH3 0x516 JUMPI PUSH3 0x515 PUSH3 0x4BB JUMP JUMPDEST JUMPDEST POP SWAP2 SWAP1 POP JUMP JUMPDEST PUSH0 DUP2 SWAP1 POP DUP2 PUSH0 MSTORE PUSH1 0x20 PUSH0 KECCAK256 SWAP1 POP SWAP2 SWAP1 POP JUMP JUMPDEST PUSH0 PUSH1 0x20 PUSH1 0x1F DUP4 ADD DIV SWAP1 POP SWAP2 SWAP1 POP JUMP JUMPDEST PUSH0 DUP3 DUP3 SHL SWAP1 POP SWAP3 SWAP2 POP POP JUMP JUMPDEST PUSH0 PUSH1 0x8 DUP4 MUL PUSH3 0x57A PUSH32 0xFFFFFFFFFFFFFFFFFFFFFFFFFFFFFFFFFFFFFFFFFFFFFFFFFFFFFFFFFFFFFFFF DUP3 PUSH3 0x53D JUMP JUMPDEST PUSH3 0x586 DUP7 DUP4 PUSH3 0x53D JUMP JUMPDEST SWAP6 POP DUP1 NOT DUP5 AND SWAP4 POP DUP1 DUP7 AND DUP5 OR SWAP3 POP POP POP SWAP4 SWAP3 POP POP POP JUMP JUMPDEST PUSH0 DUP2 SWAP1 POP SWAP2 SWAP1 POP JUMP JUMPDEST PUSH0 DUP2 SWAP1 POP SWAP2 SWAP1 POP JUMP JUMPDEST PUSH0 PUSH3 0x5D0 PUSH3 0x5CA PUSH3 0x5C4 DUP5 PUSH3 0x59E JUMP JUMPDEST PUSH3 0x5A7 JUMP JUMPDEST PUSH3 0x59E JUMP JUMPDEST SWAP1 POP SWAP2 SWAP1 POP JUMP JUMPDEST PUSH0 DUP2 SWAP1 POP SWAP2 SWAP1 POP JUMP JUMPDEST PUSH3 0x5EB DUP4 PUSH3 0x5B0 JUMP JUMPDEST PUSH3 0x603 PUSH3 0x5FA DUP3 PUSH3 0x5D7 JUMP JUMPDEST DUP5 DUP5 SLOAD PUSH3 0x549 JUMP JUMPDEST DUP3 SSTORE POP POP POP POP JUMP JUMPDEST PUSH0 SWAP1 JUMP JUMPDEST PUSH3 0x619 PUSH3 0x60B JUMP JUMPDEST PUSH3 0x626 DUP2 DUP5 DUP5 PUSH3 0x5E0 JUMP JUMPDEST POP POP POP JUMP JUMPDEST JUMPDEST DUP2 DUP2 LT ISZERO PUSH3 0x64D JUMPI PUSH3 0x641 PUSH0 DUP3 PUSH3 0x60F JUMP JUMPDEST PUSH1 0x1 DUP2 ADD SWAP1 POP PUSH3 0x62C JUMP JUMPDEST POP POP JUMP JUMPDEST PUSH1 0x1F DUP3 GT ISZERO PUSH3 0x69C JUMPI PUSH3 0x666 DUP2 PUSH3 0x51C JUMP JUMPDEST PUSH3 0x671 DUP5 PUSH3 0x52E JUMP JUMPDEST DUP2 ADD PUSH1 0x20 DUP6 LT ISZERO PUSH3 0x681 JUMPI DUP2 SWAP1 POP JUMPDEST PUSH3 0x699 PUSH3 0x690 DUP6 PUSH3 0x52E JUMP JUMPDEST DUP4 ADD DUP3 PUSH3 0x62B JUMP JUMPDEST POP POP JUMPDEST POP POP POP JUMP JUMPDEST PUSH0 DUP3 DUP3 SHR SWAP1 POP SWAP3 SWAP2 POP POP JUMP JUMPDEST PUSH0 PUSH3 0x6BE PUSH0 NOT DUP5 PUSH1 0x8 MUL PUSH3 0x6A1 JUMP JUMPDEST NOT DUP1 DUP4 AND SWAP2 POP POP SWAP3 SWAP2 POP POP JUMP JUMPDEST PUSH0 PUSH3 0x6D8 DUP4 DUP4 PUSH3 0x6AD JUMP JUMPDEST SWAP2 POP DUP3 PUSH1 0x2 MUL DUP3 OR SWAP1 POP SWAP3 SWAP2 POP POP JUMP JUMPDEST PUSH3 0x6F3 DUP3 PUSH3 0x4B1 JUMP JUMPDEST PUSH8 0xFFFFFFFFFFFFFFFF DUP2 GT ISZERO PUSH3 0x70F JUMPI PUSH3 0x70E PUSH3 0x25F JUMP JUMPDEST JUMPDEST PUSH3 0x71B DUP3 SLOAD PUSH3 0x4E8 JUMP JUMPDEST PUSH3 0x728 DUP3 DUP3 DUP6 PUSH3 0x651 JUMP JUMPDEST PUSH0 PUSH1 0x20 SWAP1 POP PUSH1 0x1F DUP4 GT PUSH1 0x1 DUP2 EQ PUSH3 0x75E JUMPI PUSH0 DUP5 ISZERO PUSH3 0x749 JUMPI DUP3 DUP8 ADD MLOAD SWAP1 POP JUMPDEST PUSH3 0x755 DUP6 DUP3 PUSH3 0x6CB JUMP JUMPDEST DUP7 SSTORE POP PUSH3 0x7C4 JUMP JUMPDEST PUSH1 0x1F NOT DUP5 AND PUSH3 0x76E DUP7 PUSH3 0x51C JUMP JUMPDEST PUSH0 JUMPDEST DUP3 DUP2 LT ISZERO PUSH3 0x797 JUMPI DUP5 DUP10 ADD MLOAD DUP3 SSTORE PUSH1 0x1 DUP3 ADD SWAP2 POP PUSH1 0x20 DUP6 ADD SWAP5 POP PUSH1 0x20 DUP2 ADD SWAP1 POP PUSH3 0x770 JUMP JUMPDEST DUP7 DUP4 LT ISZERO PUSH3 0x7B7 JUMPI DUP5 DUP10 ADD MLOAD PUSH3 0x7B3 PUSH1 0x1F DUP10 AND DUP3 PUSH3 0x6AD JUMP JUMPDEST DUP4 SSTORE POP JUMPDEST PUSH1 0x1 PUSH1 0x2 DUP9 MUL ADD DUP9 SSTORE POP POP POP JUMPDEST POP POP POP POP POP POP JUMP JUMPDEST PUSH0 DUP2 SWAP1 POP SWAP3 SWAP2 POP POP JUMP JUMPDEST PUSH32 0x6D6F726E696E6700000000000000000000000000000000000000000000000000 PUSH0 DUP3 ADD MSTORE POP JUMP JUMPDEST PUSH0 PUSH3 0x80C PUSH1 0x7 DUP4 PUSH3 0x7CC JUMP JUMPDEST SWAP2 POP PUSH3 0x819 DUP3 PUSH3 0x7D6 JUMP JUMPDEST PUSH1 0x7 DUP3 ADD SWAP1 POP SWAP2 SWAP1 POP JUMP JUMPDEST PUSH0 PUSH3 0x830 DUP3 PUSH3 0x7FE JUMP JUMPDEST SWAP2 POP DUP2 SWAP1 POP SWAP2 SWAP1 POP JUMP JUMPDEST PUSH0 PUSH3 0x846 DUP3 PUSH3 0x4B1 JUMP JUMPDEST PUSH3 0x852 DUP2 DUP6 PUSH3 0x7CC JUMP JUMPDEST SWAP4 POP PUSH3 0x864 DUP2 DUP6 PUSH1 0x20 DUP7 ADD PUSH3 0x315 JUMP JUMPDEST DUP1 DUP5 ADD SWAP2 POP POP SWAP3 SWAP2 POP POP JUMP JUMPDEST PUSH0 PUSH3 0x87D DUP3 DUP5 PUSH3 0x83A JUMP JUMPDEST SWAP2 POP DUP2 SWAP1 POP SWAP3 SWAP2 POP POP JUMP JUMPDEST PUSH32 0x61667465726E6F6F6E0000000000000000000000000000000000000000000000 PUSH0 DUP3 ADD MSTORE POP JUMP JUMPDEST PUSH0 PUSH3 0x8BE PUSH1 0x9 DUP4 PUSH3 0x7CC JUMP JUMPDEST SWAP2 POP PUSH3 0x8CB DUP3 PUSH3 0x888 JUMP JUMPDEST PUSH1 0x9 DUP3 ADD SWAP1 POP SWAP2 SWAP1 POP JUMP JUMPDEST PUSH0 PUSH3 0x8E2 DUP3 PUSH3 0x8B0 JUMP JUMPDEST SWAP2 POP DUP2 SWAP1 POP SWAP2 SWAP1 POP JUMP JUMPDEST PUSH2 0x1EFA DUP1 PUSH3 0x8FA PUSH0 CODECOPY PUSH0 RETURN INVALID PUSH1 0x80 PUSH1 0x40 MSTORE CALLVALUE DUP1 ISZERO PUSH2 0xF JUMPI PUSH0 DUP1 REVERT JUMPDEST POP PUSH1 0x4 CALLDATASIZE LT PUSH2 0x91 JUMPI PUSH0 CALLDATALOAD PUSH1 0xE0 SHR DUP1 PUSH4 0x4FD5E730 GT PUSH2 0x64 JUMPI DUP1 PUSH4 0x4FD5E730 EQ PUSH2 0x11F JUMPI DUP1 PUSH4 0x8862CCA1 EQ PUSH2 0x129 JUMPI DUP1 PUSH4 0x9ACE38C2 EQ PUSH2 0x147 JUMPI DUP1 PUSH4 0xBB88B769 EQ PUSH2 0x17D JUMPI DUP1 PUSH4 0xE10173B6 EQ PUSH2 0x19B JUMPI PUSH2 0x91 JUMP JUMPDEST DUP1 PUSH4 0x39969F4 EQ PUSH2 0x95 JUMPI DUP1 PUSH4 0x1E7F8F0F EQ PUSH2 0xB1 JUMPI DUP1 PUSH4 0x3380C0D8 EQ PUSH2 0xCD JUMPI DUP1 PUSH4 0x33EA3DC8 EQ PUSH2 0xE9 JUMPI JUMPDEST PUSH0 DUP1 REVERT JUMPDEST PUSH2 0xAF PUSH1 0x4 DUP1 CALLDATASIZE SUB DUP2 ADD SWAP1 PUSH2 0xAA SWAP2 SWAP1 PUSH2 0x1304 JUMP JUMPDEST PUSH2 0x1B9 JUMP JUMPDEST STOP JUMPDEST PUSH2 0xCB PUSH1 0x4 DUP1 CALLDATASIZE SUB DUP2 ADD SWAP1 PUSH2 0xC6 SWAP2 SWAP1 PUSH2 0x13B8 JUMP JUMPDEST PUSH2 0x540 JUMP JUMPDEST STOP JUMPDEST PUSH2 0xE7 PUSH1 0x4 DUP1 CALLDATASIZE SUB DUP2 ADD SWAP1 PUSH2 0xE2 SWAP2 SWAP1 PUSH2 0x13F6 JUMP JUMPDEST PUSH2 0x8B5 JUMP JUMPDEST STOP JUMPDEST PUSH2 0x103 PUSH1 0x4 DUP1 CALLDATASIZE SUB DUP2 ADD SWAP1 PUSH2 0xFE SWAP2 SWAP1 PUSH2 0x13F6 JUMP JUMPDEST PUSH2 0xB20 JUMP JUMPDEST PUSH1 0x40 MLOAD PUSH2 0x116 SWAP8 SWAP7 SWAP6 SWAP5 SWAP4 SWAP3 SWAP2 SWAP1 PUSH2 0x14D3 JUMP JUMPDEST PUSH1 0x40 MLOAD DUP1 SWAP2 SUB SWAP1 RETURN JUMPDEST PUSH2 0x127 PUSH2 0xD9A JUMP JUMPDEST STOP JUMPDEST PUSH2 0x131 PUSH2 0xD9C JUMP JUMPDEST PUSH1 0x40 MLOAD PUSH2 0x13E SWAP2 SWAP1 PUSH2 0x154E JUMP JUMPDEST PUSH1 0x40 MLOAD DUP1 SWAP2 SUB SWAP1 RETURN JUMPDEST PUSH2 0x161 PUSH1 0x4 DUP1 CALLDATASIZE SUB DUP2 ADD SWAP1 PUSH2 0x15C SWAP2 SWAP1 PUSH2 0x13F6 JUMP JUMPDEST PUSH2 0xE28 JUMP JUMPDEST PUSH1 0x40 MLOAD PUSH2 0x174 SWAP8 SWAP7 SWAP6 SWAP5 SWAP4 SWAP3 SWAP2 SWAP1 PUSH2 0x14D3 JUMP JUMPDEST PUSH1 0x40 MLOAD DUP1 SWAP2 SUB SWAP1 RETURN JUMPDEST PUSH2 0x185 PUSH2 0xFD8 JUMP JUMPDEST PUSH1 0x40 MLOAD PUSH2 0x192 SWAP2 SWAP1 PUSH2 0x156E JUMP JUMPDEST PUSH1 0x40 MLOAD DUP1 SWAP2 SUB SWAP1 RETURN JUMPDEST PUSH2 0x1A3 PUSH2 0xFFD JUMP JUMPDEST PUSH1 0x40 MLOAD PUSH2 0x1B0 SWAP2 SWAP1 PUSH2 0x15E2 JUMP JUMPDEST PUSH1 0x40 MLOAD DUP1 SWAP2 SUB SWAP1 RETURN JUMPDEST PUSH1 0x1 PUSH0 SWAP1 SLOAD SWAP1 PUSH2 0x100 EXP SWAP1 DIV PUSH20 0xFFFFFFFFFFFFFFFFFFFFFFFFFFFFFFFFFFFFFFFF AND PUSH20 0xFFFFFFFFFFFFFFFFFFFFFFFFFFFFFFFFFFFFFFFF AND CALLER PUSH20 0xFFFFFFFFFFFFFFFFFFFFFFFFFFFFFFFFFFFFFFFF AND EQ PUSH2 0x248 JUMPI PUSH1 0x40 MLOAD PUSH32 0x8C379A000000000000000000000000000000000000000000000000000000000 DUP2 MSTORE PUSH1 0x4 ADD PUSH2 0x23F SWAP1 PUSH2 0x166B JUMP JUMPDEST PUSH1 0x40 MLOAD DUP1 SWAP2 SUB SWAP1 REVERT JUMPDEST PUSH0 PUSH1 0x3 DUP4 DUP2 SLOAD DUP2 LT PUSH2 0x25D JUMPI PUSH2 0x25C PUSH2 0x1689 JUMP JUMPDEST JUMPDEST SWAP1 PUSH0 MSTORE PUSH1 0x20 PUSH0 KECCAK256 SWAP1 PUSH1 0x6 MUL ADD SWAP1 POP DUP1 PUSH1 0x5 ADD PUSH0 SWAP1 SLOAD SWAP1 PUSH2 0x100 EXP SWAP1 DIV PUSH1 0xFF AND PUSH2 0x2BB JUMPI PUSH1 0x40 MLOAD PUSH32 0x8C379A000000000000000000000000000000000000000000000000000000000 DUP2 MSTORE PUSH1 0x4 ADD PUSH2 0x2B2 SWAP1 PUSH2 0x1726 JUMP JUMPDEST PUSH1 0x40 MLOAD DUP1 SWAP2 SUB SWAP1 REVERT JUMPDEST PUSH2 0x2C4 DUP3 PUSH2 0x1020 JUMP JUMPDEST PUSH2 0x303 JUMPI PUSH1 0x40 MLOAD PUSH32 0x8C379A000000000000000000000000000000000000000000000000000000000 DUP2 MSTORE PUSH1 0x4 ADD PUSH2 0x2FA SWAP1 PUSH2 0x178E JUMP JUMPDEST PUSH1 0x40 MLOAD DUP1 SWAP2 SUB SWAP1 REVERT JUMPDEST PUSH2 0x397 DUP2 PUSH1 0x3 ADD DUP1 SLOAD PUSH2 0x315 SWAP1 PUSH2 0x17D9 JUMP JUMPDEST DUP1 PUSH1 0x1F ADD PUSH1 0x20 DUP1 SWAP2 DIV MUL PUSH1 0x20 ADD PUSH1 0x40 MLOAD SWAP1 DUP2 ADD PUSH1 0x40 MSTORE DUP1 SWAP3 SWAP2 SWAP1 DUP2 DUP2 MSTORE PUSH1 0x20 ADD DUP3 DUP1 SLOAD PUSH2 0x341 SWAP1 PUSH2 0x17D9 JUMP JUMPDEST DUP1 ISZERO PUSH2 0x38C JUMPI DUP1 PUSH1 0x1F LT PUSH2 0x363 JUMPI PUSH2 0x100 DUP1 DUP4 SLOAD DIV MUL DUP4 MSTORE SWAP2 PUSH1 0x20 ADD SWAP2 PUSH2 0x38C JUMP JUMPDEST DUP3 ADD SWAP2 SWAP1 PUSH0 MSTORE PUSH1 0x20 PUSH0 KECCAK256 SWAP1 JUMPDEST DUP2 SLOAD DUP2 MSTORE SWAP1 PUSH1 0x1 ADD SWAP1 PUSH1 0x20 ADD DUP1 DUP4 GT PUSH2 0x36F JUMPI DUP3 SWAP1 SUB PUSH1 0x1F AND DUP3 ADD SWAP2 JUMPDEST POP POP POP POP POP DUP4 PUSH2 0x10C9 JUMP JUMPDEST PUSH2 0x3D6 JUMPI PUSH1 0x40 MLOAD PUSH32 0x8C379A000000000000000000000000000000000000000000000000000000000 DUP2 MSTORE PUSH1 0x4 ADD PUSH2 0x3CD SWAP1 PUSH2 0x1879 JUMP JUMPDEST PUSH1 0x40 MLOAD DUP1 SWAP2 SUB SWAP1 REVERT JUMPDEST PUSH0 DUP2 PUSH1 0x5 ADD PUSH0 PUSH2 0x100 EXP DUP2 SLOAD DUP2 PUSH1 0xFF MUL NOT AND SWAP1 DUP4 ISZERO ISZERO MUL OR SWAP1 SSTORE POP DUP2 DUP2 PUSH1 0x4 ADD SWAP1 DUP2 PUSH2 0x402 SWAP2 SWAP1 PUSH2 0x1A2B JUMP JUMPDEST POP PUSH0 DUP1 SLOAD SWAP1 PUSH2 0x100 EXP SWAP1 DIV PUSH20 0xFFFFFFFFFFFFFFFFFFFFFFFFFFFFFFFFFFFFFFFF AND PUSH20 0xFFFFFFFFFFFFFFFFFFFFFFFFFFFFFFFFFFFFFFFF AND PUSH4 0xA9059CBB DUP3 PUSH1 0x1 ADD PUSH0 SWAP1 SLOAD SWAP1 PUSH2 0x100 EXP SWAP1 DIV PUSH20 0xFFFFFFFFFFFFFFFFFFFFFFFFFFFFFFFFFFFFFFFF AND DUP4 PUSH1 0x2 ADD SLOAD PUSH1 0x40 MLOAD DUP4 PUSH4 0xFFFFFFFF AND PUSH1 0xE0 SHL DUP2 MSTORE PUSH1 0x4 ADD PUSH2 0x484 SWAP3 SWAP2 SWAP1 PUSH2 0x1AFA JUMP JUMPDEST PUSH1 0x20 PUSH1 0x40 MLOAD DUP1 DUP4 SUB DUP2 PUSH0 DUP8 GAS CALL ISZERO DUP1 ISZERO PUSH2 0x4A0 JUMPI RETURNDATASIZE PUSH0 DUP1 RETURNDATACOPY RETURNDATASIZE PUSH0 REVERT JUMPDEST POP POP POP POP PUSH1 0x40 MLOAD RETURNDATASIZE PUSH1 0x1F NOT PUSH1 0x1F DUP3 ADD AND DUP3 ADD DUP1 PUSH1 0x40 MSTORE POP DUP2 ADD SWAP1 PUSH2 0x4C4 SWAP2 SWAP1 PUSH2 0x1B4B JUMP JUMPDEST PUSH2 0x503 JUMPI PUSH1 0x40 MLOAD PUSH32 0x8C379A000000000000000000000000000000000000000000000000000000000 DUP2 MSTORE PUSH1 0x4 ADD PUSH2 0x4FA SWAP1 PUSH2 0x1BC0 JUMP JUMPDEST PUSH1 0x40 MLOAD DUP1 SWAP2 SUB SWAP1 REVERT JUMPDEST DUP3 PUSH32 0x1E474BD19342535152E5B75E9A0F0827E0CC7BA762BB93FBCF49BEAE571AB18B DUP4 PUSH1 0x40 MLOAD PUSH2 0x533 SWAP2 SWAP1 PUSH2 0x154E JUMP JUMPDEST PUSH1 0x40 MLOAD DUP1 SWAP2 SUB SWAP1 LOG2 POP POP POP JUMP JUMPDEST PUSH0 PUSH1 0x3 DUP1 SLOAD SWAP1 POP SWAP1 POP PUSH1 0x3 PUSH1 0x40 MLOAD DUP1 PUSH1 0xE0 ADD PUSH1 0x40 MSTORE DUP1 CALLER PUSH20 0xFFFFFFFFFFFFFFFFFFFFFFFFFFFFFFFFFFFFFFFF AND DUP2 MSTORE PUSH1 0x20 ADD DUP6 PUSH20 0xFFFFFFFFFFFFFFFFFFFFFFFFFFFFFFFFFFFFFFFF AND DUP2 MSTORE PUSH1 0x20 ADD DUP5 DUP2 MSTORE PUSH1 0x20 ADD PUSH1 0x2 DUP1 SLOAD PUSH2 0x5A1 SWAP1 PUSH2 0x17D9 JUMP JUMPDEST DUP1 PUSH1 0x1F ADD PUSH1 0x20 DUP1 SWAP2 DIV MUL PUSH1 0x20 ADD PUSH1 0x40 MLOAD SWAP1 DUP2 ADD PUSH1 0x40 MSTORE DUP1 SWAP3 SWAP2 SWAP1 DUP2 DUP2 MSTORE PUSH1 0x20 ADD DUP3 DUP1 SLOAD PUSH2 0x5CD SWAP1 PUSH2 0x17D9 JUMP JUMPDEST DUP1 ISZERO PUSH2 0x618 JUMPI DUP1 PUSH1 0x1F LT PUSH2 0x5EF JUMPI PUSH2 0x100 DUP1 DUP4 SLOAD DIV MUL DUP4 MSTORE SWAP2 PUSH1 0x20 ADD SWAP2 PUSH2 0x618 JUMP JUMPDEST DUP3 ADD SWAP2 SWAP1 PUSH0 MSTORE PUSH1 0x20 PUSH0 KECCAK256 SWAP1 JUMPDEST DUP2 SLOAD DUP2 MSTORE SWAP1 PUSH1 0x1 ADD SWAP1 PUSH1 0x20 ADD DUP1 DUP4 GT PUSH2 0x5FB JUMPI DUP3 SWAP1 SUB PUSH1 0x1F AND DUP3 ADD SWAP2 JUMPDEST POP POP POP POP POP DUP2 MSTORE PUSH1 0x20 ADD PUSH1 0x40 MLOAD DUP1 PUSH1 0x20 ADD PUSH1 0x40 MSTORE DUP1 PUSH0 DUP2 MSTORE POP DUP2 MSTORE PUSH1 0x20 ADD PUSH1 0x1 ISZERO ISZERO DUP2 MSTORE PUSH1 0x20 ADD PUSH0 ISZERO ISZERO DUP2 MSTORE POP SWAP1 DUP1 PUSH1 0x1 DUP2 SLOAD ADD DUP1 DUP3 SSTORE DUP1 SWAP2 POP POP PUSH1 0x1 SWAP1 SUB SWAP1 PUSH0 MSTORE PUSH1 0x20 PUSH0 KECCAK256 SWAP1 PUSH1 0x6 MUL ADD PUSH0 SWAP1 SWAP2 SWAP1 SWAP2 SWAP1 SWAP2 POP PUSH0 DUP3 ADD MLOAD DUP2 PUSH0 ADD PUSH0 PUSH2 0x100 EXP DUP2 SLOAD DUP2 PUSH20 0xFFFFFFFFFFFFFFFFFFFFFFFFFFFFFFFFFFFFFFFF MUL NOT AND SWAP1 DUP4 PUSH20 0xFFFFFFFFFFFFFFFFFFFFFFFFFFFFFFFFFFFFFFFF AND MUL OR SWAP1 SSTORE POP PUSH1 0x20 DUP3 ADD MLOAD DUP2 PUSH1 0x1 ADD PUSH0 PUSH2 0x100 EXP DUP2 SLOAD DUP2 PUSH20 0xFFFFFFFFFFFFFFFFFFFFFFFFFFFFFFFFFFFFFFFF MUL NOT AND SWAP1 DUP4 PUSH20 0xFFFFFFFFFFFFFFFFFFFFFFFFFFFFFFFFFFFFFFFF AND MUL OR SWAP1 SSTORE POP PUSH1 0x40 DUP3 ADD MLOAD DUP2 PUSH1 0x2 ADD SSTORE PUSH1 0x60 DUP3 ADD MLOAD DUP2 PUSH1 0x3 ADD SWAP1 DUP2 PUSH2 0x714 SWAP2 SWAP1 PUSH2 0x1A2B JUMP JUMPDEST POP PUSH1 0x80 DUP3 ADD MLOAD DUP2 PUSH1 0x4 ADD SWAP1 DUP2 PUSH2 0x72A SWAP2 SWAP1 PUSH2 0x1A2B JUMP JUMPDEST POP PUSH1 0xA0 DUP3 ADD MLOAD DUP2 PUSH1 0x5 ADD PUSH0 PUSH2 0x100 EXP DUP2 SLOAD DUP2 PUSH1 0xFF MUL NOT AND SWAP1 DUP4 ISZERO ISZERO MUL OR SWAP1 SSTORE POP PUSH1 0xC0 DUP3 ADD MLOAD DUP2 PUSH1 0x5 ADD PUSH1 0x1 PUSH2 0x100 EXP DUP2 SLOAD DUP2 PUSH1 0xFF MUL NOT AND SWAP1 DUP4 ISZERO ISZERO MUL OR SWAP1 SSTORE POP POP POP PUSH0 DUP1 SLOAD SWAP1 PUSH2 0x100 EXP SWAP1 DIV PUSH20 0xFFFFFFFFFFFFFFFFFFFFFFFFFFFFFFFFFFFFFFFF AND PUSH20 0xFFFFFFFFFFFFFFFFFFFFFFFFFFFFFFFFFFFFFFFF AND PUSH4 0x23B872DD CALLER ADDRESS DUP6 PUSH1 0x40 MLOAD DUP5 PUSH4 0xFFFFFFFF AND PUSH1 0xE0 SHL DUP2 MSTORE PUSH1 0x4 ADD PUSH2 0x7C8 SWAP4 SWAP3 SWAP2 SWAP1 PUSH2 0x1BDE JUMP JUMPDEST PUSH1 0x20 PUSH1 0x40 MLOAD DUP1 DUP4 SUB DUP2 PUSH0 DUP8 GAS CALL ISZERO DUP1 ISZERO PUSH2 0x7E4 JUMPI RETURNDATASIZE PUSH0 DUP1 RETURNDATACOPY RETURNDATASIZE PUSH0 REVERT JUMPDEST POP POP POP POP PUSH1 0x40 MLOAD RETURNDATASIZE PUSH1 0x1F NOT PUSH1 0x1F DUP3 ADD AND DUP3 ADD DUP1 PUSH1 0x40 MSTORE POP DUP2 ADD SWAP1 PUSH2 0x808 SWAP2 SWAP1 PUSH2 0x1B4B JUMP JUMPDEST PUSH2 0x847 JUMPI PUSH1 0x40 MLOAD PUSH32 0x8C379A000000000000000000000000000000000000000000000000000000000 DUP2 MSTORE PUSH1 0x4 ADD PUSH2 0x83E SWAP1 PUSH2 0x1BC0 JUMP JUMPDEST PUSH1 0x40 MLOAD DUP1 SWAP2 SUB SWAP1 REVERT JUMPDEST DUP3 PUSH20 0xFFFFFFFFFFFFFFFFFFFFFFFFFFFFFFFFFFFFFFFF AND CALLER PUSH20 0xFFFFFFFFFFFFFFFFFFFFFFFFFFFFFFFFFFFFFFFF AND DUP3 PUSH32 0xD89212767B09009579B99FC5CBEF0EA94E619624FF6501E3B609BB2ACB5B947C DUP6 PUSH1 0x2 PUSH1 0x40 MLOAD PUSH2 0x8A8 SWAP3 SWAP2 SWAP1 PUSH2 0x1C94 JUMP JUMPDEST PUSH1 0x40 MLOAD DUP1 SWAP2 SUB SWAP1 LOG4 POP POP POP JUMP JUMPDEST PUSH0 PUSH1 0x3 DUP3 DUP2 SLOAD DUP2 LT PUSH2 0x8CA JUMPI PUSH2 0x8C9 PUSH2 0x1689 JUMP JUMPDEST JUMPDEST SWAP1 PUSH0 MSTORE PUSH1 0x20 PUSH0 KECCAK256 SWAP1 PUSH1 0x6 MUL ADD SWAP1 POP DUP1 PUSH0 ADD PUSH0 SWAP1 SLOAD SWAP1 PUSH2 0x100 EXP SWAP1 DIV PUSH20 0xFFFFFFFFFFFFFFFFFFFFFFFFFFFFFFFFFFFFFFFF AND PUSH20 0xFFFFFFFFFFFFFFFFFFFFFFFFFFFFFFFFFFFFFFFF AND CALLER PUSH20 0xFFFFFFFFFFFFFFFFFFFFFFFFFFFFFFFFFFFFFFFF AND EQ PUSH2 0x968 JUMPI PUSH1 0x40 MLOAD PUSH32 0x8C379A000000000000000000000000000000000000000000000000000000000 DUP2 MSTORE PUSH1 0x4 ADD PUSH2 0x95F SWAP1 PUSH2 0x1D32 JUMP JUMPDEST PUSH1 0x40 MLOAD DUP1 SWAP2 SUB SWAP1 REVERT JUMPDEST DUP1 PUSH1 0x5 ADD PUSH0 SWAP1 SLOAD SWAP1 PUSH2 0x100 EXP SWAP1 DIV PUSH1 0xFF AND PUSH2 0x9B8 JUMPI PUSH1 0x40 MLOAD PUSH32 0x8C379A000000000000000000000000000000000000000000000000000000000 DUP2 MSTORE PUSH1 0x4 ADD PUSH2 0x9AF SWAP1 PUSH2 0x1726 JUMP JUMPDEST PUSH1 0x40 MLOAD DUP1 SWAP2 SUB SWAP1 REVERT JUMPDEST PUSH0 DUP2 PUSH1 0x5 ADD PUSH0 PUSH2 0x100 EXP DUP2 SLOAD DUP2 PUSH1 0xFF MUL NOT AND SWAP1 DUP4 ISZERO ISZERO MUL OR SWAP1 SSTORE POP PUSH1 0x1 DUP2 PUSH1 0x5 ADD PUSH1 0x1 PUSH2 0x100 EXP DUP2 SLOAD DUP2 PUSH1 0xFF MUL NOT AND SWAP1 DUP4 ISZERO ISZERO MUL OR SWAP1 SSTORE POP PUSH0 DUP1 SLOAD SWAP1 PUSH2 0x100 EXP SWAP1 DIV PUSH20 0xFFFFFFFFFFFFFFFFFFFFFFFFFFFFFFFFFFFFFFFF AND PUSH20 0xFFFFFFFFFFFFFFFFFFFFFFFFFFFFFFFFFFFFFFFF AND PUSH4 0xA9059CBB DUP3 PUSH0 ADD PUSH0 SWAP1 SLOAD SWAP1 PUSH2 0x100 EXP SWAP1 DIV PUSH20 0xFFFFFFFFFFFFFFFFFFFFFFFFFFFFFFFFFFFFFFFF AND DUP4 PUSH1 0x2 ADD SLOAD PUSH1 0x40 MLOAD DUP4 PUSH4 0xFFFFFFFF AND PUSH1 0xE0 SHL DUP2 MSTORE PUSH1 0x4 ADD PUSH2 0xA70 SWAP3 SWAP2 SWAP1 PUSH2 0x1AFA JUMP JUMPDEST PUSH1 0x20 PUSH1 0x40 MLOAD DUP1 DUP4 SUB DUP2 PUSH0 DUP8 GAS CALL ISZERO DUP1 ISZERO PUSH2 0xA8C JUMPI RETURNDATASIZE PUSH0 DUP1 RETURNDATACOPY RETURNDATASIZE PUSH0 REVERT JUMPDEST POP POP POP POP PUSH1 0x40 MLOAD RETURNDATASIZE PUSH1 0x1F NOT PUSH1 0x1F DUP3 ADD AND DUP3 ADD DUP1 PUSH1 0x40 MSTORE POP DUP2 ADD SWAP1 PUSH2 0xAB0 SWAP2 SWAP1 PUSH2 0x1B4B JUMP JUMPDEST PUSH2 0xAEF JUMPI PUSH1 0x40 MLOAD PUSH32 0x8C379A000000000000000000000000000000000000000000000000000000000 DUP2 MSTORE PUSH1 0x4 ADD PUSH2 0xAE6 SWAP1 PUSH2 0x1D9A JUMP JUMPDEST PUSH1 0x40 MLOAD DUP1 SWAP2 SUB SWAP1 REVERT JUMPDEST DUP2 PUSH32 0x956FB32199D8B882B2039A14E1BE35AB14F7A80B9089FC223F14B43937173E60 PUSH1 0x40 MLOAD PUSH1 0x40 MLOAD DUP1 SWAP2 SUB SWAP1 LOG2 POP POP JUMP JUMPDEST PUSH0 DUP1 PUSH0 PUSH1 0x60 DUP1 PUSH0 DUP1 PUSH0 PUSH1 0x3 DUP10 DUP2 SLOAD DUP2 LT PUSH2 0xB3D JUMPI PUSH2 0xB3C PUSH2 0x1689 JUMP JUMPDEST JUMPDEST SWAP1 PUSH0 MSTORE PUSH1 0x20 PUSH0 KECCAK256 SWAP1 PUSH1 0x6 MUL ADD PUSH1 0x40 MLOAD DUP1 PUSH1 0xE0 ADD PUSH1 0x40 MSTORE SWAP1 DUP2 PUSH0 DUP3 ADD PUSH0 SWAP1 SLOAD SWAP1 PUSH2 0x100 EXP SWAP1 DIV PUSH20 0xFFFFFFFFFFFFFFFFFFFFFFFFFFFFFFFFFFFFFFFF AND PUSH20 0xFFFFFFFFFFFFFFFFFFFFFFFFFFFFFFFFFFFFFFFF AND PUSH20 0xFFFFFFFFFFFFFFFFFFFFFFFFFFFFFFFFFFFFFFFF AND DUP2 MSTORE PUSH1 0x20 ADD PUSH1 0x1 DUP3 ADD PUSH0 SWAP1 SLOAD SWAP1 PUSH2 0x100 EXP SWAP1 DIV PUSH20 0xFFFFFFFFFFFFFFFFFFFFFFFFFFFFFFFFFFFFFFFF AND PUSH20 0xFFFFFFFFFFFFFFFFFFFFFFFFFFFFFFFFFFFFFFFF AND PUSH20 0xFFFFFFFFFFFFFFFFFFFFFFFFFFFFFFFFFFFFFFFF AND DUP2 MSTORE PUSH1 0x20 ADD PUSH1 0x2 DUP3 ADD SLOAD DUP2 MSTORE PUSH1 0x20 ADD PUSH1 0x3 DUP3 ADD DUP1 SLOAD PUSH2 0xC17 SWAP1 PUSH2 0x17D9 JUMP JUMPDEST DUP1 PUSH1 0x1F ADD PUSH1 0x20 DUP1 SWAP2 DIV MUL PUSH1 0x20 ADD PUSH1 0x40 MLOAD SWAP1 DUP2 ADD PUSH1 0x40 MSTORE DUP1 SWAP3 SWAP2 SWAP1 DUP2 DUP2 MSTORE PUSH1 0x20 ADD DUP3 DUP1 SLOAD PUSH2 0xC43 SWAP1 PUSH2 0x17D9 JUMP JUMPDEST DUP1 ISZERO PUSH2 0xC8E JUMPI DUP1 PUSH1 0x1F LT PUSH2 0xC65 JUMPI PUSH2 0x100 DUP1 DUP4 SLOAD DIV MUL DUP4 MSTORE SWAP2 PUSH1 0x20 ADD SWAP2 PUSH2 0xC8E JUMP JUMPDEST DUP3 ADD SWAP2 SWAP1 PUSH0 MSTORE PUSH1 0x20 PUSH0 KECCAK256 SWAP1 JUMPDEST DUP2 SLOAD DUP2 MSTORE SWAP1 PUSH1 0x1 ADD SWAP1 PUSH1 0x20 ADD DUP1 DUP4 GT PUSH2 0xC71 JUMPI DUP3 SWAP1 SUB PUSH1 0x1F AND DUP3 ADD SWAP2 JUMPDEST POP POP POP POP POP DUP2 MSTORE PUSH1 0x20 ADD PUSH1 0x4 DUP3 ADD DUP1 SLOAD PUSH2 0xCA7 SWAP1 PUSH2 0x17D9 JUMP JUMPDEST DUP1 PUSH1 0x1F ADD PUSH1 0x20 DUP1 SWAP2 DIV MUL PUSH1 0x20 ADD PUSH1 0x40 MLOAD SWAP1 DUP2 ADD PUSH1 0x40 MSTORE DUP1 SWAP3 SWAP2 SWAP1 DUP2 DUP2 MSTORE PUSH1 0x20 ADD DUP3 DUP1 SLOAD PUSH2 0xCD3 SWAP1 PUSH2 0x17D9 JUMP JUMPDEST DUP1 ISZERO PUSH2 0xD1E JUMPI DUP1 PUSH1 0x1F LT PUSH2 0xCF5 JUMPI PUSH2 0x100 DUP1 DUP4 SLOAD DIV MUL DUP4 MSTORE SWAP2 PUSH1 0x20 ADD SWAP2 PUSH2 0xD1E JUMP JUMPDEST DUP3 ADD SWAP2 SWAP1 PUSH0 MSTORE PUSH1 0x20 PUSH0 KECCAK256 SWAP1 JUMPDEST DUP2 SLOAD DUP2 MSTORE SWAP1 PUSH1 0x1 ADD SWAP1 PUSH1 0x20 ADD DUP1 DUP4 GT PUSH2 0xD01 JUMPI DUP3 SWAP1 SUB PUSH1 0x1F AND DUP3 ADD SWAP2 JUMPDEST POP POP POP POP POP DUP2 MSTORE PUSH1 0x20 ADD PUSH1 0x5 DUP3 ADD PUSH0 SWAP1 SLOAD SWAP1 PUSH2 0x100 EXP SWAP1 DIV PUSH1 0xFF AND ISZERO ISZERO ISZERO ISZERO DUP2 MSTORE PUSH1 0x20 ADD PUSH1 0x5 DUP3 ADD PUSH1 0x1 SWAP1 SLOAD SWAP1 PUSH2 0x100 EXP SWAP1 DIV PUSH1 0xFF AND ISZERO ISZERO ISZERO ISZERO DUP2 MSTORE POP POP SWAP1 POP DUP1 PUSH0 ADD MLOAD DUP2 PUSH1 0x20 ADD MLOAD DUP3 PUSH1 0x40 ADD MLOAD DUP4 PUSH1 0x60 ADD MLOAD DUP5 PUSH1 0x80 ADD MLOAD DUP6 PUSH1 0xA0 ADD MLOAD DUP7 PUSH1 0xC0 ADD MLOAD SWAP8 POP SWAP8 POP SWAP8 POP SWAP8 POP SWAP8 POP SWAP8 POP SWAP8 POP POP SWAP2 SWAP4 SWAP6 SWAP8 SWAP1 SWAP3 SWAP5 SWAP7 POP JUMP JUMPDEST JUMP JUMPDEST PUSH1 0x2 DUP1 SLOAD PUSH2 0xDA9 SWAP1 PUSH2 0x17D9 JUMP JUMPDEST DUP1 PUSH1 0x1F ADD PUSH1 0x20 DUP1 SWAP2 DIV MUL PUSH1 0x20 ADD PUSH1 0x40 MLOAD SWAP1 DUP2 ADD PUSH1 0x40 MSTORE DUP1 SWAP3 SWAP2 SWAP1 DUP2 DUP2 MSTORE PUSH1 0x20 ADD DUP3 DUP1 SLOAD PUSH2 0xDD5 SWAP1 PUSH2 0x17D9 JUMP JUMPDEST DUP1 ISZERO PUSH2 0xE20 JUMPI DUP1 PUSH1 0x1F LT PUSH2 0xDF7 JUMPI PUSH2 0x100 DUP1 DUP4 SLOAD DIV MUL DUP4 MSTORE SWAP2 PUSH1 0x20 ADD SWAP2 PUSH2 0xE20 JUMP JUMPDEST DUP3 ADD SWAP2 SWAP1 PUSH0 MSTORE PUSH1 0x20 PUSH0 KECCAK256 SWAP1 JUMPDEST DUP2 SLOAD DUP2 MSTORE SWAP1 PUSH1 0x1 ADD SWAP1 PUSH1 0x20 ADD DUP1 DUP4 GT PUSH2 0xE03 JUMPI DUP3 SWAP1 SUB PUSH1 0x1F AND DUP3 ADD SWAP2 JUMPDEST POP POP POP POP POP DUP2 JUMP JUMPDEST PUSH1 0x3 DUP2 DUP2 SLOAD DUP2 LT PUSH2 0xE37 JUMPI PUSH0 DUP1 REVERT JUMPDEST SWAP1 PUSH0 MSTORE PUSH1 0x20 PUSH0 KECCAK256 SWAP1 PUSH1 0x6 MUL ADD PUSH0 SWAP2 POP SWAP1 POP DUP1 PUSH0 ADD PUSH0 SWAP1 SLOAD SWAP1 PUSH2 0x100 EXP SWAP1 DIV PUSH20 0xFFFFFFFFFFFFFFFFFFFFFFFFFFFFFFFFFFFFFFFF AND SWAP1 DUP1 PUSH1 0x1 ADD PUSH0 SWAP1 SLOAD SWAP1 PUSH2 0x100 EXP SWAP1 DIV PUSH20 0xFFFFFFFFFFFFFFFFFFFFFFFFFFFFFFFFFFFFFFFF AND SWAP1 DUP1 PUSH1 0x2 ADD SLOAD SWAP1 DUP1 PUSH1 0x3 ADD DUP1 SLOAD PUSH2 0xEA6 SWAP1 PUSH2 0x17D9 JUMP JUMPDEST DUP1 PUSH1 0x1F ADD PUSH1 0x20 DUP1 SWAP2 DIV MUL PUSH1 0x20 ADD PUSH1 0x40 MLOAD SWAP1 DUP2 ADD PUSH1 0x40 MSTORE DUP1 SWAP3 SWAP2 SWAP1 DUP2 DUP2 MSTORE PUSH1 0x20 ADD DUP3 DUP1 SLOAD PUSH2 0xED2 SWAP1 PUSH2 0x17D9 JUMP JUMPDEST DUP1 ISZERO PUSH2 0xF1D JUMPI DUP1 PUSH1 0x1F LT PUSH2 0xEF4 JUMPI PUSH2 0x100 DUP1 DUP4 SLOAD DIV MUL DUP4 MSTORE SWAP2 PUSH1 0x20 ADD SWAP2 PUSH2 0xF1D JUMP JUMPDEST DUP3 ADD SWAP2 SWAP1 PUSH0 MSTORE PUSH1 0x20 PUSH0 KECCAK256 SWAP1 JUMPDEST DUP2 SLOAD DUP2 MSTORE SWAP1 PUSH1 0x1 ADD SWAP1 PUSH1 0x20 ADD DUP1 DUP4 GT PUSH2 0xF00 JUMPI DUP3 SWAP1 SUB PUSH1 0x1F AND DUP3 ADD SWAP2 JUMPDEST POP POP POP POP POP SWAP1 DUP1 PUSH1 0x4 ADD DUP1 SLOAD PUSH2 0xF32 SWAP1 PUSH2 0x17D9 JUMP JUMPDEST DUP1 PUSH1 0x1F ADD PUSH1 0x20 DUP1 SWAP2 DIV MUL PUSH1 0x20 ADD PUSH1 0x40 MLOAD SWAP1 DUP2 ADD PUSH1 0x40 MSTORE DUP1 SWAP3 SWAP2 SWAP1 DUP2 DUP2 MSTORE PUSH1 0x20 ADD DUP3 DUP1 SLOAD PUSH2 0xF5E SWAP1 PUSH2 0x17D9 JUMP JUMPDEST DUP1 ISZERO PUSH2 0xFA9 JUMPI DUP1 PUSH1 0x1F LT PUSH2 0xF80 JUMPI PUSH2 0x100 DUP1 DUP4 SLOAD DIV MUL DUP4 MSTORE SWAP2 PUSH1 0x20 ADD SWAP2 PUSH2 0xFA9 JUMP JUMPDEST DUP3 ADD SWAP2 SWAP1 PUSH0 MSTORE PUSH1 0x20 PUSH0 KECCAK256 SWAP1 JUMPDEST DUP2 SLOAD DUP2 MSTORE SWAP1 PUSH1 0x1 ADD SWAP1 PUSH1 0x20 ADD DUP1 DUP4 GT PUSH2 0xF8C JUMPI DUP3 SWAP1 SUB PUSH1 0x1F AND DUP3 ADD SWAP2 JUMPDEST POP POP POP POP POP SWAP1 DUP1 PUSH1 0x5 ADD PUSH0 SWAP1 SLOAD SWAP1 PUSH2 0x100 EXP SWAP1 DIV PUSH1 0xFF AND SWAP1 DUP1 PUSH1 0x5 ADD PUSH1 0x1 SWAP1 SLOAD SWAP1 PUSH2 0x100 EXP SWAP1 DIV PUSH1 0xFF AND SWAP1 POP DUP8 JUMP JUMPDEST PUSH1 0x1 PUSH0 SWAP1 SLOAD SWAP1 PUSH2 0x100 EXP SWAP1 DIV PUSH20 0xFFFFFFFFFFFFFFFFFFFFFFFFFFFFFFFFFFFFFFFF AND DUP2 JUMP JUMPDEST PUSH0 DUP1 SLOAD SWAP1 PUSH2 0x100 EXP SWAP1 DIV PUSH20 0xFFFFFFFFFFFFFFFFFFFFFFFFFFFFFFFFFFFFFFFF AND DUP2 JUMP JUMPDEST PUSH0 PUSH1 0x40 MLOAD PUSH1 0x20 ADD PUSH2 0x1030 SWAP1 PUSH2 0x1E0C JUMP JUMPDEST PUSH1 0x40 MLOAD PUSH1 0x20 DUP2 DUP4 SUB SUB DUP2 MSTORE SWAP1 PUSH1 0x40 MSTORE DUP1 MLOAD SWAP1 PUSH1 0x20 ADD KECCAK256 DUP3 PUSH1 0x40 MLOAD PUSH1 0x20 ADD PUSH2 0x1057 SWAP2 SWAP1 PUSH2 0x1E50 JUMP JUMPDEST PUSH1 0x40 MLOAD PUSH1 0x20 DUP2 DUP4 SUB SUB DUP2 MSTORE SWAP1 PUSH1 0x40 MSTORE DUP1 MLOAD SWAP1 PUSH1 0x20 ADD KECCAK256 EQ DUP1 PUSH2 0x10C2 JUMPI POP PUSH1 0x40 MLOAD PUSH1 0x20 ADD PUSH2 0x1083 SWAP1 PUSH2 0x1EB0 JUMP JUMPDEST PUSH1 0x40 MLOAD PUSH1 0x20 DUP2 DUP4 SUB SUB DUP2 MSTORE SWAP1 PUSH1 0x40 MSTORE DUP1 MLOAD SWAP1 PUSH1 0x20 ADD KECCAK256 DUP3 PUSH1 0x40 MLOAD PUSH1 0x20 ADD PUSH2 0x10AA SWAP2 SWAP1 PUSH2 0x1E50 JUMP JUMPDEST PUSH1 0x40 MLOAD PUSH1 0x20 DUP2 DUP4 SUB SUB DUP2 MSTORE SWAP1 PUSH1 0x40 MSTORE DUP1 MLOAD SWAP1 PUSH1 0x20 ADD KECCAK256 EQ JUMPDEST SWAP1 POP SWAP2 SWAP1 POP JUMP JUMPDEST PUSH0 PUSH1 0x40 MLOAD PUSH1 0x20 ADD PUSH2 0x10D9 SWAP1 PUSH2 0x1EB0 JUMP JUMPDEST PUSH1 0x40 MLOAD PUSH1 0x20 DUP2 DUP4 SUB SUB DUP2 MSTORE SWAP1 PUSH1 0x40 MSTORE DUP1 MLOAD SWAP1 PUSH1 0x20 ADD KECCAK256 DUP4 PUSH1 0x40 MLOAD PUSH1 0x20 ADD PUSH2 0x1100 SWAP2 SWAP1 PUSH2 0x1E50 JUMP JUMPDEST PUSH1 0x40 MLOAD PUSH1 0x20 DUP2 DUP4 SUB SUB DUP2 MSTORE SWAP1 PUSH1 0x40 MSTORE DUP1 MLOAD SWAP1 PUSH1 0x20 ADD KECCAK256 EQ DUP1 ISZERO PUSH2 0x116C JUMPI POP PUSH1 0x40 MLOAD PUSH1 0x20 ADD PUSH2 0x112D SWAP1 PUSH2 0x1E0C JUMP JUMPDEST PUSH1 0x40 MLOAD PUSH1 0x20 DUP2 DUP4 SUB SUB DUP2 MSTORE SWAP1 PUSH1 0x40 MSTORE DUP1 MLOAD SWAP1 PUSH1 0x20 ADD KECCAK256 DUP3 PUSH1 0x40 MLOAD PUSH1 0x20 ADD PUSH2 0x1154 SWAP2 SWAP1 PUSH2 0x1E50 JUMP JUMPDEST PUSH1 0x40 MLOAD PUSH1 0x20 DUP2 DUP4 SUB SUB DUP2 MSTORE SWAP1 PUSH1 0x40 MSTORE DUP1 MLOAD SWAP1 PUSH1 0x20 ADD KECCAK256 EQ JUMPDEST ISZERO PUSH2 0x1179 JUMPI PUSH0 SWAP1 POP PUSH2 0x117E JUMP JUMPDEST PUSH1 0x1 SWAP1 POP JUMPDEST SWAP3 SWAP2 POP POP JUMP JUMPDEST PUSH0 PUSH1 0x40 MLOAD SWAP1 POP SWAP1 JUMP JUMPDEST PUSH0 DUP1 REVERT JUMPDEST PUSH0 DUP1 REVERT JUMPDEST PUSH0 DUP2 SWAP1 POP SWAP2 SWAP1 POP JUMP JUMPDEST PUSH2 0x11A7 DUP2 PUSH2 0x1195 JUMP JUMPDEST DUP2 EQ PUSH2 0x11B1 JUMPI PUSH0 DUP1 REVERT JUMPDEST POP JUMP JUMPDEST PUSH0 DUP2 CALLDATALOAD SWAP1 POP PUSH2 0x11C2 DUP2 PUSH2 0x119E JUMP JUMPDEST SWAP3 SWAP2 POP POP JUMP JUMPDEST PUSH0 DUP1 REVERT JUMPDEST PUSH0 DUP1 REVERT JUMPDEST PUSH0 PUSH1 0x1F NOT PUSH1 0x1F DUP4 ADD AND SWAP1 POP SWAP2 SWAP1 POP JUMP JUMPDEST PUSH32 0x4E487B7100000000000000000000000000000000000000000000000000000000 PUSH0 MSTORE PUSH1 0x41 PUSH1 0x4 MSTORE PUSH1 0x24 PUSH0 REVERT JUMPDEST PUSH2 0x1216 DUP3 PUSH2 0x11D0 JUMP JUMPDEST DUP2 ADD DUP2 DUP2 LT PUSH8 0xFFFFFFFFFFFFFFFF DUP3 GT OR ISZERO PUSH2 0x1235 JUMPI PUSH2 0x1234 PUSH2 0x11E0 JUMP JUMPDEST JUMPDEST DUP1 PUSH1 0x40 MSTORE POP POP POP JUMP JUMPDEST PUSH0 PUSH2 0x1247 PUSH2 0x1184 JUMP JUMPDEST SWAP1 POP PUSH2 0x1253 DUP3 DUP3 PUSH2 0x120D JUMP JUMPDEST SWAP2 SWAP1 POP JUMP JUMPDEST PUSH0 PUSH8 0xFFFFFFFFFFFFFFFF DUP3 GT ISZERO PUSH2 0x1272 JUMPI PUSH2 0x1271 PUSH2 0x11E0 JUMP JUMPDEST JUMPDEST PUSH2 0x127B DUP3 PUSH2 0x11D0 JUMP JUMPDEST SWAP1 POP PUSH1 0x20 DUP2 ADD SWAP1 POP SWAP2 SWAP1 POP JUMP JUMPDEST DUP3 DUP2 DUP4 CALLDATACOPY PUSH0 DUP4 DUP4 ADD MSTORE POP POP POP JUMP JUMPDEST PUSH0 PUSH2 0x12A8 PUSH2 0x12A3 DUP5 PUSH2 0x1258 JUMP JUMPDEST PUSH2 0x123E JUMP JUMPDEST SWAP1 POP DUP3 DUP2 MSTORE PUSH1 0x20 DUP2 ADD DUP5 DUP5 DUP5 ADD GT ISZERO PUSH2 0x12C4 JUMPI PUSH2 0x12C3 PUSH2 0x11CC JUMP JUMPDEST JUMPDEST PUSH2 0x12CF DUP5 DUP3 DUP6 PUSH2 0x1288 JUMP JUMPDEST POP SWAP4 SWAP3 POP POP POP JUMP JUMPDEST PUSH0 DUP3 PUSH1 0x1F DUP4 ADD SLT PUSH2 0x12EB JUMPI PUSH2 0x12EA PUSH2 0x11C8 JUMP JUMPDEST JUMPDEST DUP2 CALLDATALOAD PUSH2 0x12FB DUP5 DUP3 PUSH1 0x20 DUP7 ADD PUSH2 0x1296 JUMP JUMPDEST SWAP2 POP POP SWAP3 SWAP2 POP POP JUMP JUMPDEST PUSH0 DUP1 PUSH1 0x40 DUP4 DUP6 SUB SLT ISZERO PUSH2 0x131A JUMPI PUSH2 0x1319 PUSH2 0x118D JUMP JUMPDEST JUMPDEST PUSH0 PUSH2 0x1327 DUP6 DUP3 DUP7 ADD PUSH2 0x11B4 JUMP JUMPDEST SWAP3 POP POP PUSH1 0x20 DUP4 ADD CALLDATALOAD PUSH8 0xFFFFFFFFFFFFFFFF DUP2 GT ISZERO PUSH2 0x1348 JUMPI PUSH2 0x1347 PUSH2 0x1191 JUMP JUMPDEST JUMPDEST PUSH2 0x1354 DUP6 DUP3 DUP7 ADD PUSH2 0x12D7 JUMP JUMPDEST SWAP2 POP POP SWAP3 POP SWAP3 SWAP1 POP JUMP JUMPDEST PUSH0 PUSH20 0xFFFFFFFFFFFFFFFFFFFFFFFFFFFFFFFFFFFFFFFF DUP3 AND SWAP1 POP SWAP2 SWAP1 POP JUMP JUMPDEST PUSH0 PUSH2 0x1387 DUP3 PUSH2 0x135E JUMP JUMPDEST SWAP1 POP SWAP2 SWAP1 POP JUMP JUMPDEST PUSH2 0x1397 DUP2 PUSH2 0x137D JUMP JUMPDEST DUP2 EQ PUSH2 0x13A1 JUMPI PUSH0 DUP1 REVERT JUMPDEST POP JUMP JUMPDEST PUSH0 DUP2 CALLDATALOAD SWAP1 POP PUSH2 0x13B2 DUP2 PUSH2 0x138E JUMP JUMPDEST SWAP3 SWAP2 POP POP JUMP JUMPDEST PUSH0 DUP1 PUSH1 0x40 DUP4 DUP6 SUB SLT ISZERO PUSH2 0x13CE JUMPI PUSH2 0x13CD PUSH2 0x118D JUMP JUMPDEST JUMPDEST PUSH0 PUSH2 0x13DB DUP6 DUP3 DUP7 ADD PUSH2 0x13A4 JUMP JUMPDEST SWAP3 POP POP PUSH1 0x20 PUSH2 0x13EC DUP6 DUP3 DUP7 ADD PUSH2 0x11B4 JUMP JUMPDEST SWAP2 POP POP SWAP3 POP SWAP3 SWAP1 POP JUMP JUMPDEST PUSH0 PUSH1 0x20 DUP3 DUP5 SUB SLT ISZERO PUSH2 0x140B JUMPI PUSH2 0x140A PUSH2 0x118D JUMP JUMPDEST JUMPDEST PUSH0 PUSH2 0x1418 DUP5 DUP3 DUP6 ADD PUSH2 0x11B4 JUMP JUMPDEST SWAP2 POP POP SWAP3 SWAP2 POP POP JUMP JUMPDEST PUSH2 0x142A DUP2 PUSH2 0x137D JUMP JUMPDEST DUP3 MSTORE POP POP JUMP JUMPDEST PUSH2 0x1439 DUP2 PUSH2 0x1195 JUMP JUMPDEST DUP3 MSTORE POP POP JUMP JUMPDEST PUSH0 DUP2 MLOAD SWAP1 POP SWAP2 SWAP1 POP JUMP JUMPDEST PUSH0 DUP3 DUP3 MSTORE PUSH1 0x20 DUP3 ADD SWAP1 POP SWAP3 SWAP2 POP POP JUMP JUMPDEST PUSH0 JUMPDEST DUP4 DUP2 LT ISZERO PUSH2 0x1476 JUMPI DUP1 DUP3 ADD MLOAD DUP2 DUP5 ADD MSTORE PUSH1 0x20 DUP2 ADD SWAP1 POP PUSH2 0x145B JUMP JUMPDEST PUSH0 DUP5 DUP5 ADD MSTORE POP POP POP POP JUMP JUMPDEST PUSH0 PUSH2 0x148B DUP3 PUSH2 0x143F JUMP JUMPDEST PUSH2 0x1495 DUP2 DUP6 PUSH2 0x1449 JUMP JUMPDEST SWAP4 POP PUSH2 0x14A5 DUP2 DUP6 PUSH1 0x20 DUP7 ADD PUSH2 0x1459 JUMP JUMPDEST PUSH2 0x14AE DUP2 PUSH2 0x11D0 JUMP JUMPDEST DUP5 ADD SWAP2 POP POP SWAP3 SWAP2 POP POP JUMP JUMPDEST PUSH0 DUP2 ISZERO ISZERO SWAP1 POP SWAP2 SWAP1 POP JUMP JUMPDEST PUSH2 0x14CD DUP2 PUSH2 0x14B9 JUMP JUMPDEST DUP3 MSTORE POP POP JUMP JUMPDEST PUSH0 PUSH1 0xE0 DUP3 ADD SWAP1 POP PUSH2 0x14E6 PUSH0 DUP4 ADD DUP11 PUSH2 0x1421 JUMP JUMPDEST PUSH2 0x14F3 PUSH1 0x20 DUP4 ADD DUP10 PUSH2 0x1421 JUMP JUMPDEST PUSH2 0x1500 PUSH1 0x40 DUP4 ADD DUP9 PUSH2 0x1430 JUMP JUMPDEST DUP2 DUP2 SUB PUSH1 0x60 DUP4 ADD MSTORE PUSH2 0x1512 DUP2 DUP8 PUSH2 0x1481 JUMP JUMPDEST SWAP1 POP DUP2 DUP2 SUB PUSH1 0x80 DUP4 ADD MSTORE PUSH2 0x1526 DUP2 DUP7 PUSH2 0x1481 JUMP JUMPDEST SWAP1 POP PUSH2 0x1535 PUSH1 0xA0 DUP4 ADD DUP6 PUSH2 0x14C4 JUMP JUMPDEST PUSH2 0x1542 PUSH1 0xC0 DUP4 ADD DUP5 PUSH2 0x14C4 JUMP JUMPDEST SWAP9 SWAP8 POP POP POP POP POP POP POP POP JUMP JUMPDEST PUSH0 PUSH1 0x20 DUP3 ADD SWAP1 POP DUP2 DUP2 SUB PUSH0 DUP4 ADD MSTORE PUSH2 0x1566 DUP2 DUP5 PUSH2 0x1481 JUMP JUMPDEST SWAP1 POP SWAP3 SWAP2 POP POP JUMP JUMPDEST PUSH0 PUSH1 0x20 DUP3 ADD SWAP1 POP PUSH2 0x1581 PUSH0 DUP4 ADD DUP5 PUSH2 0x1421 JUMP JUMPDEST SWAP3 SWAP2 POP POP JUMP JUMPDEST PUSH0 DUP2 SWAP1 POP SWAP2 SWAP1 POP JUMP JUMPDEST PUSH0 PUSH2 0x15AA PUSH2 0x15A5 PUSH2 0x15A0 DUP5 PUSH2 0x135E JUMP JUMPDEST PUSH2 0x1587 JUMP JUMPDEST PUSH2 0x135E JUMP JUMPDEST SWAP1 POP SWAP2 SWAP1 POP JUMP JUMPDEST PUSH0 PUSH2 0x15BB DUP3 PUSH2 0x1590 JUMP JUMPDEST SWAP1 POP SWAP2 SWAP1 POP JUMP JUMPDEST PUSH0 PUSH2 0x15CC DUP3 PUSH2 0x15B1 JUMP JUMPDEST SWAP1 POP SWAP2 SWAP1 POP JUMP JUMPDEST PUSH2 0x15DC DUP2 PUSH2 0x15C2 JUMP JUMPDEST DUP3 MSTORE POP POP JUMP JUMPDEST PUSH0 PUSH1 0x20 DUP3 ADD SWAP1 POP PUSH2 0x15F5 PUSH0 DUP4 ADD DUP5 PUSH2 0x15D3 JUMP JUMPDEST SWAP3 SWAP2 POP POP JUMP JUMPDEST PUSH32 0x4F6E6C79207468652073797374656D20636F6E74726163742063616E20736574 PUSH0 DUP3 ADD MSTORE PUSH32 0x746C65207472616E73616374696F6E732E000000000000000000000000000000 PUSH1 0x20 DUP3 ADD MSTORE POP JUMP JUMPDEST PUSH0 PUSH2 0x1655 PUSH1 0x31 DUP4 PUSH2 0x1449 JUMP JUMPDEST SWAP2 POP PUSH2 0x1660 DUP3 PUSH2 0x15FB JUMP JUMPDEST PUSH1 0x40 DUP3 ADD SWAP1 POP SWAP2 SWAP1 POP JUMP JUMPDEST PUSH0 PUSH1 0x20 DUP3 ADD SWAP1 POP DUP2 DUP2 SUB PUSH0 DUP4 ADD MSTORE PUSH2 0x1682 DUP2 PUSH2 0x1649 JUMP JUMPDEST SWAP1 POP SWAP2 SWAP1 POP JUMP JUMPDEST PUSH32 0x4E487B7100000000000000000000000000000000000000000000000000000000 PUSH0 MSTORE PUSH1 0x32 PUSH1 0x4 MSTORE PUSH1 0x24 PUSH0 REVERT JUMPDEST PUSH32 0x5472616E73616374696F6E20697320616C726561647920736574746C6564206F PUSH0 DUP3 ADD MSTORE PUSH32 0x722063616E63656C6C65642E0000000000000000000000000000000000000000 PUSH1 0x20 DUP3 ADD MSTORE POP JUMP JUMPDEST PUSH0 PUSH2 0x1710 PUSH1 0x2C DUP4 PUSH2 0x1449 JUMP JUMPDEST SWAP2 POP PUSH2 0x171B DUP3 PUSH2 0x16B6 JUMP JUMPDEST PUSH1 0x40 DUP3 ADD SWAP1 POP SWAP2 SWAP1 POP JUMP JUMPDEST PUSH0 PUSH1 0x20 DUP3 ADD SWAP1 POP DUP2 DUP2 SUB PUSH0 DUP4 ADD MSTORE PUSH2 0x173D DUP2 PUSH2 0x1704 JUMP JUMPDEST SWAP1 POP SWAP2 SWAP1 POP JUMP JUMPDEST PUSH32 0x496E76616C696420736574746C656D656E7420706572696F6400000000000000 PUSH0 DUP3 ADD MSTORE POP JUMP JUMPDEST PUSH0 PUSH2 0x1778 PUSH1 0x19 DUP4 PUSH2 0x1449 JUMP JUMPDEST SWAP2 POP PUSH2 0x1783 DUP3 PUSH2 0x1744 JUMP JUMPDEST PUSH1 0x20 DUP3 ADD SWAP1 POP SWAP2 SWAP1 POP JUMP JUMPDEST PUSH0 PUSH1 0x20 DUP3 ADD SWAP1 POP DUP2 DUP2 SUB PUSH0 DUP4 ADD MSTORE PUSH2 0x17A5 DUP2 PUSH2 0x176C JUMP JUMPDEST SWAP1 POP SWAP2 SWAP1 POP JUMP JUMPDEST PUSH32 0x4E487B7100000000000000000000000000000000000000000000000000000000 PUSH0 MSTORE PUSH1 0x22 PUSH1 0x4 MSTORE PUSH1 0x24 PUSH0 REVERT JUMPDEST PUSH0 PUSH1 0x2 DUP3 DIV SWAP1 POP PUSH1 0x1 DUP3 AND DUP1 PUSH2 0x17F0 JUMPI PUSH1 0x7F DUP3 AND SWAP2 POP JUMPDEST PUSH1 0x20 DUP3 LT DUP2 SUB PUSH2 0x1803 JUMPI PUSH2 0x1802 PUSH2 0x17AC JUMP JUMPDEST JUMPDEST POP SWAP2 SWAP1 POP JUMP JUMPDEST PUSH32 0x536574746C656D656E7420706572696F6420696E76616C696420666F72207468 PUSH0 DUP3 ADD MSTORE PUSH32 0x6520676976656E206372656174696F6E20706572696F64000000000000000000 PUSH1 0x20 DUP3 ADD MSTORE POP JUMP JUMPDEST PUSH0 PUSH2 0x1863 PUSH1 0x37 DUP4 PUSH2 0x1449 JUMP JUMPDEST SWAP2 POP PUSH2 0x186E DUP3 PUSH2 0x1809 JUMP JUMPDEST PUSH1 0x40 DUP3 ADD SWAP1 POP SWAP2 SWAP1 POP JUMP JUMPDEST PUSH0 PUSH1 0x20 DUP3 ADD SWAP1 POP DUP2 DUP2 SUB PUSH0 DUP4 ADD MSTORE PUSH2 0x1890 DUP2 PUSH2 0x1857 JUMP JUMPDEST SWAP1 POP SWAP2 SWAP1 POP JUMP JUMPDEST PUSH0 DUP2 SWAP1 POP DUP2 PUSH0 MSTORE PUSH1 0x20 PUSH0 KECCAK256 SWAP1 POP SWAP2 SWAP1 POP JUMP JUMPDEST PUSH0 PUSH1 0x20 PUSH1 0x1F DUP4 ADD DIV SWAP1 POP SWAP2 SWAP1 POP JUMP JUMPDEST PUSH0 DUP3 DUP3 SHL SWAP1 POP SWAP3 SWAP2 POP POP JUMP JUMPDEST PUSH0 PUSH1 0x8 DUP4 MUL PUSH2 0x18F3 PUSH32 0xFFFFFFFFFFFFFFFFFFFFFFFFFFFFFFFFFFFFFFFFFFFFFFFFFFFFFFFFFFFFFFFF DUP3 PUSH2 0x18B8 JUMP JUMPDEST PUSH2 0x18FD DUP7 DUP4 PUSH2 0x18B8 JUMP JUMPDEST SWAP6 POP DUP1 NOT DUP5 AND SWAP4 POP DUP1 DUP7 AND DUP5 OR SWAP3 POP POP POP SWAP4 SWAP3 POP POP POP JUMP JUMPDEST PUSH0 PUSH2 0x192F PUSH2 0x192A PUSH2 0x1925 DUP5 PUSH2 0x1195 JUMP JUMPDEST PUSH2 0x1587 JUMP JUMPDEST PUSH2 0x1195 JUMP JUMPDEST SWAP1 POP SWAP2 SWAP1 POP JUMP JUMPDEST PUSH0 DUP2 SWAP1 POP SWAP2 SWAP1 POP JUMP JUMPDEST PUSH2 0x1948 DUP4 PUSH2 0x1915 JUMP JUMPDEST PUSH2 0x195C PUSH2 0x1954 DUP3 PUSH2 0x1936 JUMP JUMPDEST DUP5 DUP5 SLOAD PUSH2 0x18C4 JUMP JUMPDEST DUP3 SSTORE POP POP POP POP JUMP JUMPDEST PUSH0 SWAP1 JUMP JUMPDEST PUSH2 0x1970 PUSH2 0x1964 JUMP JUMPDEST PUSH2 0x197B DUP2 DUP5 DUP5 PUSH2 0x193F JUMP JUMPDEST POP POP POP JUMP JUMPDEST JUMPDEST DUP2 DUP2 LT ISZERO PUSH2 0x199E JUMPI PUSH2 0x1993 PUSH0 DUP3 PUSH2 0x1968 JUMP JUMPDEST PUSH1 0x1 DUP2 ADD SWAP1 POP PUSH2 0x1981 JUMP JUMPDEST POP POP JUMP JUMPDEST PUSH1 0x1F DUP3 GT ISZERO PUSH2 0x19E3 JUMPI PUSH2 0x19B4 DUP2 PUSH2 0x1897 JUMP JUMPDEST PUSH2 0x19BD DUP5 PUSH2 0x18A9 JUMP JUMPDEST DUP2 ADD PUSH1 0x20 DUP6 LT ISZERO PUSH2 0x19CC JUMPI DUP2 SWAP1 POP JUMPDEST PUSH2 0x19E0 PUSH2 0x19D8 DUP6 PUSH2 0x18A9 JUMP JUMPDEST DUP4 ADD DUP3 PUSH2 0x1980 JUMP JUMPDEST POP POP JUMPDEST POP POP POP JUMP JUMPDEST PUSH0 DUP3 DUP3 SHR SWAP1 POP SWAP3 SWAP2 POP POP JUMP JUMPDEST PUSH0 PUSH2 0x1A03 PUSH0 NOT DUP5 PUSH1 0x8 MUL PUSH2 0x19E8 JUMP JUMPDEST NOT DUP1 DUP4 AND SWAP2 POP POP SWAP3 SWAP2 POP POP JUMP JUMPDEST PUSH0 PUSH2 0x1A1B DUP4 DUP4 PUSH2 0x19F4 JUMP JUMPDEST SWAP2 POP DUP3 PUSH1 0x2 MUL DUP3 OR SWAP1 POP SWAP3 SWAP2 POP POP JUMP JUMPDEST PUSH2 0x1A34 DUP3 PUSH2 0x143F JUMP JUMPDEST PUSH8 0xFFFFFFFFFFFFFFFF DUP2 GT ISZERO PUSH2 0x1A4D JUMPI PUSH2 0x1A4C PUSH2 0x11E0 JUMP JUMPDEST JUMPDEST PUSH2 0x1A57 DUP3 SLOAD PUSH2 0x17D9 JUMP JUMPDEST PUSH2 0x1A62 DUP3 DUP3 DUP6 PUSH2 0x19A2 JUMP JUMPDEST PUSH0 PUSH1 0x20 SWAP1 POP PUSH1 0x1F DUP4 GT PUSH1 0x1 DUP2 EQ PUSH2 0x1A93 JUMPI PUSH0 DUP5 ISZERO PUSH2 0x1A81 JUMPI DUP3 DUP8 ADD MLOAD SWAP1 POP JUMPDEST PUSH2 0x1A8B DUP6 DUP3 PUSH2 0x1A10 JUMP JUMPDEST DUP7 SSTORE POP PUSH2 0x1AF2 JUMP JUMPDEST PUSH1 0x1F NOT DUP5 AND PUSH2 0x1AA1 DUP7 PUSH2 0x1897 JUMP JUMPDEST PUSH0 JUMPDEST DUP3 DUP2 LT ISZERO PUSH2 0x1AC8 JUMPI DUP5 DUP10 ADD MLOAD DUP3 SSTORE PUSH1 0x1 DUP3 ADD SWAP2 POP PUSH1 0x20 DUP6 ADD SWAP5 POP PUSH1 0x20 DUP2 ADD SWAP1 POP PUSH2 0x1AA3 JUMP JUMPDEST DUP7 DUP4 LT ISZERO PUSH2 0x1AE5 JUMPI DUP5 DUP10 ADD MLOAD PUSH2 0x1AE1 PUSH1 0x1F DUP10 AND DUP3 PUSH2 0x19F4 JUMP JUMPDEST DUP4 SSTORE POP JUMPDEST PUSH1 0x1 PUSH1 0x2 DUP9 MUL ADD DUP9 SSTORE POP POP POP JUMPDEST POP POP POP POP POP POP JUMP JUMPDEST PUSH0 PUSH1 0x40 DUP3 ADD SWAP1 POP PUSH2 0x1B0D PUSH0 DUP4 ADD DUP6 PUSH2 0x1421 JUMP JUMPDEST PUSH2 0x1B1A PUSH1 0x20 DUP4 ADD DUP5 PUSH2 0x1430 JUMP JUMPDEST SWAP4 SWAP3 POP POP POP JUMP JUMPDEST PUSH2 0x1B2A DUP2 PUSH2 0x14B9 JUMP JUMPDEST DUP2 EQ PUSH2 0x1B34 JUMPI PUSH0 DUP1 REVERT JUMPDEST POP JUMP JUMPDEST PUSH0 DUP2 MLOAD SWAP1 POP PUSH2 0x1B45 DUP2 PUSH2 0x1B21 JUMP JUMPDEST SWAP3 SWAP2 POP POP JUMP JUMPDEST PUSH0 PUSH1 0x20 DUP3 DUP5 SUB SLT ISZERO PUSH2 0x1B60 JUMPI PUSH2 0x1B5F PUSH2 0x118D JUMP JUMPDEST JUMPDEST PUSH0 PUSH2 0x1B6D DUP5 DUP3 DUP6 ADD PUSH2 0x1B37 JUMP JUMPDEST SWAP2 POP POP SWAP3 SWAP2 POP POP JUMP JUMPDEST PUSH32 0x5472616E73666572206661696C65640000000000000000000000000000000000 PUSH0 DUP3 ADD MSTORE POP JUMP JUMPDEST PUSH0 PUSH2 0x1BAA PUSH1 0xF DUP4 PUSH2 0x1449 JUMP JUMPDEST SWAP2 POP PUSH2 0x1BB5 DUP3 PUSH2 0x1B76 JUMP JUMPDEST PUSH1 0x20 DUP3 ADD SWAP1 POP SWAP2 SWAP1 POP JUMP JUMPDEST PUSH0 PUSH1 0x20 DUP3 ADD SWAP1 POP DUP2 DUP2 SUB PUSH0 DUP4 ADD MSTORE PUSH2 0x1BD7 DUP2 PUSH2 0x1B9E JUMP JUMPDEST SWAP1 POP SWAP2 SWAP1 POP JUMP JUMPDEST PUSH0 PUSH1 0x60 DUP3 ADD SWAP1 POP PUSH2 0x1BF1 PUSH0 DUP4 ADD DUP7 PUSH2 0x1421 JUMP JUMPDEST PUSH2 0x1BFE PUSH1 0x20 DUP4 ADD DUP6 PUSH2 0x1421 JUMP JUMPDEST PUSH2 0x1C0B PUSH1 0x40 DUP4 ADD DUP5 PUSH2 0x1430 JUMP JUMPDEST SWAP5 SWAP4 POP POP POP POP JUMP JUMPDEST PUSH0 DUP2 SLOAD PUSH2 0x1C1F DUP2 PUSH2 0x17D9 JUMP JUMPDEST PUSH2 0x1C29 DUP2 DUP7 PUSH2 0x1449 JUMP JUMPDEST SWAP5 POP PUSH1 0x1 DUP3 AND PUSH0 DUP2 EQ PUSH2 0x1C43 JUMPI PUSH1 0x1 DUP2 EQ PUSH2 0x1C59 JUMPI PUSH2 0x1C8B JUMP JUMPDEST PUSH1 0xFF NOT DUP4 AND DUP7 MSTORE DUP2 ISZERO ISZERO PUSH1 0x20 MUL DUP7 ADD SWAP4 POP PUSH2 0x1C8B JUMP JUMPDEST PUSH2 0x1C62 DUP6 PUSH2 0x1897 JUMP JUMPDEST PUSH0 JUMPDEST DUP4 DUP2 LT ISZERO PUSH2 0x1C83 JUMPI DUP2 SLOAD DUP2 DUP10 ADD MSTORE PUSH1 0x1 DUP3 ADD SWAP2 POP PUSH1 0x20 DUP2 ADD SWAP1 POP PUSH2 0x1C64 JUMP JUMPDEST DUP1 DUP9 ADD SWAP6 POP POP POP JUMPDEST POP POP POP SWAP3 SWAP2 POP POP JUMP JUMPDEST PUSH0 PUSH1 0x40 DUP3 ADD SWAP1 POP PUSH2 0x1CA7 PUSH0 DUP4 ADD DUP6 PUSH2 0x1430 JUMP JUMPDEST DUP2 DUP2 SUB PUSH1 0x20 DUP4 ADD MSTORE PUSH2 0x1CB9 DUP2 DUP5 PUSH2 0x1C13 JUMP JUMPDEST SWAP1 POP SWAP4 SWAP3 POP POP POP JUMP JUMPDEST PUSH32 0x4F6E6C7920746865207061796F722063616E2063616E63656C20746865207472 PUSH0 DUP3 ADD MSTORE PUSH32 0x616E73616374696F6E2E00000000000000000000000000000000000000000000 PUSH1 0x20 DUP3 ADD MSTORE POP JUMP JUMPDEST PUSH0 PUSH2 0x1D1C PUSH1 0x2A DUP4 PUSH2 0x1449 JUMP JUMPDEST SWAP2 POP PUSH2 0x1D27 DUP3 PUSH2 0x1CC2 JUMP JUMPDEST PUSH1 0x40 DUP3 ADD SWAP1 POP SWAP2 SWAP1 POP JUMP JUMPDEST PUSH0 PUSH1 0x20 DUP3 ADD SWAP1 POP DUP2 DUP2 SUB PUSH0 DUP4 ADD MSTORE PUSH2 0x1D49 DUP2 PUSH2 0x1D10 JUMP JUMPDEST SWAP1 POP SWAP2 SWAP1 POP JUMP JUMPDEST PUSH32 0x526566756E64206661696C656400000000000000000000000000000000000000 PUSH0 DUP3 ADD MSTORE POP JUMP JUMPDEST PUSH0 PUSH2 0x1D84 PUSH1 0xD DUP4 PUSH2 0x1449 JUMP JUMPDEST SWAP2 POP PUSH2 0x1D8F DUP3 PUSH2 0x1D50 JUMP JUMPDEST PUSH1 0x20 DUP3 ADD SWAP1 POP SWAP2 SWAP1 POP JUMP JUMPDEST PUSH0 PUSH1 0x20 DUP3 ADD SWAP1 POP DUP2 DUP2 SUB PUSH0 DUP4 ADD MSTORE PUSH2 0x1DB1 DUP2 PUSH2 0x1D78 JUMP JUMPDEST SWAP1 POP SWAP2 SWAP1 POP JUMP JUMPDEST PUSH0 DUP2 SWAP1 POP SWAP3 SWAP2 POP POP JUMP JUMPDEST PUSH32 0x6D6F726E696E6700000000000000000000000000000000000000000000000000 PUSH0 DUP3 ADD MSTORE POP JUMP JUMPDEST PUSH0 PUSH2 0x1DF6 PUSH1 0x7 DUP4 PUSH2 0x1DB8 JUMP JUMPDEST SWAP2 POP PUSH2 0x1E01 DUP3 PUSH2 0x1DC2 JUMP JUMPDEST PUSH1 0x7 DUP3 ADD SWAP1 POP SWAP2 SWAP1 POP JUMP JUMPDEST PUSH0 PUSH2 0x1E16 DUP3 PUSH2 0x1DEA JUMP JUMPDEST SWAP2 POP DUP2 SWAP1 POP SWAP2 SWAP1 POP JUMP JUMPDEST PUSH0 PUSH2 0x1E2A DUP3 PUSH2 0x143F JUMP JUMPDEST PUSH2 0x1E34 DUP2 DUP6 PUSH2 0x1DB8 JUMP JUMPDEST SWAP4 POP PUSH2 0x1E44 DUP2 DUP6 PUSH1 0x20 DUP7 ADD PUSH2 0x1459 JUMP JUMPDEST DUP1 DUP5 ADD SWAP2 POP POP SWAP3 SWAP2 POP POP JUMP JUMPDEST PUSH0 PUSH2 0x1E5B DUP3 DUP5 PUSH2 0x1E20 JUMP JUMPDEST SWAP2 POP DUP2 SWAP1 POP SWAP3 SWAP2 POP POP JUMP JUMPDEST PUSH32 0x61667465726E6F6F6E0000000000000000000000000000000000000000000000 PUSH0 DUP3 ADD MSTORE POP JUMP JUMPDEST PUSH0 PUSH2 0x1E9A PUSH1 0x9 DUP4 PUSH2 0x1DB8 JUMP JUMPDEST SWAP2 POP PUSH2 0x1EA5 DUP3 PUSH2 0x1E66 JUMP JUMPDEST PUSH1 0x9 DUP3 ADD SWAP1 POP SWAP2 SWAP1 POP JUMP JUMPDEST PUSH0 PUSH2 0x1EBA DUP3 PUSH2 0x1E8E JUMP JUMPDEST SWAP2 POP DUP2 SWAP1 POP SWAP2 SWAP1 POP JUMP INVALID LOG2 PUSH5 0x6970667358 0x22 SLT KECCAK256 0xCC 0xB1 0x25 0x4D LOG1 DUP4 DUP4 PUSH3 0xBEACE 0xEE 0xE4 SWAP10 LOG1 SWAP11 0x4E SWAP15 SWAP7 PUSH0 0xD1 0xAF 0xED 0xBB MSIZE SWAP4 0xB3 POP PUSH19 0xAA873964736F6C634300081600330000000000 "
				},
				"gasEstimates": {
					"creation": {
						"codeDepositCost": "1586000",
						"executionCost": "infinite",
						"totalCost": "infinite"
					},
					"external": {
						"cancelTransaction(uint256)": "infinite",
						"cbdcToken()": "infinite",
						"contractPeriod()": "infinite",
						"createTransaction(address,uint256)": "infinite",
						"getTransaction(uint256)": "infinite",
						"loadIntoSystemContract()": "143",
						"settleTransaction(uint256,string)": "infinite",
						"systemContract()": "2574",
						"transactions(uint256)": "infinite"
					},
					"internal": {
						"isValidPeriod(string memory)": "infinite",
						"isValidSettlementPeriod(string memory,string memory)": "infinite"
					}
				},
				"methodIdentifiers": {
					"cancelTransaction(uint256)": "3380c0d8",
					"cbdcToken()": "e10173b6",
					"contractPeriod()": "8862cca1",
					"createTransaction(address,uint256)": "1e7f8f0f",
					"getTransaction(uint256)": "33ea3dc8",
					"loadIntoSystemContract()": "4fd5e730",
					"settleTransaction(uint256,string)": "039969f4",
					"systemContract()": "bb88b769",
					"transactions(uint256)": "9ace38c2"
				}
			},
			"storageLayout": {
				"storage": [
					{
						"astId": 83,
						"contract": "contracts/transactions.sol:Transactions",
						"label": "cbdcToken",
						"offset": 0,
						"slot": "0",
						"type": "t_contract(IERC20)77"
					},
					{
						"astId": 85,
						"contract": "contracts/transactions.sol:Transactions",
						"label": "systemContract",
						"offset": 0,
						"slot": "1",
						"type": "t_address"
					},
					{
						"astId": 87,
						"contract": "contracts/transactions.sol:Transactions",
						"label": "contractPeriod",
						"offset": 0,
						"slot": "2",
						"type": "t_string_storage"
					},
					{
						"astId": 106,
						"contract": "contracts/transactions.sol:Transactions",
						"label": "transactions",
						"offset": 0,
						"slot": "3",
						"type": "t_array(t_struct(Transaction)102_storage)dyn_storage"
					}
				],
				"types": {
					"t_address": {
						"encoding": "inplace",
						"label": "address",
						"numberOfBytes": "20"
					},
					"t_array(t_struct(Transaction)102_storage)dyn_storage": {
						"base": "t_struct(Transaction)102_storage",
						"encoding": "dynamic_array",
						"label": "struct Transactions.Transaction[]",
						"numberOfBytes": "32"
					},
					"t_bool": {
						"encoding": "inplace",
						"label": "bool",
						"numberOfBytes": "1"
					},
					"t_contract(IERC20)77": {
						"encoding": "inplace",
						"label": "contract IERC20",
						"numberOfBytes": "20"
					},
					"t_string_storage": {
						"encoding": "bytes",
						"label": "string",
						"numberOfBytes": "32"
					},
					"t_struct(Transaction)102_storage": {
						"encoding": "inplace",
						"label": "struct Transactions.Transaction",
						"members": [
							{
								"astId": 89,
								"contract": "contracts/transactions.sol:Transactions",
								"label": "payor",
								"offset": 0,
								"slot": "0",
								"type": "t_address"
							},
							{
								"astId": 91,
								"contract": "contracts/transactions.sol:Transactions",
								"label": "recipient",
								"offset": 0,
								"slot": "1",
								"type": "t_address"
							},
							{
								"astId": 93,
								"contract": "contracts/transactions.sol:Transactions",
								"label": "amount",
								"offset": 0,
								"slot": "2",
								"type": "t_uint256"
							},
							{
								"astId": 95,
								"contract": "contracts/transactions.sol:Transactions",
								"label": "creationPeriod",
								"offset": 0,
								"slot": "3",
								"type": "t_string_storage"
							},
							{
								"astId": 97,
								"contract": "contracts/transactions.sol:Transactions",
								"label": "settlementPeriod",
								"offset": 0,
								"slot": "4",
								"type": "t_string_storage"
							},
							{
								"astId": 99,
								"contract": "contracts/transactions.sol:Transactions",
								"label": "isOpen",
								"offset": 0,
								"slot": "5",
								"type": "t_bool"
							},
							{
								"astId": 101,
								"contract": "contracts/transactions.sol:Transactions",
								"label": "isCancelled",
								"offset": 1,
								"slot": "5",
								"type": "t_bool"
							}
						],
						"numberOfBytes": "192"
					},
					"t_uint256": {
						"encoding": "inplace",
						"label": "uint256",
						"numberOfBytes": "32"
					}
				}
			},
			"userdoc": {
				"kind": "user",
				"methods": {},
				"version": 1
			}
		}
	}
}