{
  "contractName": "CBDC",
  "abi": [
    {
      "inputs": [],
      "stateMutability": "nonpayable",
      "type": "constructor"
    },
    {
      "inputs": [],
      "name": "ECDSAInvalidSignature",
      "type": "error"
    },
    {
      "inputs": [
        {
          "internalType": "uint256",
          "name": "length",
          "type": "uint256"
        }
      ],
      "name": "ECDSAInvalidSignatureLength",
      "type": "error"
    },
    {
      "inputs": [
        {
          "internalType": "bytes32",
          "name": "s",
          "type": "bytes32"
        }
      ],
      "name": "ECDSAInvalidSignatureS",
      "type": "error"
    },
    {
      "inputs": [
        {
          "internalType": "address",
          "name": "spender",
          "type": "address"
        },
        {
          "internalType": "uint256",
          "name": "allowance",
          "type": "uint256"
        },
        {
          "internalType": "uint256",
          "name": "needed",
          "type": "uint256"
        }
      ],
      "name": "ERC20InsufficientAllowance",
      "type": "error"
    },
    {
      "inputs": [
        {
          "internalType": "address",
          "name": "sender",
          "type": "address"
        },
        {
          "internalType": "uint256",
          "name": "balance",
          "type": "uint256"
        },
        {
          "internalType": "uint256",
          "name": "needed",
          "type": "uint256"
        }
      ],
      "name": "ERC20InsufficientBalance",
      "type": "error"
    },
    {
      "inputs": [
        {
          "internalType": "address",
          "name": "approver",
          "type": "address"
        }
      ],
      "name": "ERC20InvalidApprover",
      "type": "error"
    },
    {
      "inputs": [
        {
          "internalType": "address",
          "name": "receiver",
          "type": "address"
        }
      ],
      "name": "ERC20InvalidReceiver",
      "type": "error"
    },
    {
      "inputs": [
        {
          "internalType": "address",
          "name": "sender",
          "type": "address"
        }
      ],
      "name": "ERC20InvalidSender",
      "type": "error"
    },
    {
      "inputs": [
        {
          "internalType": "address",
          "name": "spender",
          "type": "address"
        }
      ],
      "name": "ERC20InvalidSpender",
      "type": "error"
    },
    {
      "inputs": [
        {
          "internalType": "uint256",
          "name": "deadline",
          "type": "uint256"
        }
      ],
      "name": "ERC2612ExpiredSignature",
      "type": "error"
    },
    {
      "inputs": [
        {
          "internalType": "address",
          "name": "signer",
          "type": "address"
        },
        {
          "internalType": "address",
          "name": "owner",
          "type": "address"
        }
      ],
      "name": "ERC2612InvalidSigner",
      "type": "error"
    },
    {
      "inputs": [
        {
          "internalType": "address",
          "name": "account",
          "type": "address"
        },
        {
          "internalType": "uint256",
          "name": "currentNonce",
          "type": "uint256"
        }
      ],
      "name": "InvalidAccountNonce",
      "type": "error"
    },
    {
      "inputs": [],
      "name": "InvalidShortString",
      "type": "error"
    },
    {
      "inputs": [
        {
          "internalType": "address",
          "name": "owner",
          "type": "address"
        }
      ],
      "name": "OwnableInvalidOwner",
      "type": "error"
    },
    {
      "inputs": [
        {
          "internalType": "address",
          "name": "account",
          "type": "address"
        }
      ],
      "name": "OwnableUnauthorizedAccount",
      "type": "error"
    },
    {
      "inputs": [
        {
          "internalType": "string",
          "name": "str",
          "type": "string"
        }
      ],
      "name": "StringTooLong",
      "type": "error"
    },
    {
      "anonymous": false,
      "inputs": [
        {
          "indexed": true,
          "internalType": "address",
          "name": "owner",
          "type": "address"
        },
        {
          "indexed": true,
          "internalType": "address",
          "name": "spender",
          "type": "address"
        },
        {
          "indexed": false,
          "internalType": "uint256",
          "name": "value",
          "type": "uint256"
        }
      ],
      "name": "Approval",
      "type": "event"
    },
    {
      "anonymous": false,
      "inputs": [],
      "name": "EIP712DomainChanged",
      "type": "event"
    },
    {
      "anonymous": false,
      "inputs": [
        {
          "indexed": true,
          "internalType": "address",
          "name": "previousOwner",
          "type": "address"
        },
        {
          "indexed": true,
          "internalType": "address",
          "name": "newOwner",
          "type": "address"
        }
      ],
      "name": "OwnershipTransferred",
      "type": "event"
    },
    {
      "anonymous": false,
      "inputs": [
        {
          "indexed": true,
          "internalType": "address",
          "name": "from",
          "type": "address"
        },
        {
          "indexed": true,
          "internalType": "address",
          "name": "to",
          "type": "address"
        },
        {
          "indexed": false,
          "internalType": "uint256",
          "name": "value",
          "type": "uint256"
        }
      ],
      "name": "Transfer",
      "type": "event"
    },
    {
      "inputs": [],
      "name": "DOMAIN_SEPARATOR",
      "outputs": [
        {
          "internalType": "bytes32",
          "name": "",
          "type": "bytes32"
        }
      ],
      "stateMutability": "view",
      "type": "function"
    },
    {
      "inputs": [
        {
          "internalType": "address",
          "name": "owner",
          "type": "address"
        },
        {
          "internalType": "address",
          "name": "spender",
          "type": "address"
        }
      ],
      "name": "allowance",
      "outputs": [
        {
          "internalType": "uint256",
          "name": "",
          "type": "uint256"
        }
      ],
      "stateMutability": "view",
      "type": "function"
    },
    {
      "inputs": [
        {
          "internalType": "address",
          "name": "spender",
          "type": "address"
        },
        {
          "internalType": "uint256",
          "name": "value",
          "type": "uint256"
        }
      ],
      "name": "approve",
      "outputs": [
        {
          "internalType": "bool",
          "name": "",
          "type": "bool"
        }
      ],
      "stateMutability": "nonpayable",
      "type": "function"
    },
    {
      "inputs": [
        {
          "internalType": "address",
          "name": "account",
          "type": "address"
        }
      ],
      "name": "balanceOf",
      "outputs": [
        {
          "internalType": "uint256",
          "name": "",
          "type": "uint256"
        }
      ],
      "stateMutability": "view",
      "type": "function"
    },
    {
      "inputs": [],
      "name": "decimals",
      "outputs": [
        {
          "internalType": "uint8",
          "name": "",
          "type": "uint8"
        }
      ],
      "stateMutability": "view",
      "type": "function"
    },
    {
      "inputs": [],
      "name": "eip712Domain",
      "outputs": [
        {
          "internalType": "bytes1",
          "name": "fields",
          "type": "bytes1"
        },
        {
          "internalType": "string",
          "name": "name",
          "type": "string"
        },
        {
          "internalType": "string",
          "name": "version",
          "type": "string"
        },
        {
          "internalType": "uint256",
          "name": "chainId",
          "type": "uint256"
        },
        {
          "internalType": "address",
          "name": "verifyingContract",
          "type": "address"
        },
        {
          "internalType": "bytes32",
          "name": "salt",
          "type": "bytes32"
        },
        {
          "internalType": "uint256[]",
          "name": "extensions",
          "type": "uint256[]"
        }
      ],
      "stateMutability": "view",
      "type": "function"
    },
    {
      "inputs": [],
      "name": "name",
      "outputs": [
        {
          "internalType": "string",
          "name": "",
          "type": "string"
        }
      ],
      "stateMutability": "view",
      "type": "function"
    },
    {
      "inputs": [
        {
          "internalType": "address",
          "name": "owner",
          "type": "address"
        }
      ],
      "name": "nonces",
      "outputs": [
        {
          "internalType": "uint256",
          "name": "",
          "type": "uint256"
        }
      ],
      "stateMutability": "view",
      "type": "function"
    },
    {
      "inputs": [],
      "name": "owner",
      "outputs": [
        {
          "internalType": "address",
          "name": "",
          "type": "address"
        }
      ],
      "stateMutability": "view",
      "type": "function"
    },
    {
      "inputs": [
        {
          "internalType": "address",
          "name": "owner",
          "type": "address"
        },
        {
          "internalType": "address",
          "name": "spender",
          "type": "address"
        },
        {
          "internalType": "uint256",
          "name": "value",
          "type": "uint256"
        },
        {
          "internalType": "uint256",
          "name": "deadline",
          "type": "uint256"
        },
        {
          "internalType": "uint8",
          "name": "v",
          "type": "uint8"
        },
        {
          "internalType": "bytes32",
          "name": "r",
          "type": "bytes32"
        },
        {
          "internalType": "bytes32",
          "name": "s",
          "type": "bytes32"
        }
      ],
      "name": "permit",
      "outputs": [],
      "stateMutability": "nonpayable",
      "type": "function"
    },
    {
      "inputs": [],
      "name": "renounceOwnership",
      "outputs": [],
      "stateMutability": "nonpayable",
      "type": "function"
    },
    {
      "inputs": [],
      "name": "symbol",
      "outputs": [
        {
          "internalType": "string",
          "name": "",
          "type": "string"
        }
      ],
      "stateMutability": "view",
      "type": "function"
    },
    {
      "inputs": [],
      "name": "totalSupply",
      "outputs": [
        {
          "internalType": "uint256",
          "name": "",
          "type": "uint256"
        }
      ],
      "stateMutability": "view",
      "type": "function"
    },
    {
      "inputs": [
        {
          "internalType": "address",
          "name": "to",
          "type": "address"
        },
        {
          "internalType": "uint256",
          "name": "value",
          "type": "uint256"
        }
      ],
      "name": "transfer",
      "outputs": [
        {
          "internalType": "bool",
          "name": "",
          "type": "bool"
        }
      ],
      "stateMutability": "nonpayable",
      "type": "function"
    },
    {
      "inputs": [
        {
          "internalType": "address",
          "name": "from",
          "type": "address"
        },
        {
          "internalType": "address",
          "name": "to",
          "type": "address"
        },
        {
          "internalType": "uint256",
          "name": "value",
          "type": "uint256"
        }
      ],
      "name": "transferFrom",
      "outputs": [
        {
          "internalType": "bool",
          "name": "",
          "type": "bool"
        }
      ],
      "stateMutability": "nonpayable",
      "type": "function"
    },
    {
      "inputs": [
        {
          "internalType": "address",
          "name": "newOwner",
          "type": "address"
        }
      ],
      "name": "transferOwnership",
      "outputs": [],
      "stateMutability": "nonpayable",
      "type": "function"
    },
    {
      "inputs": [
        {
          "internalType": "address",
          "name": "to",
          "type": "address"
        },
        {
          "internalType": "uint256",
          "name": "amount",
          "type": "uint256"
        }
      ],
      "name": "mint",
      "outputs": [],
      "stateMutability": "nonpayable",
      "type": "function"
    },
    {
      "inputs": [
        {
          "internalType": "uint256",
          "name": "amount",
          "type": "uint256"
        }
      ],
      "name": "burn",
      "outputs": [],
      "stateMutability": "nonpayable",
      "type": "function"
    },
    {
      "inputs": [
        {
          "internalType": "address",
          "name": "account",
          "type": "address"
        },
        {
          "internalType": "uint256",
          "name": "amount",
          "type": "uint256"
        }
      ],
      "name": "burnFrom",
      "outputs": [],
      "stateMutability": "nonpayable",
      "type": "function"
    }
  ],
  "bytecode": "0x61016060405234801562000011575f80fd5b50336040518060400160405280600481526020017f4342444300000000000000000000000000000000000000000000000000000000815250806040518060400160405280600181526020017f31000000000000000000000000000000000000000000000000000000000000008152506040518060400160405280600481526020017f43424443000000000000000000000000000000000000000000000000000000008152506040518060400160405280600381526020017f53454500000000000000000000000000000000000000000000000000000000008152508160039081620000fd919062000699565b5080600490816200010f919062000699565b505050620001286005836200024e60201b90919060201c565b6101208181525050620001466006826200024e60201b90919060201c565b6101408181525050818051906020012060e08181525050808051906020012061010081815250504660a0818152505062000185620002a360201b60201c565b608081815250503073ffffffffffffffffffffffffffffffffffffffff1660c08173ffffffffffffffffffffffffffffffffffffffff16815250505050505f73ffffffffffffffffffffffffffffffffffffffff168173ffffffffffffffffffffffffffffffffffffffff160362000236575f6040517f1e4fbdf70000000000000000000000000000000000000000000000000000000081526004016200022d9190620007c0565b60405180910390fd5b6200024781620002ff60201b60201c565b50620009ab565b5f60208351101562000273576200026b83620003c260201b60201c565b90506200029d565b8262000285836200042c60201b60201c565b5f01908162000295919062000699565b5060ff5f1b90505b92915050565b5f7f8b73c3c69bb8fe3d512ecc4cf759cc79239f7b179b0ffacaa9a75d522b39400f60e051610100514630604051602001620002e495949392919062000806565b60405160208183030381529060405280519060200120905090565b5f60085f9054906101000a900473ffffffffffffffffffffffffffffffffffffffff1690508160085f6101000a81548173ffffffffffffffffffffffffffffffffffffffff021916908373ffffffffffffffffffffffffffffffffffffffff1602179055508173ffffffffffffffffffffffffffffffffffffffff168173ffffffffffffffffffffffffffffffffffffffff167f8be0079c531659141344cd1fd0a4f28419497f9722a3daafe3b4186f6b6457e060405160405180910390a35050565b5f80829050601f815111156200041157826040517f305a27a9000000000000000000000000000000000000000000000000000000008152600401620004089190620008eb565b60405180910390fd5b8051816200041f906200093c565b5f1c175f1b915050919050565b5f819050919050565b5f81519050919050565b7f4e487b71000000000000000000000000000000000000000000000000000000005f52604160045260245ffd5b7f4e487b71000000000000000000000000000000000000000000000000000000005f52602260045260245ffd5b5f6002820490506001821680620004b157607f821691505b602082108103620004c757620004c66200046c565b5b50919050565b5f819050815f5260205f209050919050565b5f6020601f8301049050919050565b5f82821b905092915050565b5f600883026200052b7fffffffffffffffffffffffffffffffffffffffffffffffffffffffffffffffff82620004ee565b620005378683620004ee565b95508019841693508086168417925050509392505050565b5f819050919050565b5f819050919050565b5f620005816200057b62000575846200054f565b62000558565b6200054f565b9050919050565b5f819050919050565b6200059c8362000561565b620005b4620005ab8262000588565b848454620004fa565b825550505050565b5f90565b620005ca620005bc565b620005d781848462000591565b505050565b5b81811015620005fe57620005f25f82620005c0565b600181019050620005dd565b5050565b601f8211156200064d576200061781620004cd565b6200062284620004df565b8101602085101562000632578190505b6200064a6200064185620004df565b830182620005dc565b50505b505050565b5f82821c905092915050565b5f6200066f5f198460080262000652565b1980831691505092915050565b5f6200068983836200065e565b9150826002028217905092915050565b620006a48262000435565b67ffffffffffffffff811115620006c057620006bf6200043f565b5b620006cc825462000499565b620006d982828562000602565b5f60209050601f8311600181146200070f575f8415620006fa578287015190505b6200070685826200067c565b86555062000775565b601f1984166200071f86620004cd565b5f5b82811015620007485784890151825560018201915060208501945060208101905062000721565b8683101562000768578489015162000764601f8916826200065e565b8355505b6001600288020188555050505b505050505050565b5f73ffffffffffffffffffffffffffffffffffffffff82169050919050565b5f620007a8826200077d565b9050919050565b620007ba816200079c565b82525050565b5f602082019050620007d55f830184620007af565b92915050565b5f819050919050565b620007ef81620007db565b82525050565b62000800816200054f565b82525050565b5f60a0820190506200081b5f830188620007e4565b6200082a6020830187620007e4565b620008396040830186620007e4565b620008486060830185620007f5565b620008576080830184620007af565b9695505050505050565b5f82825260208201905092915050565b5f5b838110156200089057808201518184015260208101905062000873565b5f8484015250505050565b5f601f19601f8301169050919050565b5f620008b78262000435565b620008c3818562000861565b9350620008d581856020860162000871565b620008e0816200089b565b840191505092915050565b5f6020820190508181035f830152620009058184620008ab565b905092915050565b5f81519050919050565b5f819050602082019050919050565b5f620009338251620007db565b80915050919050565b5f62000948826200090d565b82620009548462000917565b9050620009618162000926565b92506020821015620009a4576200099f7fffffffffffffffffffffffffffffffffffffffffffffffffffffffffffffffff83602003600802620004ee565b831692505b5050919050565b60805160a05160c05160e051610100516101205161014051611fee620009fd5f395f610deb01525f610db001525f6112e401525f6112c301525f610ab101525f610b0701525f610b300152611fee5ff3fe608060405234801561000f575f80fd5b506004361061011f575f3560e01c8063715018a6116100ab57806395d89b411161006f57806395d89b41146102fb578063a9059cbb14610319578063d505accf14610349578063dd62ed3e14610365578063f2fde38b146103955761011f565b8063715018a61461026357806379cc67901461026d5780637ecebe001461028957806384b0196e146102b95780638da5cb5b146102dd5761011f565b8063313ce567116100f2578063313ce567146101bf5780633644e515146101dd57806340c10f19146101fb57806342966c681461021757806370a08231146102335761011f565b806306fdde0314610123578063095ea7b31461014157806318160ddd1461017157806323b872dd1461018f575b5f80fd5b61012b6103b1565b6040516101389190611833565b60405180910390f35b61015b600480360381019061015691906118e4565b610441565b604051610168919061193c565b60405180910390f35b610179610463565b6040516101869190611964565b60405180910390f35b6101a960048036038101906101a4919061197d565b61046c565b6040516101b6919061193c565b60405180910390f35b6101c761049a565b6040516101d491906119e8565b60405180910390f35b6101e56104a2565b6040516101f29190611a19565b60405180910390f35b610215600480360381019061021091906118e4565b6104b0565b005b610231600480360381019061022c9190611a32565b6104c6565b005b61024d60048036038101906102489190611a5d565b6104d2565b60405161025a9190611964565b60405180910390f35b61026b610517565b005b610287600480360381019061028291906118e4565b61052a565b005b6102a3600480360381019061029e9190611a5d565b610538565b6040516102b09190611964565b60405180910390f35b6102c1610549565b6040516102d49796959493929190611b88565b60405180910390f35b6102e56105ee565b6040516102f29190611c0a565b60405180910390f35b610303610616565b6040516103109190611833565b60405180910390f35b610333600480360381019061032e91906118e4565b6106a6565b604051610340919061193c565b60405180910390f35b610363600480360381019061035e9190611c77565b6106c8565b005b61037f600480360381019061037a9190611d14565b61080d565b60405161038c9190611964565b60405180910390f35b6103af60048036038101906103aa9190611a5d565b61088f565b005b6060600380546103c090611d7f565b80601f01602080910402602001604051908101604052809291908181526020018280546103ec90611d7f565b80156104375780601f1061040e57610100808354040283529160200191610437565b820191905f5260205f20905b81548152906001019060200180831161041a57829003601f168201915b5050505050905090565b5f8061044b610913565b905061045881858561091a565b600191505092915050565b5f600254905090565b5f80610476610913565b905061048385828561092c565b61048e8585856109be565b60019150509392505050565b5f6012905090565b5f6104ab610aae565b905090565b6104b8610b64565b6104c28282610beb565b5050565b6104cf81610c6a565b50565b5f805f8373ffffffffffffffffffffffffffffffffffffffff1673ffffffffffffffffffffffffffffffffffffffff1681526020019081526020015f20549050919050565b61051f610b64565b6105285f610c7e565b565b6105348282610d41565b5050565b5f61054282610d61565b9050919050565b5f6060805f805f606061055a610da7565b610562610de2565b46305f801b5f67ffffffffffffffff81111561058157610580611daf565b5b6040519080825280602002602001820160405280156105af5781602001602082028036833780820191505090505b507f0f00000000000000000000000000000000000000000000000000000000000000959493929190965096509650965096509650965090919293949596565b5f60085f9054906101000a900473ffffffffffffffffffffffffffffffffffffffff16905090565b60606004805461062590611d7f565b80601f016020809104026020016040519081016040528092919081815260200182805461065190611d7f565b801561069c5780601f106106735761010080835404028352916020019161069c565b820191905f5260205f20905b81548152906001019060200180831161067f57829003601f168201915b5050505050905090565b5f806106b0610913565b90506106bd8185856109be565b600191505092915050565b8342111561070d57836040517f627913020000000000000000000000000000000000000000000000000000000081526004016107049190611964565b60405180910390fd5b5f7f6e71edae12b1b97f4d1f60370fef10105fa2faae0126114a169c64845d6126c988888861073b8c610e1d565b8960405160200161075196959493929190611ddc565b6040516020818303038152906040528051906020012090505f61077382610e70565b90505f61078282878787610e89565b90508973ffffffffffffffffffffffffffffffffffffffff168173ffffffffffffffffffffffffffffffffffffffff16146107f657808a6040517f4b800e460000000000000000000000000000000000000000000000000000000081526004016107ed929190611e3b565b60405180910390fd5b6108018a8a8a61091a565b50505050505050505050565b5f60015f8473ffffffffffffffffffffffffffffffffffffffff1673ffffffffffffffffffffffffffffffffffffffff1681526020019081526020015f205f8373ffffffffffffffffffffffffffffffffffffffff1673ffffffffffffffffffffffffffffffffffffffff1681526020019081526020015f2054905092915050565b610897610b64565b5f73ffffffffffffffffffffffffffffffffffffffff168173ffffffffffffffffffffffffffffffffffffffff1603610907575f6040517f1e4fbdf70000000000000000000000000000000000000000000000000000000081526004016108fe9190611c0a565b60405180910390fd5b61091081610c7e565b50565b5f33905090565b6109278383836001610eb7565b505050565b5f610937848461080d565b90507fffffffffffffffffffffffffffffffffffffffffffffffffffffffffffffffff81146109b857818110156109a9578281836040517ffb8f41b20000000000000000000000000000000000000000000000000000000081526004016109a093929190611e62565b60405180910390fd5b6109b784848484035f610eb7565b5b50505050565b5f73ffffffffffffffffffffffffffffffffffffffff168373ffffffffffffffffffffffffffffffffffffffff1603610a2e575f6040517f96c6fd1e000000000000000000000000000000000000000000000000000000008152600401610a259190611c0a565b60405180910390fd5b5f73ffffffffffffffffffffffffffffffffffffffff168273ffffffffffffffffffffffffffffffffffffffff1603610a9e575f6040517fec442f05000000000000000000000000000000000000000000000000000000008152600401610a959190611c0a565b60405180910390fd5b610aa9838383611086565b505050565b5f7f000000000000000000000000000000000000000000000000000000000000000073ffffffffffffffffffffffffffffffffffffffff163073ffffffffffffffffffffffffffffffffffffffff16148015610b2957507f000000000000000000000000000000000000000000000000000000000000000046145b15610b56577f00000000000000000000000000000000000000000000000000000000000000009050610b61565b610b5e61129f565b90505b90565b610b6c610913565b73ffffffffffffffffffffffffffffffffffffffff16610b8a6105ee565b73ffffffffffffffffffffffffffffffffffffffff1614610be957610bad610913565b6040517f118cdaa7000000000000000000000000000000000000000000000000000000008152600401610be09190611c0a565b60405180910390fd5b565b5f73ffffffffffffffffffffffffffffffffffffffff168273ffffffffffffffffffffffffffffffffffffffff1603610c5b575f6040517fec442f05000000000000000000000000000000000000000000000000000000008152600401610c529190611c0a565b60405180910390fd5b610c665f8383611086565b5050565b610c7b610c75610913565b82611334565b50565b5f60085f9054906101000a900473ffffffffffffffffffffffffffffffffffffffff1690508160085f6101000a81548173ffffffffffffffffffffffffffffffffffffffff021916908373ffffffffffffffffffffffffffffffffffffffff1602179055508173ffffffffffffffffffffffffffffffffffffffff168173ffffffffffffffffffffffffffffffffffffffff167f8be0079c531659141344cd1fd0a4f28419497f9722a3daafe3b4186f6b6457e060405160405180910390a35050565b610d5382610d4d610913565b8361092c565b610d5d8282611334565b5050565b5f60075f8373ffffffffffffffffffffffffffffffffffffffff1673ffffffffffffffffffffffffffffffffffffffff1681526020019081526020015f20549050919050565b6060610ddd60057f00000000000000000000000000000000000000000000000000000000000000006113b390919063ffffffff16565b905090565b6060610e1860067f00000000000000000000000000000000000000000000000000000000000000006113b390919063ffffffff16565b905090565b5f60075f8373ffffffffffffffffffffffffffffffffffffffff1673ffffffffffffffffffffffffffffffffffffffff1681526020019081526020015f205f815480929190600101919050559050919050565b5f610e82610e7c610aae565b83611460565b9050919050565b5f805f80610e99888888886114a0565b925092509250610ea98282611587565b829350505050949350505050565b5f73ffffffffffffffffffffffffffffffffffffffff168473ffffffffffffffffffffffffffffffffffffffff1603610f27575f6040517fe602df05000000000000000000000000000000000000000000000000000000008152600401610f1e9190611c0a565b60405180910390fd5b5f73ffffffffffffffffffffffffffffffffffffffff168373ffffffffffffffffffffffffffffffffffffffff1603610f97575f6040517f94280d62000000000000000000000000000000000000000000000000000000008152600401610f8e9190611c0a565b60405180910390fd5b8160015f8673ffffffffffffffffffffffffffffffffffffffff1673ffffffffffffffffffffffffffffffffffffffff1681526020019081526020015f205f8573ffffffffffffffffffffffffffffffffffffffff1673ffffffffffffffffffffffffffffffffffffffff1681526020019081526020015f20819055508015611080578273ffffffffffffffffffffffffffffffffffffffff168473ffffffffffffffffffffffffffffffffffffffff167f8c5be1e5ebec7d5bd14f71427d1e84f3dd0314c0f7b2291e5b200ac8c7c3b925846040516110779190611964565b60405180910390a35b50505050565b5f73ffffffffffffffffffffffffffffffffffffffff168373ffffffffffffffffffffffffffffffffffffffff16036110d6578060025f8282546110ca9190611ec4565b925050819055506111a4565b5f805f8573ffffffffffffffffffffffffffffffffffffffff1673ffffffffffffffffffffffffffffffffffffffff1681526020019081526020015f205490508181101561115f578381836040517fe450d38c00000000000000000000000000000000000000000000000000000000815260040161115693929190611e62565b60405180910390fd5b8181035f808673ffffffffffffffffffffffffffffffffffffffff1673ffffffffffffffffffffffffffffffffffffffff1681526020019081526020015f2081905550505b5f73ffffffffffffffffffffffffffffffffffffffff168273ffffffffffffffffffffffffffffffffffffffff16036111eb578060025f8282540392505081905550611235565b805f808473ffffffffffffffffffffffffffffffffffffffff1673ffffffffffffffffffffffffffffffffffffffff1681526020019081526020015f205f82825401925050819055505b8173ffffffffffffffffffffffffffffffffffffffff168373ffffffffffffffffffffffffffffffffffffffff167fddf252ad1be2c89b69c2b068fc378daa952ba7f163c4a11628f55a4df523b3ef836040516112929190611964565b60405180910390a3505050565b5f7f8b73c3c69bb8fe3d512ecc4cf759cc79239f7b179b0ffacaa9a75d522b39400f7f00000000000000000000000000000000000000000000000000000000000000007f00000000000000000000000000000000000000000000000000000000000000004630604051602001611319959493929190611ef7565b60405160208183030381529060405280519060200120905090565b5f73ffffffffffffffffffffffffffffffffffffffff168273ffffffffffffffffffffffffffffffffffffffff16036113a4575f6040517f96c6fd1e00000000000000000000000000000000000000000000000000000000815260040161139b9190611c0a565b60405180910390fd5b6113af825f83611086565b5050565b606060ff5f1b83146113cf576113c8836116e9565b905061145a565b8180546113db90611d7f565b80601f016020809104026020016040519081016040528092919081815260200182805461140790611d7f565b80156114525780601f1061142957610100808354040283529160200191611452565b820191905f5260205f20905b81548152906001019060200180831161143557829003601f168201915b505050505090505b92915050565b5f6040517f190100000000000000000000000000000000000000000000000000000000000081528360028201528260228201526042812091505092915050565b5f805f7f7fffffffffffffffffffffffffffffff5d576e7357a4501ddfe92f46681b20a0845f1c11156114dc575f60038592509250925061157d565b5f6001888888886040515f81526020016040526040516114ff9493929190611f48565b6020604051602081039080840390855afa15801561151f573d5f803e3d5ffd5b5050506020604051035190505f73ffffffffffffffffffffffffffffffffffffffff168173ffffffffffffffffffffffffffffffffffffffff1603611570575f60015f801b9350935093505061157d565b805f805f1b935093509350505b9450945094915050565b5f600381111561159a57611599611f8b565b5b8260038111156115ad576115ac611f8b565b5b03156116e557600160038111156115c7576115c6611f8b565b5b8260038111156115da576115d9611f8b565b5b03611611576040517ff645eedf00000000000000000000000000000000000000000000000000000000815260040160405180910390fd5b6002600381111561162557611624611f8b565b5b82600381111561163857611637611f8b565b5b0361167c57805f1c6040517ffce698f70000000000000000000000000000000000000000000000000000000081526004016116739190611964565b60405180910390fd5b60038081111561168f5761168e611f8b565b5b8260038111156116a2576116a1611f8b565b5b036116e457806040517fd78bce0c0000000000000000000000000000000000000000000000000000000081526004016116db9190611a19565b60405180910390fd5b5b5050565b60605f6116f58361175b565b90505f602067ffffffffffffffff81111561171357611712611daf565b5b6040519080825280601f01601f1916602001820160405280156117455781602001600182028036833780820191505090505b5090508181528360208201528092505050919050565b5f8060ff835f1c169050601f8111156117a0576040517fb3512b0c00000000000000000000000000000000000000000000000000000000815260040160405180910390fd5b80915050919050565b5f81519050919050565b5f82825260208201905092915050565b5f5b838110156117e05780820151818401526020810190506117c5565b5f8484015250505050565b5f601f19601f8301169050919050565b5f611805826117a9565b61180f81856117b3565b935061181f8185602086016117c3565b611828816117eb565b840191505092915050565b5f6020820190508181035f83015261184b81846117fb565b905092915050565b5f80fd5b5f73ffffffffffffffffffffffffffffffffffffffff82169050919050565b5f61188082611857565b9050919050565b61189081611876565b811461189a575f80fd5b50565b5f813590506118ab81611887565b92915050565b5f819050919050565b6118c3816118b1565b81146118cd575f80fd5b50565b5f813590506118de816118ba565b92915050565b5f80604083850312156118fa576118f9611853565b5b5f6119078582860161189d565b9250506020611918858286016118d0565b9150509250929050565b5f8115159050919050565b61193681611922565b82525050565b5f60208201905061194f5f83018461192d565b92915050565b61195e816118b1565b82525050565b5f6020820190506119775f830184611955565b92915050565b5f805f6060848603121561199457611993611853565b5b5f6119a18682870161189d565b93505060206119b28682870161189d565b92505060406119c3868287016118d0565b9150509250925092565b5f60ff82169050919050565b6119e2816119cd565b82525050565b5f6020820190506119fb5f8301846119d9565b92915050565b5f819050919050565b611a1381611a01565b82525050565b5f602082019050611a2c5f830184611a0a565b92915050565b5f60208284031215611a4757611a46611853565b5b5f611a54848285016118d0565b91505092915050565b5f60208284031215611a7257611a71611853565b5b5f611a7f8482850161189d565b91505092915050565b5f7fff0000000000000000000000000000000000000000000000000000000000000082169050919050565b611abc81611a88565b82525050565b611acb81611876565b82525050565b5f81519050919050565b5f82825260208201905092915050565b5f819050602082019050919050565b611b03816118b1565b82525050565b5f611b148383611afa565b60208301905092915050565b5f602082019050919050565b5f611b3682611ad1565b611b408185611adb565b9350611b4b83611aeb565b805f5b83811015611b7b578151611b628882611b09565b9750611b6d83611b20565b925050600181019050611b4e565b5085935050505092915050565b5f60e082019050611b9b5f83018a611ab3565b8181036020830152611bad81896117fb565b90508181036040830152611bc181886117fb565b9050611bd06060830187611955565b611bdd6080830186611ac2565b611bea60a0830185611a0a565b81810360c0830152611bfc8184611b2c565b905098975050505050505050565b5f602082019050611c1d5f830184611ac2565b92915050565b611c2c816119cd565b8114611c36575f80fd5b50565b5f81359050611c4781611c23565b92915050565b611c5681611a01565b8114611c60575f80fd5b50565b5f81359050611c7181611c4d565b92915050565b5f805f805f805f60e0888a031215611c9257611c91611853565b5b5f611c9f8a828b0161189d565b9750506020611cb08a828b0161189d565b9650506040611cc18a828b016118d0565b9550506060611cd28a828b016118d0565b9450506080611ce38a828b01611c39565b93505060a0611cf48a828b01611c63565b92505060c0611d058a828b01611c63565b91505092959891949750929550565b5f8060408385031215611d2a57611d29611853565b5b5f611d378582860161189d565b9250506020611d488582860161189d565b9150509250929050565b7f4e487b71000000000000000000000000000000000000000000000000000000005f52602260045260245ffd5b5f6002820490506001821680611d9657607f821691505b602082108103611da957611da8611d52565b5b50919050565b7f4e487b71000000000000000000000000000000000000000000000000000000005f52604160045260245ffd5b5f60c082019050611def5f830189611a0a565b611dfc6020830188611ac2565b611e096040830187611ac2565b611e166060830186611955565b611e236080830185611955565b611e3060a0830184611955565b979650505050505050565b5f604082019050611e4e5f830185611ac2565b611e5b6020830184611ac2565b9392505050565b5f606082019050611e755f830186611ac2565b611e826020830185611955565b611e8f6040830184611955565b949350505050565b7f4e487b71000000000000000000000000000000000000000000000000000000005f52601160045260245ffd5b5f611ece826118b1565b9150611ed9836118b1565b9250828201905080821115611ef157611ef0611e97565b5b92915050565b5f60a082019050611f0a5f830188611a0a565b611f176020830187611a0a565b611f246040830186611a0a565b611f316060830185611955565b611f3e6080830184611ac2565b9695505050505050565b5f608082019050611f5b5f830187611a0a565b611f6860208301866119d9565b611f756040830185611a0a565b611f826060830184611a0a565b95945050505050565b7f4e487b71000000000000000000000000000000000000000000000000000000005f52602160045260245ffdfea26469706673582212207a04d0c6a9bcc3d20f38cc7ce6c7c449fddf70dd9ab7e3c253802d39ba52a2b964736f6c63430008140033",
  "immutableReferences": {
    "2205": [
      {
        "length": 32,
        "start": 2864
      }
    ],
    "2207": [
      {
        "length": 32,
        "start": 2823
      }
    ],
    "2209": [
      {
        "length": 32,
        "start": 2737
      }
    ],
    "2211": [
      {
        "length": 32,
        "start": 4803
      }
    ],
    "2213": [
      {
        "length": 32,
        "start": 4836
      }
    ],
    "2216": [
      {
        "length": 32,
        "start": 3504
      }
    ],
    "2219": [
      {
        "length": 32,
        "start": 3563
      }
    ]
  },
  "source": "// SPDX-License-Identifier: MIT\npragma solidity ^0.8.20;\n\nimport \"@openzeppelin/contracts/token/ERC20/ERC20.sol\";\nimport \"@openzeppelin/contracts/token/ERC20/extensions/ERC20Permit.sol\";\nimport \"@openzeppelin/contracts/token/ERC20/extensions/ERC20Burnable.sol\";\nimport \"@openzeppelin/contracts/access/Ownable.sol\";\n\ncontract CBDC is ERC20, ERC20Permit, ERC20Burnable, Ownable {\n    constructor() ERC20(\"CBDC\", \"SEE\") ERC20Permit(\"CBDC\") Ownable(msg.sender) {}\n\n    // Function to mint tokens\n    // Only the owner of the contract can call this function\n    function mint(address to, uint256 amount) public onlyOwner {\n        _mint(to, amount);\n    }\n\n    // Override the burn function to track the total supply correctly\n    function burn(uint256 amount) public override {\n        super.burn(amount);\n    }\n\n    // Override the burnFrom function to track the total supply correctly\n    function burnFrom(address account, uint256 amount) public override {\n        super.burnFrom(account, amount);\n    }\n}",
  "sourcePath": "/Users/kennethsee/Documents/GitHub/IntradayLiquidityManagementGameBlockchain/contracts/CBDC.sol",
  "compiler": {
    "name": "solc",
    "version": "0.8.20+commit.a1b79de6.Emscripten.clang"
  },
  "schemaVersion": "3.4.13",
  "updatedAt": "2023-11-21T05:31:47.298Z",
  "devdoc": {
    "errors": {
      "ECDSAInvalidSignature()": [
        {
          "details": "The signature derives the `address(0)`."
        }
      ],
      "ECDSAInvalidSignatureLength(uint256)": [
        {
          "details": "The signature has an invalid length."
        }
      ],
      "ECDSAInvalidSignatureS(bytes32)": [
        {
          "details": "The signature has an S value that is in the upper half order."
        }
      ],
      "ERC20InsufficientAllowance(address,uint256,uint256)": [
        {
          "details": "Indicates a failure with the `spender`s `allowance`. Used in transfers.",
          "params": {
            "allowance": "Amount of tokens a `spender` is allowed to operate with.",
            "needed": "Minimum amount required to perform a transfer.",
            "spender": "Address that may be allowed to operate on tokens without being their owner."
          }
        }
      ],
      "ERC20InsufficientBalance(address,uint256,uint256)": [
        {
          "details": "Indicates an error related to the current `balance` of a `sender`. Used in transfers.",
          "params": {
            "balance": "Current balance for the interacting account.",
            "needed": "Minimum amount required to perform a transfer.",
            "sender": "Address whose tokens are being transferred."
          }
        }
      ],
      "ERC20InvalidApprover(address)": [
        {
          "details": "Indicates a failure with the `approver` of a token to be approved. Used in approvals.",
          "params": {
            "approver": "Address initiating an approval operation."
          }
        }
      ],
      "ERC20InvalidReceiver(address)": [
        {
          "details": "Indicates a failure with the token `receiver`. Used in transfers.",
          "params": {
            "receiver": "Address to which tokens are being transferred."
          }
        }
      ],
      "ERC20InvalidSender(address)": [
        {
          "details": "Indicates a failure with the token `sender`. Used in transfers.",
          "params": {
            "sender": "Address whose tokens are being transferred."
          }
        }
      ],
      "ERC20InvalidSpender(address)": [
        {
          "details": "Indicates a failure with the `spender` to be approved. Used in approvals.",
          "params": {
            "spender": "Address that may be allowed to operate on tokens without being their owner."
          }
        }
      ],
      "ERC2612ExpiredSignature(uint256)": [
        {
          "details": "Permit deadline has expired."
        }
      ],
      "ERC2612InvalidSigner(address,address)": [
        {
          "details": "Mismatched signature."
        }
      ],
      "InvalidAccountNonce(address,uint256)": [
        {
          "details": "The nonce used for an `account` is not the expected current nonce."
        }
      ],
      "OwnableInvalidOwner(address)": [
        {
          "details": "The owner is not a valid owner account. (eg. `address(0)`)"
        }
      ],
      "OwnableUnauthorizedAccount(address)": [
        {
          "details": "The caller account is not authorized to perform an operation."
        }
      ]
    },
    "events": {
      "Approval(address,address,uint256)": {
        "details": "Emitted when the allowance of a `spender` for an `owner` is set by a call to {approve}. `value` is the new allowance."
      },
      "EIP712DomainChanged()": {
        "details": "MAY be emitted to signal that the domain could have changed."
      },
      "Transfer(address,address,uint256)": {
        "details": "Emitted when `value` tokens are moved from one account (`from`) to another (`to`). Note that `value` may be zero."
      }
    },
    "kind": "dev",
    "methods": {
      "DOMAIN_SEPARATOR()": {
        "details": "Returns the domain separator used in the encoding of the signature for {permit}, as defined by {EIP712}."
      },
      "allowance(address,address)": {
        "details": "See {IERC20-allowance}."
      },
      "approve(address,uint256)": {
        "details": "See {IERC20-approve}. NOTE: If `value` is the maximum `uint256`, the allowance is not updated on `transferFrom`. This is semantically equivalent to an infinite approval. Requirements: - `spender` cannot be the zero address."
      },
      "balanceOf(address)": {
        "details": "See {IERC20-balanceOf}."
      },
      "decimals()": {
        "details": "Returns the number of decimals used to get its user representation. For example, if `decimals` equals `2`, a balance of `505` tokens should be displayed to a user as `5.05` (`505 / 10 ** 2`). Tokens usually opt for a value of 18, imitating the relationship between Ether and Wei. This is the default value returned by this function, unless it's overridden. NOTE: This information is only used for _display_ purposes: it in no way affects any of the arithmetic of the contract, including {IERC20-balanceOf} and {IERC20-transfer}."
      },
      "eip712Domain()": {
        "details": "See {IERC-5267}."
      },
      "name()": {
        "details": "Returns the name of the token."
      },
      "nonces(address)": {
        "details": "Returns the current nonce for `owner`. This value must be included whenever a signature is generated for {permit}. Every successful call to {permit} increases ``owner``'s nonce by one. This prevents a signature from being used multiple times."
      },
      "owner()": {
        "details": "Returns the address of the current owner."
      },
      "permit(address,address,uint256,uint256,uint8,bytes32,bytes32)": {
        "details": "Sets `value` as the allowance of `spender` over ``owner``'s tokens, given ``owner``'s signed approval. IMPORTANT: The same issues {IERC20-approve} has related to transaction ordering also apply here. Emits an {Approval} event. Requirements: - `spender` cannot be the zero address. - `deadline` must be a timestamp in the future. - `v`, `r` and `s` must be a valid `secp256k1` signature from `owner` over the EIP712-formatted function arguments. - the signature must use ``owner``'s current nonce (see {nonces}). For more information on the signature format, see the https://eips.ethereum.org/EIPS/eip-2612#specification[relevant EIP section]. CAUTION: See Security Considerations above."
      },
      "renounceOwnership()": {
        "details": "Leaves the contract without owner. It will not be possible to call `onlyOwner` functions. Can only be called by the current owner. NOTE: Renouncing ownership will leave the contract without an owner, thereby disabling any functionality that is only available to the owner."
      },
      "symbol()": {
        "details": "Returns the symbol of the token, usually a shorter version of the name."
      },
      "totalSupply()": {
        "details": "See {IERC20-totalSupply}."
      },
      "transfer(address,uint256)": {
        "details": "See {IERC20-transfer}. Requirements: - `to` cannot be the zero address. - the caller must have a balance of at least `value`."
      },
      "transferFrom(address,address,uint256)": {
        "details": "See {IERC20-transferFrom}. Emits an {Approval} event indicating the updated allowance. This is not required by the EIP. See the note at the beginning of {ERC20}. NOTE: Does not update the allowance if the current allowance is the maximum `uint256`. Requirements: - `from` and `to` cannot be the zero address. - `from` must have a balance of at least `value`. - the caller must have allowance for ``from``'s tokens of at least `value`."
      },
      "transferOwnership(address)": {
        "details": "Transfers ownership of the contract to a new account (`newOwner`). Can only be called by the current owner."
      }
    },
    "version": 1
  },
  "userdoc": {
    "kind": "user",
    "methods": {},
    "version": 1
  }
}