{
  "contractName": "ICF",
  "abi": [
    {
      "inputs": [
        {
          "internalType": "uint256",
          "name": "_collateralOpportunityRate",
          "type": "uint256"
        },
        {
          "internalType": "uint256",
          "name": "_claimBackedRate",
          "type": "uint256"
        },
        {
          "internalType": "uint256",
          "name": "_unsecuredRate",
          "type": "uint256"
        },
        {
          "internalType": "address",
          "name": "_safeTokenAddress",
          "type": "address"
        },
        {
          "internalType": "address",
          "name": "_cbdcTokenAddress",
          "type": "address"
        }
      ],
      "stateMutability": "nonpayable",
      "type": "constructor"
    },
    {
      "inputs": [],
      "name": "cbdcToken",
      "outputs": [
        {
          "internalType": "contract CBDC",
          "name": "",
          "type": "address"
        }
      ],
      "stateMutability": "view",
      "type": "function"
    },
    {
      "inputs": [
        {
          "internalType": "address",
          "name": "",
          "type": "address"
        },
        {
          "internalType": "uint256",
          "name": "",
          "type": "uint256"
        }
      ],
      "name": "claimBackedCredits",
      "outputs": [
        {
          "internalType": "uint256",
          "name": "amount",
          "type": "uint256"
        },
        {
          "internalType": "string",
          "name": "period",
          "type": "string"
        },
        {
          "internalType": "address",
          "name": "transactionAddress",
          "type": "address"
        }
      ],
      "stateMutability": "view",
      "type": "function"
    },
    {
      "inputs": [
        {
          "internalType": "address",
          "name": "",
          "type": "address"
        },
        {
          "internalType": "uint256",
          "name": "",
          "type": "uint256"
        }
      ],
      "name": "collateralizedCredits",
      "outputs": [
        {
          "internalType": "uint256",
          "name": "amount",
          "type": "uint256"
        },
        {
          "internalType": "string",
          "name": "period",
          "type": "string"
        }
      ],
      "stateMutability": "view",
      "type": "function"
    },
    {
      "inputs": [],
      "name": "safeToken",
      "outputs": [
        {
          "internalType": "contract IERC20",
          "name": "",
          "type": "address"
        }
      ],
      "stateMutability": "view",
      "type": "function"
    },
    {
      "inputs": [
        {
          "internalType": "address",
          "name": "",
          "type": "address"
        },
        {
          "internalType": "uint256",
          "name": "",
          "type": "uint256"
        }
      ],
      "name": "unsecuredCredits",
      "outputs": [
        {
          "internalType": "uint256",
          "name": "amount",
          "type": "uint256"
        },
        {
          "internalType": "string",
          "name": "period",
          "type": "string"
        }
      ],
      "stateMutability": "view",
      "type": "function"
    },
    {
      "inputs": [
        {
          "internalType": "address",
          "name": "account",
          "type": "address"
        },
        {
          "internalType": "uint256",
          "name": "value",
          "type": "uint256"
        },
        {
          "internalType": "string",
          "name": "period",
          "type": "string"
        }
      ],
      "name": "obtainCollateralizedCredit",
      "outputs": [],
      "stateMutability": "nonpayable",
      "type": "function"
    },
    {
      "inputs": [
        {
          "internalType": "address",
          "name": "account",
          "type": "address"
        },
        {
          "internalType": "uint256",
          "name": "value",
          "type": "uint256"
        },
        {
          "internalType": "address",
          "name": "transactionAddress",
          "type": "address"
        },
        {
          "internalType": "string",
          "name": "period",
          "type": "string"
        }
      ],
      "name": "obtainClaimBackedCredit",
      "outputs": [],
      "stateMutability": "nonpayable",
      "type": "function"
    },
    {
      "inputs": [
        {
          "internalType": "address",
          "name": "account",
          "type": "address"
        },
        {
          "internalType": "uint256",
          "name": "value",
          "type": "uint256"
        },
        {
          "internalType": "string",
          "name": "period",
          "type": "string"
        }
      ],
      "name": "obtainUnsecuredCredit",
      "outputs": [],
      "stateMutability": "nonpayable",
      "type": "function"
    },
    {
      "inputs": [
        {
          "internalType": "address",
          "name": "account",
          "type": "address"
        },
        {
          "internalType": "uint256",
          "name": "value",
          "type": "uint256"
        },
        {
          "internalType": "string",
          "name": "period",
          "type": "string"
        }
      ],
      "name": "settleCollateralizedCredit",
      "outputs": [
        {
          "internalType": "uint256",
          "name": "",
          "type": "uint256"
        }
      ],
      "stateMutability": "nonpayable",
      "type": "function"
    },
    {
      "inputs": [
        {
          "internalType": "address",
          "name": "account",
          "type": "address"
        },
        {
          "internalType": "uint256",
          "name": "value",
          "type": "uint256"
        },
        {
          "internalType": "string",
          "name": "period",
          "type": "string"
        }
      ],
      "name": "settleClaimBackedCredit",
      "outputs": [
        {
          "internalType": "uint256",
          "name": "",
          "type": "uint256"
        }
      ],
      "stateMutability": "nonpayable",
      "type": "function"
    },
    {
      "inputs": [
        {
          "internalType": "address",
          "name": "account",
          "type": "address"
        },
        {
          "internalType": "uint256",
          "name": "value",
          "type": "uint256"
        },
        {
          "internalType": "string",
          "name": "period",
          "type": "string"
        }
      ],
      "name": "settleUnsecuredCredit",
      "outputs": [
        {
          "internalType": "uint256",
          "name": "",
          "type": "uint256"
        }
      ],
      "stateMutability": "nonpayable",
      "type": "function"
    }
  ],
  "bytecode": "0x608060405234801562000010575f80fd5b50604051620038cf380380620038cf833981810160405281019062000036919062000172565b846002819055508360038190555082600481905550815f806101000a81548173ffffffffffffffffffffffffffffffffffffffff021916908373ffffffffffffffffffffffffffffffffffffffff1602179055508060015f6101000a81548173ffffffffffffffffffffffffffffffffffffffff021916908373ffffffffffffffffffffffffffffffffffffffff1602179055505050505050620001f6565b5f80fd5b5f819050919050565b620000ed81620000d9565b8114620000f8575f80fd5b50565b5f815190506200010b81620000e2565b92915050565b5f73ffffffffffffffffffffffffffffffffffffffff82169050919050565b5f6200013c8262000111565b9050919050565b6200014e8162000130565b811462000159575f80fd5b50565b5f815190506200016c8162000143565b92915050565b5f805f805f60a086880312156200018e576200018d620000d5565b5b5f6200019d88828901620000fb565b9550506020620001b088828901620000fb565b9450506040620001c388828901620000fb565b9350506060620001d6888289016200015c565b9250506080620001e9888289016200015c565b9150509295509295909350565b6136cb80620002045f395ff3fe608060405234801561000f575f80fd5b50600436106100a7575f3560e01c8063628c01521161006f578063628c015214610176578063861782b2146101a7578063b65fbebe146101d7578063c062005c146101f3578063e10173b61461020f578063f0ef1ceb1461022d576100a7565b80632bf5892f146100ab578063376d8b1f146100db5780634b3fd05a1461010b5780634da43d3f14610129578063622b31921461015a575b5f80fd5b6100c560048036038101906100c09190612748565b61025f565b6040516100d291906127c3565b60405180910390f35b6100f560048036038101906100f09190612748565b610920565b60405161010291906127c3565b60405180910390f35b610113610fe1565b6040516101209190612837565b60405180910390f35b610143600480360381019061013e9190612850565b611004565b604051610151929190612908565b60405180910390f35b610174600480360381019061016f9190612748565b6110c4565b005b610190600480360381019061018b9190612850565b6111ef565b60405161019e929190612908565b60405180910390f35b6101c160048036038101906101bc9190612748565b6112af565b6040516101ce91906127c3565b60405180910390f35b6101f160048036038101906101ec9190612748565b611970565b005b61020d60048036038101906102089190612936565b611c11565b005b610217612037565b60405161022491906129d6565b60405180910390f35b61024760048036038101906102429190612850565b61205c565b604051610256939291906129fe565b60405180910390f35b5f8260015f9054906101000a900473ffffffffffffffffffffffffffffffffffffffff1673ffffffffffffffffffffffffffffffffffffffff166370a08231866040518263ffffffff1660e01b81526004016102bb9190612a3a565b602060405180830381865afa1580156102d6573d5f803e3d5ffd5b505050506040513d601f19601f820116820180604052508101906102fa9190612a67565b101561033b576040517f08c379a000000000000000000000000000000000000000000000000000000000815260040161033290612adc565b60405180910390fd5b5f8390505f8060055f8873ffffffffffffffffffffffffffffffffffffffff1673ffffffffffffffffffffffffffffffffffffffff1681526020019081526020015f2090505f5b81805490508110801561039457505f84115b156105e3576040518060400160405280600781526020017f6d6f726e696e6700000000000000000000000000000000000000000000000000815250805190602001208282815481106103e9576103e8612afa565b5b905f5260205f2090600202016001016040516104059190612c20565b604051809103902014801561043a57505f82828154811061042957610428612afa565b5b905f5260205f2090600202015f0154115b156105d0575f8483838154811061045457610453612afa565b5b905f5260205f2090600202015f01541161048f5782828154811061047b5761047a612afa565b5b905f5260205f2090600202015f0154610491565b845b9050808383815481106104a7576104a6612afa565b5b905f5260205f2090600202015f015f8282546104c39190612c63565b9250508190555080856104d69190612c63565b945061058e8383815481106104ee576104ed612afa565b5b905f5260205f209060020201600101805461050890612b54565b80601f016020809104026020016040519081016040528092919081815260200182805461053490612b54565b801561057f5780601f106105565761010080835404028352916020019161057f565b820191905f5260205f20905b81548152906001019060200180831161056257829003601f168201915b50505050508883600254612141565b846105999190612c96565b93505f8383815481106105af576105ae612afa565b5b905f5260205f2090600202015f0154036105ce576105cd8383612247565b5b505b80806105db90612cc9565b915050610382565b505f5b8180549050811080156105f857505f84115b15610847576040518060400160405280600981526020017f61667465726e6f6f6e00000000000000000000000000000000000000000000008152508051906020012082828154811061064d5761064c612afa565b5b905f5260205f2090600202016001016040516106699190612c20565b604051809103902014801561069e57505f82828154811061068d5761068c612afa565b5b905f5260205f2090600202015f0154115b15610834575f848383815481106106b8576106b7612afa565b5b905f5260205f2090600202015f0154116106f3578282815481106106df576106de612afa565b5b905f5260205f2090600202015f01546106f5565b845b90508083838154811061070b5761070a612afa565b5b905f5260205f2090600202015f015f8282546107279190612c63565b92505081905550808561073a9190612c63565b94506107f283838154811061075257610751612afa565b5b905f5260205f209060020201600101805461076c90612b54565b80601f016020809104026020016040519081016040528092919081815260200182805461079890612b54565b80156107e35780601f106107ba576101008083540402835291602001916107e3565b820191905f5260205f20905b8154815290600101906020018083116107c657829003601f168201915b50505050508883600254612141565b846107fd9190612c96565b93505f83838154811061081357610812612afa565b5b905f5260205f2090600202015f015403610832576108318383612247565b5b505b808061083f90612cc9565b9150506105e6565b505f831461088a576040517f08c379a000000000000000000000000000000000000000000000000000000000815260040161088190612d80565b60405180910390fd5b60015f9054906101000a900473ffffffffffffffffffffffffffffffffffffffff1673ffffffffffffffffffffffffffffffffffffffff166379cc679088886040518363ffffffff1660e01b81526004016108e6929190612d9e565b5f604051808303815f87803b1580156108fd575f80fd5b505af115801561090f573d5f803e3d5ffd5b505050508193505050509392505050565b5f8260015f9054906101000a900473ffffffffffffffffffffffffffffffffffffffff1673ffffffffffffffffffffffffffffffffffffffff166370a08231866040518263ffffffff1660e01b815260040161097c9190612a3a565b602060405180830381865afa158015610997573d5f803e3d5ffd5b505050506040513d601f19601f820116820180604052508101906109bb9190612a67565b10156109fc576040517f08c379a00000000000000000000000000000000000000000000000000000000081526004016109f390612adc565b60405180910390fd5b5f8390505f8060075f8873ffffffffffffffffffffffffffffffffffffffff1673ffffffffffffffffffffffffffffffffffffffff1681526020019081526020015f2090505f5b818054905081108015610a5557505f84115b15610ca4576040518060400160405280600781526020017f6d6f726e696e670000000000000000000000000000000000000000000000000081525080519060200120828281548110610aaa57610aa9612afa565b5b905f5260205f209060020201600101604051610ac69190612c20565b6040518091039020148015610afb57505f828281548110610aea57610ae9612afa565b5b905f5260205f2090600202015f0154115b15610c91575f84838381548110610b1557610b14612afa565b5b905f5260205f2090600202015f015411610b5057828281548110610b3c57610b3b612afa565b5b905f5260205f2090600202015f0154610b52565b845b905080838381548110610b6857610b67612afa565b5b905f5260205f2090600202015f015f828254610b849190612c63565b925050819055508085610b979190612c63565b9450610c4f838381548110610baf57610bae612afa565b5b905f5260205f2090600202016001018054610bc990612b54565b80601f0160208091040260200160405190810160405280929190818152602001828054610bf590612b54565b8015610c405780601f10610c1757610100808354040283529160200191610c40565b820191905f5260205f20905b815481529060010190602001808311610c2357829003601f168201915b50505050508883600454612141565b84610c5a9190612c96565b93505f838381548110610c7057610c6f612afa565b5b905f5260205f2090600202015f015403610c8f57610c8e8383612247565b5b505b8080610c9c90612cc9565b915050610a43565b505f5b818054905081108015610cb957505f84115b15610f08576040518060400160405280600981526020017f61667465726e6f6f6e000000000000000000000000000000000000000000000081525080519060200120828281548110610d0e57610d0d612afa565b5b905f5260205f209060020201600101604051610d2a9190612c20565b6040518091039020148015610d5f57505f828281548110610d4e57610d4d612afa565b5b905f5260205f2090600202015f0154115b15610ef5575f84838381548110610d7957610d78612afa565b5b905f5260205f2090600202015f015411610db457828281548110610da057610d9f612afa565b5b905f5260205f2090600202015f0154610db6565b845b905080838381548110610dcc57610dcb612afa565b5b905f5260205f2090600202015f015f828254610de89190612c63565b925050819055508085610dfb9190612c63565b9450610eb3838381548110610e1357610e12612afa565b5b905f5260205f2090600202016001018054610e2d90612b54565b80601f0160208091040260200160405190810160405280929190818152602001828054610e5990612b54565b8015610ea45780601f10610e7b57610100808354040283529160200191610ea4565b820191905f5260205f20905b815481529060010190602001808311610e8757829003601f168201915b50505050508883600454612141565b84610ebe9190612c96565b93505f838381548110610ed457610ed3612afa565b5b905f5260205f2090600202015f015403610ef357610ef28383612247565b5b505b8080610f0090612cc9565b915050610ca7565b505f8314610f4b576040517f08c379a0000000000000000000000000000000000000000000000000000000008152600401610f4290612d80565b60405180910390fd5b60015f9054906101000a900473ffffffffffffffffffffffffffffffffffffffff1673ffffffffffffffffffffffffffffffffffffffff166379cc679088886040518363ffffffff1660e01b8152600401610fa7929190612d9e565b5f604051808303815f87803b158015610fbe575f80fd5b505af1158015610fd0573d5f803e3d5ffd5b505050508193505050509392505050565b5f8054906101000a900473ffffffffffffffffffffffffffffffffffffffff1681565b6005602052815f5260405f20818154811061101d575f80fd5b905f5260205f2090600202015f9150915050805f01549080600101805461104390612b54565b80601f016020809104026020016040519081016040528092919081815260200182805461106f90612b54565b80156110ba5780601f10611091576101008083540402835291602001916110ba565b820191905f5260205f20905b81548152906001019060200180831161109d57829003601f168201915b5050505050905082565b60015f9054906101000a900473ffffffffffffffffffffffffffffffffffffffff1673ffffffffffffffffffffffffffffffffffffffff166340c10f1984846040518363ffffffff1660e01b8152600401611120929190612d9e565b5f604051808303815f87803b158015611137575f80fd5b505af1158015611149573d5f803e3d5ffd5b505050505f604051806040016040528084815260200183815250905060075f8573ffffffffffffffffffffffffffffffffffffffff1673ffffffffffffffffffffffffffffffffffffffff1681526020019081526020015f2081908060018154018082558091505060019003905f5260205f2090600202015f909190919091505f820151815f015560208201518160010190816111e69190612f59565b50505050505050565b6007602052815f5260405f208181548110611208575f80fd5b905f5260205f2090600202015f9150915050805f01549080600101805461122e90612b54565b80601f016020809104026020016040519081016040528092919081815260200182805461125a90612b54565b80156112a55780601f1061127c576101008083540402835291602001916112a5565b820191905f5260205f20905b81548152906001019060200180831161128857829003601f168201915b5050505050905082565b5f8260015f9054906101000a900473ffffffffffffffffffffffffffffffffffffffff1673ffffffffffffffffffffffffffffffffffffffff166370a08231866040518263ffffffff1660e01b815260040161130b9190612a3a565b602060405180830381865afa158015611326573d5f803e3d5ffd5b505050506040513d601f19601f8201168201806040525081019061134a9190612a67565b101561138b576040517f08c379a000000000000000000000000000000000000000000000000000000000815260040161138290612adc565b60405180910390fd5b5f8390505f8060065f8873ffffffffffffffffffffffffffffffffffffffff1673ffffffffffffffffffffffffffffffffffffffff1681526020019081526020015f2090505f5b8180549050811080156113e457505f84115b15611633576040518060400160405280600781526020017f6d6f726e696e67000000000000000000000000000000000000000000000000008152508051906020012082828154811061143957611438612afa565b5b905f5260205f2090600302016001016040516114559190612c20565b604051809103902014801561148a57505f82828154811061147957611478612afa565b5b905f5260205f2090600302015f0154115b15611620575f848383815481106114a4576114a3612afa565b5b905f5260205f2090600302015f0154116114df578282815481106114cb576114ca612afa565b5b905f5260205f2090600302015f01546114e1565b845b9050808383815481106114f7576114f6612afa565b5b905f5260205f2090600302015f015f8282546115139190612c63565b9250508190555080856115269190612c63565b94506115de83838154811061153e5761153d612afa565b5b905f5260205f209060030201600101805461155890612b54565b80601f016020809104026020016040519081016040528092919081815260200182805461158490612b54565b80156115cf5780601f106115a6576101008083540402835291602001916115cf565b820191905f5260205f20905b8154815290600101906020018083116115b257829003601f168201915b50505050508883600354612141565b846115e99190612c96565b93505f8383815481106115ff576115fe612afa565b5b905f5260205f2090600302015f01540361161e5761161d8383612369565b5b505b808061162b90612cc9565b9150506113d2565b505f5b81805490508110801561164857505f84115b15611897576040518060400160405280600981526020017f61667465726e6f6f6e00000000000000000000000000000000000000000000008152508051906020012082828154811061169d5761169c612afa565b5b905f5260205f2090600302016001016040516116b99190612c20565b60405180910390201480156116ee57505f8282815481106116dd576116dc612afa565b5b905f5260205f2090600302015f0154115b15611884575f8483838154811061170857611707612afa565b5b905f5260205f2090600302015f0154116117435782828154811061172f5761172e612afa565b5b905f5260205f2090600302015f0154611745565b845b90508083838154811061175b5761175a612afa565b5b905f5260205f2090600302015f015f8282546117779190612c63565b92505081905550808561178a9190612c63565b94506118428383815481106117a2576117a1612afa565b5b905f5260205f20906003020160010180546117bc90612b54565b80601f01602080910402602001604051908101604052809291908181526020018280546117e890612b54565b80156118335780601f1061180a57610100808354040283529160200191611833565b820191905f5260205f20905b81548152906001019060200180831161181657829003601f168201915b50505050508883600354612141565b8461184d9190612c96565b93505f83838154811061186357611862612afa565b5b905f5260205f2090600302015f015403611882576118818383612369565b5b505b808061188f90612cc9565b915050611636565b505f83146118da576040517f08c379a00000000000000000000000000000000000000000000000000000000081526004016118d190612d80565b60405180910390fd5b60015f9054906101000a900473ffffffffffffffffffffffffffffffffffffffff1673ffffffffffffffffffffffffffffffffffffffff166379cc679088886040518363ffffffff1660e01b8152600401611936929190612d9e565b5f604051808303815f87803b15801561194d575f80fd5b505af115801561195f573d5f803e3d5ffd5b505050508193505050509392505050565b815f8054906101000a900473ffffffffffffffffffffffffffffffffffffffff1673ffffffffffffffffffffffffffffffffffffffff166370a08231856040518263ffffffff1660e01b81526004016119c99190612a3a565b602060405180830381865afa1580156119e4573d5f803e3d5ffd5b505050506040513d601f19601f82011682018060405250810190611a089190612a67565b1015611a49576040517f08c379a0000000000000000000000000000000000000000000000000000000008152600401611a4090613072565b60405180910390fd5b5f8054906101000a900473ffffffffffffffffffffffffffffffffffffffff1673ffffffffffffffffffffffffffffffffffffffff166323b872dd8430856040518463ffffffff1660e01b8152600401611aa593929190613090565b6020604051808303815f875af1158015611ac1573d5f803e3d5ffd5b505050506040513d601f19601f82011682018060405250810190611ae591906130fa565b5060015f9054906101000a900473ffffffffffffffffffffffffffffffffffffffff1673ffffffffffffffffffffffffffffffffffffffff166340c10f1984846040518363ffffffff1660e01b8152600401611b42929190612d9e565b5f604051808303815f87803b158015611b59575f80fd5b505af1158015611b6b573d5f803e3d5ffd5b505050505f604051806040016040528084815260200183815250905060055f8573ffffffffffffffffffffffffffffffffffffffff1673ffffffffffffffffffffffffffffffffffffffff1681526020019081526020015f2081908060018154018082558091505060019003905f5260205f2090600202015f909190919091505f820151815f01556020820151816001019081611c089190612f59565b50505050505050565b5f8290505f805f805f8573ffffffffffffffffffffffffffffffffffffffff166359705f816040518163ffffffff1660e01b81526004015f60405180830381865afa158015611c62573d5f803e3d5ffd5b505050506040513d5f823e3d601f19601f82011682018060405250810190611c8a91906131a7565b9650965050509450945094508973ffffffffffffffffffffffffffffffffffffffff168473ffffffffffffffffffffffffffffffffffffffff1614611d04576040517f08c379a0000000000000000000000000000000000000000000000000000000008152600401611cfb906132c6565b60405180910390fd5b88831015611d47576040517f08c379a0000000000000000000000000000000000000000000000000000000008152600401611d3e9061332e565b60405180910390fd5b818015611d52575080155b611d91576040517f08c379a0000000000000000000000000000000000000000000000000000000008152600401611d88906133bc565b60405180910390fd5b5f60065f8c73ffffffffffffffffffffffffffffffffffffffff1673ffffffffffffffffffffffffffffffffffffffff1681526020019081526020015f2090505f5b8180549050811015611ea1578973ffffffffffffffffffffffffffffffffffffffff16828281548110611e0957611e08612afa565b5b905f5260205f2090600302016002015f9054906101000a900473ffffffffffffffffffffffffffffffffffffffff1673ffffffffffffffffffffffffffffffffffffffff1603611e8e576040517f08c379a0000000000000000000000000000000000000000000000000000000008152600401611e859061344a565b60405180910390fd5b8080611e9990612cc9565b915050611dd3565b5060015f9054906101000a900473ffffffffffffffffffffffffffffffffffffffff1673ffffffffffffffffffffffffffffffffffffffff166340c10f198c8c6040518363ffffffff1660e01b8152600401611efe929190612d9e565b5f604051808303815f87803b158015611f15575f80fd5b505af1158015611f27573d5f803e3d5ffd5b505050505f60405180606001604052808c81526020018a81526020018b73ffffffffffffffffffffffffffffffffffffffff16815250905060065f8d73ffffffffffffffffffffffffffffffffffffffff1673ffffffffffffffffffffffffffffffffffffffff1681526020019081526020015f2081908060018154018082558091505060019003905f5260205f2090600302015f909190919091505f820151815f01556020820151816001019081611fe09190612f59565b506040820151816002015f6101000a81548173ffffffffffffffffffffffffffffffffffffffff021916908373ffffffffffffffffffffffffffffffffffffffff1602179055505050505050505050505050505050565b60015f9054906101000a900473ffffffffffffffffffffffffffffffffffffffff1681565b6006602052815f5260405f208181548110612075575f80fd5b905f5260205f2090600302015f9150915050805f01549080600101805461209b90612b54565b80601f01602080910402602001604051908101604052809291908181526020018280546120c790612b54565b80156121125780601f106120e957610100808354040283529160200191612112565b820191905f5260205f20905b8154815290600101906020018083116120f557829003601f168201915b505050505090806002015f9054906101000a900473ffffffffffffffffffffffffffffffffffffffff16905083565b5f805f9050848051906020012086805190602001200361217a57606483856121699190613468565b61217391906134d6565b905061223b565b6040518060400160405280600781526020017f6d6f726e696e670000000000000000000000000000000000000000000000000081525080519060200120868051906020012014801561220e57506040518060400160405280600981526020017f61667465726e6f6f6e0000000000000000000000000000000000000000000000815250805190602001208580519060200120145b1561223a576064600284866122239190613468565b61222d9190613468565b61223791906134d6565b90505b5b80915050949350505050565b8180549050811061228d576040517f08c379a000000000000000000000000000000000000000000000000000000000815260040161228490613550565b60405180910390fd5b5f8190505b600183805490506122a39190612c63565b81101561232757826001826122b89190612c96565b815481106122c9576122c8612afa565b5b905f5260205f2090600202018382815481106122e8576122e7612afa565b5b905f5260205f2090600202015f820154815f0155600182018160010190816123109190613583565b50905050808061231f90612cc9565b915050612292565b508180548061233957612338613668565b5b600190038181905f5260205f2090600202015f8082015f9055600182015f6123619190612516565b505090555050565b818054905081106123af576040517f08c379a00000000000000000000000000000000000000000000000000000000081526004016123a690613550565b60405180910390fd5b5f8190505b600183805490506123c59190612c63565b8110156124ae57826001826123da9190612c96565b815481106123eb576123ea612afa565b5b905f5260205f20906003020183828154811061240a57612409612afa565b5b905f5260205f2090600302015f820154815f0155600182018160010190816124329190613583565b50600282015f9054906101000a900473ffffffffffffffffffffffffffffffffffffffff16816002015f6101000a81548173ffffffffffffffffffffffffffffffffffffffff021916908373ffffffffffffffffffffffffffffffffffffffff16021790555090505080806124a690612cc9565b9150506123b4565b50818054806124c0576124bf613668565b5b600190038181905f5260205f2090600302015f8082015f9055600182015f6124e89190612516565b600282015f6101000a81549073ffffffffffffffffffffffffffffffffffffffff0219169055505090555050565b50805461252290612b54565b5f825580601f106125335750612550565b601f0160209004905f5260205f209081019061254f9190612553565b5b50565b5b8082111561256a575f815f905550600101612554565b5090565b5f604051905090565b5f80fd5b5f80fd5b5f73ffffffffffffffffffffffffffffffffffffffff82169050919050565b5f6125a88261257f565b9050919050565b6125b88161259e565b81146125c2575f80fd5b50565b5f813590506125d3816125af565b92915050565b5f819050919050565b6125eb816125d9565b81146125f5575f80fd5b50565b5f81359050612606816125e2565b92915050565b5f80fd5b5f80fd5b5f601f19601f8301169050919050565b7f4e487b71000000000000000000000000000000000000000000000000000000005f52604160045260245ffd5b61265a82612614565b810181811067ffffffffffffffff8211171561267957612678612624565b5b80604052505050565b5f61268b61256e565b90506126978282612651565b919050565b5f67ffffffffffffffff8211156126b6576126b5612624565b5b6126bf82612614565b9050602081019050919050565b828183375f83830152505050565b5f6126ec6126e78461269c565b612682565b90508281526020810184848401111561270857612707612610565b5b6127138482856126cc565b509392505050565b5f82601f83011261272f5761272e61260c565b5b813561273f8482602086016126da565b91505092915050565b5f805f6060848603121561275f5761275e612577565b5b5f61276c868287016125c5565b935050602061277d868287016125f8565b925050604084013567ffffffffffffffff81111561279e5761279d61257b565b5b6127aa8682870161271b565b9150509250925092565b6127bd816125d9565b82525050565b5f6020820190506127d65f8301846127b4565b92915050565b5f819050919050565b5f6127ff6127fa6127f58461257f565b6127dc565b61257f565b9050919050565b5f612810826127e5565b9050919050565b5f61282182612806565b9050919050565b61283181612817565b82525050565b5f60208201905061284a5f830184612828565b92915050565b5f806040838503121561286657612865612577565b5b5f612873858286016125c5565b9250506020612884858286016125f8565b9150509250929050565b5f81519050919050565b5f82825260208201905092915050565b5f5b838110156128c55780820151818401526020810190506128aa565b5f8484015250505050565b5f6128da8261288e565b6128e48185612898565b93506128f48185602086016128a8565b6128fd81612614565b840191505092915050565b5f60408201905061291b5f8301856127b4565b818103602083015261292d81846128d0565b90509392505050565b5f805f806080858703121561294e5761294d612577565b5b5f61295b878288016125c5565b945050602061296c878288016125f8565b935050604061297d878288016125c5565b925050606085013567ffffffffffffffff81111561299e5761299d61257b565b5b6129aa8782880161271b565b91505092959194509250565b5f6129c082612806565b9050919050565b6129d0816129b6565b82525050565b5f6020820190506129e95f8301846129c7565b92915050565b6129f88161259e565b82525050565b5f606082019050612a115f8301866127b4565b8181036020830152612a2381856128d0565b9050612a3260408301846129ef565b949350505050565b5f602082019050612a4d5f8301846129ef565b92915050565b5f81519050612a61816125e2565b92915050565b5f60208284031215612a7c57612a7b612577565b5b5f612a8984828501612a53565b91505092915050565b7f496e73756666696369656e74204342444320746f6b656e7300000000000000005f82015250565b5f612ac6601883612898565b9150612ad182612a92565b602082019050919050565b5f6020820190508181035f830152612af381612aba565b9050919050565b7f4e487b71000000000000000000000000000000000000000000000000000000005f52603260045260245ffd5b7f4e487b71000000000000000000000000000000000000000000000000000000005f52602260045260245ffd5b5f6002820490506001821680612b6b57607f821691505b602082108103612b7e57612b7d612b27565b5b50919050565b5f81905092915050565b5f819050815f5260205f209050919050565b5f8154612bac81612b54565b612bb68186612b84565b9450600182165f8114612bd05760018114612be557612c17565b60ff1983168652811515820286019350612c17565b612bee85612b8e565b5f5b83811015612c0f57815481890152600182019150602081019050612bf0565b838801955050505b50505092915050565b5f612c2b8284612ba0565b915081905092915050565b7f4e487b71000000000000000000000000000000000000000000000000000000005f52601160045260245ffd5b5f612c6d826125d9565b9150612c78836125d9565b9250828203905081811115612c9057612c8f612c36565b5b92915050565b5f612ca0826125d9565b9150612cab836125d9565b9250828201905080821115612cc357612cc2612c36565b5b92915050565b5f612cd3826125d9565b91507fffffffffffffffffffffffffffffffffffffffffffffffffffffffffffffffff8203612d0557612d04612c36565b5b600182019050919050565b7f556e61626c6520746f20736574746c65207468652066756c6c20616d6f756e745f8201527f207769746820617661696c61626c652063726564697473000000000000000000602082015250565b5f612d6a603783612898565b9150612d7582612d10565b604082019050919050565b5f6020820190508181035f830152612d9781612d5e565b9050919050565b5f604082019050612db15f8301856129ef565b612dbe60208301846127b4565b9392505050565b5f819050815f5260205f209050919050565b5f6020601f8301049050919050565b5f82821b905092915050565b5f60088302612e217fffffffffffffffffffffffffffffffffffffffffffffffffffffffffffffffff82612de6565b612e2b8683612de6565b95508019841693508086168417925050509392505050565b5f612e5d612e58612e53846125d9565b6127dc565b6125d9565b9050919050565b5f819050919050565b612e7683612e43565b612e8a612e8282612e64565b848454612df2565b825550505050565b5f90565b612e9e612e92565b612ea9818484612e6d565b505050565b5b81811015612ecc57612ec15f82612e96565b600181019050612eaf565b5050565b601f821115612f1157612ee281612dc5565b612eeb84612dd7565b81016020851015612efa578190505b612f0e612f0685612dd7565b830182612eae565b50505b505050565b5f82821c905092915050565b5f612f315f1984600802612f16565b1980831691505092915050565b5f612f498383612f22565b9150826002028217905092915050565b612f628261288e565b67ffffffffffffffff811115612f7b57612f7a612624565b5b612f858254612b54565b612f90828285612ed0565b5f60209050601f831160018114612fc1575f8415612faf578287015190505b612fb98582612f3e565b865550613020565b601f198416612fcf86612dc5565b5f5b82811015612ff657848901518255600182019150602085019450602081019050612fd1565b86831015613013578489015161300f601f891682612f22565b8355505b6001600288020188555050505b505050505050565b7f496e73756666696369656e74205341464520746f6b656e7300000000000000005f82015250565b5f61305c601883612898565b915061306782613028565b602082019050919050565b5f6020820190508181035f83015261308981613050565b9050919050565b5f6060820190506130a35f8301866129ef565b6130b060208301856129ef565b6130bd60408301846127b4565b949350505050565b5f8115159050919050565b6130d9816130c5565b81146130e3575f80fd5b50565b5f815190506130f4816130d0565b92915050565b5f6020828403121561310f5761310e612577565b5b5f61311c848285016130e6565b91505092915050565b5f81519050613133816125af565b92915050565b5f61314b6131468461269c565b612682565b90508281526020810184848401111561316757613166612610565b5b6131728482856128a8565b509392505050565b5f82601f83011261318e5761318d61260c565b5b815161319e848260208601613139565b91505092915050565b5f805f805f805f60e0888a0312156131c2576131c1612577565b5b5f6131cf8a828b01613125565b97505060206131e08a828b01613125565b96505060406131f18a828b01612a53565b955050606088015167ffffffffffffffff8111156132125761321161257b565b5b61321e8a828b0161317a565b945050608088015167ffffffffffffffff81111561323f5761323e61257b565b5b61324b8a828b0161317a565b93505060a061325c8a828b016130e6565b92505060c061326d8a828b016130e6565b91505092959891949750929550565b7f4163636f756e74206d7573742062652074686520726563697069656e740000005f82015250565b5f6132b0601d83612898565b91506132bb8261327c565b602082019050919050565b5f6020820190508181035f8301526132dd816132a4565b9050919050565b7f5472616e73616374696f6e2076616c756520746f6f206c6f77000000000000005f82015250565b5f613318601983612898565b9150613323826132e4565b602082019050919050565b5f6020820190508181035f8301526133458161330c565b9050919050565b7f5472616e73616374696f6e206973206e6f74206f70656e206f722068617320625f8201527f65656e2063616e63656c6c656400000000000000000000000000000000000000602082015250565b5f6133a6602d83612898565b91506133b18261334c565b604082019050919050565b5f6020820190508181035f8301526133d38161339a565b9050919050565b7f5472616e73616374696f6e20616c7265616479207573656420666f72206372655f8201527f6469740000000000000000000000000000000000000000000000000000000000602082015250565b5f613434602383612898565b915061343f826133da565b604082019050919050565b5f6020820190508181035f83015261346181613428565b9050919050565b5f613472826125d9565b915061347d836125d9565b925082820261348b816125d9565b915082820484148315176134a2576134a1612c36565b5b5092915050565b7f4e487b71000000000000000000000000000000000000000000000000000000005f52601260045260245ffd5b5f6134e0826125d9565b91506134eb836125d9565b9250826134fb576134fa6134a9565b5b828204905092915050565b7f496e646578206f7574206f6620626f756e6473000000000000000000000000005f82015250565b5f61353a601383612898565b915061354582613506565b602082019050919050565b5f6020820190508181035f8301526135678161352e565b9050919050565b5f8154905061357c81612b54565b9050919050565b818103613591575050613666565b61359a8261356e565b67ffffffffffffffff8111156135b3576135b2612624565b5b6135bd8254612b54565b6135c8828285612ed0565b5f601f8311600181146135f5575f84156135e3578287015490505b6135ed8582612f3e565b86555061365f565b601f19841661360387612dc5565b965061360e86612dc5565b5f5b8281101561363557848901548255600182019150600185019450602081019050613610565b86831015613652578489015461364e601f891682612f22565b8355505b6001600288020188555050505b5050505050505b565b7f4e487b71000000000000000000000000000000000000000000000000000000005f52603160045260245ffdfea26469706673582212204918feb7115858a60715eee3ead3c3243b66837ebe2ad7f5b4d0cc19d4eddad364736f6c63430008140033",
  "immutableReferences": {},
  "source": "// SPDX-License-Identifier: MIT\npragma solidity ^0.8.20;\n\nimport \"@openzeppelin/contracts/token/ERC20/IERC20.sol\";\nimport \"./CBDC.sol\";\nimport \"./transaction.sol\";\n\ninterface ITransactionContract {\n    function getTransaction() external view returns (address, address, uint256, string memory, string memory, bool, bool);\n}\n\ncontract ICF {\n    IERC20 public safeToken;\n    CBDC public cbdcToken;\n\n    // Rates\n    // Should be expressed as a factor of 100 due to the limitation of Solidity not being abel to handle floating points\n    uint256 private collateralOpportunityRate; \n    uint256 private claimBackedRate;\n    uint256 private unsecuredRate;\n\n    // Credit records\n    struct CreditRecord {\n        uint256 amount;\n        string period;\n    }\n    struct ClaimBackedCreditRecord {\n        uint256 amount;\n        string period;\n        address transactionAddress;\n    }\n\n    mapping(address => CreditRecord[]) public collateralizedCredits;\n    mapping(address => ClaimBackedCreditRecord[]) public claimBackedCredits;\n    mapping(address => CreditRecord[]) public unsecuredCredits;\n\n    // Constructor\n    constructor(uint256 _collateralOpportunityRate, uint256 _claimBackedRate, uint256 _unsecuredRate, address _safeTokenAddress, address _cbdcTokenAddress) {\n        collateralOpportunityRate = _collateralOpportunityRate;\n        claimBackedRate = _claimBackedRate;\n        unsecuredRate = _unsecuredRate;\n        safeToken = IERC20(_safeTokenAddress);\n        cbdcToken = CBDC(_cbdcTokenAddress);\n    }\n\n    // Function to obtain collateralized credit\n    function obtainCollateralizedCredit(address account, uint256 value, string memory period) public {\n        require(safeToken.balanceOf(account) >= value, \"Insufficient SAFE tokens\");\n        safeToken.transferFrom(account, address(this), value);\n        cbdcToken.mint(account, value);\n\n        CreditRecord memory newCredit = CreditRecord({\n            amount: value,\n            period: period\n        });\n        // Add the new credit record to the account's list of credits\n        collateralizedCredits[account].push(newCredit);\n    }\n\n    // Function to obtain claim-backed credit\n    function obtainClaimBackedCredit(address account, uint256 value, address transactionAddress, string memory period) public {\n        // extract transaction details\n        ITransactionContract transaction = ITransactionContract(transactionAddress);\n        (address payor, address recipient, uint256 amount,,, bool isOpen, bool isCancelled) = transaction.getTransaction();\n\n        require(recipient == account, \"Account must be the recipient\");\n        require(amount >= value, \"Transaction value too low\");\n        require(isOpen && !isCancelled, \"Transaction is not open or has been cancelled\");\n        // Check if the transaction has been recorded before\n        ClaimBackedCreditRecord[] storage credits = claimBackedCredits[account];\n        for (uint i = 0; i < credits.length; i++) {\n            require(credits[i].transactionAddress != transactionAddress, \"Transaction already used for credit\");\n        }\n\n        // Mint CBDC tokens to the account\n        cbdcToken.mint(account, value);\n\n        // Create a new claim-backed credit record\n        ClaimBackedCreditRecord memory newCredit = ClaimBackedCreditRecord({\n            amount: value,\n            period: period,\n            transactionAddress: transactionAddress\n        });\n\n        // Add the new credit record to the account's list of claim-backed credits\n        claimBackedCredits[account].push(newCredit);\n    }\n\n    // Function to obtain unsecured credit\n    function obtainUnsecuredCredit(address account, uint256 value, string memory period) public {\n        cbdcToken.mint(account, value);\n\n        CreditRecord memory newCredit = CreditRecord({\n            amount: value,\n            period: period\n        });\n        // Add the new credit record to the account's list of credits\n        unsecuredCredits[account].push(newCredit);\n    }\n\n    function settleCollateralizedCredit(address account, uint256 value, string memory period) public returns(uint256){\n        require(cbdcToken.balanceOf(account) >= value, \"Insufficient CBDC tokens\");\n\n        uint256 remainingValue = value;\n        uint256 penalty = 0;\n        CreditRecord[] storage credits = collateralizedCredits[account];\n\n        // First, try to settle morning period credits\n        for (uint i = 0; i < credits.length && remainingValue > 0; i++) {\n            if (keccak256(bytes(credits[i].period)) == keccak256(bytes(\"morning\")) && credits[i].amount > 0) {\n                uint256 amountToSettle = credits[i].amount > remainingValue ? remainingValue : credits[i].amount;\n                credits[i].amount -= amountToSettle;\n                remainingValue -= amountToSettle;\n                penalty += calculatePenalty(credits[i].period, period, amountToSettle, collateralOpportunityRate);\n                if (credits[i].amount == 0) {\n                    removeCreditRecord(credits, i);\n                }\n            }\n        }\n\n        // Next, try to settle afternoon period credits\n        for (uint i = 0; i < credits.length && remainingValue > 0; i++) {\n            if (keccak256(bytes(credits[i].period)) == keccak256(bytes(\"afternoon\")) && credits[i].amount > 0) {\n                uint256 amountToSettle = credits[i].amount > remainingValue ? remainingValue : credits[i].amount;\n                credits[i].amount -= amountToSettle;\n                remainingValue -= amountToSettle;\n                penalty += calculatePenalty(credits[i].period, period, amountToSettle, collateralOpportunityRate);\n                if (credits[i].amount == 0) {\n                    removeCreditRecord(credits, i);\n                }\n            }\n        }\n\n        require(remainingValue == 0, \"Unable to settle the full amount with available credits\");\n\n        cbdcToken.burnFrom(account, value); // Burn the CBDC tokens\n\n        return penalty;\n    }\n\n    function settleClaimBackedCredit(address account, uint256 value, string memory period) public returns(uint256){\n        require(cbdcToken.balanceOf(account) >= value, \"Insufficient CBDC tokens\");\n\n        uint256 remainingValue = value;\n        uint256 penalty = 0;\n        ClaimBackedCreditRecord[] storage credits = claimBackedCredits[account];\n\n        // First, try to settle morning period credits\n        for (uint i = 0; i < credits.length && remainingValue > 0; i++) {\n            if (keccak256(bytes(credits[i].period)) == keccak256(bytes(\"morning\")) && credits[i].amount > 0) {\n                uint256 amountToSettle = credits[i].amount > remainingValue ? remainingValue : credits[i].amount;\n                credits[i].amount -= amountToSettle;\n                remainingValue -= amountToSettle;\n                penalty += calculatePenalty(credits[i].period, period, amountToSettle, claimBackedRate);\n                if (credits[i].amount == 0) {\n                    removeClaimBackedCreditRecord(credits, i);\n                }\n            }\n        }\n\n        // Next, try to settle afternoon period credits\n        for (uint i = 0; i < credits.length && remainingValue > 0; i++) {\n            if (keccak256(bytes(credits[i].period)) == keccak256(bytes(\"afternoon\")) && credits[i].amount > 0) {\n                uint256 amountToSettle = credits[i].amount > remainingValue ? remainingValue : credits[i].amount;\n                credits[i].amount -= amountToSettle;\n                remainingValue -= amountToSettle;\n                penalty += calculatePenalty(credits[i].period, period, amountToSettle, claimBackedRate);\n                if (credits[i].amount == 0) {\n                    removeClaimBackedCreditRecord(credits, i);\n                }\n            }\n        }\n\n        require(remainingValue == 0, \"Unable to settle the full amount with available credits\");\n\n        cbdcToken.burnFrom(account, value); // Burn the CBDC tokens\n\n        return penalty;\n    }\n\n    // Helper function to remove a claim-backed credit record\n    function removeClaimBackedCreditRecord(ClaimBackedCreditRecord[] storage credits, uint index) internal {\n        require(index < credits.length, \"Index out of bounds\");\n\n        for (uint i = index; i < credits.length - 1; i++) {\n            credits[i] = credits[i + 1];\n        }\n        credits.pop();\n    }\n\n\n    function settleUnsecuredCredit(address account, uint256 value, string memory period) public returns(uint256){\n        require(cbdcToken.balanceOf(account) >= value, \"Insufficient CBDC tokens\");\n\n        uint256 remainingValue = value;\n        uint256 penalty = 0;\n        CreditRecord[] storage credits = unsecuredCredits[account];\n\n        // First, try to settle morning period credits\n        for (uint i = 0; i < credits.length && remainingValue > 0; i++) {\n            if (keccak256(bytes(credits[i].period)) == keccak256(bytes(\"morning\")) && credits[i].amount > 0) {\n                uint256 amountToSettle = credits[i].amount > remainingValue ? remainingValue : credits[i].amount;\n                credits[i].amount -= amountToSettle;\n                remainingValue -= amountToSettle;\n                penalty += calculatePenalty(credits[i].period, period, amountToSettle, unsecuredRate);\n                if (credits[i].amount == 0) {\n                    removeCreditRecord(credits, i);\n                }\n            }\n        }\n\n        // Next, try to settle afternoon period credits\n        for (uint i = 0; i < credits.length && remainingValue > 0; i++) {\n            if (keccak256(bytes(credits[i].period)) == keccak256(bytes(\"afternoon\")) && credits[i].amount > 0) {\n                uint256 amountToSettle = credits[i].amount > remainingValue ? remainingValue : credits[i].amount;\n                credits[i].amount -= amountToSettle;\n                remainingValue -= amountToSettle;\n                penalty += calculatePenalty(credits[i].period, period, amountToSettle, unsecuredRate);\n                if (credits[i].amount == 0) {\n                    removeCreditRecord(credits, i);\n                }\n            }\n        }\n\n        require(remainingValue == 0, \"Unable to settle the full amount with available credits\");\n\n        cbdcToken.burnFrom(account, value); // Burn the CBDC tokens\n\n        return penalty;\n    }\n\n    // // Transfer CBDC token\n    // function transferCBDC(address fromPlayer, address toPlayer, uint256 amount) external {\n    //     cbdcToken.transferFrom(fromPlayer, toPlayer, amount);\n    // }\n\n    // // Check CBDC balance\n    // function checkCBDCBalance(address account) external returns(uint256){\n    //     return cbdcToken.balanceOf(account);\n    // }\n\n    // Helper function to remove a credit record\n    function removeCreditRecord(CreditRecord[] storage credits, uint index) internal {\n        require(index < credits.length, \"Index out of bounds\");\n\n        for (uint i = index; i < credits.length - 1; i++) {\n            credits[i] = credits[i + 1];\n        }\n        credits.pop();\n    }\n\n    function calculatePenalty(string memory startPeriod, string memory currentPeriod, uint256 amount, uint256 rate) internal returns(uint256) {\n        uint256 penalty = 0;\n        if (keccak256(bytes(startPeriod)) == keccak256(bytes(currentPeriod))) {\n            penalty = (amount * rate)/100;\n        } else if (keccak256(bytes(startPeriod)) == keccak256(bytes(\"morning\")) && keccak256(bytes(currentPeriod)) == keccak256(bytes(\"afternoon\"))) {\n            penalty = (amount * rate * 2)/100;\n        }\n\n        return penalty;\n    }\n}\n",
  "sourcePath": "/Users/kennethsee/Documents/GitHub/IntradayLiquidityManagementGameBlockchain/contracts/ICF.sol",
  "compiler": {
    "name": "solc",
    "version": "0.8.20+commit.a1b79de6.Emscripten.clang"
  },
  "schemaVersion": "3.4.13",
  "updatedAt": "2023-11-21T05:31:47.302Z",
  "devdoc": {
    "kind": "dev",
    "methods": {},
    "version": 1
  },
  "userdoc": {
    "kind": "user",
    "methods": {},
    "version": 1
  }
}