{
  "contractName": "System",
  "abi": [
    {
      "inputs": [
        {
          "internalType": "address",
          "name": "_player1",
          "type": "address"
        },
        {
          "internalType": "address",
          "name": "_player2",
          "type": "address"
        },
        {
          "internalType": "address",
          "name": "_icf",
          "type": "address"
        },
        {
          "internalType": "address",
          "name": "_cbdcToken",
          "type": "address"
        },
        {
          "internalType": "uint256",
          "name": "_delayCost",
          "type": "uint256"
        },
        {
          "internalType": "uint256",
          "name": "_additionalDelayCost",
          "type": "uint256"
        }
      ],
      "stateMutability": "nonpayable",
      "type": "constructor"
    },
    {
      "inputs": [],
      "name": "cbdcToken",
      "outputs": [
        {
          "internalType": "contract CBDC",
          "name": "",
          "type": "address"
        }
      ],
      "stateMutability": "view",
      "type": "function"
    },
    {
      "inputs": [],
      "name": "currentPeriod",
      "outputs": [
        {
          "internalType": "string",
          "name": "",
          "type": "string"
        }
      ],
      "stateMutability": "view",
      "type": "function"
    },
    {
      "inputs": [],
      "name": "icf",
      "outputs": [
        {
          "internalType": "address",
          "name": "",
          "type": "address"
        }
      ],
      "stateMutability": "view",
      "type": "function"
    },
    {
      "inputs": [],
      "name": "player1",
      "outputs": [
        {
          "internalType": "address",
          "name": "",
          "type": "address"
        }
      ],
      "stateMutability": "view",
      "type": "function"
    },
    {
      "inputs": [],
      "name": "player2",
      "outputs": [
        {
          "internalType": "address",
          "name": "",
          "type": "address"
        }
      ],
      "stateMutability": "view",
      "type": "function"
    },
    {
      "inputs": [
        {
          "internalType": "address",
          "name": "",
          "type": "address"
        },
        {
          "internalType": "uint256",
          "name": "",
          "type": "uint256"
        }
      ],
      "name": "playerTransactions",
      "outputs": [
        {
          "internalType": "contract ITransactionContract",
          "name": "",
          "type": "address"
        }
      ],
      "stateMutability": "view",
      "type": "function"
    },
    {
      "inputs": [],
      "name": "nextPeriod",
      "outputs": [],
      "stateMutability": "nonpayable",
      "type": "function"
    },
    {
      "inputs": [
        {
          "internalType": "address",
          "name": "transactionAddress",
          "type": "address"
        }
      ],
      "name": "loadTransactionContract",
      "outputs": [],
      "stateMutability": "nonpayable",
      "type": "function"
    },
    {
      "inputs": [
        {
          "internalType": "address",
          "name": "transactionAddress",
          "type": "address"
        }
      ],
      "name": "settleTransaction",
      "outputs": [],
      "stateMutability": "nonpayable",
      "type": "function"
    }
  ],
  "bytecode": "0x60806040525f600a5f6101000a81548160ff021916908360028111156200002b576200002a620001c2565b5b02179055503480156200003c575f80fd5b50604051620028a8380380620028a883398181016040528101906200006291906200028c565b855f806101000a81548173ffffffffffffffffffffffffffffffffffffffff021916908373ffffffffffffffffffffffffffffffffffffffff1602179055508460015f6101000a81548173ffffffffffffffffffffffffffffffffffffffff021916908373ffffffffffffffffffffffffffffffffffffffff1602179055508360025f6101000a81548173ffffffffffffffffffffffffffffffffffffffff021916908373ffffffffffffffffffffffffffffffffffffffff1602179055506040518060400160405280600781526020017f6d6f726e696e6700000000000000000000000000000000000000000000000000815250600390816200016791906200057f565b508260045f6101000a81548173ffffffffffffffffffffffffffffffffffffffff021916908373ffffffffffffffffffffffffffffffffffffffff160217905550816005819055508060068190555050505050505062000663565b7f4e487b71000000000000000000000000000000000000000000000000000000005f52602160045260245ffd5b5f80fd5b5f73ffffffffffffffffffffffffffffffffffffffff82169050919050565b5f6200021e82620001f3565b9050919050565b620002308162000212565b81146200023b575f80fd5b50565b5f815190506200024e8162000225565b92915050565b5f819050919050565b620002688162000254565b811462000273575f80fd5b50565b5f8151905062000286816200025d565b92915050565b5f805f805f8060c08789031215620002a957620002a8620001ef565b5b5f620002b889828a016200023e565b9650506020620002cb89828a016200023e565b9550506040620002de89828a016200023e565b9450506060620002f189828a016200023e565b93505060806200030489828a0162000276565b92505060a06200031789828a0162000276565b9150509295509295509295565b5f81519050919050565b7f4e487b71000000000000000000000000000000000000000000000000000000005f52604160045260245ffd5b7f4e487b71000000000000000000000000000000000000000000000000000000005f52602260045260245ffd5b5f6002820490506001821680620003a057607f821691505b602082108103620003b657620003b56200035b565b5b50919050565b5f819050815f5260205f209050919050565b5f6020601f8301049050919050565b5f82821b905092915050565b5f600883026200041a7fffffffffffffffffffffffffffffffffffffffffffffffffffffffffffffffff82620003dd565b620004268683620003dd565b95508019841693508086168417925050509392505050565b5f819050919050565b5f62000467620004616200045b8462000254565b6200043e565b62000254565b9050919050565b5f819050919050565b620004828362000447565b6200049a62000491826200046e565b848454620003e9565b825550505050565b5f90565b620004b0620004a2565b620004bd81848462000477565b505050565b5b81811015620004e457620004d85f82620004a6565b600181019050620004c3565b5050565b601f8211156200053357620004fd81620003bc565b6200050884620003ce565b8101602085101562000518578190505b620005306200052785620003ce565b830182620004c2565b50505b505050565b5f82821c905092915050565b5f620005555f198460080262000538565b1980831691505092915050565b5f6200056f838362000544565b9150826002028217905092915050565b6200058a8262000324565b67ffffffffffffffff811115620005a657620005a56200032e565b5b620005b2825462000388565b620005bf828285620004e8565b5f60209050601f831160018114620005f5575f8415620005e0578287015190505b620005ec858262000562565b8655506200065b565b601f1984166200060586620003bc565b5f5b828110156200062e5784890151825560018201915060208501945060208101905062000607565b868310156200064e57848901516200064a601f89168262000544565b8355505b6001600288020188555050505b505050505050565b61223780620006715f395ff3fe608060405234801561000f575f80fd5b5060043610610091575f3560e01c80635d025a46116100645780635d025a461461011f578063c09a04411461013b578063d30895e414610157578063e10173b614610175578063ec607f7d1461019357610091565b806306040618146100955780632b4c6ad3146100b357806359a5f12d146100d15780635a409166146100ef575b5f80fd5b61009d61019d565b6040516100aa91906112d5565b60405180910390f35b6100bb610229565b6040516100c89190611334565b60405180910390f35b6100d961024e565b6040516100e69190611334565b60405180910390f35b610109600480360381019061010491906113bb565b610273565b6040516101169190611454565b60405180910390f35b6101396004803603810190610134919061146d565b6102bb565b005b6101556004803603810190610150919061146d565b6103be565b005b61015f610993565b60405161016c9190611334565b60405180910390f35b61017d6109b6565b60405161018a91906114b8565b60405180910390f35b61019b6109db565b005b600380546101aa906114fe565b80601f01602080910402602001604051908101604052809291908181526020018280546101d6906114fe565b80156102215780601f106101f857610100808354040283529160200191610221565b820191905f5260205f20905b81548152906001019060200180831161020457829003601f168201915b505050505081565b60025f9054906101000a900473ffffffffffffffffffffffffffffffffffffffff1681565b60015f9054906101000a900473ffffffffffffffffffffffffffffffffffffffff1681565b6007602052815f5260405f20818154811061028c575f80fd5b905f5260205f20015f915091509054906101000a900473ffffffffffffffffffffffffffffffffffffffff1681565b6040518060400160405280600a81526020017f656e642d6f662d6461790000000000000000000000000000000000000000000081525080519060200120600360405161030791906115ca565b60405180910390200361034f576040517f08c379a00000000000000000000000000000000000000000000000000000000081526004016103469061162a565b60405180910390fd5b5f8190508073ffffffffffffffffffffffffffffffffffffffff1663e045761b60036040518263ffffffff1660e01b815260040161038d91906116db565b5f604051808303815f87803b1580156103a4575f80fd5b505af11580156103b6573d5f803e3d5ffd5b505050505050565b5f8190505f805f808473ffffffffffffffffffffffffffffffffffffffff166359705f816040518163ffffffff1660e01b81526004015f60405180830381865afa15801561040e573d5f803e3d5ffd5b505050506040513d5f823e3d601f19601f820116820180604052508101906104369190611876565b509550509450509350935080610481576040517f08c379a0000000000000000000000000000000000000000000000000000000008152600401610478906119bb565b60405180910390fd5b5f8054906101000a900473ffffffffffffffffffffffffffffffffffffffff1673ffffffffffffffffffffffffffffffffffffffff168473ffffffffffffffffffffffffffffffffffffffff161480610526575060015f9054906101000a900473ffffffffffffffffffffffffffffffffffffffff1673ffffffffffffffffffffffffffffffffffffffff168473ffffffffffffffffffffffffffffffffffffffff16145b610565576040517f08c379a000000000000000000000000000000000000000000000000000000000815260040161055c90611a23565b60405180910390fd5b5f8054906101000a900473ffffffffffffffffffffffffffffffffffffffff1673ffffffffffffffffffffffffffffffffffffffff168373ffffffffffffffffffffffffffffffffffffffff16148061060a575060015f9054906101000a900473ffffffffffffffffffffffffffffffffffffffff1673ffffffffffffffffffffffffffffffffffffffff168373ffffffffffffffffffffffffffffffffffffffff16145b610649576040517f08c379a000000000000000000000000000000000000000000000000000000000815260040161064090611a8b565b60405180910390fd5b60015f9054906101000a900473ffffffffffffffffffffffffffffffffffffffff1673ffffffffffffffffffffffffffffffffffffffff165f8054906101000a900473ffffffffffffffffffffffffffffffffffffffff1673ffffffffffffffffffffffffffffffffffffffff16036106f7576040517f08c379a00000000000000000000000000000000000000000000000000000000081526004016106ee90611af3565b60405180910390fd5b600360405161070691906115ca565b6040518091039020828051906020012014610756576040517f08c379a000000000000000000000000000000000000000000000000000000000815260040161074d90611b5b565b60405180910390fd5b60085f8573ffffffffffffffffffffffffffffffffffffffff1673ffffffffffffffffffffffffffffffffffffffff1681526020019081526020015f20826040516107a19190611bb3565b90815260200160405180910390205f9054906101000a900460ff16156107fc576040517f08c379a00000000000000000000000000000000000000000000000000000000081526004016107f390611c39565b60405180910390fd5b600260075f8673ffffffffffffffffffffffffffffffffffffffff1673ffffffffffffffffffffffffffffffffffffffff1681526020019081526020015f20805490501061087f576040517f08c379a000000000000000000000000000000000000000000000000000000000815260040161087690611cc7565b60405180910390fd5b60075f8573ffffffffffffffffffffffffffffffffffffffff1673ffffffffffffffffffffffffffffffffffffffff1681526020019081526020015f2085908060018154018082558091505060019003905f5260205f20015f9091909190916101000a81548173ffffffffffffffffffffffffffffffffffffffff021916908373ffffffffffffffffffffffffffffffffffffffff160217905550600160085f8673ffffffffffffffffffffffffffffffffffffffff1673ffffffffffffffffffffffffffffffffffffffff1681526020019081526020015f20836040516109679190611bb3565b90815260200160405180910390205f6101000a81548160ff021916908315150217905550505050505050565b5f8054906101000a900473ffffffffffffffffffffffffffffffffffffffff1681565b60045f9054906101000a900473ffffffffffffffffffffffffffffffffffffffff1681565b6002808111156109ee576109ed611ce5565b5b600a5f9054906101000a900460ff166002811115610a0f57610a0e611ce5565b5b03610a4f576040517f08c379a0000000000000000000000000000000000000000000000000000000008152600401610a4690611d5c565b60405180910390fd5b5f805f6002811115610a6457610a63611ce5565b5b600a5f9054906101000a900460ff166002811115610a8557610a84611ce5565b5b03610d4457610ab25f8054906101000a900473ffffffffffffffffffffffffffffffffffffffff16610e3a565b80925081935050508082610ac69190611db0565b60095f805f9054906101000a900473ffffffffffffffffffffffffffffffffffffffff1673ffffffffffffffffffffffffffffffffffffffff1673ffffffffffffffffffffffffffffffffffffffff1681526020019081526020015f205f828254610b319190611db0565b925050819055508060095f60015f9054906101000a900473ffffffffffffffffffffffffffffffffffffffff1673ffffffffffffffffffffffffffffffffffffffff1673ffffffffffffffffffffffffffffffffffffffff1681526020019081526020015f205f828254610ba59190611df1565b92505081905550610bd660015f9054906101000a900473ffffffffffffffffffffffffffffffffffffffff16610e3a565b80925081935050508082610bea9190611db0565b60095f60015f9054906101000a900473ffffffffffffffffffffffffffffffffffffffff1673ffffffffffffffffffffffffffffffffffffffff1673ffffffffffffffffffffffffffffffffffffffff1681526020019081526020015f205f828254610c569190611db0565b925050819055508060095f805f9054906101000a900473ffffffffffffffffffffffffffffffffffffffff1673ffffffffffffffffffffffffffffffffffffffff1673ffffffffffffffffffffffffffffffffffffffff1681526020019081526020015f205f828254610cc99190611df1565b925050819055506040518060400160405280600981526020017f61667465726e6f6f6e000000000000000000000000000000000000000000000081525060039081610d149190611fb3565b506001600a5f6101000a81548160ff02191690836002811115610d3a57610d39611ce5565b5b0217905550610e36565b60016002811115610d5857610d57611ce5565b5b600a5f9054906101000a900460ff166002811115610d7957610d78611ce5565b5b03610df2576040518060400160405280600a81526020017f656e642d6f662d6461790000000000000000000000000000000000000000000081525060039081610dc29190611fb3565b506002600a5f6101000a81548160ff02191690836002811115610de857610de7611ce5565b5b0217905550610e35565b600280811115610e0557610e04611ce5565b5b600a5f9054906101000a900460ff166002811115610e2657610e25611ce5565b5b03610e3457610e33610fbf565b5b5b5b5050565b5f805f805f60075f8773ffffffffffffffffffffffffffffffffffffffff1673ffffffffffffffffffffffffffffffffffffffff1681526020019081526020015f2090505f5b8180549050811015610fb0575f828281548110610ea057610e9f612082565b5b905f5260205f20015f9054906101000a900473ffffffffffffffffffffffffffffffffffffffff1690505f808273ffffffffffffffffffffffffffffffffffffffff166359705f816040518163ffffffff1660e01b81526004015f60405180830381865afa158015610f14573d5f803e3d5ffd5b505050506040513d5f823e3d601f19601f82011682018060405250810190610f3c9190611876565b5095505050935050508015610f9a57606460055483610f5b91906120af565b610f659190612152565b87610f709190611db0565b9650606460065483610f8291906120af565b610f8c9190612152565b86610f979190611db0565b95505b5050508080610fa8906121ba565b915050610e80565b50828294509450505050915091565b610fe75f8054906101000a900473ffffffffffffffffffffffffffffffffffffffff16611013565b61101160015f9054906101000a900473ffffffffffffffffffffffffffffffffffffffff16611013565b565b5f5b60075f8373ffffffffffffffffffffffffffffffffffffffff1673ffffffffffffffffffffffffffffffffffffffff1681526020019081526020015f2080549050811015611247575f8060075f8573ffffffffffffffffffffffffffffffffffffffff1673ffffffffffffffffffffffffffffffffffffffff1681526020019081526020015f2083815481106110ae576110ad612082565b5b905f5260205f20015f9054906101000a900473ffffffffffffffffffffffffffffffffffffffff1673ffffffffffffffffffffffffffffffffffffffff166359705f816040518163ffffffff1660e01b81526004015f60405180830381865afa15801561111d573d5f803e3d5ffd5b505050506040513d5f823e3d601f19601f820116820180604052508101906111459190611876565b50955050945050505080801561115b57505f8251145b156112325760075f8573ffffffffffffffffffffffffffffffffffffffff1673ffffffffffffffffffffffffffffffffffffffff1681526020019081526020015f2083815481106111af576111ae612082565b5b905f5260205f20015f9054906101000a900473ffffffffffffffffffffffffffffffffffffffff1673ffffffffffffffffffffffffffffffffffffffff16635c8cf7506040518163ffffffff1660e01b81526004015f604051808303815f87803b15801561121b575f80fd5b505af115801561122d573d5f803e3d5ffd5b505050505b5050808061123f906121ba565b915050611015565b5050565b5f81519050919050565b5f82825260208201905092915050565b5f5b83811015611282578082015181840152602081019050611267565b5f8484015250505050565b5f601f19601f8301169050919050565b5f6112a78261124b565b6112b18185611255565b93506112c1818560208601611265565b6112ca8161128d565b840191505092915050565b5f6020820190508181035f8301526112ed818461129d565b905092915050565b5f73ffffffffffffffffffffffffffffffffffffffff82169050919050565b5f61131e826112f5565b9050919050565b61132e81611314565b82525050565b5f6020820190506113475f830184611325565b92915050565b5f604051905090565b5f80fd5b5f80fd5b61136781611314565b8114611371575f80fd5b50565b5f813590506113828161135e565b92915050565b5f819050919050565b61139a81611388565b81146113a4575f80fd5b50565b5f813590506113b581611391565b92915050565b5f80604083850312156113d1576113d0611356565b5b5f6113de85828601611374565b92505060206113ef858286016113a7565b9150509250929050565b5f819050919050565b5f61141c611417611412846112f5565b6113f9565b6112f5565b9050919050565b5f61142d82611402565b9050919050565b5f61143e82611423565b9050919050565b61144e81611434565b82525050565b5f6020820190506114675f830184611445565b92915050565b5f6020828403121561148257611481611356565b5b5f61148f84828501611374565b91505092915050565b5f6114a282611423565b9050919050565b6114b281611498565b82525050565b5f6020820190506114cb5f8301846114a9565b92915050565b7f4e487b71000000000000000000000000000000000000000000000000000000005f52602260045260245ffd5b5f600282049050600182168061151557607f821691505b602082108103611528576115276114d1565b5b50919050565b5f81905092915050565b5f819050815f5260205f209050919050565b5f8154611556816114fe565b611560818661152e565b9450600182165f811461157a576001811461158f576115c1565b60ff19831686528115158202860193506115c1565b61159885611538565b5f5b838110156115b95781548189015260018201915060208101905061159a565b838801955050505b50505092915050565b5f6115d5828461154a565b915081905092915050565b7f43616e6e6f7420736574746c6520647572696e6720656e642d6f662d6461792e5f82015250565b5f611614602083611255565b915061161f826115e0565b602082019050919050565b5f6020820190508181035f83015261164181611608565b9050919050565b5f819050815f5260205f209050919050565b5f8154611666816114fe565b6116708186611255565b9450600182165f811461168a57600181146116a0576116d2565b60ff1983168652811515602002860193506116d2565b6116a985611648565b5f5b838110156116ca578154818901526001820191506020810190506116ab565b808801955050505b50505092915050565b5f6020820190508181035f8301526116f3818461165a565b905092915050565b5f815190506117098161135e565b92915050565b5f8151905061171d81611391565b92915050565b5f80fd5b5f80fd5b7f4e487b71000000000000000000000000000000000000000000000000000000005f52604160045260245ffd5b6117618261128d565b810181811067ffffffffffffffff821117156117805761177f61172b565b5b80604052505050565b5f61179261134d565b905061179e8282611758565b919050565b5f67ffffffffffffffff8211156117bd576117bc61172b565b5b6117c68261128d565b9050602081019050919050565b5f6117e56117e0846117a3565b611789565b90508281526020810184848401111561180157611800611727565b5b61180c848285611265565b509392505050565b5f82601f83011261182857611827611723565b5b81516118388482602086016117d3565b91505092915050565b5f8115159050919050565b61185581611841565b811461185f575f80fd5b50565b5f815190506118708161184c565b92915050565b5f805f805f805f60e0888a03121561189157611890611356565b5b5f61189e8a828b016116fb565b97505060206118af8a828b016116fb565b96505060406118c08a828b0161170f565b955050606088015167ffffffffffffffff8111156118e1576118e061135a565b5b6118ed8a828b01611814565b945050608088015167ffffffffffffffff81111561190e5761190d61135a565b5b61191a8a828b01611814565b93505060a061192b8a828b01611862565b92505060c061193c8a828b01611862565b91505092959891949750929550565b7f5472616e73616374696f6e20697320616c726561647920736574746c6564206f5f8201527f722063616e63656c6c65642e0000000000000000000000000000000000000000602082015250565b5f6119a5602c83611255565b91506119b08261194b565b604082019050919050565b5f6020820190508181035f8301526119d281611999565b9050919050565b7f496e76616c6964207061796f722e0000000000000000000000000000000000005f82015250565b5f611a0d600e83611255565b9150611a18826119d9565b602082019050919050565b5f6020820190508181035f830152611a3a81611a01565b9050919050565b7f496e76616c696420726563697069656e742e00000000000000000000000000005f82015250565b5f611a75601283611255565b9150611a8082611a41565b602082019050919050565b5f6020820190508181035f830152611aa281611a69565b9050919050565b7f5472616e73616374696f6e2063616e6e6f7420626520746f2073656c662e00005f82015250565b5f611add601e83611255565b9150611ae882611aa9565b602082019050919050565b5f6020820190508181035f830152611b0a81611ad1565b9050919050565b7f5472616e73616374696f6e20706572696f64206d69736d617463682e000000005f82015250565b5f611b45601c83611255565b9150611b5082611b11565b602082019050919050565b5f6020820190508181035f830152611b7281611b39565b9050919050565b5f81905092915050565b5f611b8d8261124b565b611b978185611b79565b9350611ba7818560208601611265565b80840191505092915050565b5f611bbe8284611b83565b915081905092915050565b7f5472616e73616374696f6e20666f72207468697320706572696f6420616e64205f8201527f7061796f7220616c7265616479206578697374732e0000000000000000000000602082015250565b5f611c23603583611255565b9150611c2e82611bc9565b604082019050919050565b5f6020820190508181035f830152611c5081611c17565b9050919050565b7f4d6178696d756d206f662074776f207472616e73616374696f6e7320706572205f8201527f706c6179657220616c6c6f7765642e0000000000000000000000000000000000602082015250565b5f611cb1602f83611255565b9150611cbc82611c57565b604082019050919050565b5f6020820190508181035f830152611cde81611ca5565b9050919050565b7f4e487b71000000000000000000000000000000000000000000000000000000005f52602160045260245ffd5b7f416c726561647920617420656e642d6f662d64617900000000000000000000005f82015250565b5f611d46601583611255565b9150611d5182611d12565b602082019050919050565b5f6020820190508181035f830152611d7381611d3a565b9050919050565b5f819050919050565b7f4e487b71000000000000000000000000000000000000000000000000000000005f52601160045260245ffd5b5f611dba82611d7a565b9150611dc583611d7a565b92508282019050828112155f8312168382125f841215161715611deb57611dea611d83565b5b92915050565b5f611dfb82611d7a565b9150611e0683611d7a565b925082820390508181125f8412168282135f851215161715611e2b57611e2a611d83565b5b92915050565b5f6020601f8301049050919050565b5f82821b905092915050565b5f60088302611e7b7fffffffffffffffffffffffffffffffffffffffffffffffffffffffffffffffff82611e40565b611e858683611e40565b95508019841693508086168417925050509392505050565b5f611eb7611eb2611ead84611388565b6113f9565b611388565b9050919050565b5f819050919050565b611ed083611e9d565b611ee4611edc82611ebe565b848454611e4c565b825550505050565b5f90565b611ef8611eec565b611f03818484611ec7565b505050565b5b81811015611f2657611f1b5f82611ef0565b600181019050611f09565b5050565b601f821115611f6b57611f3c81611648565b611f4584611e31565b81016020851015611f54578190505b611f68611f6085611e31565b830182611f08565b50505b505050565b5f82821c905092915050565b5f611f8b5f1984600802611f70565b1980831691505092915050565b5f611fa38383611f7c565b9150826002028217905092915050565b611fbc8261124b565b67ffffffffffffffff811115611fd557611fd461172b565b5b611fdf82546114fe565b611fea828285611f2a565b5f60209050601f83116001811461201b575f8415612009578287015190505b6120138582611f98565b86555061207a565b601f19841661202986611648565b5f5b828110156120505784890151825560018201915060208501945060208101905061202b565b8683101561206d5784890151612069601f891682611f7c565b8355505b6001600288020188555050505b505050505050565b7f4e487b71000000000000000000000000000000000000000000000000000000005f52603260045260245ffd5b5f6120b982611d7a565b91506120c483611d7a565b92508282026120d281611d7a565b91507f800000000000000000000000000000000000000000000000000000000000000084145f8412161561210957612108611d83565b5b828205841483151761211e5761211d611d83565b5b5092915050565b7f4e487b71000000000000000000000000000000000000000000000000000000005f52601260045260245ffd5b5f61215c82611d7a565b915061216783611d7a565b92508261217757612176612125565b5b60015f0383147f8000000000000000000000000000000000000000000000000000000000000000831416156121af576121ae611d83565b5b828205905092915050565b5f6121c482611388565b91507fffffffffffffffffffffffffffffffffffffffffffffffffffffffffffffffff82036121f6576121f5611d83565b5b60018201905091905056fea26469706673582212208829b611d64236da88d5afa804feb672994fdc096ede11650d83f1fd51aa832364736f6c63430008140033",
  "immutableReferences": {},
  "source": "// SPDX-License-Identifier: MIT\npragma solidity ^0.8.20;\n\nimport \"./CBDC.sol\";\n\ninterface ITransactionContract {\n    function settleTransaction(string memory _settlementPeriod) external;\n    function cancelTransaction() external;\n    function getTransaction() external view returns (address, address, uint256, string memory, string memory, bool, bool);\n}\n\n// interface IICF {\n//     function transferCBDC(address fromPlayer, address toPlayer, uint256 amount) external;\n//     function checkCBDCBalance(address account) external returns(uint256);\n// }\n\ncontract System {\n    address public player1;\n    address public player2;\n    address public icf;\n    // IICF public icf_contract;\n    string public currentPeriod;\n    CBDC public cbdcToken;\n    uint256 delayCost;\n    uint256 additionalDelayCost;\n\n    mapping(address => ITransactionContract[]) public playerTransactions;\n    mapping(address => mapping(string => bool)) private periodTransactionExists;\n    mapping(address => int256) private delayCostOrCredit;\n\n    enum Period { Morning, Afternoon, EndOfDay }\n    Period private periodState = Period.Morning;\n\n    constructor(address _player1, address _player2, address _icf, address _cbdcToken, uint256 _delayCost, uint256 _additionalDelayCost) {\n        player1 = _player1;\n        player2 = _player2;\n        icf = _icf;\n        currentPeriod = \"morning\";\n        cbdcToken = CBDC(_cbdcToken);\n        delayCost= _delayCost;\n        additionalDelayCost = _additionalDelayCost;\n    }\n\n    function nextPeriod() public {\n        require(periodState != Period.EndOfDay, \"Already at end-of-day\");\n        int256 delayCostAmount;\n        int256 additionalDelayCostAmount;\n        if (periodState == Period.Morning) {\n            // calculate delay costs at the end of the morning period\n            (delayCostAmount, additionalDelayCostAmount) = calculateDelayPenalties(player1);\n            delayCostOrCredit[player1] += delayCostAmount + additionalDelayCostAmount;\n            delayCostOrCredit[player2] -= additionalDelayCostAmount;\n            (delayCostAmount, additionalDelayCostAmount) = calculateDelayPenalties(player2);\n            delayCostOrCredit[player2] += delayCostAmount + additionalDelayCostAmount;\n            delayCostOrCredit[player1] -= additionalDelayCostAmount;\n\n            currentPeriod = \"afternoon\";\n            periodState = Period.Afternoon;\n        } else if (periodState == Period.Afternoon) {\n            currentPeriod = \"end-of-day\";\n            periodState = Period.EndOfDay;\n        } else if (periodState == Period.EndOfDay) {\n            cancelUnsettledTransactions();\n        }\n    }\n\n    function loadTransactionContract(address transactionAddress) public {\n        ITransactionContract transaction = ITransactionContract(transactionAddress);\n        (address payor, address recipient,, string memory creationPeriod,, bool isOpen,) = transaction.getTransaction();\n\n        require(isOpen, \"Transaction is already settled or cancelled.\");\n        require((payor == player1 || payor == player2), \"Invalid payor.\");\n        require((recipient == player1 || recipient == player2), \"Invalid recipient.\");\n        require((player1 != player2), \"Transaction cannot be to self.\");\n        require(keccak256(bytes(creationPeriod)) == keccak256(bytes(currentPeriod)), \"Transaction period mismatch.\");\n        require(!periodTransactionExists[payor][creationPeriod], \"Transaction for this period and payor already exists.\");\n        require(playerTransactions[payor].length < 2, \"Maximum of two transactions per player allowed.\");\n\n        playerTransactions[payor].push(transaction);\n        periodTransactionExists[payor][creationPeriod] = true;\n    }\n\n    function settleTransaction(address transactionAddress) public {\n        require(keccak256(bytes(currentPeriod)) != keccak256(bytes(\"end-of-day\")), \"Cannot settle during end-of-day.\");\n        ITransactionContract transaction = ITransactionContract(transactionAddress);\n        transaction.settleTransaction(currentPeriod);\n    }\n\n    function cancelUnsettledTransactions() private {\n        cancelPlayerTransactions(player1);\n        cancelPlayerTransactions(player2);\n    }\n\n    function cancelPlayerTransactions(address player) private {\n        for (uint i = 0; i < playerTransactions[player].length; i++) {\n            (,,, string memory settlementPeriod,, bool isOpen,) = playerTransactions[player][i].getTransaction();\n            if (isOpen && bytes(settlementPeriod).length == 0) {\n                playerTransactions[player][i].cancelTransaction();\n            }\n        }\n    }\n\n    // function to redistribute liquidity at the end of the day\n    function eodRebalance() private {\n        require(keccak256(bytes(currentPeriod)) == keccak256(bytes(\"afternoon\")), \"This function can only be executed right before EOD.\");\n        \n        // Process rebalance for each player\n        _processRebalanceForPlayer(player1);\n        _processRebalanceForPlayer(player2);\n    }\n\n    // Internal function to process rebalance for a given player\n    function _processRebalanceForPlayer(address player) internal {\n        // address[] memory transactions = playerTransactions[player];\n        ITransactionContract[] storage transactions = playerTransactions[player];\n        address[] memory tempTransactions = new address[](transactions.length);\n        for (uint j = 0; j < transactions.length; j++) {\n            tempTransactions[j] = address(transactions[j]);\n        }\n\n        for (uint j = 0; j < tempTransactions.length; j++) {\n            ITransactionContract transaction = ITransactionContract(tempTransactions[j]);\n            (address payor, address recipient, uint256 amount,,, bool isOpen,) = transaction.getTransaction();\n\n            // Check if the transaction is open\n            if (isOpen) {\n                // Check if payor has sufficient CBDC tokens\n                if (cbdcToken.balanceOf(payor) < amount) {\n                    // Check if recipient has sufficient CBDC tokens\n                    if (cbdcToken.balanceOf(recipient) >= amount) {\n                        // Transfer CBDC tokens from recipient to payor\n                        cbdcToken.transferFrom(recipient, payor, amount);\n\n                        // Settle the transaction\n                        transaction.settleTransaction(\"end-of-day\");\n                    }\n                }\n            }\n        }\n    }\n\n    function calculateDelayPenalties(address player) internal view returns(int256, int256){\n        int256 totalDelayCost;\n        int256 totalAdditionaDelayCost;\n        ITransactionContract[] storage transactions = playerTransactions[player];\n        for (uint i = 0; i < transactions.length; i++) {\n            ITransactionContract transaction = transactions[i];\n            (,, uint256 amount,,, bool isOpen,) = transaction.getTransaction();\n            if (isOpen) {\n                totalDelayCost += (int256(amount) * int256(delayCost))/100;\n                totalAdditionaDelayCost += (int256(amount) * int256(additionalDelayCost))/100;\n            }\n        }\n        return (totalDelayCost, totalAdditionaDelayCost);\n    }\n}\n",
  "sourcePath": "/Users/kennethsee/Documents/GitHub/IntradayLiquidityManagementGameBlockchain/contracts/System.sol",
  "compiler": {
    "name": "solc",
    "version": "0.8.20+commit.a1b79de6.Emscripten.clang"
  },
  "schemaVersion": "3.4.13",
  "updatedAt": "2023-11-21T05:31:47.314Z",
  "devdoc": {
    "kind": "dev",
    "methods": {},
    "version": 1
  },
  "userdoc": {
    "kind": "user",
    "methods": {},
    "version": 1
  }
}