{
  "contractName": "TransactionContract",
  "abi": [
    {
      "inputs": [
        {
          "internalType": "address",
          "name": "_cbdcTokenAddress",
          "type": "address"
        },
        {
          "internalType": "address",
          "name": "_payor",
          "type": "address"
        },
        {
          "internalType": "address",
          "name": "_recipient",
          "type": "address"
        },
        {
          "internalType": "uint256",
          "name": "_amount",
          "type": "uint256"
        },
        {
          "internalType": "string",
          "name": "_creationPeriod",
          "type": "string"
        }
      ],
      "stateMutability": "nonpayable",
      "type": "constructor"
    },
    {
      "anonymous": false,
      "inputs": [],
      "name": "TransactionCancelled",
      "type": "event"
    },
    {
      "anonymous": false,
      "inputs": [
        {
          "indexed": true,
          "internalType": "address",
          "name": "payor",
          "type": "address"
        },
        {
          "indexed": true,
          "internalType": "address",
          "name": "recipient",
          "type": "address"
        },
        {
          "indexed": false,
          "internalType": "uint256",
          "name": "amount",
          "type": "uint256"
        },
        {
          "indexed": false,
          "internalType": "string",
          "name": "creationPeriod",
          "type": "string"
        }
      ],
      "name": "TransactionCreated",
      "type": "event"
    },
    {
      "anonymous": false,
      "inputs": [
        {
          "indexed": false,
          "internalType": "string",
          "name": "settlementPeriod",
          "type": "string"
        }
      ],
      "name": "TransactionSettled",
      "type": "event"
    },
    {
      "inputs": [],
      "name": "cbdcToken",
      "outputs": [
        {
          "internalType": "contract IERC20",
          "name": "",
          "type": "address"
        }
      ],
      "stateMutability": "view",
      "type": "function"
    },
    {
      "inputs": [],
      "name": "transaction",
      "outputs": [
        {
          "internalType": "address",
          "name": "payor",
          "type": "address"
        },
        {
          "internalType": "address",
          "name": "recipient",
          "type": "address"
        },
        {
          "internalType": "uint256",
          "name": "amount",
          "type": "uint256"
        },
        {
          "internalType": "string",
          "name": "creationPeriod",
          "type": "string"
        },
        {
          "internalType": "string",
          "name": "settlementPeriod",
          "type": "string"
        },
        {
          "internalType": "bool",
          "name": "isOpen",
          "type": "bool"
        },
        {
          "internalType": "bool",
          "name": "isCancelled",
          "type": "bool"
        }
      ],
      "stateMutability": "view",
      "type": "function"
    },
    {
      "inputs": [
        {
          "internalType": "string",
          "name": "_settlementPeriod",
          "type": "string"
        }
      ],
      "name": "settleTransaction",
      "outputs": [],
      "stateMutability": "nonpayable",
      "type": "function"
    },
    {
      "inputs": [],
      "name": "cancelTransaction",
      "outputs": [],
      "stateMutability": "nonpayable",
      "type": "function"
    },
    {
      "inputs": [],
      "name": "getTransaction",
      "outputs": [
        {
          "internalType": "address",
          "name": "",
          "type": "address"
        },
        {
          "internalType": "address",
          "name": "",
          "type": "address"
        },
        {
          "internalType": "uint256",
          "name": "",
          "type": "uint256"
        },
        {
          "internalType": "string",
          "name": "",
          "type": "string"
        },
        {
          "internalType": "string",
          "name": "",
          "type": "string"
        },
        {
          "internalType": "bool",
          "name": "",
          "type": "bool"
        },
        {
          "internalType": "bool",
          "name": "",
          "type": "bool"
        }
      ],
      "stateMutability": "view",
      "type": "function"
    },
    {
      "inputs": [
        {
          "internalType": "address",
          "name": "systemContract",
          "type": "address"
        }
      ],
      "name": "loadIntoSystemContract",
      "outputs": [],
      "stateMutability": "nonpayable",
      "type": "function"
    }
  ],
  "bytecode": "0x608060405234801562000010575f80fd5b50604051620019f6380380620019f6833981810160405281019062000036919062000481565b845f806101000a81548173ffffffffffffffffffffffffffffffffffffffff021916908373ffffffffffffffffffffffffffffffffffffffff1602179055506040518060e001604052808573ffffffffffffffffffffffffffffffffffffffff1681526020018473ffffffffffffffffffffffffffffffffffffffff16815260200183815260200182815260200160405180602001604052805f81525081526020016001151581526020015f151581525060015f820151815f015f6101000a81548173ffffffffffffffffffffffffffffffffffffffff021916908373ffffffffffffffffffffffffffffffffffffffff1602179055506020820151816001015f6101000a81548173ffffffffffffffffffffffffffffffffffffffff021916908373ffffffffffffffffffffffffffffffffffffffff16021790555060408201518160020155606082015181600301908162000194919062000752565b506080820151816004019081620001ac919062000752565b5060a0820151816005015f6101000a81548160ff02191690831515021790555060c08201518160050160016101000a81548160ff0219169083151502179055509050508273ffffffffffffffffffffffffffffffffffffffff168473ffffffffffffffffffffffffffffffffffffffff167fe0194f1ab5f5896441880a5bd0d2d549e1721bfdb4d5380f86514a5a17b3935584846040516200025092919062000897565b60405180910390a35050505050620008c9565b5f604051905090565b5f80fd5b5f80fd5b5f73ffffffffffffffffffffffffffffffffffffffff82169050919050565b5f6200029f8262000274565b9050919050565b620002b18162000293565b8114620002bc575f80fd5b50565b5f81519050620002cf81620002a6565b92915050565b5f819050919050565b620002e981620002d5565b8114620002f4575f80fd5b50565b5f815190506200030781620002de565b92915050565b5f80fd5b5f80fd5b5f601f19601f8301169050919050565b7f4e487b71000000000000000000000000000000000000000000000000000000005f52604160045260245ffd5b6200035d8262000315565b810181811067ffffffffffffffff821117156200037f576200037e62000325565b5b80604052505050565b5f6200039362000263565b9050620003a1828262000352565b919050565b5f67ffffffffffffffff821115620003c357620003c262000325565b5b620003ce8262000315565b9050602081019050919050565b5f5b83811015620003fa578082015181840152602081019050620003dd565b5f8484015250505050565b5f6200041b6200041584620003a6565b62000388565b9050828152602081018484840111156200043a576200043962000311565b5b62000447848285620003db565b509392505050565b5f82601f8301126200046657620004656200030d565b5b81516200047884826020860162000405565b91505092915050565b5f805f805f60a086880312156200049d576200049c6200026c565b5b5f620004ac88828901620002bf565b9550506020620004bf88828901620002bf565b9450506040620004d288828901620002bf565b9350506060620004e588828901620002f7565b925050608086015167ffffffffffffffff81111562000509576200050862000270565b5b62000517888289016200044f565b9150509295509295909350565b5f81519050919050565b7f4e487b71000000000000000000000000000000000000000000000000000000005f52602260045260245ffd5b5f60028204905060018216806200057357607f821691505b6020821081036200058957620005886200052e565b5b50919050565b5f819050815f5260205f209050919050565b5f6020601f8301049050919050565b5f82821b905092915050565b5f60088302620005ed7fffffffffffffffffffffffffffffffffffffffffffffffffffffffffffffffff82620005b0565b620005f98683620005b0565b95508019841693508086168417925050509392505050565b5f819050919050565b5f6200063a620006346200062e84620002d5565b62000611565b620002d5565b9050919050565b5f819050919050565b62000655836200061a565b6200066d620006648262000641565b848454620005bc565b825550505050565b5f90565b6200068362000675565b620006908184846200064a565b505050565b5b81811015620006b757620006ab5f8262000679565b60018101905062000696565b5050565b601f8211156200070657620006d0816200058f565b620006db84620005a1565b81016020851015620006eb578190505b62000703620006fa85620005a1565b83018262000695565b50505b505050565b5f82821c905092915050565b5f620007285f19846008026200070b565b1980831691505092915050565b5f62000742838362000717565b9150826002028217905092915050565b6200075d8262000524565b67ffffffffffffffff81111562000779576200077862000325565b5b6200078582546200055b565b62000792828285620006bb565b5f60209050601f831160018114620007c8575f8415620007b3578287015190505b620007bf858262000735565b8655506200082e565b601f198416620007d8866200058f565b5f5b828110156200080157848901518255600182019150602085019450602081019050620007da565b868310156200082157848901516200081d601f89168262000717565b8355505b6001600288020188555050505b505050505050565b6200084181620002d5565b82525050565b5f82825260208201905092915050565b5f620008638262000524565b6200086f818562000847565b935062000881818560208601620003db565b6200088c8162000315565b840191505092915050565b5f604082019050620008ac5f83018562000836565b8181036020830152620008c0818462000857565b90509392505050565b61111f80620008d75f395ff3fe608060405234801561000f575f80fd5b5060043610610060575f3560e01c806359705f81146100645780635c8cf75014610088578063a556fabf14610092578063c99de57e146100ae578063e045761b146100d2578063e10173b6146100ee575b5f80fd5b61006c61010c565b60405161007f979695949392919061094e565b60405180910390f35b6100906102bc565b005b6100ac60048036038101906100a79190610a04565b610475565b005b6100b66104e3565b6040516100c9979695949392919061094e565b60405180910390f35b6100ec60048036038101906100e79190610b5b565b610675565b005b6100f6610830565b6040516101039190610bfd565b60405180910390f35b5f805f6060805f8060015f015f9054906101000a900473ffffffffffffffffffffffffffffffffffffffff16600180015f9054906101000a900473ffffffffffffffffffffffffffffffffffffffff166001600201546001600301600160040160016005015f9054906101000a900460ff16600160050160019054906101000a900460ff1683805461019d90610c43565b80601f01602080910402602001604051908101604052809291908181526020018280546101c990610c43565b80156102145780601f106101eb57610100808354040283529160200191610214565b820191905f5260205f20905b8154815290600101906020018083116101f757829003601f168201915b5050505050935082805461022790610c43565b80601f016020809104026020016040519081016040528092919081815260200182805461025390610c43565b801561029e5780601f106102755761010080835404028352916020019161029e565b820191905f5260205f20905b81548152906001019060200180831161028157829003601f168201915b50505050509250965096509650965096509650965090919293949596565b60016005015f9054906101000a900460ff1661030d576040517f08c379a000000000000000000000000000000000000000000000000000000000815260040161030490610ce3565b60405180910390fd5b5f60016005015f6101000a81548160ff02191690831515021790555060018060050160016101000a81548160ff0219169083151502179055505f8054906101000a900473ffffffffffffffffffffffffffffffffffffffff1673ffffffffffffffffffffffffffffffffffffffff1663a9059cbb60015f015f9054906101000a900473ffffffffffffffffffffffffffffffffffffffff166001600201546040518363ffffffff1660e01b81526004016103c8929190610d01565b6020604051808303815f875af11580156103e4573d5f803e3d5ffd5b505050506040513d601f19601f820116820180604052508101906104089190610d52565b610447576040517f08c379a000000000000000000000000000000000000000000000000000000000815260040161043e90610dc7565b60405180910390fd5b7f509aa6ff520579f8b18330e8ee30b3df1a12ec7edd39d052c6eacebd2eb9df0060405160405180910390a1565b5f8190508073ffffffffffffffffffffffffffffffffffffffff1663c09a0441306040518263ffffffff1660e01b81526004016104b29190610de5565b5f604051808303815f87803b1580156104c9575f80fd5b505af11580156104db573d5f803e3d5ffd5b505050505050565b6001805f015f9054906101000a900473ffffffffffffffffffffffffffffffffffffffff1690806001015f9054906101000a900473ffffffffffffffffffffffffffffffffffffffff169080600201549080600301805461054390610c43565b80601f016020809104026020016040519081016040528092919081815260200182805461056f90610c43565b80156105ba5780601f10610591576101008083540402835291602001916105ba565b820191905f5260205f20905b81548152906001019060200180831161059d57829003601f168201915b5050505050908060040180546105cf90610c43565b80601f01602080910402602001604051908101604052809291908181526020018280546105fb90610c43565b80156106465780601f1061061d57610100808354040283529160200191610646565b820191905f5260205f20905b81548152906001019060200180831161062957829003601f168201915b505050505090806005015f9054906101000a900460ff16908060050160019054906101000a900460ff16905087565b60016005015f9054906101000a900460ff166106c6576040517f08c379a00000000000000000000000000000000000000000000000000000000081526004016106bd90610ce3565b60405180910390fd5b5f60016005015f6101000a81548160ff02191690831515021790555080600160040190816106f49190610f92565b505f8054906101000a900473ffffffffffffffffffffffffffffffffffffffff1673ffffffffffffffffffffffffffffffffffffffff1663a9059cbb600180015f9054906101000a900473ffffffffffffffffffffffffffffffffffffffff166001600201546040518363ffffffff1660e01b8152600401610777929190610d01565b6020604051808303815f875af1158015610793573d5f803e3d5ffd5b505050506040513d601f19601f820116820180604052508101906107b79190610d52565b6107f6576040517f08c379a00000000000000000000000000000000000000000000000000000000081526004016107ed906110ab565b60405180910390fd5b7fe8f6321bf832ef7d13fdf57fec0bb0fd8fb5b3439e562bf42a001dbefbfd246d8160405161082591906110c9565b60405180910390a150565b5f8054906101000a900473ffffffffffffffffffffffffffffffffffffffff1681565b5f73ffffffffffffffffffffffffffffffffffffffff82169050919050565b5f61087c82610853565b9050919050565b61088c81610872565b82525050565b5f819050919050565b6108a481610892565b82525050565b5f81519050919050565b5f82825260208201905092915050565b5f5b838110156108e15780820151818401526020810190506108c6565b5f8484015250505050565b5f601f19601f8301169050919050565b5f610906826108aa565b61091081856108b4565b93506109208185602086016108c4565b610929816108ec565b840191505092915050565b5f8115159050919050565b61094881610934565b82525050565b5f60e0820190506109615f83018a610883565b61096e6020830189610883565b61097b604083018861089b565b818103606083015261098d81876108fc565b905081810360808301526109a181866108fc565b90506109b060a083018561093f565b6109bd60c083018461093f565b98975050505050505050565b5f604051905090565b5f80fd5b5f80fd5b6109e381610872565b81146109ed575f80fd5b50565b5f813590506109fe816109da565b92915050565b5f60208284031215610a1957610a186109d2565b5b5f610a26848285016109f0565b91505092915050565b5f80fd5b5f80fd5b7f4e487b71000000000000000000000000000000000000000000000000000000005f52604160045260245ffd5b610a6d826108ec565b810181811067ffffffffffffffff82111715610a8c57610a8b610a37565b5b80604052505050565b5f610a9e6109c9565b9050610aaa8282610a64565b919050565b5f67ffffffffffffffff821115610ac957610ac8610a37565b5b610ad2826108ec565b9050602081019050919050565b828183375f83830152505050565b5f610aff610afa84610aaf565b610a95565b905082815260208101848484011115610b1b57610b1a610a33565b5b610b26848285610adf565b509392505050565b5f82601f830112610b4257610b41610a2f565b5b8135610b52848260208601610aed565b91505092915050565b5f60208284031215610b7057610b6f6109d2565b5b5f82013567ffffffffffffffff811115610b8d57610b8c6109d6565b5b610b9984828501610b2e565b91505092915050565b5f819050919050565b5f610bc5610bc0610bbb84610853565b610ba2565b610853565b9050919050565b5f610bd682610bab565b9050919050565b5f610be782610bcc565b9050919050565b610bf781610bdd565b82525050565b5f602082019050610c105f830184610bee565b92915050565b7f4e487b71000000000000000000000000000000000000000000000000000000005f52602260045260245ffd5b5f6002820490506001821680610c5a57607f821691505b602082108103610c6d57610c6c610c16565b5b50919050565b7f5472616e73616374696f6e20697320616c726561647920736574746c6564206f5f8201527f722063616e63656c6c65642e0000000000000000000000000000000000000000602082015250565b5f610ccd602c836108b4565b9150610cd882610c73565b604082019050919050565b5f6020820190508181035f830152610cfa81610cc1565b9050919050565b5f604082019050610d145f830185610883565b610d21602083018461089b565b9392505050565b610d3181610934565b8114610d3b575f80fd5b50565b5f81519050610d4c81610d28565b92915050565b5f60208284031215610d6757610d666109d2565b5b5f610d7484828501610d3e565b91505092915050565b7f526566756e64206661696c6564000000000000000000000000000000000000005f82015250565b5f610db1600d836108b4565b9150610dbc82610d7d565b602082019050919050565b5f6020820190508181035f830152610dde81610da5565b9050919050565b5f602082019050610df85f830184610883565b92915050565b5f819050815f5260205f209050919050565b5f6020601f8301049050919050565b5f82821b905092915050565b5f60088302610e5a7fffffffffffffffffffffffffffffffffffffffffffffffffffffffffffffffff82610e1f565b610e648683610e1f565b95508019841693508086168417925050509392505050565b5f610e96610e91610e8c84610892565b610ba2565b610892565b9050919050565b5f819050919050565b610eaf83610e7c565b610ec3610ebb82610e9d565b848454610e2b565b825550505050565b5f90565b610ed7610ecb565b610ee2818484610ea6565b505050565b5b81811015610f0557610efa5f82610ecf565b600181019050610ee8565b5050565b601f821115610f4a57610f1b81610dfe565b610f2484610e10565b81016020851015610f33578190505b610f47610f3f85610e10565b830182610ee7565b50505b505050565b5f82821c905092915050565b5f610f6a5f1984600802610f4f565b1980831691505092915050565b5f610f828383610f5b565b9150826002028217905092915050565b610f9b826108aa565b67ffffffffffffffff811115610fb457610fb3610a37565b5b610fbe8254610c43565b610fc9828285610f09565b5f60209050601f831160018114610ffa575f8415610fe8578287015190505b610ff28582610f77565b865550611059565b601f19841661100886610dfe565b5f5b8281101561102f5784890151825560018201915060208501945060208101905061100a565b8683101561104c5784890151611048601f891682610f5b565b8355505b6001600288020188555050505b505050505050565b7f5472616e73666572206661696c656400000000000000000000000000000000005f82015250565b5f611095600f836108b4565b91506110a082611061565b602082019050919050565b5f6020820190508181035f8301526110c281611089565b9050919050565b5f6020820190508181035f8301526110e181846108fc565b90509291505056fea2646970667358221220fc3f48a82eadc4d38528d1235514e8c90be567c469c176354f10e8018b10b1ee64736f6c63430008140033",
  "immutableReferences": {},
  "source": "// SPDX-License-Identifier: MIT\npragma solidity ^0.8.20;\n\nimport \"@openzeppelin/contracts/token/ERC20/IERC20.sol\";\n\ninterface ISystemContract {\n    function loadTransactionContract(address transactionAddress) external;\n}\n\ncontract TransactionContract {\n    IERC20 public cbdcToken;\n\n    struct Transaction {\n        address payor;\n        address recipient;\n        uint256 amount;\n        string creationPeriod;\n        string settlementPeriod;\n        bool isOpen;\n        bool isCancelled;\n    }\n\n    Transaction public transaction;\n\n    event TransactionCreated(address indexed payor, address indexed recipient, uint256 amount, string creationPeriod);\n    event TransactionSettled(string settlementPeriod);\n    event TransactionCancelled();\n\n    constructor(address _cbdcTokenAddress, address _payor, address _recipient, uint256 _amount, string memory _creationPeriod) {\n        cbdcToken = IERC20(_cbdcTokenAddress);\n        transaction = Transaction({\n            payor: _payor,\n            recipient: _recipient,\n            amount: _amount,\n            creationPeriod: _creationPeriod,\n            settlementPeriod: \"\",\n            isOpen: true,\n            isCancelled: false\n        });\n\n        emit TransactionCreated(_payor, _recipient, _amount, _creationPeriod);\n    }\n\n    function settleTransaction(string memory _settlementPeriod) public {\n        require(transaction.isOpen, \"Transaction is already settled or cancelled.\");\n        transaction.isOpen = false;\n        transaction.settlementPeriod = _settlementPeriod;\n\n        require(cbdcToken.transfer(transaction.recipient, transaction.amount), \"Transfer failed\");\n\n        emit TransactionSettled(_settlementPeriod);\n    }\n\n    function cancelTransaction() public {\n        // require(msg.sender == transaction.payor, \"Only the payor can cancel the transaction.\");\n        require(transaction.isOpen, \"Transaction is already settled or cancelled.\");\n        transaction.isOpen = false;\n        transaction.isCancelled = true;\n\n        require(cbdcToken.transfer(transaction.payor, transaction.amount), \"Refund failed\");\n\n        emit TransactionCancelled();\n    }\n\n    function getTransaction() public view returns (address, address, uint256, string memory, string memory, bool, bool) {\n        return (transaction.payor, transaction.recipient, transaction.amount, transaction.creationPeriod, transaction.settlementPeriod, transaction.isOpen, transaction.isCancelled);\n    }\n\n    // Function to load this contract into a specified systemContract\n    function loadIntoSystemContract(address systemContract) public {\n        ISystemContract system = ISystemContract(systemContract);\n        system.loadTransactionContract(address(this));\n    }\n}\n",
  "sourcePath": "/Users/kennethsee/Documents/GitHub/IntradayLiquidityManagementGameBlockchain/contracts/Transaction.sol",
  "compiler": {
    "name": "solc",
    "version": "0.8.20+commit.a1b79de6.Emscripten.clang"
  },
  "schemaVersion": "3.4.13",
  "updatedAt": "2023-11-21T05:31:59.858Z",
  "devdoc": {
    "kind": "dev",
    "methods": {},
    "version": 1
  },
  "userdoc": {
    "kind": "user",
    "methods": {},
    "version": 1
  }
}